:100000000A128A11EA2F8316031391120A168A150F
:1000100076220A128A1183160313111608003F3044
:1000200083160313CB008030CA000030C9000030B3
:10003000C800AF01B0014708F3004608F2004508C8
:10004000F1004408F0000030F7000030F600003006
:10005000F5000030F4000A168A155C260A128A118F
:10006000031833283428632A4528831603133608D7
:10007000CB003508CA003408C9003308C800013075
:10008000AF070318B00A0030B007413083120313E2
:10009000A3002030A2000030A1000030A000831691
:1000A00003134B0883120313A700831603134A0894
:1000B00083120313A6008316031349088312031344
:1000C000A50083160313480883120313A4000A1221
:1000D0008A15BE240A128A11831203132308831679
:1000E0000313B60083120313220883160313B5000B
:1000F00083120313210883160313B400831203131E
:10010000200883160313B300440883120313D50099
:1001100083160313450883120313D60083160313B3
:10012000460883120313D70083160313470883126C
:100130000313D80083160313330883120313D50265
:10014000831603133408031C340FA728AA2883122C
:100150000313D602831603133508031C350FB12889
:10016000B42883120313D702831603133608031C23
:10017000360FBB28BE2883120313D802831603133D
:10018000831203135808F3005708F2005608F100D1
:100190005508F0000A168A15D0220A128A11F31B9C
:1001A000E1287308031DE2287208031DE228710884
:1001B000031DE22802307002031DDE28031CE12823
:1001C000E228352883160313360883120313B80078
:1001D00083160313350883120313B7008316031322
:1001E000340883120313B6008316031333088312F3
:1001F0000313B50083160313470883120313BC00CF
:1002000083160313460883120313BB0083160313DC
:10021000450883120313BA0083160313440883129C
:100220000313B9000A168A119B200A128A11031CB3
:100230001A291B2935288316031344088312031334
:10024000D50083160313450883120313D6008316C3
:100250000313460883120313D700831603134708BA
:1002600083120313D8008316031348088312031361
:10027000D502831603134908031C490F402943295B
:1002800083120313D602831603134A08031C4A0F72
:100290004A294D2983120313D702831603134B08EF
:1002A000031C4B0F5429572983120313D8028316BA
:1002B0000313831203135808F3005708F20056087B
:1002C000F1005508F0000A168A15D0220A128A1188
:1002D000F31B7B297308031D7A297208031D7A29F1
:1002E0007108031D7A2902307002031D7729031853
:1002F0007A297B292A2A831603134B08C7004A0848
:10030000C6004908C5004808C400632A413083126A
:100310000313A3002030A2000030A1000030A00091
:10032000831603134B0883120313A70083160313CA
:100330004A0883120313A600831603134908831285
:100340000313A50083160313480883120313A400A4
:100350000A128A1598200A128A118312031323089D
:1003600083160313CB00831203132208831603138F
:10037000CA0083120313210883160313C9008312D2
:100380000313200883160313C800FF30AF070318B8
:10039000B00AFF30B007440883120313D500831658
:1003A0000313450883120313D6008316031346086C
:1003B00083120313D7008316031347088312031312
:1003C000D80083160313480883120313D50283163B
:1003D00003134908031C490FEE29F1298312031363
:1003E000D602831603134A08031C4A0FF829FB2977
:1003F00083120313D702831603134B08031C4B0FFE
:10040000022A052A83120313D802831603138312C8
:1004100003135808F3005708F2005608F100550876
:10042000F0000A168A15D0220A128A11F31B292A13
:100430007308031D282A7208031D282A7108031D4A
:10044000282A02307002031D252A0318282A292A87
:100450002A2A7B2983160313470883120313B80043
:1004600083160313460883120313B700831603137E
:10047000450883120313B60083160313440883123E
:100480000313B500831603134B0883120313BC0038
:10049000831603134A0883120313BB008316031346
:1004A000490883120313BA00831603134808831202
:1004B0000313B9000A168A119B200A128A11031C21
:1004C000622A632A862983120313540883160313AE
:1004D000A9002908AA00E71B6E2A6F2A742A670858
:1004E000A3006608A200782A0630A2000030A3000C
:1004F0002308AE002208AD000130AD070318AE0A94
:100500000030AE0766302A06031D872A882AA22AF1
:10051000B01F8B2A8C2A962A3F30CB008030CA002D
:100520000030C9000030C800AF01B00167302906B3
:1005300003199B2A9C2AA22A2F08AD070318AE0A8A
:100540003008AE07B701B8014708BC004608BB0039
:100550004508BA004408B9004B08B6004A08B5007F
:100560004908B4004808B300EF2B831603134B0867
:1005700083120313A300831603134A088312031381
:10058000A20083160313490883120313A1008316E4
:100590000313480883120313A000831603133C08B7
:1005A00083120313A700831603133B08831203135C
:1005B000A600831603133A0883120313A5008316BB
:1005C0000313390883120313A4000A128A15982012
:1005D0000A128A11831203132308BD002208BC00EB
:1005E0002108BB002008BA000A168A11EC230A125F
:1005F0008A11831203133D0883160313C00083126C
:1006000003133C0883160313BF00831203133B0834
:1006100083160313BE00831203133A0883160313D1
:10062000BD00400883120313B800831603133F086C
:1006300083120313B700831603133E0883120313B8
:10064000B600831603133D0883120313B5000A1680
:100650008A15FD260A128A1183120313360883169F
:100660000313AC0083120313350883160313AB0086
:100670004B0883120313A700831603134A0883123F
:100680000313A60083160313490883120313A5005E
:1006900083160313480883120313A400831603135D
:1006A000400883120313A300831603133F08831229
:1006B0000313A200831603133E0883120313A10041
:1006C000831603133D0883120313A0000A128A1530
:1006D000BE240A128A11831203132308B8002208C9
:1006E000B7002108B6002008B500831603133C08A4
:1006F00083120313BC00831603133B0883120313F6
:10070000BB00831603133A0883120313BA0083163F
:100710000313390883120313B9000A168A15DC2360
:100720000A128A1183120313380883160313BC00BC
:1007300083120313370883160313BB0083120313BA
:10074000360883160313BA00831203133508831681
:100750000313B900413083120313A3002030A20019
:100760000030A1000030A000831603134B08831251
:100770000313A700831603134A0883120313A6006A
:1007800083160313490883120313A500831603136A
:10079000480883120313A4000A128A1598200A122B
:1007A0008A1183120313230883160313CB008312C9
:1007B0000313220883160313CA00831203132108AC
:1007C00083160313C900831203132008831603132F
:1007D000C8000130B7070318B80A0030B807380856
:1007E000803A83120313D500831603132E08803A30
:1007F000831203135502031D012C831603132D08C6
:100800003702031C042C052CB52A40308312031335
:10081000A300A030A2000030A1000030A000831689
:1008200003134B0883120313A700831603134A080C
:1008300083120313A60083160313490883120313BC
:10084000A50083160313480883120313A4000A1299
:100850008A15BE240A128A118312031323088316F1
:100860000313C00083120313220883160313BF006F
:1008700083120313210883160313BE00831203138C
:10088000200883160313BD003C0883120313B8002D
:10089000831603133B0883120313B7008316031355
:1008A0003A0883120313B600831603133908831220
:1008B0000313B50083160313400883120313BC000F
:1008C000831603133F0883120313BB00831603131D
:1008D0003E0883120313BA00831603133D088312E4
:1008E0000313B9000A168A119B200A128A110318F1
:1008F0007A2C7B2C862C003083160313C00000302A
:10090000BF000030BE000030BD00AF2C83160313C3
:100910003C08F3003B08F2003A08F1003908F00007
:100920004008F7003F08F6003E08F5003D08F400D7
:100930000A168A155C260A128A11031CA02CA12C07
:10094000AF2C831603132B18A62CA72CAF2C00302A
:10095000C0000030BF000030BE000030BD00831674
:1009600003134008F3003F08F2003E08F1003D0881
:10097000F0004708F7004608F6004508F50044086F
:10098000F4000A128A1562220A128A117308831669
:100990000313BC007208BB007108BA007008B900EC
:1009A0003C0883120313B800831603133B08831219
:1009B0000313B700831603133A0883120313B60018
:1009C00083160313390883120313B5004130A300C3
:1009D0002030A2000030A1000030A00083160313D5
:1009E000360883120313A7008316031335088312F6
:1009F0000313A60083160313340883120313A50000
:100A000083160313330883120313A4000A128A15F2
:100A1000BE240A128A11831203132308BC00220881
:100A2000BB002108BA002008B9000A168A119B20D1
:100A30000A128A11031C1D2D1E2D712D01308316E3
:100A40000313AF070318B00A0030B0074130831218
:100A50000313A3002030A2000030A1000030A0004A
:100A600083160313360883120313A7008316031398
:100A7000350883120313A600831603133408831268
:100A80000313A50083160313330883120313A40072
:100A90000A128A15BE240A128A118312031323082C
:100AA00083160313B600831203132208831603135D
:100AB000B50083120313210883160313B4008312B5
:100AC0000313200883160313B30066302A06031DA0
:100AD0006A2D6B2D712D0130AD070318AE0A003061
:100AE000AE07831603133608CB003508CA00340856
:100AF000C9003308C8003008A1002F08A000A801D1
:100B0000A401A501B701B801472F831603134B08B1
:100B100083120313A300831603134A0883120313DB
:100B2000A20083160313490883120313A10083163E
:100B30000313480883120313A000831603133C0811
:100B400083120313A700831603133B0883120313B6
:100B5000A600831603133A0883120313A500831615
:100B60000313390883120313A4000A128A1598206C
:100B70000A128A11831203132308BD002208BC0045
:100B80002108BB002008BA000A168A11EC230A12B9
:100B90008A11831203133D0883160313C0008312C6
:100BA00003133C0883160313BF00831203133B088F
:100BB00083160313BE00831203133A08831603132C
:100BC000BD00400883120313B800831603133F08C7
:100BD00083120313B700831603133E088312031313
:100BE000B600831603133D0883120313B5000A16DB
:100BF0008A15FD260A128A11831203133608803AD9
:100C0000FF0080307F02031D072E0A3035020318D3
:100C10000A2E0B2E352E831603134008831203135E
:100C2000B800831603133F0883120313B70083161B
:100C300003133E0883120313B600831603133D0803
:100C400083120313B5000A168A15FD260A128A11AB
:100C500083120313360883160313AC0083120313A5
:100C6000350883160313AB003B2E0930831603139C
:100C7000AB000030AC002808031D3F2E402E712E23
:100C8000A11F432E442E712E4208103E84002E30A8
:100C9000831780000130C2070318C30A0030C3075E
:100CA000FF30B1070318B20AFF30B2070130A800C5
:100CB000712E4208103E84003030831780000130CE
:100CC000C2070318C30A0030C307FF30B107031877
:100CD000B20AFF30B207FF30A4070318A50AFF309D
:100CE000A50724082504031D762E772E592E4208C9
:100CF000103E84002B08303E831780000130C2076D
:100D00000318C30A0030C307FF30B1070318B20A43
:100D1000FF30B2074B0883120313A7008316031397
:100D20004A0883120313A60083160313490883128B
:100D30000313A50083160313480883120313A400AA
:100D400083160313400883120313A30083160313AF
:100D50003F0883120313A200831603133E08831275
:100D60000313A100831603133D0883120313A0008D
:100D70000A128A15BE240A128A1183120313230849
:100D8000B8002208B7002108B6002008B500831675
:100D900003133C0883120313BC00831603133B08A0
:100DA00083120313BB00831603133A088312031341
:100DB000BA0083160313390883120313B9000A1605
:100DC0008A15DC230A128A1183120313380883164A
:100DD0000313BC0083120313370883160313BB00ED
:100DE00083120313360883160313BA008312031306
:100DF000350883160313B900413083120313A3008F
:100E00002030A2000030A1000030A00083160313A0
:100E10004B0883120313A700831603134A08831297
:100E20000313A60083160313490883120313A500B6
:100E300083160313480883120313A4000A128A15A9
:100E400098200A128A1183120313230883160313AE
:100E5000CB0083120313220883160313CA008312E4
:100E60000313210883160313C900831203132008F8
:100E700083160313C800FF30A0070318A10AFF3030
:100E8000A1070130B7070318B80A0030B8073808BF
:100E9000803A83120313D500831603132E08803A79
:100EA000831203135502031D592F831603132D08B4
:100EB000370203185C2F5D2F6C2F83160313430832
:100EC000803AFF0080307F02031D682F4B304202C2
:100ED000031C6B2F6C2F852D4F3083160313B70027
:100EE0000030B8003708103E8400831780011030AE
:100EF00083120313D50083160313420883120313CE
:100F0000D502831603133708831203135507F00025
:100F10001030F100831603134308F3004208F20077
:100F20000A168A1554230A128A11831603134208DB
:100F30003702C2004308031C430A3802C3004108B9
:100F4000031DA32FA52F0130A62F003083120313FA
:100F5000D500D601550883160313B7008312031377
:100F6000560883160313B80041080319B82FB92F88
:100F7000C52FFF30C2070318C30AFF30C30742085A
:100F8000103E84004108831780003708B1023808FA
:100F9000031CB203B202831203134E08A8004F08C9
:100FA000A900831603134208103E83120313AA00FC
:100FB00083160313320883120313AC008316031342
:100FC000310883120313AB000A168A1594250A12FE
:100FD0008A1108008313DC308400EB300A168A156E
:100FE00045220A128A1183171030840060300A16D5
:100FF0008A1545220A128A1183010A168A11FB2CCE
:10100000FF1B0A2883137F1883170008840A03191B
:10101000FF0A080008308A000408840A82070034A6
:1010200043346F3475346C34643420346E346F342C
:1010300074342034663469346E3464342034733448
:1010400065346E3473346F3472342E342034433448
:101050006834653463346B342034773469347234E3
:1010600069346E3467342E3421340A340D3400343C
:101070004D3450344C3433343134313435344134DC
:1010800032342034743465347334743421340A3483
:101090000D340034743465346D3470346534723416
:1010A0006134743475347234653420343D34203402
:1010B000003461346C347434693474347534643499
:1010C000653420343D342034003470347234653457
:1010D0007334733475347234653420343D342034C1
:1010E000003425342E34323466342034683450349D
:1010F00061340A340D34003425342E3432346634ED
:10110000203443340A340D34003425342E34323440
:10111000663420346D340A340D34003469346E344E
:0C112000663400346E3461346E340034E8
:10112E000800831203132708B1008030B105270889
:10113E00A8002807B800A61FA528A628A728381497
:10114E0038080319AB28AC28BC28380A031DB02870
:10115E00B128B9280030A7000030A6000030A50045
:10116E000030A400A617A701C4280030A700003045
:10117E00A6000030A5000030A40023088039B10677
:10118E002308A8002807B900A21FCE28CF28D028F0
:10119E00391439080319D428D528E528390A031D2E
:1011AE00D928DA28E2280030A3000030A20000304F
:1011BE00A1000030A000A217A301ED280030A3006B
:1011CE000030A2000030A1000030A000230822044D
:1011DE0021042004031DF428F5280C290030A70053
:1011EE000030A6000030A5000030A4008030A60418
:1011FE007F30A7043108A7042708A3002608A20001
:10120E002508A1002408A000612A3808031D102912
:10121E0011291A290030A3000030A2000030A100CD
:10122E000030A000612A3808A800A9012908AB00E7
:10123E0039082802AA00031CAB032A087F3EB2001D
:10124E002B080318013E003EB3002708B000260805
:10125E00AF002508AE002408AD000030A700003016
:10126E00A6000030A5000030A4000030B70000300A
:10127E00B6000030B5000030B400B9018E2939082F
:10128E0003194A294B296B290130A8000310AD0D13
:10129E00AE0DAF0DB00DA80B4D290130A8000310F7
:1012AE00A40DA50DA60DA70DA80B5629B71F6029D5
:1012BE006129622924140130A8000310B40DB50D64
:1012CE00B60DB70DA80B642923083002031D79292A
:1012DE0022082F02031D792921082E02031D7929C8
:1012EE0020082D02031C7C297D298C293717200804
:1012FE00AD022108031C210FAE022208031C220F8F
:10130E00AF022308031C230FB0020130B9071A30B5
:10131E003902031C93299429462930082F042E04E0
:10132E002D0403199B299C29BB293414BB29013098
:10133E00A8000310A40DA50DA60DA70DA80BA0299E
:10134E00B71FAA29AB29AC2924140130A800031019
:10135E00B40DB50DB60DB70DA80BAE29FF30B20703
:10136E000318B30AFF30B307A61FBE29BF299E2953
:10137E00B901B71FC329C429E029FF303405A800DD
:10138E00FF303505A900FF303605AA007F3037053E
:10139E00AB002B082A04290428040319D729D829BD
:1013AE00DB290130B900E029241CDE29DF29E029E0
:1013BE00D82939080319E429E529162A0130A4078A
:1013CE00003003180130A507003003180130A607BE
:1013DE00003003180130A707271CF629F729162A13
:1013EE002408A8002508A9002608AA002708AB0093
:1013FE000130AC002B0DAB0CAA0CA90CA80CAC0B3D
:10140E00012A2B08A7002A08A6002908A5002808EB
:10141E00A4000130B2070318B30A0030B307330833
:10142E00803AFF0080307F02031D1F2AFF303202F8
:10143E00031C222A232A312AFF3083120313B200FF
:10144E000030B3000030A7000030A6000030A50029
:10145E000030A400831203133308803AFF0080305B
:10146E007F02031D3C2A0130320203183F2A402A14
:10147E004D2A83120313B201B3010030A7000030CE
:10148E00A6000030A5000030A400B10183120313A2
:10149E003208B800381C542A552A572AA617592A3A
:1014AE007F30A6053808A8000310280CA7003108C5
:1014BE00A704032908007308F8008030F8057308A4
:1014CE0083120313A0002007FA00F21F6F2A702A5E
:1014DE00712A7A147A080319752A762A862A7A0AC4
:1014EE00031D7A2A7B2A832A0030F3000030F20093
:1014FE000030F1000030F000F217F3018E2A0030B8
:10150E00F3000030F2000030F1000030F0007708F8
:10151E00F9008030F905790878060319972A982A78
:10152E00992A78177708A0002007F900F61FA02A3D
:10153E00A12AA22A791479080319A62AA72AB72A5A
:10154E00790A031DAB2AAC2AB42A0030F70000300A
:10155E00F6000030F5000030F400F617F701BF2A50
:10156E000030F7000030F6000030F5000030F400D7
:10157E007A0879020318C42AC52AE92A781FC82ACC
:10158E00C92ACB2A8030F8067A08FB007908FA00BF
:10159E007B08F9007008FB007408F0007B08F4006B
:1015AE007108FB007508F1007B08F5007208FB005E
:1015BE007608F2007B08F6007308FB007708F3004C
:1015CE007B08F700FB017908A000A1012108A30008
:1015DE007A082002A200031CA3032308803AFF000E
:1015EE0080307F02031DFD2A1A302202031C002BBD
:1015FE00012B382B7308720471047004031D082B21
:10160E000A2B01300B2B0030FB000030F3000030B2
:10161E00F2000030F1000030F0007908FA003E2BA5
:10162E007B1C1A2B1B2B242B7B0883120313A0006D
:10163E000310200C0138FB00262B0310FB0C701C32
:10164E00292B2A2B2B2BFB17013083120313A000FF
:10165E00730DF30CF20CF10CF00CA00B2F2B0130D0
:10166E00FA0779087A02031C3D2B3E2B172B781BA9
:10167E00412B422B8D2B7A08031D462B472B502BCB
:10168E000030F3000030F2000030F1000030F000C6
:10169E00BD2C7408F007750803110318013E0319D9
:1016AE00592BF107760803110318013E0319602B1D
:1016BE00F207770803110318013E0319672BF3078E
:1016CE00731C6A2B6B2B452C7B1C6E2B6F2B782B74
:1016DE007B0883120313A0000310200C0138FB00BB
:1016EE007A2B0310FB0C701C7D2B7E2B7F2BFB1794
:1016FE00013083120313A000730DF30CF20CF10CE6
:10170E00F00CA00B832B0130FA07452C7308803A9E
:10171E00FF007708803A7F02031D9F2B7608720226
:10172E00031D9F2B75087102031D9F2B74087002F9
:10173E000318A22BA32BFC2BFF3083120313A00044
:10174E00FF30A100FF30A200FF30A3007408A400F8
:10175E007508A5007608A6007708A7007008A402F1
:10176E007108031C710FBC2BBD2BA5027208031C44
:10177E00720FC22BC32BA6027308031C730FC82B48
:10178E00C92BA7022408A00725080318250FD02B64
:10179E00D12BA10726080318260FD62BD72BA2076D
:1017AE0027080318270AA3072308F3002208F200CC
:1017BE002108F1002008F0008030F8067B03FF3A84
:1017CE00FB007B08031DEC2BED2B0A2C0130F007E0
:1017DE00003003180130F107003003180130F20712
:1017EE00003003180130F3070A2C7408F002750854
:1017FE00031C750FF1027608031C760FF2027708B0
:10180E00031C770FF3027308720471047004031D36
:10181E00112C122C412C7B08031D162C172C412C3D
:10182E000030F3000030F2000030F1000030F00024
:10183E00BD2C013083120313A0000310F00DF10D27
:10184E00F20DF30DA00B242CFB1F2E2C2F2C302C65
:10185E0070147B1C332C342C382C03147B0DFB00A2
:10186E003A2C0310FB0D7A0803193E2C3F2C412C09
:10187E000130FA02F21F442C452C202CF901FB1FDB
:10188E00492C4A2C582C7B087F3903194F2C502C8D
:10189E00532C0130F900582C701C562C572C582CF8
:1018AE00502C790803195C2C5D2C912C0130F0071B
:1018BE00003003180130F107003003180130F20731
:1018CE00003003180130F307731C6E2C6F2C912C13
:1018DE00700883120313A0007108A1007208A20001
:1018EE007308A3000130A400230DA30CA20CA10CBD
:1018FE00A00CA40B7B2C2308F3002208F200210875
:10190E00F1002008F0007A0A03198E2C8F2C912CEE
:10191E000130FA077A0A0319952C962C9B2C7A081B
:10192E00031D9A2C9B2CA92C0030F3000030F200E2
:10193E000030F1000030F0007A08031DA72CA82C0F
:10194E00A92CF8017A1CAC2CAD2CAF2CF217B12CB3
:10195E007F30F2057A0883120313A0000310200CC7
:10196E00F300F81FBB2CBC2CBD2CF3170800831200
:10197E0003132308A8008030A8052308F90079076F
:10198E00AE00A21FCB2CCC2CCD2C2E142E0803195E
:10199E00D12CD22CE12C2E0A031DD62CD72CDF2CC9
:1019AE000030A3000030A2000030A1000030A000E3
:1019BE00A217E92C0030A3000030A2000030A100D5
:1019CE000030A00027088039A8062708F9007907FB
:1019DE00AD00A61FF32CF42CF52C2D142D08031995
:1019EE00F92CFA2C092D2D0A031DFE2CFF2C072D88
:1019FE000030A7000030A6000030A5000030A40083
:101A0E00A617112D0030A7000030A6000030A5004B
:101A1E000030A4002D080319152D162D1B2D2E0890
:101A2E00031D1A2D1B2D242D0030A3000030A20003
:101A3E000030A1000030A000FF2F2008F000260883
:101A4E000A168A154B240A128A157108831203137B
:101A5E00B4007008B3003308F900FA01FB01FC0171
:101A6E007C08AC007B08AB007A08AA007908A900B4
:101A7E003408F900FA01FB01FC017C08B2007B0876
:101A8E00B1007A08B0007908AF002108F0002508EF
:101A9E000A168A154B240A128A157108831203132B
:101AAE00B4007008B3003308F900FA01FB01FC0121
:101ABE007908A9077A0803110318013E0319682D46
:101ACE00AA077B0803110318013E03196F2DAB07FC
:101ADE007C0803110318013E0319762DAC07340858
:101AEE00F900FA01FB01FC017908AF077A0803112E
:101AFE000318013E0319842DB0077B080311031848
:101B0E00013E03198B2DB1077C0803110318013E0A
:101B1E000319922DB2072208F00024080A168A151E
:101B2E004B240A128A15710883120313B40070082D
:101B3E00B3003308F900FA01FB01FC017908A9078B
:101B4E007A0803110318013E0319AE2DAA077B086C
:101B5E0003110318013E0319B52DAB077C080311C1
:101B6E000318013E0319BC2DAC073408F900FA0125
:101B7E00FB01FC017908AF077A0803110318013E37
:101B8E000319CA2DB0077B0803110318013E031970
:101B9E00D12DB1077C0803110318013E0319D82D6E
:101BAE00B2070830F9000310A90DAA0DAB0DAC0D4C
:101BBE00F90BDA2D2108F00024080A168A154B2499
:101BCE000A128A15710883120313B4007008B30049
:101BDE003308F9003408FA00FB01FC017908A90763
:101BEE007A0803110318013E0319FE2DAA077B087C
:101BFE0003110318013E0319052EAB077C080311D0
:101C0E000318013E03190C2EAC072008F00025081E
:101C1E000A168A154B240A128A15710883120313A9
:101C2E00B4007008B3003308F9003408FA00FB0161
:101C3E00FC017908A9077A0803110318013E03195C
:101C4E00292EAA077B0803110318013E0319302E13
:101C5E00AB077C0803110318013E0319372EAC079E
:101C6E000830F9000310A90DAA0DAB0DAC0DF90B40
:101C7E00392E2008F00024080A168A154B240A1261
:101C8E008A15710883120313B4007008B300330869
:101C9E00F9003408FA00FB01FC017908A9077A085B
:101CAE0003110318013E03195D2EAA077B080311C9
:101CBE000318013E0319642EAB077C0803110318A9
:101CCE00013E03196B2EAC072108F00026080A16F8
:101CDE008A154B240A128A15710883120313B40055
:101CEE007008B3003308F9003408FA00FB01FC0158
:101CFE007908AF077A0803110318013E0319882EDD
:101D0E00B0077B0803110318013E03198F2EB1078C
:101D1E007C0803110318013E0319962EB207220800
:101D2E00F00025080A168A154B240A128A15710826
:101D3E0083120313B4007008B3003308F90034089B
:101D4E00FA00FB01FC017908AF077A0803110318AA
:101D5E00013E0319B32EB0077B0803110318013E91
:101D6E000319BA2EB1077C0803110318013E03199B
:101D7E00C12EB2072208F00026080A168A154B2437
:101D8E000A128A15710883120313B4007008B30087
:101D9E003308F9003408FA00FB01FC010830031087
:101DAE00F90DFA0DFB0DFC0DFF3E031DD62E790825
:101DBE00AF077A0803110318013E0319E72EB00787
:101DCE007B0803110318013E0319EE2EB1077C08A0
:101DDE0003110318013E0319F52EB2072908F90065
:101DEE002A08FA002B08FB002C08FC001830031000
:101DFE00FC0CFB0CFA0CF90CFF3E031DFE2E7908B1
:101E0E00AF077A0803110318013E03190F2FB0070D
:101E1E007B0803110318013E0319162FB1077C0826
:101E2E0003110318013E03191D2FB2070830F900E4
:101E3E000310A90DAA0DAB0DAC0DF90B1F2F2E081B
:101E4E002D07F900FA01FA0D7908823EB3007A08DF
:101E5E000318013EFF3EB400512F0130F90003106C
:101E6E00AF0DB00DB10DB20DF90B362FAC1F402FCB
:101E7E00412F422F2F140130F9000310A90DAA0D86
:101E8E00AB0DAC0DF90B442FFF30B3070318B40A9A
:101E9E00FF30B407B11F542F552F342FAD01AC1F97
:101EAE00592F5A2F762FFF302905F900FF302A05BA
:101EBE00FA00FF302B05FB007F302C05FC007C0860
:101ECE007B047A04790403196D2F6E2F712F013064
:101EDE00AD00762F2F1C742F752F762F6E2F2D0899
:101EEE0003197A2F7B2FAC2F0130AF070030031868
:101EFE000130B007003003180130B107003003186D
:101F0E000130B207321C8C2F8D2FAC2F2F08F90009
:101F1E003008FA003108FB003208FC000130FD00E9
:101F2E007C0DFC0CFB0CFA0CF90CFD0B972F7C08AE
:101F3E00B2007B08B1007A08B0007908AF0001301A
:101F4E00B3070318B40A0030B4073408803AFF0010
:101F5E0080307F02031DB52FFF303302031CB82FD4
:101F6E00B92FC42F7F3083120313B2008030B1001B
:101F7E000030B0000030AF00F52F83120313340889
:101F8E00803AFF0080307F02031DCF2F01303302D5
:101F9E000318D22FD32FDF2F003083120313B2007A
:101FAE000030B1000030B0000030AF00A801F52FB6
:101FBE00831203133308AE00FF30AF05FF30B005B8
:101FCE007F30B1050030B2052E1CEE2FEF2FF02F13
:101FDE00B1172E08F9000310790CB2002808B204CC
:101FEE003208A3003108A2003008A1002F08A0007B
:021FFE000800D9
:10200200720873040319062807280D28720873043E
:10201200031D0C280D28142870080A128A1597200F
:102022000A168A119A287208093EF40073080318E6
:10203200013E003EF500740884008317751C83136B
:102042000008F600840A0008F700760877040319EE
:102052002B282C285E287208093EF4007308031806
:10206200013E003EF500740884008317751C83133B
:102072000008F600840A0008F7007208023EF80021
:1020820073080318013E003EF900780884008317A4
:10209200791C83130008FA00840A0008FB007B08FD
:1020A200803AFC007708803A7C02031D5A287608A1
:1020B2007A0203185D285E289A2872088400831722
:1020C200731C83130008F400840A0008F5007208E8
:1020D200023EF60073080318013E003EF700760840
:1020E20084008317771C831300087407F9007508AE
:1020F200F8000318F80A801F7F28F8037808FA000E
:102102007908840083177A1C831370088000720890
:10211200023EF40073080318013E003EF500740805
:1021220084008317751C831301308007840A031807
:10213200800A08000030831203133505BD00003009
:102142003605BE0080303705BF007F303805C0003D
:1021520040083F043E043D04031DB028B128B928BD
:102162000030B8000030B7000030B6000030B500D3
:1021720000303905BD0000303A05BE0080303B0515
:10218200BF007F303C05C00040083F043E043D04D0
:10219200031DCC28CD28D5280030BC000030BB0060
:1021A2000030BA000030B900B81FD828D928FD285D
:1021B2000030BD000030BE000030BF008030C000E3
:1021C2003508BD023608031C360FE828E928BE028E
:1021D2003708031C370FEE28EF28BF023808031C0C
:1021E200380FF428F528C0024008B8003F08B700AD
:1021F2003E08B6003D08B500BC1F0029012925296B
:102202000030BD000030BE000030BF008030C00092
:102212003908BD023A08031C3A0F10291129BE02DF
:102222003B08031C3B0F16291729BF023C08031C5D
:102232003C0F1C291D29C0024008BC003F08BB00FE
:102242003E08BA003D08B9008030B8068030BC06AE
:102252003C083802031D37293B083702031D372982
:102262003A083602031D37293908350203183A297C
:102272003B293D2903103E2903140800F800780881
:102282000319442945295929F31F4829492959295C
:102292007009FA007109FB007209FC007309FD0064
:1022A200FA0A0319FB0A0319FC0A0319FD0A612938
:1022B2007308FD007208FC007108FB007008FA0048
:1022C2007308720471047004031D68296929722954
:1022D2000030F3000030F2000030F1000030F00076
:1022E200F2299630F90080290130F90701300310F4
:1022F200FD0CFC0CFB0CFA0CFF3E031D7829FE3092
:102302007D05031D852986297529A0290130F90734
:102312000130FA07003003180130FB0700300318C0
:102322000130FC07003003180130FD0701300310B3
:10233200FD0CFC0CFB0CFA0CFF3E031D9829FF3030
:102342007D05031DA529A6298729B2290130F90295
:102352000130F4000310FA0DFB0DFC0DFD0DF40B22
:10236200AB29FC1BB529B629BC2902307902031816
:10237200BB29BC29A7297918BF29C029C829FF3040
:10238200FA05FF30FB057F30FC05FF30FD05031029
:10239200F90C7908F400F501F601F7011830031081
:1023A200F40DF50DF60DF70DFF3E031DD02974084F
:1023B200FA047508FB047608FC047708FD04780823
:1023C2000319E429E529EA29F31FE829E929EA2979
:1023D200FD177D08F3007C08F2007B08F1007A0803
:1023E200F0000800831203135B08840083130008C3
:1023F20084000A128A150A200A168A11253A031D38
:10240200032A042AC72A5B08840001308007831646
:102412000313E401E5010030E800FF30E600FF307D
:10242200E700831203135B088400000884000A1289
:102432008A150A200A168A112E3A031D212A222AF7
:10244200352A5B088400013080075B08F6005C08CF
:10245200F7000A168A15AA260A168A117708831621
:102462000313E7007608E60083125B0884008313F7
:102472000008E400640884000A128A150A200A1679
:102482008A11E3004C2A0130E407572A6C30E3003A
:10249200572AE301572A63084C3A0319442A2A3A75
:1024A2000319472A0A3A0319442A4A2A640884006B
:1024B2000A128A150A200A168A11663A031D622A2E
:1024C200632ABF2A8C2A5C0884000008FF000430BB
:1024D20080077F0884000008DF00840A0008E0000B
:1024E200840A0008E100840A0008E200942A5C08D9
:1024F20084000008FF00043080077F088400000881
:10250200DF00840A0008E000840A0008E100840A6F
:102512000008E200942A63084C3A0319782A203A08
:102522000319642A942A5B0884006408013E80002F
:10253200B42A5908CE005A08CF006208D3006108B5
:10254200D2006008D1005F08D000640884000A123B
:102552008A150A200A168A11D4000A168A11E12263
:102562000A168A11E02A640884000A128A150A20CF
:102572000A168A11663A03199A2ABF2A831203138A
:102582005B088400013083138007E02A5B08840023
:10259200000884000A128A150A200A168A11DD0030
:1025A200DE015D08F0005E08F1005908F2005A08E9
:1025B200F3000A168A1101200A168A11BF2A08009E
:1025C20083160313C10183120313530883160313E3
:1025D200C70083120313520883160313C600831223
:1025E2000313510883160313C50083120313500803
:1025F20083160313C400470883120313B80083161B
:102602000313460883120313B70083160313450806
:1026120083120313B60083160313440883120313B1
:10262200B5000030BC000030BB000030BA00003002
:10263200B9000A168A119B200A168A110318222B46
:10264200232B3E2B013083160313C1004708F300EE
:102652004608F2004508F1004408F0000A168A15FF
:102662005F220A168A11730883160313C7007208C1
:10267200C6007108C5007008C40083160313C201A6
:10268200C3016508B2006408B100410803194A2B6E
:102692004B2B5B2B4108031D4F2B502B552B2B3003
:1026A200A6000030A700592B2D30A6000030A7004D
:1026B2002608C1004708F3004608F2004508F10069
:1026C2004408F0000A168A1573270A168A11700345
:1026D2007104031D6D2B6E2BB32B8316031341085C
:1026E2000319742B752B852B410883120317900055
:1026F200FF3083160313B1070318B20AFF30B20783
:102702000130C2000030C3004208103EF0007F30AA
:10271200F1000A168A15FC220A168A11FD30831668
:102722000313B1070318B20AFF30B207831203136F
:102732004E08A8004F08A9001030AA008316031300
:10274200320883120313AC00831603133108831279
:102752000313AB000A168A1594250A168A110A1267
:102762008A11E92F831603134708F3004608F20083
:102772004508F1004408F0000A168A1573270A1664
:102782008A1170087104031DC72BCA2B0A128A1101
:102792000F288316031341080319D02BD12BE12BE9
:1027A2004108831203179000FF3083160313B10709
:1027B2000318B20AFF30B2070130C2000030C30072
:1027C2004208103EF0008330F1000A168A15FC22FE
:1027D2000A168A118F2B831603135F0883120313C1
:1027E200CD00831603135E0883120313CC008316F5
:1027F20003135D0883120313CB00831603135C08D3
:1028020083120313CA003D08CD003C08CC003B08EC
:10281200CB003A08CA004A08BE004B08BF004C0869
:10282200C0004D08C10017300310C10CC00CBF0C12
:10283200BE0CFF3E031D152CFF303E05C2000030CA
:102842003F05C3004208813EC80043080318013E09
:10285200FF3EC9004908803AFF0080307F02031D15
:10286200342C17304802031C372C382C392CFA2C04
:1028720083120313C91B3E2C3F2CAF2C480AFF00C6
:10288200FF30BE00FF30BF007F30C0000030C1000B
:102892004F2C410DC10CC00CBF0CBE0CFF0B4A2CBF
:1028A2004108C7004008C6003F08C5003E08C400F2
:1028B20044084A05BE0045084B05BF0046084C05C2
:1028C200C00047084D05C100410840043F043E04D2
:1028D200031D6C2C6D2C6E2C382C4A08BE004B0844
:1028E200BF004C08C0004D08C1001F300310C10CCE
:1028F200C00CBF0CBE0CFF3E031D772C41084004E8
:102902003F043E040319862C872C9E2C4408CA07D8
:10291200450803110318013E0319902CCB07460802
:1029220003110318013E0319972CCC074708031122
:102932000318013E03199E2CCD074409BE00450928
:10294200BF004609C0004709C1003E08CA053F084A
:10295200CB054008CC054108CD05F22C4A08BE0043
:102962004B08BF004C08C0004D08C1001F300310C7
:10297200C10CC00CBF0CBE0CFF3E031DB82C41089D
:1029820040043F043E04031DC72CC82CD12C003048
:10299200CD000030CC000030CB000030CA00F22C59
:1029A2004A08BE004B08BF004C08C0004D08C100D9
:1029B20001300310BE0DBF0DC00DC10DFF3E031D42
:1029C200DA2C410840043F043E040319E92CEA2CA6
:1029D200F22CBF30CD008030CC000030CB00003074
:1029E200CA004D08BD004C08BC004B08BB004A0899
:1029F200BA0008000A168A15BE220A168A11293060
:102A0200F1008030F2000A168A1525240A168A116E
:102A12000A168A1511260A168A11003A031D122D6A
:102A2200132D1D2D0130F1008030F2000A168A1597
:102A320025240A168A111C2D443083120313C20066
:102A42007D30C1005030C000A430BF000A168A1584
:102A5200D2250A168A110A168A155C250A168A11C7
:102A6200831203135F0883160317C3008312031331
:102A72005E0883160317C200831203135D088316D0
:102A82000317C100831203135C0883160317C000E7
:102A9200423083120313A300C830A2000030A10009
:102AA2000030A00083160317430883120313A70004
:102AB20083160317420883120313A6008316031713
:102AC200410883120313A5008316031740088312DB
:102AD2000313A4000A128A15BE240A168A1183124D
:102AE2000313230883160317C70083120313220854
:102AF20083160317C60083120313210883160317D4
:102B0200C50083120313200883160317C4000A1694
:102B12008A1524250A168A11831203135F08831665
:102B22000317CB00831203135E0883160317CA0030
:102B3200831203135D0883160317C900831203135C
:102B42005C0883160317C8000A168A1572240A162F
:102B52008A11831203135F0883160317CF008312AF
:102B620003135E0883160317CE00831203135D0856
:102B720083160317CD00831203135C088316031711
:102B8200CC005630F1008030F2000A168A15252456
:102B92000A168A11903083120313EA006230EB00A6
:102BA20083160317470883120313EF0083160317D4
:102BB200460883120313EE00831603174508831297
:102BC2000313ED0083160317440883120313EC006A
:102BD2000A168A15C8240A168A119030F1000130AB
:102BE200F2000A168A1525240A168A114A30F100C3
:102BF2008030F2000A168A1525240A168A11A0309E
:102C020083120313EA007630EB00831603174B0896
:102C120083120313EF00831603174A088312031368
:102C2200EE0083160317490883120313ED0083167F
:102C32000317480883120313EC000A168A15C824E6
:102C42000A168A11A030F1000130F2000A168A1524
:102C520025240A168A113B30F1008030F2000A1650
:102C62008A1525240A168A11B03083120313EA004A
:102C72006D30EB00831603174F0883120313EF0026
:102C8200831603174E0883120313EE0083160317ED
:102C92004D0883120313ED00831603174C088312A9
:102CA2000313EC000A168A15C8240A168A11B030DA
:102CB200F1000130F2000A168A1525240A168A113B
:102CC200063083160313DB001330DA00AD30D9006F
:102CD200D90B692EDA0B692EDB0B692E2C2D0A1209
:102CE2008A11002883120313D4000A168A1533238B
:102CF2000A168A11C0300A168A159E220A168A11ED
:102D020001300A168A159E220A168A110A168A1597
:102D12004D220A168A11C1300A168A159E220A16F7
:102D22008A1183120313DA01DB01831203135A0897
:102D3200553E84000A168A15E5220A168A11831363
:102D42008000831203135B08803AFF0080307F0209
:102D5200031DAD2E04305A020318B02EB12EB72E29
:102D62000A128A1103200A168A11BC2E0A168A1523
:102D72006A220A168A11013083120313DA07031832
:102D8200DB0A0030DB075B08803AFF0080307F02FD
:102D9200031DCD2E05305A02031CD02ED12E962EA5
:102DA2000A168A1556220A168A11EA2F5708BE00F9
:102DB200BF01C001C1015608C200C301C401C5015F
:102DC20008300310C20DC30DC40DC50DFF3E031D17
:102DD200E22E5508C600C701C801C9011030031010
:102DE200C60DC70DC80DC90DFF3E031DF02E4608C6
:102DF200C2044708C3044808C4044908C5043E087D
:102E02004204CA003F084304CB0040084404CC00FB
:102E120041084504CD004530A300C830A20000306F
:102E2200A1000030A0004D08F3004C08F2004B084E
:102E3200F1004A08F00000300A168A113F210A16F2
:102E42008A11730883120313A7007208A60071087F
:102E5200A5007008A4000A128A1598200A168A1181
:102E6200831203132308BD002208BC002108BB0003
:102E72002008BA00FF2F5708BE00BF01C001C101E0
:102E820008300310BE0DBF0DC00DC10DFF3E031D66
:102E9200422F5608C200C301C401C50110300310FD
:102EA200C20DC30DC40DC50DFF3E031D502F5508A5
:102EB200C600C701C801C90118300310C60DC70DED
:102EC200C80DC90DFF3E031D5E2F4608C204470808
:102ED200C3044808C4044908C5043E084204CE009D
:102EE2003F084304CF0040084404D0004108450491
:102EF200D1004730A3008030A2000030A100003092
:102F0200A0005108F3005008F2004F08F1004E08EB
:102F1200F00001300A168A113F210A168A1173083D
:102F220083120313A7007208A6007108A500700897
:102F3200A4000A128A1598200A168A118312031312
:102F42002308BD002208BC002108BB002008BA00EB
:102F5200FF2F5908BE00BF015808C000C101400838
:102F6200C100C0013E084004D2003F084104D30022
:102F72004330A3008030A2000030A1000030A00046
:102F82005208F0005308F1000030F11BFF30F2004C
:102F9200F30001300A168A113F210A168A117308BA
:102FA20083120313A7007208A6007108A500700817
:102FB200A4000A128A1598200A168A118312031392
:102FC2002308BD002208BC002108BB002008BA006B
:102FD200FF2F831203135408BE00BF013F08003ABB
:102FE2000319F42FAA2F3E08003A0319D72E013AEB
:0E2FF20003193C2F033A0319AA2FAA2F080037
:10347E000030831603139818013008006400800191
:10348E00840A0406031900340406462A0A168A150D
:10349E0076220A168A1583160313911408000A164B
:1034AE008A1576220A168A1583160313111508003B
:1034BE0073087204710470040319662A672A692A54
:1034CE008030F30608008316031391160A168A1528
:1034DE0076220A168A158316031311160800831610
:1034EE00031314197B2A7C2A762A11081F39031D0F
:1034FE00812A822A762A0800283083120313940028
:10350E008316031391019401273093008715071634
:10351E00080000300A168A15F5240A168A15F600D8
:10352E00F6199A2A9C2A01309D2A00300800F000D4
:10353E000A168A1576220A168A1570088312031344
:10354E0093008C1DAB2AAC2AA82A8C110800F0001F
:10355E000A168A153F220A168A15003A0319B82A46
:10356E00B92AAF2A70088312031399000800831634
:10357E000313181567309900181283120313981746
:10358E00831603130713871798168312031318163F
:10359E000800F31BD32AD42AD52AE42A7009F00096
:1035AE007109F1007209F2007309F300F00A0319B0
:1035BE00F10A0319F20A0319F30A08000A168A150A
:1035CE0076220A168A1583160313911583128C1D03
:1035DE00F12AF22AED2A8C110A168A1576220A167B
:1035EE008A1583120313130808007008F2000130C5
:1035FE00F107FF30710784000A128A150A200A1695
:10360E008A15FF007208F20A84007F088317800073
:10361E000008031D132B142BFE2A0800F5000A16B2
:10362E008A1533230A168A15C0300A168A159E2269
:10363E000A168A1575080A168A159E220A168A1502
:10364E0074080A168A159E220A168A150A168A15F3
:10365E0056220A168A1508000A168A1576220A16A6
:10366E008A15831603131114F201F30183128C19B8
:10367E00412B422B522B7308F1007208F000F20A14
:10368E000319F30A03307102E83003197002031CA8
:10369E00512B522B3D2B8C1108007108F60070082F
:1036AE00F500662B7608840083170008F4000130BD
:1036BE00F60775088400740880000130F5070130A4
:1036CE00F2020030031CF303F302720A031D732B84
:1036DE00730A031D732B742B592B0800F60026302A
:1036EE000A168A15F5240A168A1583160313EA009C
:1036FE0076030319832B872B83160313EA178A2B62
:10370E0083160313EA136A08F40026300A168A1584
:10371E0015230A168A15760883160313E900080086
:10372E0026300A168A15F5240A168A1583160313EF
:10373E00EA003430F700F130F600F60BA42BF70B4D
:10374E00A42BA92B83160313EA18AE2BAF2B972BA2
:10375E00EA146A08F40026300A168A1515230A168A
:10376E008A150800831203136708E900CB2B65083E
:10377E00D9006608DA006930DB006808DC000A163A
:10378E008A11F3210A168A1583120313690884001D
:10379E000A128A150A200A168A15003A031DD82B1A
:1037AE00D92BBE2BE501E6010800803083120313EE
:1037BE00B8063C08F3003B08F2003A08F10039085D
:1037CE00F0003808F7003708F6003608F50035081F
:1037DE00F4000A128A1562220A168A1573088312D9
:1037EE000313B8007208B7007108B6007008B50070
:1037FE000800F401F501701C052C062C0C2C720827
:10380E00F4070318F50A7308F50701300310F20DDB
:10381E00F30DFF3E031D0D2C01300310F10CF00CC7
:10382E00FF3E031D142C70087104031D1F2C202C49
:10383E00022C7508F1007408F00008003A2C72088A
:10384E00FF00710884000A128A1500200A168A15D4
:10385E000A168A15AE220A168A150130F1070318C8
:10386E00F20A0030F207720883120313FF00710888
:10387E0084000A128A1500200A168A15003A031DC2
:10388E00492C4A2C262C0800F800F401F50170088A
:10389E00F200F3017208F6007308F700781C582C3A
:1038AE00592C5F2C7608F4070318F50A7708F507EC
:1038BE0001300310F60DF70DFF3E031D602C0310B3
:1038CE00F80C7808031D6C2C6D2C552C7508F10026
:1038DE007408F00008000A168A1597230A168A152E
:1038EE00822C343083120313E100F130E000E00B40
:1038FE007E2CE10B7E2C0A168A1590220A168A154A
:10390E00003A03198B2C8C2C782C02300A168A1153
:10391E0073260A168A15831203133D08DF003C082E
:10392E00DE003B08DD003A08DC00080083120313BA
:10393E00A601A701BA2C2508A300A4012308F000B4
:10394E002408F1002108F2002208F3000A168A1159
:10395E0001200A168A15013083120313A6070318D5
:10396E00A70A0030A70726082007A3002308840013
:10397E0083170008A5002508031DC62CC72CA22CF2
:10398E0008006C3083160313CD00831203136A08EC
:10399E0083160313CE000130CF00D001D101D70121
:1039AE00D801CE3083120313E5000030E6006B0819
:1039BE00E700CD30E8000A168A15B9230A168A15D3
:1039CE00831603135008831203136A078316031317
:1039DE00CC004C088400831780010800F4000A16FE
:1039EE008A1533230A168A15C0300A168A159E22A6
:1039FE000A168A1574080A168A159E220A168A1540
:103A0E000A168A154D220A168A15C1300A168A150B
:103A1E009E220A168A150A168A15E5220A168A1594
:103A2E00F5000A168A156A220A168A150A168A15CA
:103A3E0056220A168A1575080800831603136903A1
:103A4E0003192A2D2B2D312D01300A168A157523B7
:103A5E000A168A150A168A1597230A168A15412DF3
:103A6E00343083120313E100F130E000E00B3D2D02
:103A7E00E10B3D2D0A168A1590220A168A15003A78
:103A8E0003194A2D4B2D372D01300A168A11732634
:103A9E000A168A15831203133D08DF003C08DE0068
:103AAE003B08DD003A08DC000800831603136908A2
:103ABE000319622D632D692D00300A168A157523A0
:103ACE000A168A150A168A1597230A168A15792D4B
:103ADE00343083120313E100F130E000E00B752D5A
:103AEE00E10B752D0A168A1590220A168A15003AD0
:103AFE000319822D832D6F2D00300A168A1173261D
:103B0E000A168A15831203133D08DF003C08DE00F7
:103B1E003B08DD003A08DC00080083120313AC1FDB
:103B2E00992D9A2D9C2DAB01AC01AD01AE01B62D98
:103B3E002030F0000030F100831203132808F20049
:103B4E002908F3000A168A1101200A168A15013077
:103B5E0083120313AD070318AE0A0030AE072E080A
:103B6E00803AFD002C08803A7D02031DC02D2B08E3
:103B7E002D02031CC32DC42D9F2D831203132A085F
:103B8E00A0002808A1002908A2000A168A159D2463
:103B9E000A168A150800831203134208A70041086B
:103BAE00A6004008A5003F08A4004230A3004830FC
:103BBE00A2000030A1000030A0000A128A15BE2417
:103BCE000A168A15831203132308B8002208B700B9
:103BDE002108B6002008B5000A168A15FD260A1619
:103BEE008A15831203133608C4003508C30044082F
:103BFE00F40014300A168A1515230A168A15831234
:103C0E0003134308F40015300A168A1515230A16F5
:103C1E008A1508000A168A1583220A168A150C3090
:103C2E000A168A15F5240A168A15F800C430780685
:103C3E000319222E232E252E00305B2E0430F40085
:103C4E0026300A168A1515230A168A15372E343091
:103C5E00F700F130F600F60B322EF70B322E372E20
:103C6E0026300A168A15F5240A168A150439031DFC
:103C7E00412E422E2E2EB83083160313EA006A0808
:103C8E00F40026300A168A1515230A168A150130F5
:103C9E0083160313E9000730F40013300A168A1551
:103CAE0015230A168A150130080000307005F80039
:103CBE0000307105F90080307205FA007F3073050F
:103CCE00FB007B087A0479047804031D6F2E702E96
:103CDE00782E0030F3000030F2000030F10000309A
:103CEE00F00000307405F80000307505F9008030E2
:103CFE007605FA007F307705FB007B087A0479049D
:103D0E007804031D8B2E8C2E942E0030F70000307D
:103D1E00F6000030F5000030F40077087306031D3E
:103D2E00A22E76087206031DA22E75087106031DBB
:103D3E00A22E740870060319A52EA62EA82E031007
:103D4E00A92E03140800F901FA01760884008313E2
:103D5E00000884000A128A150A200A168A152A3AC1
:103D6E00031DBA2EBB2EE72E760884000130800785
:103D7E00770884000008FF00023080077F08840067
:103D8E000008F900840A0008FA00F82E7A08F100FB
:103D9E007908F0000A30F2000030F3000A168A1596
:103DAE0000240A168A1578087007F90000300318E7
:103DBE0001307107FA007608840001308313800702
:103DCE0076088400000884000A128A150A200A1652
:103DDE008A15D03EF8000A307802031CF72EF82E12
:103DEE00CD2E7A08F7007908F6000800031083122A
:103DFE000313370D380DBE003E08031D072F082F85
:103E0E00112F0030B8000030B7000030B60000307F
:103E1E00B500722F3508B9003608BA003708BB0056
:103E2E003808BC001F300310BC0CBB0CBA0CB90C0C
:103E3E00FF3E031D1A2F3908BD00B717FF30B50519
:103E4E00FF30B605FF30B7050030B8059630BE021C
:103E5E00BE1F322F332F4B2F3E08803A973E03184A
:103E6E00392F3A2F3B2F082F01300310B80CB70C07
:103E7E00B60CB50CFF3E031D3C2F0130BE07031DD3
:103E8E00492F4A2F3B2F622F20303E02031C502F0A
:103E9E00512F5D2F082F0130B9000310B50DB60D4F
:103EAE00B70DB80DB90B542F0130BE023E08031DDD
:103EBE00612F622F522F3D080319662F672F722F25
:103ECE00B509B609B709B809B50A0319B60A03192F
:103EDE00B70A0319B80A080083160313630883127E
:103EEE000313A50083160313620883120313A400A1
:103EFE0083160313610883120313A300831603139F
:103F0E00600883120313A2007308A5007208A400B0
:103F1E007108A3007008A2002208F4002308F5001F
:103F2E002408F6002508F70017300310F70CF60CDE
:103F3E00F50CF40CFF3E031D9C2FFF307405A00002
:103F4E0000307505A10020082104031DAF2FB02FEE
:103F5E00D32F2208F4002308F5002408F6002508C4
:103F6E00F70001300310F40DF50DF60DF70DFF3EC1
:103F7E00031DB92F7708760475047404031DC82F2A
:103F8E00C92FCE2F0230F0000030F100FF2F03308A
:103F9E00F0000030F100FF2F200A2104031DD82F5E
:103FAE00D92FFB2F2208F4002308F5002408F60071
:103FBE002508F70009300310F40DF50DF60DF70D79
:103FCE00FF3E031DE22F770876047504740403196F
:103FDE00F12FF32F0130F42F0030F800F90178089B
:103FEE00F0007908F100FF2F0430F0000030F100EE
:023FFE000800B9
:00000001FF
