:060000000A128A11E12F33
:100008000800283083120313940083160313910108
:100018009401273093008715071608003F30831690
:100028000313CB008030CA000030C9000030C8007C
:10003800AF01B0014708F3004608F2004508F10097
:100048004408F0000030F7000030F6000030F500FA
:100058000030F4000A168A1519240A128A110318A6
:1000680036283728662A4828831603133608CB0013
:100078003508CA003408C9003308C8000130AF0782
:100088000318B00A0030B007413083120313A300ED
:100098002030A2000030A1000030A0008316031316
:1000A8004B0883120313A700831603134A0883120D
:1000B8000313A60083160313490883120313A5002C
:1000C80083160313480883120313A4000A128A151F
:1000D800BE240A128A1183120313230883160313FA
:1000E800B60083120313220883160313B500831284
:1000F8000313210883160313B40083120313200883
:1001080083160313B300440883120313DD00831618
:100118000313450883120313DE00831603134608EE
:1001280083120313DF008316031347088312031394
:10013800E00083160313330883120313DD028316CA
:1001480003133408031C340FAA28AD2883120313A1
:10015800DE02831603133508031C350FB428B728AD
:1001680083120313DF02831603133608031C360FAA
:10017800BE28C12883120313E002831603138312D7
:1001880003136008F3005F08F2005E08F1005D08E1
:10019800F0000A168A1587220A128A11F31BE4282E
:1001A8007308031DE5287208031DE5287108031D5F
:1001B800E52802307002031DE128031CE428E52825
:1001C800382883160313360883120313BD008316D9
:1001D8000313350883120313BC0083160313340872
:1001E80083120313BB00831603133308831203130C
:1001F800BA0083160313470883120313C10083163A
:100208000313460883120313C0008316031345081B
:1002180083120313BF0083160313440883120313C6
:10022800BE000A168A155C270A128A11031C1D29AA
:100238001E29382883160313440883120313DD008C
:1002480083160313450883120313DE008316031372
:10025800460883120313DF0083160313470883122B
:100268000313E00083160313480883120313DD0207
:10027800831603134908031C490F4329462983128F
:100288000313DE02831603134A08031C4A0F4D2981
:10029800502983120313DF02831603134B08031C30
:1002A8004B0F57295A2983120313E00283160313AD
:1002B800831203136008F3005F08F2005E08F10080
:1002C8005D08F0000A168A1587220A128A11F31BA4
:1002D8007E297308031D7D297208031D7D29710875
:1002E800031D7D2902307002031D7A2903187D2918
:1002F8007E292D2A831603134B08C7004A08C60017
:100308004908C5004808C400662A4130831203130F
:10031800A3002030A2000030A1000030A000831606
:1003280003134B0883120313A700831603134A0809
:1003380083120313A60083160313490883120313B9
:10034800A50083160313480883120313A4000A1692
:100358008A1136260A128A11831203132308831678
:100368000313CB0083120313220883160313CA0056
:1003780083120313210883160313C900831203137E
:10038800200883160313C800FF30AF070318B00A0C
:10039800FF30B007440883120313DD0083160313EC
:1003A800450883120313DE008316031346088312DD
:1003B8000313DF0083160313470883120313E000B7
:1003C80083160313480883120313DD0283160313ED
:1003D8004908031C490FF129F42983120313DE028B
:1003E800831603134A08031C4A0FFB29FE298312AC
:1003F8000313DF02831603134B08031C4B0F052A54
:10040800082A83120313E0028316031383120313CB
:100418006008F3005F08F2005E08F1005D08F00074
:100428000A168A1587220A128A11F31B2C2A7308C6
:10043800031D2B2A7208031D2B2A7108031D2B2A62
:1004480002307002031D282A03182B2A2C2A2D2A71
:100458007E2983160313470883120313BD008316EE
:100468000313460883120313BC00831603134508BD
:1004780083120313BB008316031344088312031368
:10048800BA00831603134B0883120313C1008316A3
:1004980003134A0883120313C00083160313490881
:1004A80083120313BF008316031348088312031330
:1004B800BE000A168A155C270A128A11031C652ACF
:1004C800662A8929831203135C0883160313A9007B
:1004D8002908AA00EC1B712A722A772A6C08A30043
:1004E8006B08A2007B2A0630A2000030A300230874
:1004F800AE002208AD000130AD070318AE0A003087
:10050800AE0766302A06031D8A2A8B2AA52AB01F41
:100518008E2A8F2A992A3F30CB008030CA000030BB
:10052800C9000030C800AF01B001673029060319BF
:100538009E2A9F2AA52A2F08AD070318AE0A30085D
:10054800AE07B701B8014708BC004608BB0045081C
:10055800BA004408B9004B08B6004A08B500490873
:10056800B4004808B300DE2B831603134B0883122C
:100578000313A300831603134A0883120313A2006C
:1005880083160313490883120313A1008316031368
:10059800480883120313A000831603133C08831230
:1005A8000313A700831603133B0883120313A60043
:1005B800831603133A0883120313A5008316031343
:1005C800390883120313A4000A168A1136260A1260
:1005D8008A11831203132308BD002208BC002108D6
:1005E800BB002008BA000A168A1127250A128A11A8
:1005F800831203133D0883160313C00083120313E9
:100608003C0883160313BF00831203133B088316A9
:100618000313BE00831203133A0883160313BD00A5
:100628004008F3003F08F2003E08F1003D08F000E2
:100638000A168A15BA240A128A1171088316031336
:10064800AC007008AB004B0883120313A700831695
:1006580003134A0883120313A600831603134908D9
:1006680083120313A5008316031348088312031388
:10067800A40083160313400883120313A3008316F0
:1006880003133F0883120313A200831603133E08C3
:1006980083120313A100831603133D088312031367
:1006A800A0000A128A15BE240A128A1183120313A3
:1006B8002308D1002208D0002108CF002008CE004E
:1006C800831603133C0883120313D5008316031300
:1006D8003B0883120313D400831603133A088312CA
:1006E8000313D30083160313390883120313D200AC
:1006F8000A168A15ED220A128A1183120313510869
:1007080083160313BC0083120313500883160313C4
:10071800BB00831203134F0883160313BA00831216
:1007280003134E0883160313B900413083120313D1
:10073800A3002030A2000030A1000030A0008316E2
:1007480003134B0883120313A700831603134A08E5
:1007580083120313A6008316031349088312031395
:10076800A50083160313480883120313A4000A166E
:100778008A1136260A128A11831203132308831654
:100788000313CB0083120313220883160313CA0032
:1007980083120313210883160313C900831203135A
:1007A800200883160313C8000130B7070318B80AD6
:1007B8000030B8073808803A83120313DD00831627
:1007C80003132E08803A831203135D02031DF02BD6
:1007D800831603132D083702031CF32BF42BB82AB6
:1007E800403083120313A300A030A2000030A10000
:1007F8000030A000831603134B0883120313A700CD
:10080800831603134A0883120313A60083160313DF
:10081800490883120313A50083160313480883129B
:100828000313A4000A128A15BE240A128A1183121D
:100838000313230883160313C0008312031322082B
:1008480083160313BF0083120313210883160313AF
:10085800BE0083120313200883160313BD003C084F
:1008680083120313BD00831603133B08831203137B
:10087800BC00831603133A0883120313BB008316C4
:100888000313390883120313BA00831603134008AD
:1008980083120313C100831603133F088312031343
:1008A800C000831603133E0883120313BF00831688
:1008B80003133D0883120313BE000A168A155C272A
:1008C8000A128A110318692C6A2C752C00308316B9
:1008D8000313C0000030BF000030BE000030BD0070
:1008E8009E2C831603133C08F3003B08F2003A08D9
:1008F800F1003908F0004008F7003F08F6003E080C
:10090800F5003D08F4000A168A1519240A128A11FE
:10091800031C8F2C902C9E2C831603132B18952CBC
:10092800962C9E2C0030C0000030BF000030BE0066
:100938000030BD0083160313400883120313BD0063
:10094800831603133F0883120313BC008316031393
:100958003E0883120313BB00831603133D0883125A
:100968000313BA0083160313470883120313C10045
:1009780083160313460883120313C0008316031358
:10098800450883120313BF00831603134408831218
:100998000313BE000A128A156E220A128A118312E4
:1009A80003133D0883160313BC00831203133C088A
:1009B80083160313BB00831203133B088316031328
:1009C800BA00831203133A0883160313B9003C08CC
:1009D80083120313BD00831603133B08831203130A
:1009E800BC00831603133A0883120313BB00831653
:1009F8000313390883120313BA004130A3002030CF
:100A0800A2000030A1000030A000831603133608AE
:100A180083120313A70083160313350883120313E5
:100A2800A60083160313340883120313A500831644
:100A38000313330883120313A4000A128A15BE2471
:100A48000A128A11831203132308C1002208C00066
:100A58002108BF002008BE000A168A155C270A1262
:100A68008A11031C382D392D8C2D01308316031360
:100A7800AF070318B00A0030B007413083120313E0
:100A8800A3002030A2000030A1000030A00083168F
:100A98000313360883120313A700831603133508BC
:100AA80083120313A6008316031334088312031357
:100AB800A50083160313330883120313A4000A1234
:100AC8008A15BE240A128A11831203132308831677
:100AD8000313B60083120313220883160313B50009
:100AE80083120313210883160313B400831203131C
:100AF800200883160313B30066302A06031D852DCC
:100B0800862D8C2D0130AD070318AE0A0030AE07D4
:100B1800831603133608CB003508CA003408C90009
:100B28003308C8003008A1002F08A000A801A401BC
:100B3800A501B701B8013E2F831603134B08831292
:100B48000313A300831603134A0883120313A20096
:100B580083160313490883120313A1008316031392
:100B6800480883120313A000831603133C0883125A
:100B78000313A700831603133B0883120313A6006D
:100B8800831603133A0883120313A500831603136D
:100B9800390883120313A4000A168A1136260A128A
:100BA8008A11831203132308BD002208BC00210800
:100BB800BB002008BA000A168A1127250A128A11D2
:100BC800831203133D0883160313C0008312031313
:100BD8003C0883160313BF00831203133B088316D4
:100BE8000313BE00831203133A0883160313BD00D0
:100BF8004008F3003F08F2003E08F1003D08F0000D
:100C08000A168A15BA240A128A117108803AFF0056
:100C180080307F02031D122E0A3070020318152E31
:100C2800162E2C2E831603134008F3003F08F200FB
:100C38003E08F1003D08F0000A168A15BA240A1287
:100C48008A11710883160313AC007008AB00322EAA
:100C5800093083160313AB000030AC002808031DCD
:100C6800362E372E682EA11F3A2E3B2E682E4208AC
:100C7800103E84002E30831780000130C20703180D
:100C8800C30A0030C307FF30B1070318B20AFF30A8
:100C9800B2070130A800682E4208103E84003030A8
:100CA800831780000130C2070318C30A0030C30746
:100CB800FF30B1070318B20AFF30B207FF30A407AC
:100CC8000318A50AFF30A50724082504031D6D2E67
:100CD8006E2E502E4208103E84002B08303E83179B
:100CE80080000130C2070318C30A0030C307FF3071
:100CF800B1070318B20AFF30B2074B088312031377
:100D0800A700831603134A0883120313A600831649
:100D18000313490883120313A50083160313480815
:100D280083120313A40083160313400883120313CA
:100D3800A300831603133F0883120313A20083162C
:100D480003133E0883120313A100831603133D08FF
:100D580083120313A0000A128A15BE240A128A11EC
:100D6800831203132308D1002208D0002108CF00E2
:100D78002008CE00831603133C0883120313D50002
:100D8800831603133B0883120313D400831603133B
:100D98003A0883120313D300831603133908831206
:100DA8000313D2000A168A15ED220A128A11831239
:100DB8000313510883160313BC008312031350084E
:100DC80083160313BB00831203134F088316031300
:100DD800BA00831203134E0883160313B900413077
:100DE80083120313A3002030A2000030A1000030BA
:100DF800A000831603134B0883120313A70083165E
:100E080003134A0883120313A60083160313490821
:100E180083120313A50083160313480883120313D0
:100E2800A4000A168A1136260A128A11831203139D
:100E3800230883160313CB00831203132208831697
:100E48000313CA0083120313210883160313C9006E
:100E580083120313200883160313C800FF30A0076A
:100E68000318A10AFF30A1070130B7070318B80A11
:100E78000030B8073808803A83120313DD00831660
:100E880003132E08803A831203135D02031D502FAB
:100E9800831603132D0837020318532F542F632F7B
:100EA800831603134308803AFF0080307F02031D36
:100EB8005F2F4B304202031C622F632FA02D4F304F
:100EC80083160313B7000030B8003708103E8400BB
:100ED80083178001103083120313DD008316031378
:100EE800420883120313DD028316031337088312A3
:100EF80003135D07F0001030F10083160313430855
:100F0800F3004208F2000A168A15CC220A128A1146
:100F18008316031342083702C2004308031C430A1E
:100F28003802C3004108031D9A2F9C2F01309D2FC2
:100F3800003083120313DD00DE015D0883160313FE
:100F4800B700831203135E0883160313B800410821
:100F58000319AF2FB02FBC2FFF30C2070318C30AE5
:100F6800FF30C3074208103E840041088317800001
:100F78003708B1023808031CB203B2028312031304
:100F88005608A8005708A900831603134208103E04
:100F980083120313AA008316031332088312031360
:100FA800AC0083160313310883120313AB000A162F
:100FB8008A15DB230A128A11080083120313EF0132
:100FC8008313E5308400ED300A168A1509220A12C7
:100FD8008A1183160317EC01ED01EE01EF01831767
:100FE8001030840060300A168A1509220A128A1104
:080FF80083010A128A156B281F
:101002000A168A1548220A128A1583160313111525
:101012000800003083160313ED001030EE0000309C
:1010220083160317EB000030EA000030E9000A30B3
:10103200E8004030E7000030E6000030E500003014
:10104200E4000A168A1511220A128A1580300A163D
:101052008A1555220A128A1505300A168A15552252
:101062000A128A15831603136E080A168A15552268
:101072000A128A15831603136D080A168A15552259
:101082000A128A150A128A1501200A128A150A16EC
:101092008A1511220A128A1580300A168A155522DB
:1010A2000A128A1500300A168A1555220A128A1562
:1010B20039300A168A1555220A128A159F300A16E5
:1010C2008A1555220A128A150A128A1501200A1255
:1010D2008A150800003083160317E3000030E2008F
:1010E2000030E1000030E0000030D3000030D200D8
:1010F2000030D1000030D0000030D7000030D600E0
:101102000030D5000030D4000030DB000030DA00BF
:101112000030D9000030D8000A168A1575220A124A
:101122008A150A168A151A220A128A150130F10046
:101132008030F2000A168A155B230A128A150A16F3
:101142008A152E250A128A15831203133D08831667
:101152000317DF00831203133C0883160317DE0014
:10116200831203133B0883160317DD008312031354
:101172003A0883160317DC000A168A15AB250A12F1
:101182008A15831203133D0883160317E3008312A3
:1011920003133C0883160317E200831203133B0870
:1011A20083160317E100831203133A088316031709
:1011B200E0000A168A11C3210A128A158312031348
:1011C2003D0883160317D300831203133C088316CA
:1011D2000317D200831203133B0883160317D100AF
:1011E200831203133A0883160317D0000A168A11D2
:1011F20012210A128A15831203133D08831603175C
:10120200DB00831203133C0883160317DA008312F0
:1012120003133B0883160317D900831203133A08FA
:1012220083160317D800630883120313BD008316C5
:101232000317620883120313BC00831603176108A5
:1012420083120313BB008316031760088312031370
:10125200BA004430A3007A30A2000030A10000306E
:10126200A000831603175F0883120313A7008316D7
:1012720003175E0883120313A600831603175D0883
:1012820083120313A500831603175C08831203134A
:10129200A4000A168A1136260A128A15831203132B
:1012A2002308C1002208C0002108BF002008BE0098
:1012B2000A128A156E220A128A15831203133D0836
:1012C20083160317D700831203133C0883160317F0
:1012D200D600831203133B0883160317D50083122B
:1012E20003133A0883160317D400903083160313AE
:1012F200D0009D30D10083160317630883160313B1
:10130200D50083160317620883160313D4008316CD
:101312000317610883160313D300831603176008AB
:1013220083160313D2000A168A1536230A128A1567
:101332009030F1000130F2000A168A155B230A127E
:101342008A15903083160313D0006B30D1008316B8
:1013520003175F0883160313D500831603175E086D
:1013620083160313D400831603175D088316031331
:10137200D300831603175C0883160313D2000A16E0
:101382008A1536230A128A159030F1000130F200D4
:101392000A168A155B230A128A15903083160313E4
:1013A200D000B530D10083160317570883160313F4
:1013B200D50083160317560883160313D400831629
:1013C2000317550883160313D30083160317540813
:1013D20083160313D2000A168A1536230A128A15B7
:1013E2009030F1000130F2000A168A155B230A12CE
:1013F2008A15903083160313D0005230D100831621
:101402000317530883160313D500831603175208D4
:1014120083160313D400831603175108831603138C
:10142200D30083160317500883160313D2000A163B
:101432008A1536230A128A159030F1000130F20023
:101442000A168A155B230A128A1590308316031333
:10145200D0008430D100831603175B088316031370
:10146200D500831603175A0883160313D400831674
:101472000317590883160313D3008316031758085A
:1014820083160313D2000A168A1536230A128A1506
:101492009030F1000130F2000A168A155B230A121D
:1014A2008A153230F1008030F2000A168A155B2369
:1014B2000A128A15293083160313E4009630E300DA
:1014C2007E30E200E20B632AE30B632AE40B632A19
:1014D2000000A0280A128A110028831203133D0873
:1014E200CA008030CA053D08C2004207CC00BC1FBA
:1014F2007B2A7C2A7D2A4C144C080319812A822AD1
:10150200922A4C0A031D862A872A8F2A0030BD00A0
:101512000030BC000030BB000030BA00BC17BD0177
:101522009A2A0030BD000030BC000030BB00003001
:10153200BA004108CB008030CB054B084A0603199C
:10154200A32AA42AA52A4A174108C2004207CB00AF
:10155200C01FAC2AAD2AAE2A4B144B080319B22A7B
:10156200B32AC32A4B0A031DB72AB82AC02A00305D
:10157200C1000030C0000030BF000030BE00C01704
:10158200C101CB2A0030C1000030C0000030BF00D2
:101592000030BE004C084B020318D02AD12AF52A8B
:1015A2004A1FD42AD52AD72A8030CA064C08CD0031
:1015B2004B08CC004D08CB003A08CD003E08BA00DB
:1015C2004D08BE003B08CD003F08BB004D08BF00E0
:1015D2003C08CD004008BC004D08C0003D08CD00CD
:1015E2004108BD004D08C100CD014B08C200C30136
:1015F2004308C5004C084202C400031CC503450849
:10160200803AFF0080307F02031D092B1A3044020A
:10161200031C0C2B0D2B422B831203133D083C049D
:101622003B043A04031D162B182B0130192B0030F2
:10163200CD000030BD000030BC000030BB000030E7
:10164200BA004B08CC004A2B4D1C282B292B302BDF
:101652004D08C2000310420C0138CD00322B03109A
:10166200CD0C3A1C352B362B372BCD170130C2004F
:101672003D0DBD0CBC0CBB0CBA0CC20B392B01309E
:10168200CC07831203134B084C02031C492B4A2B31
:10169200252B4A1B4D2B4E2B952B4C08031D522BF1
:1016A200532B5C2B0030BD000030BC000030BB006F
:1016B2000030BA00BD2C3E08BA073F0803110318D8
:1016C200013E0319652BBB07400803110318013EB5
:1016D20003196C2BBC07410803110318013E0319BF
:1016E200732BBD073D1C762B772B492C4D1C7A2B77
:1016F2007B2B822B4D08C2000310420C0138CD0017
:10170200842B0310CD0C3A1C872B882B892BCD17E9
:101712000130C2003D0DBD0CBC0CBB0CBA0CC20B9F
:101722008B2B0130CC07492C3D08803AFF00410841
:10173200803A7F02031DA72B40083C02031DA72B02
:101742003F083B02031DA72B3E083A020318AA2BAF
:10175200AB2B022CFF30C200FF30C300FF30C400AD
:10176200FF30C5003E08C6003F08C7004008C80059
:101772004108C9003A08C6023B08031C3B0FC22BB2
:10178200C32BC7023C08031C3C0FC82BC92BC80241
:101792003D08031C3D0FCE2BCF2BC9024608C207C2
:1017A20047080318470FD62BD72BC307480803183F
:1017B200480FDC2BDD2BC40749080318490AC5076B
:1017C2004508BD004408BC004308BB004208BA00FB
:1017D2008030CA064D03FF3ACD004D08031DF22B9F
:1017E200F32B102C0130BA07003003180130BB076D
:1017F200003003180130BC07003003180130BD0768
:10180200102C3E08BA023F08031C3F0FBB024008DF
:10181200031C400FBC024108031C410FBD023D08DE
:101822003C043B043A04031D172C182C452C4D088C
:10183200031D1C2C1D2C452C0030BD000030BC00AB
:101842000030BB000030BA00BD2C0130C2000310D2
:10185200BA0DBB0DBC0DBD0DC20B282CCD1F322CF9
:10186200332C342C3A144D1C372C382C3C2C0314BA
:101872004D0DCD003E2C0310CD0D4C080319422C0A
:10188200432C452C0130CC02BC1F482C492C262C61
:10189200CB01CD1F4D2C4E2C5C2C4D087F390319EA
:1018A200532C542C572C0130CB005C2C3A1C5A2C54
:1018B2005B2C5C2C542C4B080319602C612C932C50
:1018C2000130BA07003003180130BB07003003189B
:1018D2000130BC07003003180130BD073D1C722CDB
:1018E200732C932C3A08C2003B08C3003C08C40086
:1018F2003D08C5000130C600450DC50CC40CC30C23
:10190200C20CC60B7D2C4508BD004408BC00430830
:10191200BB004208BA004C0A0319902C912C932C5C
:101922000130CC074C0A0319972C982C9D2C4C089B
:10193200031D9C2C9D2CAB2C0030BD000030BC0044
:101942000030BB000030BA004C08031DA92CAA2CA1
:10195200AB2CCA014C1CAE2CAF2CB12CBC17B32C37
:101962007F30BC054C08C2000310420CBD00CA1FE8
:10197200BB2CBC2CBD2CBD170800831203132308FB
:10198200AD008030AD052308A8002807B300A21FD0
:10199200CB2CCC2CCD2C331433080319D12CD22CC4
:1019A200E12C330A031DD62CD72CDF2C0030A300E8
:1019B2000030A2000030A1000030A000A217E92CE4
:1019C2000030A3000030A2000030A1000030A000CF
:1019D20027088039AD062708A8002807B200A61FED
:1019E200F32CF42CF52C321432080319F92CFA2CAE
:1019F200092D320A031DFE2CFF2C072D0030A700F3
:101A02000030A6000030A5000030A400A617112D5A
:101A12000030A7000030A6000030A5000030A4006E
:101A220032080319152D162D1B2D3308031D1A2DEF
:101A32001B2D242D0030A3000030A2000030A10095
:101A42000030A000FF2F2008F00026080A168A1591
:101A520081230A128A15710883120313B9007008D0
:101A6200B8003808A800A901AA01AB012B08B100EF
:101A72002A08B0002908AF002808AE003908A800DB
:101A8200A901AA01AB012B08B7002A08B600290850
:101A9200B5002808B4002108F00025080A168A15A6
:101AA20081230A128A15710883120313B900700880
:101AB200B8003808A800A901AA01AB012808AE079E
:101AC200290803110318013E0319682DAF072A08DC
:101AD20003110318013E03196F2DB0072B080311E0
:101AE2000318013E0319762DB1073908A800A90190
:101AF200AA01AB012808B407290803110318013E03
:101B02000319842DB5072A0803110318013E03198E
:101B12008B2DB6072B0803110318013E0319922DD2
:101B2200B7072208F00024080A168A1581230A1230
:101B32008A15710883120313B9007008B8003808B7
:101B4200A800A901AA01AB012808AE0729080311C0
:101B52000318013E0319AE2DAF072A08031103181B
:101B6200013E0319B52DB0072B0803110318013EDE
:101B72000319BC2DB1073908A800A901AA01AB01BC
:101B82002808B407290803110318013E0319CA2DB6
:101B9200B5072A0803110318013E0319D12DB60710
:101BA2002B0803110318013E0319D82DB70708307B
:101BB200A8000310AE0DAF0DB00DB10DA80BDA2DBC
:101BC2002108F00024080A168A1581230A128A15B0
:101BD200710883120313B9007008B8003808A8000E
:101BE2003908A900AA01AB012808AE072908031188
:101BF2000318013E0319FE2DAF072A08031103182B
:101C0200013E0319052EB0072B0803110318013EEC
:101C120003190C2EB1072008F00025080A168A15B0
:101C220081230A128A15710883120313B9007008FE
:101C3200B8003808A8003908A900AA01AB01280891
:101C4200AE07290803110318013E0319292EAF0715
:101C52002A0803110318013E0319302EB0072B087E
:101C620003110318013E0319372EB1070830A800EB
:101C72000310AE0DAF0DB00DB10DA80B392E20081B
:101C8200F00024080A168A1581230A128A1571089F
:101C920083120313B9007008B8003808A800390885
:101CA200A900AA01AB012808AE07290803110318ED
:101CB200013E03195D2EAF072A0803110318013EE6
:101CC2000319642EB0072B0803110318013E0319F0
:101CD2006B2EB1072108F00026080A168A15812307
:101CE2000A128A15710883120313B9007008B8002A
:101CF2003808A8003908A900AA01AB012808B407CE
:101D0200290803110318013E0319882EB5072A0872
:101D120003110318013E03198F2EB6072B08031176
:101D22000318013E0319962EB7072208F000250872
:101D32000A168A1581230A128A157108831203135F
:101D4200B9007008B8003808A8003908A900AA012B
:101D5200AB012808B407290803110318013E03192F
:101D6200B32EB5072A0803110318013E0319BA2E30
:101D7200B6072B0803110318013E0319C12EB7073A
:101D82002208F00026080A168A1581230A128A15EB
:101D9200710883120313B9007008B8003808A8004C
:101DA2003908A900AA01AB0108300310A80DA90D3A
:101DB200AA0DAB0DFF3E031DD62E2808B407290835
:101DC20003110318013E0319E72EB5072A08031170
:101DD2000318013E0319EE2EB6072B080311031850
:101DE200013E0319F52EB7072E08A8002F08A900F7
:101DF2003008AA003108AB0018300310AB0CAA0C53
:101E0200A90CA80CFF3E031DFE2E2808B4072908C2
:101E120003110318013E03190F2FB5072A080311F6
:101E22000318013E0319162FB6072B0803110318D6
:101E3200013E03191D2FB7070830A8000310AE0D8D
:101E4200AF0DB00DB10DA80B1F2F33083207A8003C
:101E5200A901A90D2808823EB80029080318013EED
:101E6200FF3EB900512F0130A8000310B40DB50D8B
:101E7200B60DB70DA80B362FB11F402F412F422FA1
:101E820034140130A8000310AE0DAF0DB00DB10D2A
:101E9200A80B442FFF30B8070318B90AFF30B9075F
:101EA200B61F542F552F342FB201B11F592F5A2F5D
:101EB200762FFF302E05A800FF302F05A900FF3036
:101EC2003005AA007F303105AB002B082A04290413
:101ED200280403196D2F6E2F712F0130B200762F57
:101EE200341C742F752F762F6E2F320803197A2F18
:101EF2007B2FAC2F0130B407003003180130B50737
:101F0200003003180130B607003003180130B7075C
:101F1200371C8C2F8D2FAC2F3408A8003508A90050
:101F22003608AA003708AB000130AC002B0DAB0C11
:101F3200AA0CA90CA80CAC0B972F2B08B7002A08E7
:101F4200B6002908B5002808B4000130B807031804
:101F5200B90A0030B9073908803AFF0080307F02A1
:101F6200031DB52FFF303802031CB82FB92FC42F21
:101F72007F3083120313B7008030B6000030B50003
:101F82000030B400F52F831203133908803AFF00A2
:101F920080307F02031DCF2F013038020318D22F69
:101FA200D32FDF2F003083120313B7000030B600A7
:101FB2000030B5000030B400AD01F52F83120313D9
:101FC2003808B300FF30B405FF30B5057F30B605E1
:101FD2000030B705331CEE2FEF2FF02FB617330862
:101FE200A8000310280CB7002D08B7043708A30077
:101FF2003608A2003508A1003408A0000800FF1B23
:102002000A2883137F1883170008840A0319FF0A1A
:10201200080010308A000408840A820700344D3414
:102022006534613473347534723469346E346734B0
:10203200203476346F346C347434613467346534EC
:10204200203461346E346434203463347534723431
:10205200723465346E3474342034773469347434B1
:102062006834203449344E344134323431343934D2
:1020720020342E342E342E3420340A340D340034DD
:102082002D342D342D342D342D342D342D342D3446
:102092002D342D342D342D342D342D342D342D3436
:1020A2002D342D342D342D342D342D342D342D3426
:1020B2002D342D342D342D342D340A340D34003486
:1020C200433475347234723465346E3474343A3451
:1020D2002034203420342034203420342034253459
:1020E2002E343234663420346D3441340A340D34A3
:1020F20000345334683475346E34743420345634B6
:102102006F346C3474346134673465343A34203457
:1021120025342E343234663420346D3456340A3445
:102122000D34003450346F347734653472343A34B9
:1021320020342034203420342034203420342034FD
:10214200203425342E343234663420346D345734FE
:102152000A340D3400344234753473342034563426
:102162006F346C3474346134673465343A342034F7
:102172002034203425342E3432346634203456341C
:102182000A340D3400344C346F34613464342034F6
:1021920056346F346C3474346134673465343A3491
:1021A2002034203425342E343234663420345634EC
:1021B2000A340D34003469346E34663400346E34BB
:0621C20061346E340034AC
:1021CE0083120313A601A70104292508A300A40165
:1021DE002308F0002408F1002108F2002208F30081
:1021EE000A168A15C2260A168A11013083120313A3
:1021FE00A6070318A70A0030A70726082007A30082
:10220E002308840083170008A5002508031D102944
:10221E001129EC2808000A168A1511220A168A11AD
:10222E0080300A168A1555220A168A1105300A16AA
:10223E008A1555220A168A11831603136E080A167A
:10224E008A1555220A168A11831603136D080A166B
:10225E008A1555220A168A110A128A1501200A16A3
:10226E008A110A168A1511220A168A1180300A1648
:10227E008A1555220A168A1103300A168A15552216
:10228E000A168A110A128A1501200A168A110A16CE
:10229E008A1511220A168A1181300A168A155522BC
:1022AE000A168A110A168A159C220A168A11831298
:1022BE000313BE00BF013E08BF00BE013E08C000B2
:1022CE003F08C1000A168A1530220A168A110A160C
:1022DE008A159C220A168A1183120313BE00BF01AF
:1022EE003E08C0043F08C1040A168A153C220A168D
:1022FE008A110A128A1501200A168A1183160317EB
:10230E00670883120313A30083160317660883124C
:10231E000313A20083160317650883120313A1008B
:10232E0083160317640883120313A0004008F000FD
:10233E004108F100F201F30100300A168A117622EB
:10234E000A168A11730883120313A7007208A600D7
:10235E007108A5007008A4000A128A15BE240A1678
:10236E008A11831203132308BD002208BC00210822
:10237E00BB002008BA0008000A168A1511220A1698
:10238E008A1180300A168A1555220A168A110530CE
:10239E000A168A1555220A168A11831603136E0819
:1023AE000A168A1555220A168A11831603136D080A
:1023BE000A168A1555220A168A110A128A15012042
:1023CE000A168A110A168A1511220A168A118030E7
:1023DE000A168A1555220A168A1104300A168A150B
:1023EE0055220A168A110A128A1501200A168A1116
:1023FE000A168A1511220A168A1181300A168A15B2
:10240E0055220A168A110A168A159C220A168A1154
:10241E0083120313BE00BF013E08BF00BE013E087B
:10242E00C0003F08C1000A168A1530220A168A110A
:10243E000A168A159C220A168A1183120313BE00ED
:10244E00BF013E08C0043F08C1040A168A153C228B
:10245E000A168A110A128A1501200A168A11831683
:10246E0003176B08F3006A08F2006908F1006808A8
:10247E00F00000300A168A1176220A168A117308A5
:10248E0083120313A3007208A2007108A100700842
:10249E00A0004008F0004108F100F201F301003005
:1024AE000A168A1176220A168A11730883120313EA
:1024BE00A7007208A6007108A5007008A4000A16ED
:1024CE008A1136260A168A11831203132308BD00B9
:1024DE002208BC002108BB002008BA000800F80042
:1024EE00780803197B2A7C2A902AF31F7F2A802AD8
:1024FE00902A7009FA007109FB007209FC00730939
:10250E00FD00FA0A0319FB0A0319FC0A0319FD0A56
:10251E00982A7308FD007208FC007108FB00700811
:10252E00FA007308720471047004031D9F2AA02A16
:10253E00A92A0030F3000030F2000030F100003024
:10254E00F000292B9630F900B72A0130F907013037
:10255E000310FD0CFC0CFB0CFA0CFF3E031DAF2A06
:10256E00FE307D05031DBC2ABD2AAC2AD72A0130B8
:10257E00F9070130FA07003003180130FB0700306D
:10258E0003180130FC07003003180130FD0701303D
:10259E000310FD0CFC0CFB0CFA0CFF3E031DCF2AA6
:1025AE00FF307D05031DDC2ADD2ABE2AE92A013013
:1025BE00F9020130F4000310FA0DFB0DFC0DFD0DB8
:1025CE00F40BE22AFC1BEC2AED2AF32A02307902E4
:1025DE000318F22AF32ADE2A7918F62AF72AFF2A96
:1025EE00FF30FA05FF30FB057F30FC05FF30FD059F
:1025FE000310F90C7908F400F501F601F701183013
:10260E000310F40DF50DF60DF70DFF3E031D072B10
:10261E007408FA047508FB047608FC047708FD04B8
:10262E00780803191B2B1C2B212BF31F1F2B202B80
:10263E00212BFD177D08F3007C08F2007B08F100CA
:10264E007A08F000080083120313630884008313D2
:10265E00000884000A168A110A200A168A11253AE1
:10266E00031D3A2B3B2B022C63088400013080079C
:10267E0083160313E901EA01003083120313EF00FE
:10268E00FF3083160313EB00FF30EC0083120313AD
:10269E0063088400000884000A168A110A200A16AC
:1026AE008A112E3A031D5C2B5D2B702B6308840060
:1026BE00013080076308F6006408F7000A168A15D1
:1026CE0067240A168A11770883160313EC0076081E
:1026DE00EB0083126308840083130008EC006C087F
:1026EE0084000A168A110A200A168A11EB00872B1B
:1026FE000130EC07922B6C30EB00922BEB01922BFE
:10270E006B084C3A03197F2B2A3A0319822B0A3A8B
:10271E0003197F2B852B6C0884000A168A110A2058
:10272E000A168A11663A031D9D2B9E2BFA2BC72B78
:10273E00640884000008FF00043080077F088400CE
:10274E000008E700840A0008E800840A0008E9008F
:10275E00840A0008EA00CF2B640884000008FF00FA
:10276E00043080077F0884000008E700840A000810
:10277E00E800840A0008E900840A0008EA00CF2B6A
:10278E006B084C3A0319B32B203A03199F2BCF2B0E
:10279E00630884006C08013E8000EF2B6108D600B0
:1027AE006208D7006A08DB006908DA006808D900F9
:1027BE006708D8006C0884000A168A110A200A16C7
:1027CE008A11DC000A168A111C240A168A111B2C87
:1027DE006C0884000A168A110A200A168A11663AB3
:1027EE000319D52BFA2B83120313630884000130CF
:1027FE00831380071B2C63088400000884000A16CC
:10280E008A110A200A168A11E500E6016508F00011
:10281E006608F1006108F2006208F3000A168A15D4
:10282E00C2260A168A11FA2B080083160313C10159
:10283E00831203135B0883160313C700831203135B
:10284E005A0883160313C6008312031359088316FE
:10285E000313C50083120313580883160313C40011
:10286E00470883120313BD00831603134608831211
:10287E000313BC0083160313450883120313BB0016
:10288E0083160313440883120313BA000030C100E9
:10289E000030C0000030BF000030BE000A168A159E
:1028AE005C270A168A1103185D2C5E2C792C0130D8
:1028BE0083160313C1004708F3004608F2004508CB
:1028CE00F1004408F0000A168A1525220A168A110C
:1028DE00730883160313C7007208C6007108C5007B
:1028EE007008C40083160313C201C3016A08B20044
:1028FE006908B10041080319852C862C962C4108D5
:10290E00031D8A2C8B2C902C2B30A6000030A70098
:10291E00942C2D30A6000030A7002608C1004708D1
:10292E00F3004608F2004508F1004408F0000A16CC
:10293E008A1535260A168A1170037104031DA82CF8
:10294E00A92CEE2C8316031341080319AF2CB02CBF
:10295E00C02C4108831203179000FF308316031317
:10296E00B1070318B20AFF30B2070130C2000030BF
:10297E00C3004208103EF000CD30F1000A168A1551
:10298E00B3220A168A11FD3083160313B1070318FA
:10299E00B20AFF30B207831203135608A800570875
:1029AE00A9001030AA0083160313320883120313F2
:1029BE00AC0083160313310883120313AB000A16FF
:1029CE008A15DB230A168A110A128A11E02F831642
:1029DE0003134708F3004608F2004508F1004408C7
:1029EE00F0000A168A1535260A168A117008710427
:1029FE00031D022D052D0A128A11122883160313A8
:102A0E00410803190B2D0C2D1C2D410883120317A1
:102A1E009000FF3083160313B1070318B20AFF307C
:102A2E00B2070130C2000030C3004208103EF00071
:102A3E00D130F1000A168A15B3220A168A11CA2C51
:102A4E00831603176F0883120313CD008316031723
:102A5E006E0883120313CC00831603176D088312BE
:102A6E000313CB00831603176C0883120313CA00DB
:102A7E003D08CD003C08CC003B08CB003A08CA000C
:102A8E004A08BE004B08BF004C08C0004D08C100EC
:102A9E0017300310C10CC00CBF0CBE0CFF3E031D43
:102AAE00502DFF303E05C20000303F05C3004208E6
:102ABE00813EC80043080318013EFF3EC900490885
:102ACE00803AFF0080307F02031D6F2D17304802C1
:102ADE00031C722D732D742D352E83120313C91BF7
:102AEE00792D7A2DEA2D480AFF00FF30BE00FF3007
:102AFE00BF007F30C0000030C1008A2D410DC10CD7
:102B0E00C00CBF0CBE0CFF0B852D4108C700400842
:102B1E00C6003F08C5003E08C40044084A05BE0072
:102B2E0045084B05BF0046084C05C00047084D053B
:102B3E00C100410840043F043E04031DA72DA82DEB
:102B4E00A92D732D4A08BE004B08BF004C08C000CB
:102B5E004D08C1001F300310C10CC00CBF0CBE0CC1
:102B6E00FF3E031DB22D410840043F043E040319ED
:102B7E00C12DC22DD92D4408CA07450803110318CB
:102B8E00013E0319CB2DCB07460803110318013E56
:102B9E000319D22DCC07470803110318013E031960
:102BAE00D92DCD074409BE004509BF004609C00016
:102BBE004709C1003E08CA053F08CB054008CC05B1
:102BCE004108CD052D2E4A08BE004B08BF004C080B
:102BDE00C0004D08C1001F300310C10CC00CBF0C4B
:102BEE00BE0CFF3E031DF32D410840043F043E047E
:102BFE00031D022E032E0C2E0030CD000030CC0013
:102C0E000030CB000030CA002D2E4A08BE004B0803
:102C1E00BF004C08C0004D08C10001300310BE0DAE
:102C2E00BF0DC00DC10DFF3E031D152E4108400402
:102C3E003F043E040319242E252E2D2EBF30CD0029
:102C4E008030CC000030CB000030CA004D08BD00F3
:102C5E004C08BC004B08BB004A08BA00080083129F
:102C6E0003132708B1008030B1052708A8002807F4
:102C7E00B800A61F432E442E452E381438080319CB
:102C8E00492E4A2E5A2E380A031D4E2E4F2E572EDF
:102C9E000030A7000030A6000030A5000030A400D0
:102CAE00A617A701622E0030A7000030A600003044
:102CBE00A5000030A40023088039B1062308A8001F
:102CCE002807B900A21F6C2E6D2E6E2E39143908EE
:102CDE000319722E732E832E390A031D772E782E2A
:102CEE00802E0030A3000030A2000030A100003082
:102CFE00A000A217A3018B2E0030A3000030A2006B
:102D0E000030A1000030A00023082204210420047A
:102D1E00031D922E932EAA2E0030A7000030A6007F
:102D2E000030A5000030A4008030A6047F30A70438
:102D3E003108A7042708A3002608A2002508A10031
:102D4E002408A000FF2F3808031DAE2EAF2EB82E7C
:102D5E000030A3000030A2000030A1000030A0001F
:102D6E00FF2F3808A800A9012908AB00390828024E
:102D7E00AA00031CAB032A087F3EB2002B080318DF
:102D8E00013E003EB3002708B0002608AF0025081C
:102D9E00AE002408AD000030A7000030A6000030C1
:102DAE00A5000030A4000030B7000030B60000309F
:102DBE00B5000030B400B9012C2F39080319E82EE4
:102DCE00E92E092F0130A8000310AD0DAE0DAF0D89
:102DDE00B00DA80BEB2E0130A8000310A40DA50D0D
:102DEE00A60DA70DA80BF42EB71FFE2EFF2E002F3B
:102DFE0024140130A8000310B40DB50DB60DB70D97
:102E0E00A80B022F23083002031D172F22082F02B2
:102E1E00031D172F21082E02031D172F20082D0228
:102E2E00031C1A2F1B2F2A2F37172008AD0221083B
:102E3E00031C210FAE022208031C220FAF0223082F
:102E4E00031C230FB0020130B9071A303902031CDC
:102E5E00312F322FE42E30082F042E042D040319A7
:102E6E00392F3A2F592F3414592F0130A80003103F
:102E7E00A40DA50DA60DA70DA80B3E2FB71F482F0D
:102E8E00492F4A2F24140130A8000310B40DB50D9C
:102E9E00B60DB70DA80B4C2FFF30B2070318B30AAF
:102EAE00FF30B307A61F5C2F5D2F3C2FB901B71F54
:102EBE00612F622F7E2FFF303405A800FF303505BD
:102ECE00A900FF303605AA007F303705AB002B086E
:102EDE002A04290428040319752F762F792F01301F
:102EEE00B9007E2F241C7C2F7D2F7E2F762F390844
:102EFE000319822F832FB42F0130A407003003183B
:102F0E000130A507003003180130A6070030031862
:102F1E000130A707271C942F952FB42F2408A80043
:102F2E002508A9002608AA002708AB000130AC002E
:102F3E002B0DAB0CAA0CA90CA80CAC0B9F2F2B08BD
:102F4E00A7002A08A6002908A5002808A400013019
:102F5E00B2070318B30A0030B3073308803AFF00F4
:102F6E0080307F02031DBD2FFF303202031CC02FA5
:102F7E00C12FCF2FFF3083120313B2000030B300E6
:102F8E000030A7000030A6000030A5000030A400DD
:102F9E00831203133308803AFF0080307F02031D33
:102FAE00DA2F013032020318DD2FDE2FEB2F8312C2
:102FBE000313B201B3010030A7000030A6000030A9
:102FCE00A5000030A400B101831203133208B8002B
:102FDE00381CF22FF32FF52FA617F72F7F30A605EB
:102FEE003808A8000310280CA7003108A704A12E4A
:022FFE000800C9
:103406000030831603139818013008006400800109
:10341600840A04060319003404060A2A0A168A15C1
:1034260048220A168A1583160313111408000A1275
:103436008A1105200A168A150A128A150A200A1602
:103446008A150800730872047104700403192C2A83
:103456002D2A2F2A8030F3060800831603139112B3
:103466000A168A1548220A168A1583160313111698
:1034760008008316031391160A168A1548220A169F
:103486008A158316031311160800831603131419DD
:103496004D2A4E2A482A11081F39031D532A542A39
:1034A600482A0800F0000A168A1548220A168A15C4
:1034B60070088312031393008C1D622A632A5F2A05
:1034C6008C110800F0000A168A1503220A168A15BE
:1034D600003A03196F2A702A662A700883120313AA
:1034E60099000800831603131815673099001812FF
:1034F6008312031398178316031307138717981657
:103506008312031318160800F31B8A2A8B2A8C2AA7
:103516009B2A7009F0007109F1007209F200730923
:10352600F300F00A0319F10A0319F20A0319F30A60
:1035360008000A168A1548220A168A1583160313E6
:10354600911583128C1DA82AA92AA42A8C110A1661
:103556008A1548220A168A158312031313080800CF
:103566007008F2000130F107FF30710784000A1677
:103576008A110A200A168A15FF007208F20A8400C8
:103586007F08831780000008031DCA2ACB2AB52AA4
:1035960008007108F6007008F500DE2A7608840037
:1035A60083170008F4000130F607750884007408D4
:1035B60080000130F5070130F2020030031CF303EE
:1035C600F302720A031DEB2A730A031DEB2AEC2A87
:1035D600D12A0800803083120313D1065508BD0096
:1035E6005408BC005308BB005208BA005108C10079
:1035F6005008C0004F08BF004E08BE000A128A15C8
:103606006E220A168A15831203133D08D1003C0860
:10361600D0003B08CF003A08CE000800F401F501BF
:10362600701C162B172B1D2B7208F4070318F50AAE
:103636007308F50701300310F20DF30DFF3E031D6D
:103646001E2B01300310F10CF00CFF3E031D252B41
:1036560070087104031D302B312B132B7508F100F4
:103666007408F0000800D23083160313D600500801
:10367600D7000130D800D901DA01E001E101D730E5
:10368600CC000030CD005108CE00D630CF000A164F
:103696008A15A8230A168A15831603135908500794
:1036A60083120313EE006E0884008317800108005E
:1036B600702B7208FF00710884000A168A11002018
:1036C6000A168A150A168A1565220A168A150130FF
:1036D600F1070318F20A0030F20772088312031387
:1036E600FF00710884000A168A1100200A168A153E
:1036F600003A031D7F2B802B5C2B0800F800F40199
:10370600F5017008F200F3017208F6007308F7007D
:10371600781C8E2B8F2B952B7608F4070318F50A49
:103726007708F50701300310F60DF70DFF3E031D70
:10373600962B0310F80C7808031DA22BA32B8B2BBA
:103746007508F1007408F0000800831603134E088C
:1037560083120313ED00C82B831603134C08831240
:103766000313E100831603134D0883120313E200CB
:103776006D30E300831603134F0883120313E4002E
:103786000A168A112A230A168A15831203136D084C
:1037960084000A168A110A200A168A15003A031DA1
:1037A600D52BD62BAF2B83160313CC01CD010800E6
:1037B60083120313AC1FE02BE12BE32BAB01AC010F
:1037C600AD01AE01FD2B2030F0000030F100831278
:1037D60003132808F2002908F3000A168A15C226E0
:1037E6000A168A15013083120313AD070318AE0AB1
:1037F6000030AE072E08803AFD002C08803A7D0284
:10380600031D072C2B082D02031C0A2C0B2CE62B60
:10381600831203132A08A0002808A1002908A20081
:103826000A168A11E7200A168A1508000030700564
:10383600F80000307105F90080307205FA007F301B
:103846007305FB007B087A0479047804031D2C2C8D
:103856002D2C352C0030F3000030F2000030F10042
:103866000030F00000307405F80000307505F900EE
:1038760080307605FA007F307705FB007B087A04F6
:1038860079047804031D482C492C512C0030F7008C
:103896000030F6000030F5000030F40077087306BB
:1038A600031D5F2C76087206031D5F2C75087106D2
:1038B600031D5F2C740870060319622C632C652C9B
:1038C6000310662C03140800F901FA017608840037
:1038D6008313000884000A168A110A200A168A151C
:1038E6002A3A031D772C782CA42C76088400013004
:1038F6008007770884000008FF00023080077F08F1
:1039060084000008F900840A0008FA00B52C7A0839
:10391600F1007908F0000A30F2000030F3000A16D0
:103926008A1511230A168A1578087007F9000030DF
:10393600031801307107FA007608840001308313FA
:10394600800776088400000884000A168A110A2077
:103956000A168A15D03EF8000A307802031CB42CE9
:10396600B52C8A2C7A08F7007908F60008000310AF
:10397600720D730DF9007908031DC22CC32CCC2CD3
:103986000030F3000030F2000030F1000030F000AB
:103996002D2D7008F4007108F5007208F600730802
:1039A600F7001F300310F70CF60CF50CF40CFF3E75
:1039B600031DD52C7408F800F217FF30F005FF3010
:1039C600F105FF30F2050030F3059630F902F91FD4
:1039D600ED2CEE2C062D7908803A973E0318F42C30
:1039E600F52CF62CC32C01300310F30CF20CF10C61
:1039F600F00CFF3E031DF72C0130F907031D042DC3
:103A0600052DF62C1D2D20307902031C0B2D0C2DB7
:103A1600182DC32C0130F4000310F00DF10DF20D3A
:103A2600F30DF40B0F2D0130F9027908031D1C2D3F
:103A36001D2D0D2D78080319212D222D2D2DF00970
:103A4600F109F209F309F00A0319F10A0319F20A56
:103A56000319F30A08000A168A1511220A168A158E
:103A660080300A168A1555220A168A1501300A165A
:103A76008A1555220A168A150A128A1501200A166F
:103A86008A150A168A1511220A168A1581300A160F
:103A96008A1555220A168A150A168A159C220A16AE
:103AA6008A1583120313BE00BF013E08BF00BE0184
:103AB6003E08C0003F08C1000A168A1530220A16C1
:103AC6008A150A168A159C220A168A15831203136A
:103AD600BE00BF013E08C0043F08C1040A168A158D
:103AE6003C220A168A150A128A1501200A168A1518
:103AF6003C3083120313A3002330A200D730A10069
:103B06000A30A0004008F0004108F100F201F3017C
:103B160000300A168A1176220A168A15730883124D
:103B26000313A7007208A6007108A5007008A40078
:103B36000A128A15BE240A168A158312031323084D
:103B4600BD002208BC002108BB002008BA000800FE
:103B56000A168A1511220A168A1580300A168A153F
:103B660055220A168A1502300A168A1555220A1691
:103B76008A150A128A1501200A168A150A168A1546
:103B860011220A168A1581300A168A1555220A1636
:103B96008A150A168A159C220A168A158312031399
:103BA600BE00BF013E08BF00BE013E08C0003F0880
:103BB600C1000A168A1530220A168A150A168A15AF
:103BC6009C220A168A1583120313BE00BF013E0803
:103BD600C0043F08C1040A168A153C220A168A1533
:103BE6000A128A1501200A168A153B30831203131E
:103BF600A3008330A2001230A1006F30A00041085C
:103C0600BF004008BE000310BF0CBE0C0310BF0C63
:103C1600BE0C0310BF0CBE0C3E08F0003F08F100BE
:103C2600F201F30100300A168A1176220A168A1565
:103C3600730883120313A7007208A6007108A50073
:103C46007008A4000A128A15BE240A168A15831261
:103C560003132308BD002208BC002108BB0020086E
:103C6600BA00080083160313680883120313A5001D
:103C760083160313670883120313A4008316031322
:103C8600660883120313A3008316031365088312C1
:103C96000313A2007308A5007208A4007108A3000C
:103CA6007008A2002208F4002308F5002408F60094
:103CB6002508F70017300310F70CF60CF50CF40C7A
:103CC600FF3E031D5E2EFF307405A0000030750513
:103CD600A10020082104031D712E722E952E2208A4
:103CE600F4002308F5002408F6002508F700013043
:103CF6000310F40DF50DF60DF70DFF3E031D7B2E9B
:103D06007708760475047404031D8A2E8B2E902E74
:103D16000230F0000030F100C12E0330F000003018
:103D2600F100C12E200A2104031D9A2E9B2EBD2EC2
:103D36002208F4002308F5002408F6002508F700F9
:103D460009300310F40DF50DF60DF70DFF3E031DBA
:103D5600A42E77087604750474040319B32EB52EC1
:103D66000130B62E0030F800F9017808F000790825
:103D7600F100C12E0430F0000030F1000800720896
:103D860073040319C72EC82ECE2E72087304031DA2
:103D9600CD2ECE2ED52E70080A128A1104200A16B0
:103DA6008A155B2F7208093EF40073080318013E5A
:103DB600003EF500740884008317751C8313000801
:103DC600F600840A0008F700760877040319EC2E3B
:103DD600ED2E1F2F7208093EF40073080318013EEA
:103DE600003EF500740884008317751C83130008D1
:103DF600F600840A0008F7007208023EF80073080D
:103E06000318013E003EF900780884008317791CE8
:103E160083130008FA00840A0008FB007B08803A36
:103E2600FC007708803A7C02031D1B2F76087A0275
:103E360003181E2F1F2F5B2F720884008317731C15
:103E460083130008F400840A0008F5007208023E95
:103E5600F60073080318013E003EF700760884005A
:103E66008317771C831300087407F9007508F80098
:103E76000318F80A801F402FF8037808FA0079081B
:103E8600840083177A1C8313700880007208023E30
:103E9600F40073080318013E003EF5007408840020
:103EA6008317751C831301308007840A0318800A60
:103EB60008000030831203133A05C20000303B05A8
:103EC600C30080303C05C4007F303D05C500450871
:103ED600440443044204031D712F722F7A2F0030CD
:103EE600BD000030BC000030BB000030BA0000301E
:103EF6003E05C20000303F05C30080304005C400C7
:103F06007F304105C5004508440443044204031DAF
:103F16008D2F8E2F962F0030C1000030C00000304C
:103F2600BF000030BE00BD1F992F9A2FBE2F003054
:103F3600C2000030C3000030C4008030C5003A081B
:103F4600C2023B08031C3B0FA92FAA2FC3023C0841
:103F5600031C3C0FAF2FB02FC4023D08031C3D0FBE
:103F6600B52FB62FC5024508BD004408BC0043085E
:103F7600BB004208BA00C11FC12FC22FE62F003076
:103F8600C2000030C3000030C4008030C5003E08C7
:103F9600C2023F08031C3F0FD12FD22FC302400895
:103FA600031C400FD72FD82FC4024108031C410F12
:103FB600DD2FDE2FC5024508C1004408C0004308B6
:103FC600BF004208BE008030BD068030C1064108F1
:103FD6003D02031DF82F40083C02031DF82F3F0841
:103FE6003B02031DF82F3E083A020318FB2FFC2F55
:0A3FF600FE2F0310FF2F0314080034
:00000001FF
