:100000000A128A11E22F831203131F1908280928E4
:10001000032808007308720471047004031911287E
:10002000122814288030F3060800F8007808031915
:100030001A281B282F28F31F1E281F282F28700975
:10004000FA007109FB007209FC007309FD00FA0A4D
:100050000319FB0A0319FC0A0319FD0A3728730860
:10006000FD007208FC007108FB007008FA007308BC
:10007000720471047004031D3E283F284828003094
:10008000F3000030F2000030F1000030F000C8282A
:100090009630F90056280130F90701300310FD0CA5
:1000A000FC0CFB0CFA0CFF3E031D4E28FE307D05B8
:1000B000031D5B285C284B2876280130F9070130A6
:1000C000FA07003003180130FB0700300318013035
:1000D000FC07003003180130FD0701300310FD0C50
:1000E000FC0CFB0CFA0CFF3E031D6E28FF307D0557
:1000F000031D7B287C285D2888280130F902013007
:10010000F4000310FA0DFB0DFC0DFD0DF40B81281E
:10011000FC1B8B288C289228023079020318912826
:1001200092287D287918952896289E28FF30FA0570
:10013000FF30FB057F30FC05FF30FD050310F90C97
:100140007908F400F501F601F70118300310F40DF9
:10015000F50DF60DF70DFF3E031DA6287408FA04F1
:100160007508FB047608FC047708FD047808031979
:10017000BA28BB28C028F31FBE28BF28C028FD17F7
:100180007D08F3007C08F2007B08F1007A08F0009B
:1001900008003F3083160313CF008030CE000030BC
:1001A000CD000030CC00B301B4014B08F3004A0885
:1001B000F2004908F1004808F0000030F700003074
:1001C000F6000030F5000030F4000A168A113320E2
:1001D0000A128A110318ED28EE28B72AFF28831681
:1001E00003133A08CF003908CE003808CD0037088D
:1001F000CC000130B3070318B40A0030B407413013
:1002000083120313A3002030A2000030A1000030AD
:10021000A000831603134F0883120313A70083164D
:1002200003134E0883120313A600831603134D080D
:1002300083120313A500831603134C0883120313C0
:10024000A4000A128A15BE240A128A11831203130B
:10025000230883160313BA0083120313220883169C
:100260000313B90083120313210883160313B80084
:1002700083120313200883160313B7004808A00055
:100280004908A1004A08A2004B08A3003708A002B1
:100290003808031C380F4D294E29A1023908031CC8
:1002A000390F53295429A2023A08031C3A0F59293D
:1002B0005A29A3022308F3002208F2002108F100C2
:1002C0002008F0000A168A1527260A128A11F31B45
:1002D00079297308031D7A297208031D7A29710888
:1002E000031D7A2902307002031D7629031C792927
:1002F0007A29EF28831603133A0883120313BD00EB
:1003000083160313390883120313BC0083160313E7
:10031000380883120313BB008316031337088312B4
:100320000313BA00831603134B0883120313C1008F
:10033000831603134A0883120313C00083160313A2
:10034000490883120313BF0083160313480883125E
:100350000313BE000A168A1171220A128A11031CA5
:10036000B229B329EF28831603134808A0004908CF
:10037000A1004A08A2004B08A3004C08A0024D08A7
:10038000031C4D0FC429C529A1024E08031C4E0FA2
:10039000CA29CB29A2024F08031C4F0FD029D1290B
:1003A000A3022308F3002208F2002108F10020082C
:1003B000F0000A168A1527260A128A11F31BF12962
:1003C0007308031DF0297208031DF0297108031D2D
:1003D000F02902307002031DED290318F029F129DC
:1003E0007E2A831603134F08CB004E08CA004D081F
:1003F000C9004C08C800B72A413083120313BD005E
:100400002030BC000030BB000030BA00831603135C
:100410004F0883120313C100831603134E0883127F
:100420000313C000831603134D0883120313BF0088
:10043000831603134C0883120313BE000A168A1195
:1004400036260A128A11831203133D0883160313FA
:10045000CF00831203133C0883160313CE008312CC
:1004600003133B0883160313CD00831203133A08CA
:1004700083160313CC00FF30B3070318B40AFF3010
:10048000B4074808A0004908A1004A08A2004B0888
:10049000A3004C08A0024D08031C4D0F502A512AFE
:1004A000A1024E08031C4E0F562A572AA2024F08DB
:1004B000031C4F0F5C2A5D2AA3022308F3002208C5
:1004C000F2002108F1002008F0000A168A152726FC
:1004D0000A128A11F31B7D2A7308031D7C2A7208F5
:1004E000031D7C2A7108031D7C2A02307002031D43
:1004F000792A03187C2A7D2A7E2AF1298316031380
:100500004B0883120313BD00831603134A0883129A
:100510000313BC0083160313490883120313BB00A3
:1005200083160313480883120313BA0083160313B8
:100530004F0883120313C100831603134E0883125E
:100540000313C000831603134D0883120313BF0067
:10055000831603134C0883120313BE000A168A1174
:1005600071220A128A11031CB62AB72AFC298312A7
:1005700003136E0883160313AD002D08AE00EE1BA7
:10058000C22AC32AC82A6E08A7006D08A600CC2A72
:100590000630A6000030A7002708B2002608B100E8
:1005A0000130B1070318B20A0030B20766302E06D8
:1005B000031DDB2ADC2AF62AB41FDF2AE02AEA2AF6
:1005C0003F30CF008030CE000030CD000030CC0076
:1005D000B301B40167302D060319EF2AF02AF62A79
:1005E0003308B1070318B20A3408B207BB01BC01D3
:1005F0004B08C0004A08BF004908BE004808BD00BB
:100600004F08BA004E08B9004D08B8004C08B700B2
:100610002F2C831603134F0883120313BD00831678
:1006200003134E0883120313BC00831603134D08F3
:1006300083120313BB00831603134C0883120313A6
:10064000BA0083160313400883120313C1008316F4
:1006500003133F0883120313C000831603133E08DD
:1006600083120313BF00831603133D088312031381
:10067000BE000A168A1136260A128A118312031343
:100680003D08D7003C08D6003B08D5003A08D40006
:100690000A168A1127250A128A1183120313570892
:1006A00083160313C400831203135608831603131F
:1006B000C30083120313550883160313C200831269
:1006C0000313540883160313C1004408F3004308BE
:1006D000F2004208F1004108F0000A168A11D62003
:1006E0000A128A11710883160313B0007008AF0054
:1006F0004F0883120313A700831603134E088312B7
:100700000313A600831603134D0883120313A500D9
:10071000831603134C0883120313A40083160313D8
:10072000440883120313A3008316031343088312A0
:100730000313A20083160313420883120313A100BC
:1007400083160313410883120313A0000A128A15AB
:10075000BE240A128A11831203132308BD00220843
:10076000BC002108BB002008BA0083160313400810
:1007700083120313C100831603133F08831203136C
:10078000C000831603133E0883120313BF008316B1
:1007900003133D0883120313BE000A168A15A4260C
:1007A0000A128A11831203133D0883160313C00033
:1007B000831203133C0883160313BF008312031331
:1007C0003B0883160313BE00831203133A088316F3
:1007D0000313BD00413083120313BD002030BC0061
:1007E0000030BB000030BA00831603134F08831299
:1007F0000313C100831603134E0883120313C000B2
:10080000831603134D0883120313BF0083160313CB
:100810004C0883120313BE000A168A1136260A12E8
:100820008A11831203133D0883160313CF0083122A
:1008300003133C0883160313CE00831203133B08F3
:1008400083160313CD00831203133A088316031390
:10085000CC000130BB070318BC0A0030BC073C08C1
:10086000803AA0003208803A2002031D392C31085A
:100870003B02031C3C2C3D2C092B403083120313FC
:10088000A300A030A2000030A1000030A000831619
:1008900003134F0883120313A700831603134E0894
:1008A00083120313A600831603134D088312031348
:1008B000A500831603134C0883120313A4000A1225
:1008C0008A15BE240A128A11831203132308831681
:1008D0000313C40083120313220883160313C300F7
:1008E00083120313210883160313C2008312031318
:1008F000200883160313C100400883120313BD00B0
:10090000831603133F0883120313BC0083160313DB
:100910003E0883120313BB00831603133D088312A2
:100920000313BA0083160313440883120313C10090
:1009300083160313430883120313C00083160313A3
:10094000420883120313BF00831603134108831266
:100950000313BE000A168A1171220A128A110318A3
:10096000B22CB32CBE2C003083160313C40000300D
:10097000C3000030C2000030C100E72C831603130F
:100980004008F3003F08F2003E08F1003D08F00087
:100990004408F7004308F6004208F5004108F40057
:1009A0000A168A1133200A128A11031CD82CD92C5A
:1009B000E72C831603132F18DE2CDF2CE72C0030D6
:1009C000C4000030C3000030C2000030C1008316F4
:1009D00003134408F3004308F2004208F100410801
:1009E000F0004B08F7004A08F6004908F5004808EF
:1009F000F4000A128A1562220A128A1173088316F9
:100A00000313C0007208BF007108BE007008BD006B
:100A1000400883120313BD00831603133F0883129B
:100A20000313BC00831603133E0883120313BB0099
:100A3000831603133D0883120313BA004130A30049
:100A40002030A2000030A1000030A0008316031364
:100A50003A0883120313A70083160313390883127D
:100A60000313A60083160313380883120313A5008B
:100A700083160313370883120313A4000A128A157E
:100A8000BE240A128A11831203132308C10022080C
:100A9000C0002108BF002008BE000A168A1171227A
:100AA0000A128A11031C552D562DA92D01308316CB
:100AB0000313B3070318B40A0030B407413083129C
:100AC0000313A3002030A2000030A1000030A000DA
:100AD000831603133A0883120313A7008316031324
:100AE000390883120313A6008316031338088312F0
:100AF0000313A50083160313370883120313A400FE
:100B00000A128A15BE240A128A11831203132308BB
:100B100083160313BA0083120313220883160313E8
:100B2000B90083120313210883160313B80083123C
:100B30000313200883160313B70066302E06031D27
:100B4000A22DA32DA92D0130B1070318B20A003040
:100B5000B207831603133A08CF003908CE003808CD
:100B6000CD003708CC003408A5003308A400AC0140
:100B7000A801A901BB01BC015B2F831603134F0819
:100B800083120313BD00831603134E08831203134D
:100B9000BC00831603134D0883120313BB00831696
:100BA00003134C0883120313BA008316031340087F
:100BB00083120313C100831603133F088312031328
:100BC000C000831603133E0883120313BF0083166D
:100BD00003133D0883120313BE000A168A1136263A
:100BE0000A128A11831203133D08D7003C08D6006D
:100BF0003B08D5003A08D4000A168A1127250A12A4
:100C00008A1183120313570883160313C400831237
:100C10000313560883160313C300831203135508E6
:100C200083160313C200831203135408831603139D
:100C3000C1004408F3004308F2004208F1004108F3
:100C4000F0000A168A11D6200A128A117108803A19
:100C5000FF0080307F02031D2F2E0A307002031820
:100C6000322E332E492E831603134408F300430813
:100C7000F2004208F1004108F0000A168A11D6205D
:100C80000A128A11710883160313B0007008AF00AE
:100C90004F2E093083160313AF000030B0002C082C
:100CA000031D532E542E852EA51F572E582E852EEC
:100CB0004608103E84002E30831780000130C6079E
:100CC0000318C70A0030C707FF30B5070318B60A74
:100CD000FF30B6070130AC00852E4608103E840078
:100CE0003030831780000130C6070318C70A003070
:100CF000C707FF30B5070318B60AFF30B607FF3045
:100D0000A8070318A90AFF30A90728082904031D0A
:100D10008A2E8B2E6D2E4608103E84002F08303E02
:100D2000831780000130C6070318C70A0030C707C1
:100D3000FF30B5070318B60AFF30B6074F08831215
:100D40000313A700831603134E0883120313A60090
:100D5000831603134D0883120313A5008316031390
:100D60004C0883120313A400831603134408831250
:100D70000313A30083160313430883120313A20073
:100D800083160313420883120313A100831603136F
:100D9000410883120313A0000A128A15BE240A1206
:100DA0008A11831203132308BD002208BC00210806
:100DB000BB002008BA0083160313400883120313F4
:100DC000C100831603133F0883120313C000831668
:100DD00003133E0883120313BF00831603133D0859
:100DE00083120313BE000A168A15A4260A128A115A
:100DF000831203133D0883160313C00083120313E9
:100E00003C0883160313BF00831203133B088316A9
:100E10000313BE00831203133A0883160313BD00A5
:100E2000413083120313BD002030BC000030BB00F2
:100E30000030BA00831603134F0883120313C10056
:100E4000831603134E0883120313C0008316031383
:100E50004D0883120313BF00831603134C0883123B
:100E60000313BE000A168A1136260A128A1183124B
:100E700003133D0883160313CF00831203133C08AA
:100E800083160313CE00831203133B088316031348
:100E9000CD00831203133A0883160313CC00FF30EE
:100EA000A4070318A50AFF30A5070130BB070318E4
:100EB000BC0A0030BC073C08803AA0003208803AE7
:100EC0002002031D652F31083B020318682F692F8C
:100ED000782F831603134708803AFF0080307F0283
:100EE000031D742F4B304602031C772F782FBD2D26
:100EF0004F3083160313BB000030BC003B08103E8C
:100F00008400831780011030A0004608A0023B082F
:100F10002007F0001030F1004708F3004608F20007
:100F20000A168A1583260A128A11831603134608A5
:100F30003B02C6004708031C470A3C02C70045089D
:100F4000031DA32FA52F0130A62F0030A000A10163
:100F50002008BB002108BC0045080319B02FB12FA1
:100F6000BD2FFF30C6070318C70AFF30C707460862
:100F7000103E84004508831780003B08B5023C08FA
:100F8000031CB603B602831203136808A80069089D
:100F9000A900831603134608103E83120313AA0008
:100FA00083160313360883120313AC00831603134E
:100FB000350883120313AB000A168A15C2270A12DA
:100FC0008A1108008313E7308400F0300A128A1572
:100FD00000200A128A11831790308400B4300A125C
:100FE0008A1500200A128A111030840060300A121B
:100FF0008A1500200A128A1183010A128A153928DB
:1010000064008001840A04060319003404060128E0
:10101000831603130710871007110812881208138C
:10102000881302300A168A1593270A128A15283067
:101030000A168A1593270A128A1506300A168A1587
:1010400093270A128A150C300A168A1593270A125A
:101050008A1501300A168A1593270A128A15033059
:10106000F4009730F300F30B3328F40B33283828BF
:1010700008000A128A1508200A128A150A168A150B
:1010800013260A128A1500300A168A1553260A12E8
:101090008A150A168A1502260A128A150A128A1158
:1010A00003200A128A150A168A150A260A128A15B8
:1010B000710883160317D5007008D40044308312DA
:1010C0000313BD008030BC000030BB000030BA000C
:1010D0004030A3005330A2003330A1003330A000D1
:1010E000831603175408F0005508F1000030F11B77
:1010F000FF30F200F30001300A128A1115200A12A3
:101100008A15730883120313A7007208A6007108DA
:10111000A5007008A4000A128A15BE240A128A15B6
:10112000831203132308C1002208C0002108BF0056
:101130002008BE000A168A1136260A128A15831262
:1011400003133D0883160317C300831203133C08DF
:1011500083160317C200831203133B088316031779
:10116000C100831203133A0883160317C0003C30F2
:1011700083120313BD002330BC00D730BB000A30FC
:10118000BA00BF30F3000030F2000030F100003050
:10119000F000831603174308F7004208F6004108E1
:1011A000F5004008F4000A128A1562220A128A1514
:1011B000730883120313C1007208C0007108BF00D6
:1011C0007008BE000A168A1136260A128A15831282
:1011D00003133D0883160317C700831203133C084B
:1011E00083160317C600831203133B0883160317E5
:1011F000C500831203133A0883160317C400A430F2
:1012000083160313E0001E30E1008316031747081E
:1012100083160313E500831603174608831603138A
:10122000E40083160317450883160313E3008316AF
:101230000317440883160313E2000A168A15682769
:101240000A128A1580300A168A1593270A128A15FF
:10125000A430F3001030F4000A168A153C260A1256
:101260008A1501300A168A1553260A128A150A169B
:101270008A1502260A128A150A128A1103200A12F6
:101280008A150A168A150A260A128A157108831603
:101290000317D7007008D600403083120313A30051
:1012A0005330A2003330A1003330A000831603175F
:1012B0005608F0005708F1000030F11BFF30F20033
:1012C000F30001300A128A1115200A128A157308D8
:1012D00083120313A7007208A6007108A500700806
:1012E000A4000A128A15BE240A128A158312031357
:1012F000230883160317D3008312031322088316CF
:101300000317D20083120313210883160317D10099
:1013100083120313200883160317D000443083126E
:101320000313BD008030BC000030BB000030BA00A9
:101330004430A3007A30A2000030A1000030A000A9
:1013400083160317530883120313A700831603178A
:10135000520883120313A600831603175108831241
:101360000313A50083160317500883120313A40068
:101370000A128A15BE240A128A158312031323083F
:10138000C1002208C0002108BF002008BE000A16C4
:101390008A1136260A128A15831203133D08831612
:1013A0000317CB00831203133C0883160317CA00EC
:1013B000831203133B0883160317C9008312031318
:1013C0003A0883160317C800413083120313BD0087
:1013D0002030BC000030BB000030BA00C330F30046
:1013E000FA30F2000030F1000030F00083160317ED
:1013F0004B08F7004A08F6004908F5004808F400D1
:101400000A128A1562220A128A15730883120313BC
:10141000C1007208C0007108BF007008BE000A1643
:101420008A1136260A128A15831203133D08831681
:101430000317CF00831203133C0883160317CE0053
:10144000831203133B0883160317CD008312031383
:101450003A0883160317CC00943083160313E00078
:101460000F30E100831603174F0883160313E500BE
:10147000831603174E0883160313E400831603171D
:101480004D0883160313E300831603174C088316D5
:101490000313E2000A168A1568270A128A15C0305B
:1014A0000A168A1593270A128A159430F300103011
:1014B000F4000A168A153C260A128A1543280A12D5
:1014C0008A1100287308F8008030F8057308831229
:1014D0000313A0002007FA00F21F6F2A702A712A56
:1014E0007A147A080319752A762A862A7A0A031D3D
:1014F0007A2A7B2A832A0030F3000030F200003081
:10150000F1000030F000F217F3018E2A0030F300F2
:101510000030F2000030F1000030F0007708F900F0
:101520008030F905790878060319972A982A992AAC
:1015300078177708A0002007F900F61FA02AA12A33
:10154000A22A791479080319A62AA72AB72A790AA0
:10155000031DAB2AAC2AB42A0030F7000030F60095
:101560000030F5000030F400F617F701BF2A003014
:10157000F7000030F6000030F5000030F4007A0883
:1015800079020318C42AC52AE92A781FC82AC92A59
:10159000CB2A8030F8067A08FB007908FA007B082D
:1015A000F9007008FB007408F0007B08F400710873
:1015B000FB007508F1007B08F5007208FB00760857
:1015C000F2007B08F6007308FB007708F3007B0845
:1015D000F700FB017908A000A1012108A3007A0807
:1015E0002002A200031CA3032308803AFF008030DE
:1015F0007F02031DFD2A1A302202031C002B012B3F
:10160000382B7308720471047004031D082B0A2B15
:1016100001300B2B0030FB000030F3000030F200F3
:101620000030F1000030F0007908FA003E2B7B1CFE
:101630001A2B1B2B242B7B0883120313A0000310EF
:10164000200C0138FB00262B0310FB0C701C292BEF
:101650002A2B2B2BFB17013083120313A000730DD1
:10166000F30CF20CF10CF00CA00B2F2B0130FA074D
:1016700079087A02031C3D2B3E2B172B781B412B3C
:10168000422B8D2B7A08031D462B472B502B003005
:10169000F3000030F2000030F1000030F000BD2C0B
:1016A0007408F007750803110318013E0319592B3C
:1016B000F107760803110318013E0319602BF207A6
:1016C000770803110318013E0319672BF307731CF6
:1016D0006A2B6B2B452C7B1C6E2B6F2B782B7B087E
:1016E00083120313A0000310200C0138FB007A2B97
:1016F0000310FB0C701C7D2B7E2B7F2BFB17013006
:1017000083120313A000730DF30CF20CF10CF00C18
:10171000A00B832B0130FA07452C7308803AFF0099
:101720007708803A7F02031D9F2B76087202031D03
:101730009F2B75087102031D9F2B740870020318FC
:10174000A22BA32BFC2BFF3083120313A000FF302E
:10175000A100FF30A200FF30A3007408A4007508A8
:10176000A5007608A6007708A7007008A4027108F3
:10177000031C710FBC2BBD2BA5027208031C720F3A
:10178000C22BC32BA6027308031C730FC82BC92BD3
:10179000A7022408A00725080318250FD02BD12B5A
:1017A000A10726080318260FD62BD72BA207270838
:1017B0000318270AA3072308F3002208F2002108D0
:1017C000F1002008F0008030F8067B03FF3AFB00B0
:1017D0007B08031DEC2BED2B0A2C0130F0070030A9
:1017E00003180130F107003003180130F207003010
:1017F00003180130F3070A2C7408F0027508031C63
:10180000750FF1027608031C760FF2027708031CAD
:10181000770FF3027308720471047004031D112C16
:10182000122C412C7B08031D162C172C412C003048
:10183000F3000030F2000030F1000030F000BD2C69
:10184000013083120313A0000310F00DF10DF20D0F
:10185000F30DA00B242CFB1F2E2C2F2C302C7014DE
:101860007B1C332C342C382C03147B0DFB003A2CBE
:101870000310FB0D7A0803193E2C3F2C412C01303C
:10188000FA02F21F442C452C202CF901FB1F492C95
:101890004A2C582C7B087F3903194F2C502C532C81
:1018A0000130F900582C701C562C572C582C502CF9
:1018B000790803195C2C5D2C912C0130F007003065
:1018C00003180130F107003003180130F20700302F
:1018D00003180130F307731C6E2C6F2C912C7008C9
:1018E00083120313A0007108A1007208A2007308FC
:1018F000A3000130A400230DA30CA20CA10CA00C8A
:10190000A40B7B2C2308F3002208F2002108F1002D
:101910002008F0007A0A03198E2C8F2C912C0130AC
:10192000FA077A0A0319952C962C9B2C7A08031D2A
:101930009A2C9B2CA92C0030F3000030F2000030D0
:10194000F1000030F0007A08031DA72CA82CA92C68
:10195000F8017A1CAC2CAD2CAF2CF217B12C7F30D7
:10196000F2057A0883120313A0000310200CF30081
:10197000F81FBB2CBC2CBD2CF317080083120313DB
:101980002308AD008030AD052308A8002807B30068
:10199000A21FCB2CCC2CCD2C331433080319D12C03
:1019A000D22CE12C330A031DD62CD72CDF2C00308F
:1019B000A3000030A2000030A1000030A000A21758
:1019C000E92C0030A3000030A2000030A10000305C
:1019D000A00027088039AD062708A8002807B20014
:1019E000A61FF32CF42CF52C321432080319F92C11
:1019F000FA2C092D320A031DFE2CFF2C072D003076
:101A0000A7000030A6000030A5000030A400A617F3
:101A1000112D0030A7000030A6000030A5000030D6
:101A2000A40032080319152D162D1B2D3308031D94
:101A30001A2D1B2D242D0030A3000030A2000030F1
:101A4000A1000030A000FF2F2008F00026080A1691
:101A50008A15ED260A128A15710883120313B9003C
:101A60007008B8003808A800A901AA01AB012B082A
:101A7000B1002A08B0002908AF002808AE003908D4
:101A8000A800A901AA01AB012B08B7002A08B600DB
:101A90002908B5002808B4002108F00025080A1616
:101AA0008A15ED260A128A15710883120313B900EC
:101AB0007008B8003808A800A901AA01AB012808DD
:101AC000AE07290803110318013E0319682DAF075B
:101AD0002A0803110318013E03196F2DB0072B08C4
:101AE00003110318013E0319762DB1073908A80028
:101AF000A901AA01AB012808B4072908031103189A
:101B0000013E0319842DB5072A0803110318013E6D
:101B100003198B2DB6072B0803110318013E031977
:101B2000922DB7072208F00024080A168A15ED2620
:101B30000A128A15710883120313B9007008B800DD
:101B40003808A800A901AA01AB012808AE07290896
:101B500003110318013E0319AE2DAF072A08031124
:101B60000318013E0319B52DB0072B080311031804
:101B7000013E0319BC2DB1073908A800A901AA012B
:101B8000AB012808B407290803110318013E031903
:101B9000CA2DB5072A0803110318013E0319D12DD8
:101BA000B6072B0803110318013E0319D82DB707F8
:101BB0000830A8000310AE0DAF0DB00DB10DA80B8D
:101BC000DA2D2108F00024080A168A15ED260A12DB
:101BD0008A15710883120313B9007008B800380819
:101BE000A8003908A900AA01AB012808AE072908F6
:101BF00003110318013E0319FE2DAF072A08031134
:101C00000318013E0319052EB0072B080311031812
:101C1000013E03190C2EB1072008F00025080A1612
:101C20008A15ED260A128A15710883120313B9006A
:101C30007008B8003808A8003908A900AA01AB014B
:101C40002808AE07290803110318013E0319292E9D
:101C5000AF072A0803110318013E0319302EB007FD
:101C60002B0803110318013E0319372EB107083062
:101C7000A8000310AE0DAF0DB00DB10DA80B392E9D
:101C80002008F00024080A168A15ED260A128A1583
:101C9000710883120313B9007008B8003808A8004F
:101CA0003908A900AA01AB012808AE0729080311C9
:101CB0000318013E03195D2EAF072A08031103180C
:101CC000013E0319642EB0072B0803110318013ECF
:101CD00003196B2EB1072108F00026080A168A1591
:101CE000ED260A128A15710883120313B9007008D1
:101CF000B8003808A8003908A900AA01AB012808D3
:101D0000B407290803110318013E0319882EB507EB
:101D10002A0803110318013E03198F2EB6072B085A
:101D200003110318013E0319962EB7072208F0008D
:101D300025080A168A15ED260A128A1571088312DB
:101D40000313B9007008B8003808A8003908A900C2
:101D5000AA01AB012808B407290803110318013EA2
:101D60000319B32EB5072A0803110318013E0319FE
:101D7000BA2EB6072B0803110318013E0319C12E12
:101D8000B7072208F00026080A168A15ED260A125F
:101D90008A15710883120313B9007008B800380857
:101DA000A8003908A900AA01AB0108300310A80D4A
:101DB000A90DAA0DAB0DFF3E031DD62E2808B407B2
:101DC000290803110318013E0319E72EB5072A0855
:101DD00003110318013E0319EE2EB6072B08031159
:101DE0000318013E0319F52EB7072E08A8002F0887
:101DF000A9003008AA003108AB0018300310AB0C62
:101E0000AA0CA90CA80CFF3E031DFE2E2808B4073F
:101E1000290803110318013E03190F2FB5072A08DB
:101E200003110318013E0319162FB6072B080311DF
:101E30000318013E03191D2FB7070830A80003102F
:101E4000AE0DAF0DB00DB10DA80B1F2F330832072B
:101E5000A800A901A90D2808823EB8002908031886
:101E6000013EFF3EB900512F0130A8000310B40D10
:101E7000B50DB60DB70DA80B362FB11F402F412F52
:101E8000422F34140130A8000310AE0DAF0DB00D79
:101E9000B10DA80B442FFF30B8070318B90AFF3063
:101EA000B907B61F542F552F342FB201B11F592F28
:101EB0005A2F762FFF302E05A800FF302F05A900DE
:101EC000FF303005AA007F303105AB002B082A0413
:101ED0002904280403196D2F6E2F712F0130B200D1
:101EE000762F341C742F752F762F6E2F320803191E
:101EF0007A2F7B2FAC2F0130B4070030031801304C
:101F0000B507003003180130B60700300318013060
:101F1000B707371C8C2F8D2FAC2F3408A80035083D
:101F2000A9003608AA003708AB000130AC002B0D21
:101F3000AB0CAA0CA90CA80CAC0B972F2B08B70064
:101F40002A08B6002908B5002808B4000130B807EF
:101F50000318B90A0030B9073908803AFF00803009
:101F60007F02031DB52FFF303802031CB82FB92F95
:101F7000C42F7F3083120313B7008030B6000030C7
:101F8000B5000030B400F52F831203133908803AEE
:101F9000FF0080307F02031DCF2F0130380203186D
:101FA000D22FD32FDF2F003083120313B70000305E
:101FB000B6000030B5000030B400AD01F52F83123B
:101FC00003133808B300FF30B405FF30B5057F3088
:101FD000B6050030B705331CEE2FEF2FF02FB617E4
:101FE0003308A8000310280CB7002D08B7043708E1
:101FF000A3003608A2003508A1003408A00008009C
:102006000800F20083120313071487107208F039D0
:10201600880007150330F1009730F000F00B112807
:10202600F10B112816288312031307117208F0000A
:1020360003300310F00DFF3E031D1C280310700D26
:10204600F039880007150330F1009730F000F00BE7
:102056002A28F10B2A282F288312031307110800B8
:1020660000307005F80000307105F9008030720507
:10207600FA007F307305FB007B087A047904780444
:10208600031D462847284F280030F3000030F20091
:102096000030F1000030F00000307405F800003028
:1020A6007505F90080307605FA007F307705FB006C
:1020B6007B087A0479047804031D622863286B2858
:1020C6000030F7000030F6000030F5000030F40074
:1020D60077087306031D792876087206031D79288A
:1020E60075087106031D79287408700603197C2883
:1020F6007D287F280310802803140800F901FA01BF
:10210600760884008313000884000A168A150020C6
:102116000A168A112A3A031D91289228C0287608A1
:102126008400013080077708840083170008FF00C9
:10213600023080077F08840083130008F900840AB0
:102146000008FA00D1287A08F1007908F0000A3070
:10215600F2000030F3000A168A15C8260A168A11FC
:1021660078087007F9000030031801307107FA008B
:1021760076088400013083138007760884000008FF
:1021860084000A168A1500200A168A11D03EF80025
:102196000A307802031CD028D128A6287A08F7002E
:1021A6007908F60008000310720D730DF90079081E
:1021B600031DDE28DF28E8280030F3000030F20097
:1021C6000030F1000030F00049297008F400710871
:1021D600F5007208F6007308F7001F300310F70CBD
:1021E600F60CF50CF40CFF3E031DF1287408F800FC
:1021F600F217FF30F005FF30F105FF30F205003031
:10220600F3059630F902F91F09290A2922297908C6
:10221600803A973E0318102911291229DF28013028
:102226000310F30CF20CF10CF00CFF3E031D132906
:102236000130F907031D20292129122939292030C7
:102246007902031C272928293429DF280130F400C4
:102256000310F00DF10DF20DF30DF40B2B290130E7
:10226600F9027908031D382939292929780803191B
:102276003D293E294929F009F109F209F309F00A35
:102286000319F10A0319F20A0319F30A080083165F
:1022960003136A0883120313A50083160313690840
:1022A60083120313A400831603136808831203130F
:1022B600A30083160313670883120313A20073088F
:1022C600A5007208A4007108A3007008A2002208E5
:1022D600F4002308F5002408F6002508F700173057
:1022E6000310F70CF60CF50CF40CFF3E031D7329D6
:1022F600FF307405A00000307505A10020082104F8
:10230600031D86298729AA292208F4002308F50037
:102316002408F6002508F70001300310F40DF50D2A
:10232600F60DF70DFF3E031D902977087604750418
:102336007404031D9F29A029A5290230F00000304E
:10234600F100D6290330F0000030F100D629200A2A
:102356002104031DAF29B029D2292208F40023083D
:10236600F5002408F6002508F70009300310F40DDF
:10237600F50DF60DF70DFF3E031DB9297708760416
:10238600750474040319C829CA290130CB29003001
:10239600F800F9017808F0007908F100D629043030
:1023A600F0000030F1000800720873040319DC29FC
:1023B600DD29E32972087304031DE229E329EA29CA
:1023C60070080A168A1103200A168A11702A7208E2
:1023D600093EF40073080318013E003EF500740838
:1023E60084008317751C83130008F600840A00080E
:1023F600F700760877040319012A022A342A72089C
:10240600093EF40073080318013E003EF500740807
:1024160084008317751C83130008F600840A0008DD
:10242600F7007208023EF80073080318013E003EEA
:10243600F900780884008317791C83130008FA00D2
:10244600840A0008FB007B08803AFC007708803A83
:102456007C02031D302A76087A020318332A342AAE
:10246600702A720884008317731C83130008F40013
:10247600840A0008F5007208023EF6007308031885
:10248600013E003EF700760884008317771C83130D
:1024960000087407F9007508F8000318F80A801F89
:1024A600552AF8037808FA007908840083177A1CFD
:1024B6008313700880007208023EF4007308031844
:1024C600013E003EF500740884008317751C8313D3
:1024D60001308007840A0318800A0800003083123E
:1024E60003133A05C20000303B05C30080303C05AB
:1024F600C4007F303D05C50045084404430442043A
:10250600031D862A872A8F2A0030BD000030BC00B2
:102516000030BB000030BA0000303E05C20000307B
:102526003F05C30080304005C4007F304105C5002B
:102536004508440443044204031DA22AA32AAB2AE5
:102546000030C1000030C0000030BF000030BE00C7
:10255600BD1FAE2AAF2AD32A0030C2000030C30006
:102566000030C4008030C5003A08C2023B08031C94
:102576003B0FBE2ABF2AC3023C08031C3C0FC42AD9
:10258600C52AC4023D08031C3D0FCA2ACB2AC50230
:102596004508BD004408BC004308BB004208BA0019
:1025A600C11FD62AD72AFB2A0030C2000030C3003A
:1025B6000030C4008030C5003E08C2023F08031C3C
:1025C6003F0FE62AE72AC3024008031C400FEC2A05
:1025D600ED2AC4024108031C410FF22AF32AC50260
:1025E6004508C1004408C0004308BF004208BE00B9
:1025F6008030BD068030C10641083D02031D0D2B0B
:1026060040083C02031D0D2B3F083B02031D0D2B0A
:102616003E083A020318102B112B132B0310142B10
:10262600031408008316031352088400831300085A
:1026360084000A168A1500200A168A11253A031DF7
:10264600252B262B022C5208840001308007EB0133
:10265600EC010030EF00FF30ED00FF30EE005208D5
:102666008400000884000A168A1500200A168A11BA
:102676002E3A031D3F2B402B532B5208840001306A
:1026860080075208F6005308F7000A168A118120BF
:102696000A168A11770883160313EE007608ED00F2
:1026A6005208840083130008DB005B0884000A16C6
:1026B6008A1500200A168A11DA00692B0130DB0719
:1026C600742B6C30DA00742BDA01742B5A084C3AEE
:1026D6000319612B2A3A0319642B0A3A0319612B51
:1026E600672B5B0884000A168A1500200A168A11D1
:1026F600663A031D7F2B802BFA2BAD2B53088400E3
:1027060083170008FF00043080077F0884008313C6
:102716000008D600840A0008D700840A0008D800FA
:10272600840A0008D900B52B5308840083170008D3
:10273600FF00043080077F08840083130008D6005A
:10274600840A0008D700840A0008D800840A000812
:10275600D900B52B5A084C3A0319972B203A03197E
:10276600812BB52B520884005B08013E8000EF2BBD
:10277600500883120313E8008316031351088312CB
:102786000313E90083160313590883120313ED009C
:1027960083160313580883120313EC0083160313DE
:1027A600570883120313EB0083160313560883128C
:1027B6000313EA00831603135B0884000A168A15BE
:1027C60000200A168A1183120313EE000A168A11D4
:1027D6001C240A168A111B2C5B0884000A168A150B
:1027E60000200A168A11663A0319BB2BFA2B8316A8
:1027F6000313520884000130831380071B2C5208F0
:102806008400000884000A168A1500200A168A1118
:10281600D400D5015408F0005508F1005008F20024
:102826005108F3000A168A11D7210A168A11FA2BC3
:10283600080083160313C501831203136D0883165C
:102846000313CB00831203136C0883160313CA0009
:10285600831203136B0883160313C9008312031331
:102866006A0883160313C8004B0883120313BD00BE
:10287600831603134A0883120313BC00831603133B
:10288600490883120313BB008316031348088312F7
:102896000313BA000030C1000030C0000030BF0092
:1028A6000030BE000A168A1171220A168A11031810
:1028B6005D2C5E2C792C013083160313C5004B0862
:1028C600F3004A08F2004908F1004808F0000A122D
:1028D6008A110A200A168A11730883160313CB007D
:1028E6007208CA007108C9007008C800831603136D
:1028F600C601C7016C08B6006B08B5004508031988
:10290600852C862C962C4508031D8A2C8B2C902C06
:102916002B30AA000030AB00942C2D30AA000030DA
:10292600AB002A08C5004B08F3004A08F200490824
:10293600F1004808F0000A168A114A210A168A117F
:1029460070037104031DA82CA92CEE2C8316031307
:1029560045080319AF2CB02CC02C45088312031769
:102966009000FF3083160313B5070318B60AFF302D
:10297600B6070130C6000030C7004608103EF0001A
:102986002D30F1000A168A156A260A168A11FD30BC
:1029960083160313B5070318B60AFF30B60783126A
:1029A60003136808A8006908A9001030AA00831656
:1029B6000313360883120313AC008316031335087A
:1029C60083120313AB000A168A15C2270A168A1148
:1029D6000A128A11E12F831603134B08F3004A08E3
:1029E600F2004908F1004808F0000A168A114A2147
:1029F6000A168A1170087104031D022D052D0A128C
:102A06008A11C92883160313450803190B2D0C2DAB
:102A16001C2D4508831203179000FF3083160313FD
:102A2600B5070318B60AFF30B6070130C6000030F6
:102A3600C7004608103EF0003130F1000A168A152C
:102A46006A260A168A11CA2C8316031713088312DC
:102A56000313E70083160317120883120313E60015
:102A660083160317110883120313E5008316031751
:102A7600100883120313E4005708E7005608E6001F
:102A86005508E5005408E4006408D8006508D90034
:102A96006608DA006708DB0017300310DB0CDA0C77
:102AA600D90CD80CFF3E031D502DFF305805DC0015
:102AB60000305905DD005C08813EE2005D08031820
:102AC600013EFF3EE3006308803AFF0080307F024C
:102AD600031D6F2D17306202031C722D732D742D8A
:102AE600352E83120313E31B792D7A2DEA2D620A04
:102AF600FF00FF30D800FF30D9007F30DA00003009
:102B0600DB008A2D5B0DDB0CDA0CD90CD80CFF0B25
:102B1600852D5B08E1005A08E0005908DF005808D7
:102B2600DE005E086405D8005F086505D900600808
:102B36006605DA0061086705DB005B085A0459047C
:102B46005804031DA72DA82DA92D732D6408D800A0
:102B56006508D9006608DA006708DB001F30031035
:102B6600DB0CDA0CD90CD80CFF3E031DB22D5B082A
:102B76005A04590458040319C12DC22DD92D5E08D3
:102B8600E4075F0803110318013E0319CB2DE5077F
:102B9600600803110318013E0319D22DE6076108E8
:102BA60003110318013E0319D92DE7075E09D80062
:102BB6005F09D9006009DA006109DB005808E405FD
:102BC6005908E5055A08E6055B08E7052D2E640851
:102BD600D8006508D9006608DA006708DB001F30F0
:102BE6000310DB0CDA0CD90CD80CFF3E031DF32DB9
:102BF6005B085A0459045804031D022E032E0C2E9A
:102C06000030E7000030E6000030E5000030E40068
:102C16002D2E6408D8006508D9006608DA00670812
:102C2600DB0001300310D80DD90DDA0DDB0DFF3EA8
:102C3600031D152E5B085A04590458040319242E43
:102C4600252E2D2EBF30E7008030E6000030E5004F
:102C56000030E4006708D7006608D6006508D5008E
:102C66006408D4000800831203134108CB008030A7
:102C7600CB054108C2004207D200C01F432E442E96
:102C8600452E521452080319492E4A2E5A2E520A1C
:102C9600031D4E2E4F2E572E0030C1000030C000AF
:102CA6000030BF000030BE00C017C101622E0030E8
:102CB600C1000030C0000030BF000030BE003D083B
:102CC6008039CB063D08C2004207D300BC1F6C2EDC
:102CD6006D2E6E2E531453080319722E732E832EE7
:102CE600530A031D772E782E802E0030BD0000304B
:102CF600BC000030BB000030BA00BC17BD018B2EF3
:102D06000030BD000030BC000030BB000030BA000F
:102D16003D083C043B043A04031D922E932EAA2E32
:102D26000030C1000030C0000030BF000030BE00DF
:102D36008030C0047F30C1044B08C1044108BD0087
:102D46004008BC003F08BB003E08BA00FF2F5208EF
:102D5600031DAE2EAF2EB82E0030BD000030BC00D5
:102D66000030BB000030BA00FF2F5208C200C3017A
:102D76004308C50053084202C400031CC5034408A7
:102D86007F3ECC0045080318013E003ECD004108B9
:102D9600CA004008C9003F08C8003E08C700003006
:102DA600C1000030C0000030BF000030BE0000305F
:102DB600D1000030D0000030CF000030CE00D3016B
:102DC6002C2F53080319E82EE92E092F0130C200D3
:102DD6000310C70DC80DC90DCA0DC20BEB2E01306D
:102DE600C2000310BE0DBF0DC00DC10DC20BF42EE7
:102DF600D11FFE2EFF2E002F3E140130C2000310FD
:102E0600CE0DCF0DD00DD10DC20B022F3D084A02BB
:102E1600031D172F3C084902031D172F3B084802C4
:102E2600031D172F3A084702031C1A2F1B2F2A2FA0
:102E360051173A08C7023B08031C3B0FC8023C085F
:102E4600031C3C0FC9023D08031C3D0FCA0201309A
:102E5600D3071A305302031C312F322FE42E4A08AF
:102E66004904480447040319392F3A2F592F4E14A1
:102E7600592F0130C2000310BE0DBF0DC00DC10D8C
:102E8600C20B3E2FD11F482F492F4A2F3E14013027
:102E9600C2000310CE0DCF0DD00DD10DC20B4C2F9D
:102EA600FF30CC070318CD0AFF30CD07C01F5C2FBB
:102EB6005D2F3C2FD301D11F612F622F7E2FFF3054
:102EC6004E05C200FF304F05C300FF305005C40059
:102ED6007F305105C50045084404430442040319E4
:102EE600752F762F792F0130D3007E2F3E1C7C2F35
:102EF6007D2F7E2F762F53080319822F832FB42F11
:102F06000130BE07003003180130BF070030031838
:102F16000130C007003003180130C107411C942F4F
:102F2600952FB42F3E08C2003F08C3004008C400D6
:102F36004108C5000130C600450DC50CC40CC30CC4
:102F4600C20CC60B9F2F4508C1004408C0004308A9
:102F5600BF004208BE000130CC070318CD0A00307E
:102F6600CD074D08803AFF0080307F02031DBD2F3C
:102F7600FF304C02031CC02FC12FCF2FFF3083120E
:102F86000313CC000030CD000030C1000030C0007B
:102F96000030BF000030BE00831203134D08803A94
:102FA600FF0080307F02031DDA2F01304C02031828
:102FB600DD2FDE2FEB2F83120313CC01CD01003062
:102FC600C1000030C0000030BF000030BE00CB01A1
:102FD600831203134C08D200521CF22FF32FF52F45
:102FE600C017F72F7F30C0055208C2000310420CED
:102FF600C1004B08C104A12E080018308A0004083D
:10300600840A820700340A34D73423343C3400342B
:10301600003400343F3433343334533440340034D2
:103026000434543443343134303434343734203473
:103036003A3425342E343234663420344334003462
:103046004D344334503439343734303430343A34F0
:1030560025342E3432346634203443340034693413
:0E3066006E34663400346E3461346E340034DF
:103C04000330F000F00B042E831203131F15080079
:103C1400831203131E08F100831603131E08F00019
:103C24000800033083160313850080309F00413061
:103C3400831203139F000D30F100FB30F000F00BF2
:103C4400212EF10B212E262E0800F31B2A2E2B2EBB
:103C54002C2E3B2E7009F0007109F1007209F2005C
:103C64007309F300F00A0319F10A0319F20A03199C
:103C7400F30A0800F6014C2E76087307F500750860
:103C84008400831700080A168A1104200A168A156C
:103C94000130F60774087602031C512E522E3E2E74
:103CA4000800F2007208F000F00DF00DF00D831220
:103CB40003131F087006C73970069F000330F10014
:103CC4009730F000F00B642EF10B642E692E08007F
:103CD4007008F2000130F107FF30710784000A1602
:103CE4008A1500200A168A15FF007208F20A840059
:103CF4007F08831780000008031D812E822E6C2EFE
:103D040008007108F6007008F500952E7608840006
:103D140083170008F4000130F6077508840074085E
:103D240080000130F5070130F2020030031CF30378
:103D3400F302720A031DA22E730A031DA22EA32EE0
:103D4400882E0800803083120313BD064108F30057
:103D54004008F2003F08F1003E08F0003D08F7007B
:103D64003C08F6003B08F5003A08F4000A128A15EC
:103D740062220A168A15730883120313BD0072089F
:103D8400BC007108BB007008BA000800F401F5011A
:103D9400701CCD2ECE2ED42E7208F4070318F50A0B
:103DA4007308F50701300310F20DF30DFF3E031DF8
:103DB400D52E01300310F10CF00CFF3E031DDC2E58
:103DC40070087104031DE72EE82ECA2E7508F10051
:103DD4007408F0000800F800F401F5017008F2001E
:103DE400F3017208F6007308F700781CFA2EFB2E14
:103DF400012F7608F4070318F50A7708F507013050
:103E04000310F60DF70DFF3E031D022F0310F80CEF
:103E14007808031D0E2F0F2FF72E7508F100740874
:103E2400F0000800831603135E0883120313EF00E7
:103E34002A2F831603135C08D0005D08D1006F306D
:103E4400D2005F08D3000A168A1115230A168A15B0
:103E5400831203136F0884000A168A1500200A16B9
:103E64008A15003A031D372F382F1B2F831603138F
:103E7400DC01DD01080083120313A601A7015A2FF8
:103E84002508A300A4012308F0002408F100210858
:103E9400F2002208F3000A168A11D7210A168A159D
:103EA400013083120313A6070318A70A0030A707DB
:103EB40026082007A3002308840083170008A50010
:103EC4002508031D662F672F422F0800E230831652
:103ED4000317B40083160313600883160317B50091
:103EE4000130B600B701B801BE01BF01B530831679
:103EF4000313DC000130DD006108DE00B430DF00B4
:103F04000A168A1514270A168A1583160317370802
:103F1400831603136007E600660884008317800194
:103F24000800F20083120313071087107208F03997
:103F3400880007150330F1009730F000F00BA02F34
:103F4400F10BA02FA52F8312031307117208F000A1
:103F540003300310F00DFF3E031DAB2F0310700D53
:103F6400F039880007150330F1009730F000F00BAA
:103F7400B92FF10BB92FBE2F8312031307110800B9
:103F840083120313AC1FC72FC82FCA2FAB01AC0178
:103F9400AD01AE01E42F2030F0000030F1008312B7
:103FA40003132808F2002908F3000A168A11D721FE
:103FB4000A168A15013083120313AD070318AE0ADB
:103FC4000030AE072E08803AFD002C08803A7D02AE
:103FD400031DEE2F2B082D02031CF12FF22FCD2FE2
:103FE400831203132A08A0002808A1002908A200AC
:0C3FF4000A168A153D270A168A150800D7
:02400E00793FF8
:00000001FF
