:100000000A128A11E92F00308A000408840A820744
:100010000034313420342D342D343E3420344634F1
:100020006F34723477346134723464342C34203455
:10003000323420342D342D343E3420344234613473
:1000400063346B3477346134723464342C34203448
:10005000333420342D342D343E3420344C34653444
:10006000663474342C342034343420342D342D341C
:100070003E342034523469346734683474342C3458
:100080002034353420342D342D343E342034533450
:1000900054344F3450342C342034363420342D34FE
:1000A0002D343E342034483465346C3470340A3492
:1000B0000D3400344C343934313431343034733409
:1000C0005F3444346934613467346E346F3473346C
:1000D0007434693463342034523445344134443404
:1000E0005934203421340A340D34003449346E3408
:1000F000763461346C3469346434203443346F347E
:100100006D346D3461346E3464340A340D3400342B
:100110004234613463346B34773461347234643420
:100120000A340D340034533474346F347034703402
:10013000653464340A340D34003446346F34723418
:1001400077346134723464340A340D3400345234F8
:1001500069346734683474340A340D3400344C34F0
:0C0160006534663474340A340D34003405
:100B4A000334023401340030831603139818013039
:100B5A0008008316031306108610061186118312E5
:100B6A00031386010800F0000A128A11A8250A1246
:100B7A008A11003A0319C22DC32DB92D70088312A8
:100B8A000313990008008316031318156730990098
:100B9A001812831203139817831603130713871760
:100BAA0098168312031318160800E92D7108840099
:100BBA000A128A1103200A128A110A128A11B82506
:100BCA000A128A110130F107710884000A128A1187
:100BDA0003200A128A11003A031DF42DF52DDB2D8C
:100BEA0008000130F0000030F1000330F20000305C
:100BFA00F3000030F400F5000A128A11A3260A1243
:100C0A008A110230F0000030F1000330F2000030A7
:100C1A00F3000030F400F5000A128A11A3260A1222
:100C2A008A1108000130F0000030F1000230F200B1
:100C3A000030F3007C08F5007B08F4000A128A11E0
:100C4A00A3260A128A110230F0000030F1000230A5
:100C5A00F2000030F3007C08F5007B08F4000A1269
:100C6A008A11A3260A128A1108000130F000003006
:100C7A00F1000130F2000030F3007C08F5007B0837
:100C8A00F4000A128A11A3260A128A110230F0000D
:100C9A000030F1000130F2000030F3007C08F5006A
:100CAA007B08F4000A128A11A3260A128A11080084
:100CBA000130F0000030F1000230F2000030F300A1
:100CCA007C08F5007B08F4000A128A11A3260A128E
:100CDA008A110230F0000030F1000130F2000030D9
:100CEA00F3007C08F5007B08F4000A128A11A32697
:100CFA000A128A1108000130F0000030F1000130B8
:100D0A00F2000030F3007C08F5007B08F4000A12B8
:100D1A008A11A3260A128A110230F0000030F1006B
:100D2A000230F2000030F3007C08F5007B08F40082
:100D3A000A128A11A3260A128A1108007003710482
:100D4A00031DA82EA92EAD2EF9010130FA00082F95
:100D5A00023070067104031DB32EB42E402F0230E8
:100D6A00F9000330FA00082F0130F600790ABF2E85
:100D7A000310F60DFF3E031DBD2E760883120313E2
:100D8A0086040130F6007A0ACC2E0310F60DFF3ED7
:100D9A00031DCA2E7608FF3A8605182F0130F60081
:100DAA00790AD92E0310F60DFF3E031DD72E7608B9
:100DBA00FF3A8312031386050130F6007A0AE72EFA
:100DCA000310F60DFF3E031DE52E76088604182F44
:100DDA000130F600790AF32E0310F60DFF3E031DCB
:100DEA00F12E7608FF3A8312031386050130F600C6
:100DFA007A0A012F0310F60DFF3E031DFF2E760817
:100E0A00FF3A8605182F7308003A03190D2F182F79
:100E1A007208013A0319B92E033A0319D32E013A7B
:100E2A000319ED2E182F7508803AFF0080307F02D3
:100E3A00031D212F01307402031C242F252F402F5C
:100E4A00F701F801322F8530F600F60B2A2F013010
:100E5A00F7070318F80A0030F8077808803AF6000E
:100E6A007508803A7602031D3C2F74087702031C2A
:100E7A003F2F402F282F08000A128A11AE250A1286
:100E8A008A110A128A11C8250A128A115230F100EF
:100E9A000A128A11DA250A128A110130F1000A129D
:100EAA008A11DA250A128A11831203138C1E5E2F05
:100EBA005F2F592F1A08FD00C32FFF30FB000030A7
:100ECA00FC000A128A113A260A128A119530F10098
:100EDA000A128A11DA250A128A11D72FFF30FB006B
:100EEA000030FC000A128A1117260A128A11803071
:100EFA00F1000A128A11DA250A128A11D72FFF3055
:100F0A00FB000030FC000A128A115D260A128A11BF
:100F1A00A730F1000A128A11DA250A128A11D72F8C
:100F2A00FF30FB000030FC000A128A1180260A12E8
:100F3A008A119F30F1000A128A11DA250A128A11DF
:100F4A00D72F0A128A11F6250A128A118B30F1005C
:100F5A000A128A11DA250A128A11D72F0130F100F2
:100F6A000A128A11DA250A128A11D72F6E30F10075
:100F7A000A128A11DA250A128A11D72F7D08313A04
:100F8A000319622F033A0319732F013A0319842FA5
:100F9A00073A0319952F013A0319A62F033A0319A1
:100FAA00B32FBB2F0B3083120313A5002630A400E6
:100FBA005D30A300A30BDF2FA40BDF2FA50BDF2FC0
:100FCA00592F0A128A1100280A128A11A5250A1213
:100FDA008A11A0000A128A11A6250A128A11A100F2
:100FEA000A128A11A7250A128A11A200A6018301F0
:060FFA000A128A11412FCA
:02400E00723FFF
:00000001FF
