:100000000A128A11E72F0A168A1542220A128A1149
:1000100083160313111508007208730403191128BD
:100020001228182872087304031D172818281F287F
:1000300070080A168A1100200A128A11A52872086F
:10004000093EF40073080318013E003EF5007408F1
:1000500084008317751C83130008F600840A0008C7
:10006000F7007608770403193628372869287208BC
:10007000093EF40073080318013E003EF5007408C1
:1000800084008317751C83130008F600840A000897
:10009000F7007208023EF80073080318013E003EA4
:1000A000F900780884008317791C83130008FA008C
:1000B000840A0008FB007B08803AFC007708803A3D
:1000C0007C02031D652876087A02031868286928CF
:1000D000A528720884008317731C83130008F4009A
:1000E000840A0008F5007208023EF600730803183F
:1000F000013E003EF700760884008317771C8313C7
:1001000000087407F9007508F8000318F80A801F42
:100110008A28F8037808FA007908840083177A1C83
:100120008313700880007208023EF40073080318FD
:10013000013E003EF500740884008317751C83138C
:1001400001308007840A0318800A08003F308316B4
:100150000313CB008030CA000030C9000030C80053
:10016000AF01B0014708F3004608F2004508F1006E
:100170004408F0000030F7000030F6000030F500D1
:100180000030F4000A168A15D7250A128A110318BE
:10019000CA28CB28DC2ADC28831603133608CB00B8
:1001A0003508CA003408C9003308C8000130AF0759
:1001B0000318B00A0030B007413083120313A300C4
:1001C0002030A2000030A1000030A00083160313ED
:1001D0004B0883120313A700831603134A088312E4
:1001E0000313A60083160313490883120313A50003
:1001F00083160313480883120313A4000A128A15F6
:100200007B210A128A118312031323088316031316
:10021000B60083120313220883160313B50083125A
:100220000313210883160313B40083120313200859
:1002300083160313B300440883120313D0008316FC
:100240000313450883120313D100831603134608D2
:1002500083120313D2008316031347088312031378
:10026000D30083160313330883120313D0028316BB
:1002700003133408031C340F3E294129831203134E
:10028000D102831603133508031C350F48294B2967
:1002900083120313D202831603133608031C360F8E
:1002A0005229552983120313D30283160313831291
:1002B00003135308F3005208F2005108F1005008EC
:1002C000F0000A168A158E220A128A11F31B782969
:1002D0007308031D79297208031D79297108031D0C
:1002E000792902307002031D7529031C78297929A8
:1002F000CC2883160313360883120313B800831621
:100300000313350883120313B7008316031334084D
:1003100083120313B60083160313330883120313E7
:10032000B50083160313470883120313BC0083161A
:100330000313460883120313BB00831603134508F7
:1003400083120313BA0083160313440883120313A2
:10035000B9000A168A115E200A128A11031CB129FB
:10036000B229CC2883160313440883120313D00048
:1003700083160313450883120313D1008316031356
:10038000460883120313D20083160313470883120F
:100390000313D30083160313480883120313D002F8
:1003A000831603134908031C490FD729DA2983123E
:1003B0000313D102831603134A08031C4A0FE129D1
:1003C000E42983120313D202831603134B08031C80
:1003D0004B0FEB29EE2983120313D3028316031369
:1003E000831203135308F3005208F2005108F1007E
:1003F0005008F0000A168A158E220A128A11F31B81
:10040000122A7308031D112A7208031D112A71088C
:10041000031D112A02307002031D0E2A0318112A2F
:10042000122AA32A831603134B08C7004A08C600E2
:100430004908C5004808C400DC2A4130F3002030D8
:10044000F2000030F1000030F000831603134B0877
:10045000F7004A08F6004908F5004808F4000A16B3
:100460008A11D4230A128A11730883160313CB004E
:100470007208CA007108C9007008C800FF30AF07D1
:100480000318B00AFF30B007440883120313D000EA
:1004900083160313450883120313D1008316031335
:1004A000460883120313D2008316031347088312EE
:1004B0000313D30083160313480883120313D002D7
:1004C000831603134908031C490F672A6A2A8312FB
:1004D0000313D102831603134A08031C4A0F712A1F
:1004E000742A83120313D202831603134B08031CCE
:1004F0004B0F7B2A7E2A83120313D3028316031326
:10050000831203135308F3005208F2005108F1005C
:100510005008F0000A168A158E220A128A11F31B5F
:10052000A22A7308031DA12A7208031DA12A7108BB
:10053000031DA12A02307002031D9E2A0318A12A5E
:10054000A22AA32A122A831603134708831203132D
:10055000B80083160313460883120313B7008316EB
:100560000313450883120313B600831603134408CC
:1005700083120313B500831603134B08831203136E
:10058000BC00831603134A0883120313BB008316AF
:100590000313490883120313BA0083160313480890
:1005A00083120313B9000A168A115E200A128A11F7
:1005B000031CDB2ADC2A1D2A831203134F0883162F
:1005C0000313A9002908AA00EE1BE72AE82AED2A4E
:1005D0006E08A3006D08A200F12A0630A2000030C8
:1005E000A3002308AE002208AD000130AD070318B8
:1005F000AE0A0030AE0766302A06031D002B012B21
:100600001B2BB01F042B052B0F2B3F30CB00803052
:10061000CA000030C9000030C800AF01B001673027
:1006200029060319142B152B1B2B2F08AD070318B4
:10063000AE0A3008AE07B701B8014708BC0046084B
:10064000BB004508BA004408B9004B08B6004A0888
:10065000B5004908B4004808B3002A2C83160313D8
:100660004B08F3004A08F2004908F1004808F0007E
:100670003C08F7003B08F6003A08F5003908F4009A
:100680000A168A11D4230A128A11730883120313DB
:10069000B0007208AF007108AE007008AD000A1615
:1006A0008A11B6210A128A118312031330088316A5
:1006B0000313C000831203132F0883160313BF0014
:1006C000831203132E0883160313BE008312031331
:1006D0002D0883160313BD00400883120313C200C4
:1006E000831603133F0883120313C10083160313F9
:1006F0003E0883120313C000831603133D088312C0
:100700000313BF000A168A15FD260A128A118312E6
:100710000313400883160313AC00831203133F082E
:1007200083160313AB004B0883120313A700831631
:1007300003134A0883120313A60083160313490800
:1007400083120313A50083160313480883120313AF
:10075000A40083160313400883120313A300831617
:1007600003133F0883120313A200831603133E08EA
:1007700083120313A100831603133D08831203138E
:10078000A0000A128A157B210A128A118312031310
:100790002308B8002208B7002108B6002008B500D9
:1007A000831603133C0883120313BC008316031340
:1007B0003B0883120313BB00831603133A0883120A
:1007C0000313BA0083160313390883120313B90005
:1007D0000A128A1500200A128A118312031338089C
:1007E00083160313BC008312031337088316031305
:1007F000BB0083120313360883160313BA00831257
:100800000313350883160313B9004130F300203079
:10081000F2000030F1000030F0004B08F7004A0809
:10082000F6004908F5004808F4000A168A11D42396
:100830000A128A11730883160313CB007208CA00C8
:100840007108C9007008C8000130B7070318B80A5A
:100850000030B8073808803A83120313D00083169B
:1008600003132E08803A831203135002031D3C2CFD
:10087000831603132D083702031C3F2C402C2E2B0C
:10088000403083120313A300A030A2000030A10067
:100890000030A000831603134B0883120313A70034
:1008A000831603134A0883120313A6008316031347
:1008B000490883120313A500831603134808831203
:1008C0000313A4000A128A157B210A128A118312CB
:1008D0000313230883160313C00083120313220893
:1008E00083160313BF008312031321088316031317
:1008F000BE0083120313200883160313BD003C08B7
:1009000083120313B800831603133B0883120313E7
:10091000B700831603133A0883120313B600831635
:100920000313390883120313B50083160313400819
:1009300083120313BC00831603133F0883120313AF
:10094000BB00831603133E0883120313BA008316F9
:1009500003133D0883120313B9000A168A115E209F
:100960000A128A110318B52CB62CC12C003083163C
:100970000313C0000030BF000030BE000030BD00D7
:10098000EA2C831603133C08F3003B08F2003A08F4
:10099000F1003908F0004008F7003F08F6003E0873
:1009A000F5003D08F4000A168A15D7250A128A11A7
:1009B000031CDB2CDC2CEA2C831603132B18E12CF4
:1009C000E22CEA2C0030C0000030BF000030BE0036
:1009D0000030BD00831603134008F3003F08F20007
:1009E0003E08F1003D08F0004708F7004608F60011
:1009F0004508F5004408F4000A168A11A4250A12D5
:100A00008A11730883160313BC007208BB007108B7
:100A1000BA007008B9003C0883120313B8008316AB
:100A200003133B0883120313B700831603133A081A
:100A300083120313B60083160313390883120313BA
:100A4000B5004130A3002030A2000030A1000030EA
:100A5000A00083160313360883120313A70083161E
:100A60000313350883120313A600831603133408F7
:100A700083120313A5008316031333088312031391
:100A8000A4000A128A157B210A128A118312031309
:100A90002308BC002208BB002108BA002008B900C6
:100AA0000A168A115E200A128A11031C582D592D2C
:100AB000AC2D013083160313AF070318B00A0030C2
:100AC000B007413083120313A3002030A20000308E
:100AD000A1000030A000831603133608831203130D
:100AE000A70083160313350883120313A600831689
:100AF0000313340883120313A5008316031333086A
:100B000083120313A4000A128A157B210A128A1188
:100B100083120313230883160313B60083120313EF
:100B2000220883160313B5008312031321088316CA
:100B30000313B40083120313200883160313B300B6
:100B400066302A06031DA52DA62DAC2D0130AD075C
:100B50000318AE0A0030AE07831603133608CB0025
:100B60003508CA003408C9003308C8003008A1009D
:100B70002F08A000A801A401A501B701B801442FC6
:100B8000831603134B08F3004A08F2004908F100EA
:100B90004808F0003C08F7003B08F6003A08F5006A
:100BA0003908F4000A168A11D4230A128A1173082C
:100BB00083120313B0007208AF007108AE00700812
:100BC000AD000A168A11B6210A128A118312031384
:100BD000300883160313C000831203132F088316F3
:100BE0000313BF00831203132E0883160313BE00E2
:100BF000831203132D0883160313BD0040088312CC
:100C00000313C200831603133F0883120313C100AA
:100C1000831603133E0883120313C00083160313C5
:100C20003D0883120313BF000A168A15FD260A1217
:100C30008A11831203134008803AFF0080307F023C
:100C4000031D242E0A303F020318272E282E522E71
:100C500083160313400883120313C2008316031381
:100C60003F0883120313C100831603133E08831247
:100C70000313C000831603133D0883120313BF0040
:100C80000A168A15FD260A128A11831203134008D8
:100C900083160313AC00831203133F088316031358
:100CA000AB00582E093083160313AB000030AC00A4
:100CB0002808031D5C2E5D2E8E2EA11F602E612E36
:100CC0008E2E4208103E84002E30831780000130A3
:100CD000C2070318C30A0030C307FF30B107031867
:100CE000B20AFF30B2070130A8008E2E4208103E33
:100CF00084003030831780000130C2070318C30A14
:100D00000030C307FF30B1070318B20AFF30B20743
:100D1000FF30A4070318A50AFF30A50724082504FF
:100D2000031D932E942E762E4208103E84002B082D
:100D3000303E831780000130C2070318C30A003019
:100D4000C307FF30B1070318B20AFF30B2074B08E0
:100D500083120313A700831603134A088312031395
:100D6000A60083160313490883120313A5008316F4
:100D70000313480883120313A400831603134008C7
:100D800083120313A300831603133F088312031374
:100D9000A200831603133E0883120313A1008316D7
:100DA00003133D0883120313A0000A128A157B2146
:100DB0000A128A11831203132308B8002208B7000D
:100DC0002108B6002008B500831603133C088312DF
:100DD0000313BC00831603133B0883120313BB00E9
:100DE000831603133A0883120313BA0083160313FE
:100DF000390883120313B9000A128A1500200A1257
:100E00008A1183120313380883160313BC0083125C
:100E10000313370883160313BB008312031336082A
:100E200083160313BA0083120313350883160313C2
:100E3000B9004130F3002030F2000030F100003002
:100E4000F0004B08F7004A08F6004908F50048088A
:100E5000F4000A168A11D4230A128A117308831621
:100E60000313CB007208CA007108C9007008C800DB
:100E7000FF30A0070318A10AFF30A1070130B70710
:100E80000318B80A0030B8073808803A83120313F1
:100E9000D000831603132E08803A831203135002E6
:100EA000031D562F831603132D0837020318592FDD
:100EB0005A2F692F831603134308803AFF008030AE
:100EC0007F02031D652F4B304202031C682F692FE0
:100ED000C02D4F3083160313B7000030B800370819
:100EE000103E840083178001103083120313D0005A
:100EF00083160313420883120313D00283160313CD
:100F00003708831203135007F0001030F1008316E6
:100F100003134308F3004208F2000A168A15062359
:100F20000A128A118316031342083702C2004308CB
:100F3000031C430A3802C3004108031DA02FA22F3F
:100F40000130A32F003083120313D000D1015008C9
:100F500083160313B7008312031351088316031378
:100F6000B80041080319B52FB62FC22FFF30C207B2
:100F70000318C30AFF30C3074208103E840041082B
:100F8000831780003708B1023808031CB203B2028D
:100F9000831203134908A8004A08A9008316031303
:100FA0004208103E83120313AA008316031332086B
:100FB00083120313AC008316031331088312031347
:100FC000AB000A168A1599250A128A1108008312A5
:100FD0000313EE018313E3308400EF300A168A1501
:100FE00005220A128A1183171030840060300A1615
:100FF0008A1505220A128A1183010A128A15BD2C4C
:10100000803083120313B8063C08F3003B08F2005B
:101010003A08F1003908F0003808F7003708F60000
:101020003608F5003508F4000A168A11A4250A12BC
:101030008A15730883120313B8007208B700710889
:10104000B6007008B5000800831603134E0884002C
:101050008313000883120313D400840A0008D50008
:101060005508FF00540884000A168A15A0210A12A8
:101070008A15253A031D3D283E285329831603135C
:101080004E088400013083138007840A0318800A05
:10109000EB01EC01003083120313EE00FF308316E6
:1010A0000313ED00FF30EE004E08840000088312A9
:1010B0000313D400840A0008D5005508FF00540823
:1010C00084000A168A15A0210A128A152E3A031DD9
:1010D0006A286B288428831603134E088400013085
:1010E00083138007840A0318800A4E08F6004F080D
:1010F000F7000A168A1590260A128A1577088316B1
:101100000313EE007608ED00831603134E088400E7
:101110008313000883120313DD00840A000884038C
:10112000DE005E08FF005D0884000A168A15A02113
:101130000A128A15DC00A8280130DD070318DE0A30
:101140000030DE07B3286C30DC00B328DC01B328A4
:101150005C084C3A03199C282A3A0319A3280A3A36
:1011600003199C28A6285E08FF005D0884000A1663
:101170008A15A0210A128A15663A031DC028C128C3
:101180004829F428831603134F08840083130008AA
:10119000FF00043080077F088400000883120313D7
:1011A000D800840A0008D900840A0008DA00840AFA
:1011B0000008DB00FC28831603134F088400831308
:1011C0000008FF00043080077F08840000088312B5
:1011D0000313D800840A0008D900840A0008DA0042
:1011E000840A0008DB00FC285C084C3A0319DB2861
:1011F000203A0319C228FC280130D40054085D07A6
:10120000D6005E08D5000318D50AD41BD5035508AF
:10121000D700831603134E08840083120313560865
:10122000831380005708840A800084033B298316B7
:1012300003134C0883120313C900831603134D08CC
:1012400083120313CA005B08CE005A08CD00590868
:10125000CC005808CB005E08FF005D0884000A1629
:101260008A15A0210A128A15CF000A168A11C522F2
:101270000A128A157A295E08FF005D0884000A16A2
:101280008A15A0210A128A15663A031917294829D6
:10129000831603134E088400013083138007840AE9
:1012A0000318800A7A29831603134E0884008313D7
:1012B000000883120313D400840A0008D5005508DF
:1012C000FF00540884000A168A15A0210A128A1504
:1012D000D600D7015608F0005708F1008316031313
:1012E0004C08F2004D08F3000A128A110C200A1271
:1012F0008A1548290800831203132308A8008030A8
:10130000A8052308F9007907AE00A21F88298929BA
:101310008A292E142E0803198E298F299E292E0A18
:10132000031D932994299C290030A3000030A200BA
:101330000030A1000030A000A217A6290030A300B1
:101340000030A2000030A1000030A0002708803942
:10135000A8062708F9007907AD00A61FB029B12912
:10136000B2292D142D080319B629B729C6292D0A2B
:10137000031DBB29BC29C4290030A7000030A600EA
:101380000030A5000030A400A617CE290030A70029
:101390000030A6000030A5000030A4002D0803197D
:1013A000D229D329D8292E08031DD729D829E129E4
:1013B0000030A3000030A2000030A1000030A000E7
:1013C000BC2C2008F00026080A168A15DD230A1214
:1013D0008A15710883120313B4007008B300330830
:1013E000F900FA01FB01FC017C08AC007B08AB00B2
:1013F0007A08AA007908A9003408F900FA01FB016B
:10140000FC017C08B2007B08B1007A08B0007908C2
:10141000AF002108F00025080A168A15DD230A12FC
:101420008A15710883120313B4007008B3003308DF
:10143000F900FA01FB01FC017908A9077A080311F8
:101440000318013E0319252AAA077B080311031874
:10145000013E03192C2AAB077C0803110318013E37
:101460000319332AAC073408F900FA01FB01FC0127
:101470007908AF077A0803110318013E0319412ABE
:10148000B0077B0803110318013E0319482AB1076E
:101490007C0803110318013E03194F2AB2072208E2
:1014A000F00024080A168A15DD230A128A1571082D
:1014B00083120313B4007008B3003308F900FA0173
:1014C000FB01FC017908A9077A0803110318013E02
:1014D00003196B2AAA077B0803110318013E03199D
:1014E000722AAB077C0803110318013E0319792AFD
:1014F000AC073408F900FA01FB01FC017908AF07D9
:101500007A0803110318013E0319872AB0077B08E4
:1015100003110318013E03198E2AB1077C08031139
:101520000318013E0319952AB2070830F900031089
:10153000A90DAA0DAB0DAC0DF90B972A2108F000EF
:1015400024080A168A15DD230A128A1571088312E7
:101550000313B4007008B3003308F9003408FA002C
:10156000FB01FC017908A9077A0803110318013E61
:101570000319BB2AAA077B0803110318013E0319AC
:10158000C22AAB077C0803110318013E0319C92ABC
:10159000AC072008F00025080A168A15DD230A1278
:1015A0008A15710883120313B4007008B30033085E
:1015B000F9003408FA00FB01FC017908A9077A0850
:1015C00003110318013E0319E62AAA077B08031139
:1015D0000318013E0319ED2AAB077C080311031819
:1015E000013E0319F42AAC070830F9000310A90DD5
:1015F000AA0DAB0DAC0DF90BF62A2008F00024085B
:101600000A168A15DD230A128A157108831203133C
:10161000B4007008B3003308F9003408FA00FB0185
:10162000FC017908A9077A0803110318013E031980
:101630001A2BAA077B0803110318013E0319212B5B
:10164000AB077C0803110318013E0319282BAC07D4
:101650002108F00026080A168A15DD230A128A15C9
:10166000710883120313B4007008B3003308F90043
:101670003408FA00FB01FC017908AF077A0803116E
:101680000318013E0319452BB0077B08031103180B
:10169000013E03194C2BB1077C0803110318013ECE
:1016A0000319532BB2072208F00025080A168A15E1
:1016B000DD230A128A15710883120313B40070081F
:1016C000B3003308F9003408FA00FB01FC01790883
:1016D000AF077A0803110318013E0319702BB007F6
:1016E0007B0803110318013E0319772BB1077C080F
:1016F00003110318013E03197E2BB2072208F000E4
:1017000026080A168A15DD230A128A157108831223
:101710000313B4007008B3003308F9003408FA006A
:10172000FB01FC0108300310F90DFA0DFB0DFC0D57
:10173000FF3E031D932B7908AF077A0803110318A6
:10174000013E0319A42BB0077B0803110318013EC7
:101750000319AB2BB1077C0803110318013E0319D1
:10176000B22BB2072908F9002A08FA002B08FB005F
:101770002C08FC0018300310FC0CFB0CFA0CF90CC4
:10178000FF3E031DBB2B7908AF077A08031103182E
:10179000013E0319CC2BB0077B0803110318013E4F
:1017A0000319D32BB1077C0803110318013E031959
:1017B000DA2BB2070830F9000310A90DAA0DAB0D02
:1017C000AC0DF90BDC2B2E082D07F900FA01FA0DF0
:1017D0007908823EB3007A080318013EFF3EB40048
:1017E0000E2C0130F9000310AF0DB00DB10DB20D8C
:1017F000F90BF32BAC1FFD2BFE2BFF2B2F1401300D
:10180000F9000310A90DAA0DAB0DAC0DF90B012CBD
:10181000FF30B3070318B40AFF30B407B11F112C0F
:10182000122CF12BAD01AC1F162C172C332CFF30D2
:101830002905F900FF302A05FA00FF302B05FB00CF
:101840007F302C05FC007C087B047A0479040319A2
:101850002A2C2B2C2E2C0130AD00332C2F1C312C9C
:10186000322C332C2B2C2D080319372C382C692CB7
:101870000130AF07003003180130B0070030031803
:101880000130B107003003180130B207321C492C77
:101890004A2C692C2F08F9003008FA003108FB00A7
:1018A0003208FC000130FD007C0DFC0CFB0CFA0C36
:1018B000F90CFD0B542C7C08B2007B08B1007A08AF
:1018C000B0007908AF000130B3070318B40A003044
:1018D000B4073408803AFF0080307F02031D722C69
:1018E000FF303302031C752C762C812C7F30831241
:1018F0000313B2008030B1000030B0000030AF0000
:10190000B22C831203133408803AFF0080307F0228
:10191000031D8C2C0130330203188F2C902C9C2C2F
:10192000003083120313B2000030B1000030B00069
:101930000030AF00A801B22C831203133308AE00AD
:10194000FF30AF05FF30B0057F30B1050030B20584
:101950002E1CAB2CAC2CAD2CB1172E08F9000310AB
:10196000790CB2002808B2043208A3003108A200A2
:101970003008A1002F08A00008000A168A15FF21D0
:101980000A128A150A168A157C220A128A154D3007
:10199000F1009930F2000A168A15B7230A128A1547
:1019A00000300A168A1525260A128A158312031397
:1019B000370883160317D7008312031336088316DC
:1019C0000317D60083120313350883160317D500B7
:1019D00083120313340883160317D4009030831640
:1019E0000313D5006030D6009930D7008316031753
:1019F000570883160313DB00831603175608831654
:101A00000313DA0083160317550883160313D9004E
:101A100083160317540883160313D8000A168A1571
:101A20005D240A128A159030F1000130F2000A1686
:101A30008A15B7230A128A1583120313061C212D57
:101A4000222DEE2D6F30F1009930F2000A168A1522
:101A5000B7230A128A150A168A15BD240A128A1596
:101A6000831203134C0883160317D3008312031346
:101A70004B0883160317D200831203134A088316F8
:101A80000317D10083120313490883160317D000EC
:101A90000A168A15F4240A128A15831203134C08B5
:101AA00083160317DB00831203134B0883160317F7
:101AB000DA00831203134A0883160317D90083122E
:101AC0000313490883160317D800903083160313B5
:101AD000D5007830D6009830D700831603175B08FE
:101AE00083160313DB00831603175A0883160313A8
:101AF000DA0083160317590883160313D9008316D7
:101B00000317580883160313D800831603175308C6
:101B100083160313DF00831603175208831603137B
:101B2000DE0083160317510883160313DD008316A6
:101B30000317500883160313DC000A168A155D2468
:101B40000A128A159030F1000130F2000A168A1547
:101B5000B7230A128A15831603175B08831203132F
:101B6000B800831603175A0883120313B7008316AD
:101B70000317590883120313B60083160317580876
:101B800083120313B5008316031757088312031338
:101B9000BC0083160317560883120313BB00831679
:101BA0000317550883120313BA008316031754084A
:101BB00083120313B9000A168A115E200A128A15CD
:101BC0000318E32DE42DED2F1B30F1009930F200C6
:101BD0000A168A15B7230A128A15ED2F861CF12DD5
:101BE000F22DEE2E7E30F1009930F2000A168A15A1
:101BF000B7230A128A1500300A168A15BA220A1269
:101C00008A1500300A168A15D1220A128A15423026
:101C100083120313CC007030CB000030CA000030B8
:101C2000C9000A168A1562250A128A1542308312E3
:101C30000313CC005C30CB000030CA000030C90078
:101C40000A168A152B250A128A1501300A168A15DA
:101C500091230A128A150A168A15BD240A128A15BA
:101C6000831203134C0883160317D3008312031344
:101C70004B0883160317D200831203134A088316F6
:101C80000317D10083120313490883160317D000EA
:101C90000A168A15F4240A128A15831203134C08B3
:101CA00083160317DB00831203134B0883160317F5
:101CB000DA00831203134A0883160317D90083122C
:101CC0000313490883160317D800903083160313B3
:101CD000D5003D30D6009830D700831603175B0837
:101CE00083160313DB00831603175A0883160313A6
:101CF000DA0083160317590883160313D9008316D5
:101D00000317580883160313D800831603175308C4
:101D100083160313DF008316031752088316031379
:101D2000DE0083160317510883160313DD008316A4
:101D30000317500883160313DC000A168A155D2466
:101D40000A128A159030F1000130F2000A168A1545
:101D5000B7230A128A15831603175B08831203132D
:101D6000B800831603175A0883120313B7008316AB
:101D70000317590883120313B60083160317580874
:101D800083120313B5008316031757088312031336
:101D9000BC0083160317560883120313BB00831677
:101DA0000317550883120313BA0083160317540848
:101DB00083120313B9000A168A115E200A128A15CB
:101DC0000318E32EE42EED2FAF30F1009830F2002F
:101DD0000A168A15B7230A128A15ED2F061DF12E51
:101DE000F22EED2F8C30F1009930F2000A168A1590
:101DF000B7230A128A1501300A168A15BA220A1266
:101E00008A1501300A168A15D1220A128A15423023
:101E100083120313CC008C30CB000030CA0000309A
:101E2000C9000A168A1562250A128A1542308312E1
:101E30000313CC008230CB000030CA000030C90050
:101E40000A168A152B250A128A1502300A168A15D7
:101E500091230A128A150A168A15BD240A128A15B8
:101E6000831203134C0883160317D3008312031342
:101E70004B0883160317D200831203134A088316F4
:101E80000317D10083120313490883160317D000E8
:101E90000A168A15F4240A128A15831203134C08B1
:101EA00083160317DB00831203134B0883160317F3
:101EB000DA00831203134A0883160317D90083122A
:101EC0000313490883160317D800903083160313B1
:101ED000D5000030D6009830D700831603175B0872
:101EE00083160313DB00831603175A0883160313A4
:101EF000DA0083160317590883160313D9008316D3
:101F00000317580883160313D800831603175308C2
:101F100083160313DF008316031752088316031377
:101F2000DE0083160317510883160313DD008316A2
:101F30000317500883160313DC000A168A155D2464
:101F40000A128A159030F1000130F2000A168A1543
:101F5000B7230A128A15831603175B08831203132B
:101F6000B800831603175A0883120313B7008316A9
:101F70000317590883120313B60083160317580872
:101F800083120313B5008316031757088312031334
:101F9000BC0083160317560883120313BB00831675
:101FA0000317550883120313BA0083160317540846
:101FB00083120313B9000A168A115E200A128A15C9
:101FC0000318E32FE42FED2FE530F1009830F200F5
:101FD0000A168A15B7230A128A15153083160313B9
:101FE000E2004B30E100BD30E000E00BF52FE10BEB
:101FF000F52FE20BF52FFC2FD02C0A128A110028A6
:10200000080000308316031398180130080083126B
:1020100003132908AD002808AC000830AE002D0DD0
:10202000AD0CAC0CAE0B0F282C08F0002D08F10005
:102030000030F11BFF30F200F30001300A168A1164
:1020400002210A168A11730883120313B30072085F
:10205000B2007108B1007008B0002808AF008030ED
:10206000AF052F0803193528362855283F30F300CF
:102070000030F2000030F1000030F0003308F700CB
:102080003208F6003108F5003008F4000A168A110B
:10209000A4250A168A11730883120313B300720869
:1020A000B2007108B1007008B0003308AB0032080C
:1020B000AA003108A9003008A800080000308312E7
:1020C00003133505BD0000303605BE0080303705EE
:1020D000BF007F303805C00040083F043E043D0487
:1020E000031D732874287C280030B8000030B70026
:1020F0000030B6000030B50000303905BD000030BA
:102100003A05BE0080303B05BF007F303C05C00073
:1021100040083F043E043D04031D8F289028982862
:102120000030BC000030BB000030BA000030B90005
:10213000B81F9B289C28C0280030BD000030BE007E
:102140000030BF008030C0003508BD023608031CD7
:10215000360FAB28AC28BE023708031C370FB12856
:10216000B228BF023808031C380FB728B828C002AD
:102170004008B8003F08B7003E08B6003D08B5006B
:10218000BC1FC328C428E8280030BD000030BE00B2
:102190000030BF008030C0003908BD023A08031C7F
:1021A0003A0FD328D428BE023B08031C3B0FD92882
:1021B000DA28BF023C08031C3C0FDF28E028C002DD
:1021C0004008BC003F08BB003E08BA003D08B9000B
:1021D0008030B8068030BC063C083802031DFA285F
:1021E0003B083702031DFA283A083602031DFA2875
:1021F000390835020318FD28FE280029031001299B
:1022000003140800F80078080319072908291C2975
:10221000F31F0B290C291C297009FA007109FB0016
:102220007209FC007309FD00FA0A0319FB0A03197D
:10223000FC0A0319FD0A24297308FD007208FC003A
:102240007108FB007008FA007308720471047004CE
:10225000031D2B292C2935290030F3000030F20012
:102260000030F1000030F000B5299630F900432924
:102270000130F90701300310FD0CFC0CFB0CFA0CCB
:10228000FF3E031D3B29FE307D05031D48294929DA
:10229000382963290130F9070130FA0700300318A3
:1022A0000130FB07003003180130FC070030031831
:1022B0000130FD0701300310FD0CFC0CFB0CFA0C87
:1022C000FF3E031D5B29FF307D05031D6829692939
:1022D0004A2975290130F9020130F4000310FA0D82
:1022E000FB0DFC0DFD0DF40B6E29FC1B78297929E3
:1022F0007F290230790203187E297F296A297918FB
:10230000822983298B29FF30FA05FF30FB057F30B6
:10231000FC05FF30FD050310F90C7908F400F50108
:10232000F601F70118300310F40DF50DF60DF70D59
:10233000FF3E031D93297408FA047508FB04760810
:10234000FC047708FD0478080319A729A829AD29FA
:10235000F31FAB29AC29AD29FD177D08F3007C08DC
:10236000F2007B08F1007A08F000080083160313DE
:10237000660883120313C0008316031365088312D3
:102380000313BF0083160313640883120313BE00F4
:1023900083160313630883120313BD003008C000C3
:1023A0002F08BF002E08BE002D08BD003D08B1005B
:1023B0003E08B2003F08B3004008B40017300310D5
:1023C000B40CB30CB20CB10CFF3E031DDF29FF307F
:1023D0003105B50000303205B6003508813EBB003E
:1023E00036080318013EFF3EBC003C08803AFF005F
:1023F00080307F02031DFE2917303B02031C012A97
:10240000022A032AC42A83120313BC1B082A092A9E
:10241000792A3B0AFF00FF30B100FF30B2007F3065
:10242000B3000030B400192A340DB40CB30CB20C54
:10243000B10CFF0B142A3408BA003308B900320873
:10244000B8003108B70037083D05B10038083E052F
:10245000B20039083F05B3003A084005B40034081B
:10246000330432043104031D362A372A382A022A5B
:102470003D08B1003E08B2003F08B3004008B40078
:102480001F300310B40CB30CB20CB10CFF3E031D93
:10249000412A34083304320431040319502A512AE2
:1024A000682A3708BD07380803110318013E0319CD
:1024B0005A2ABE07390803110318013E0319612A7D
:1024C000BF073A0803110318013E0319682AC00721
:1024D0003709B1003809B2003909B3003A09B4002C
:1024E0003108BD053208BE053308BF053408C005F4
:1024F000BC2A3D08B1003E08B2003F08B3004008C6
:10250000B4001F300310B40CB30CB20CB10CFF3E7E
:10251000031D822A3408330432043104031D912A36
:10252000922A9B2A0030C0000030BF000030BE005D
:102530000030BD00BC2A3D08B1003E08B2003F0893
:10254000B3004008B40001300310B10DB20DB30D5B
:10255000B40DFF3E031DA42A3408330432043104B1
:102560000319B32AB42ABC2ABF30C0008030BF0090
:102570000030BE000030BD004008B0003F08AF0092
:102580003E08AE003D08AD00080083160313C101EC
:10259000831203134E0883160313C7008312031319
:1025A0004D0883160313C600831203134C088316C9
:1025B0000313C500831203134B0883160313C400CF
:1025C000470883120313B8008316031346088312C7
:1025D0000313B70083160313450883120313B600D1
:1025E00083160313440883120313B5000030BC00A4
:1025F0000030BB000030BA000030B9000A168A1162
:102600005E200A168A110318062B072B222B013095
:1026100083160313C1004708F3004608F20045087B
:10262000F1004408F0000A168A151F220A168A11C2
:10263000730883160313C7007208C6007108C5002B
:102640007008C40083160313C201C3016C08B200F2
:102650006B08B100410803192E2B2F2B3F2B41088B
:10266000031D332B342B392B2B30A6000030A70051
:102670003D2B2D30A6000030A7002608C1004708DA
:10268000F3004608F2004508F1004408F0000A167D
:102690008A1573270A168A1170037104031D512BC2
:1026A000522B992B8316031341080319582B592BCE
:1026B000692B4108831203179000FF308316031320
:1026C000B1070318B20AFF30B2070130C200003070
:1026D000C3004208103EF0009830F1009930F2003B
:1026E0000A168A1527230A168A11FD30831603134A
:1026F000B1070318B20AFF30B20783120313490867
:10270000A8004A08A9001030AA0083160313320853
:1027100083120313AC0083160313310883120313CF
:10272000AB000A168A1599250A168A110A128A110F
:10273000E62F831603134708F3004608F200450806
:10274000F1004408F0000A168A1573270A168A1148
:1027500070087104031DAD2BB02B0A128A11A62834
:102760008316031341080319B62BB72BC72B410857
:10277000831203179000FF3083160313B107031869
:10278000B20AFF30B2070130C2000030C300420875
:10279000103EF0009C30F1009930F2000A168A15C4
:1027A00027230A168A11752B770883120313A400B6
:1027B0008030A4057708F8007807AB00F61FE12BFE
:1027C000E22BE32B2B142B080319E72BE82BF82B18
:1027D0002B0A031DEC2BED2BF52B0030F7000030FE
:1027E000F6000030F5000030F400F617F701002C79
:1027F0000030F7000030F6000030F5000030F40043
:1028000073088039A4067308F8007807AC00F21F3B
:102810000A2C0B2C0C2C2C142C080319102C112C0A
:10282000212C2C0A031D152C162C1E2C0030F30015
:102830000030F2000030F1000030F000F217F30138
:10284000292C0030F3000030F2000030F10000309D
:10285000F0007308720471047004031D302C312CD5
:10286000482C0030F7000030F6000030F500003052
:10287000F4008030F6047F30F7042408F70477086A
:10288000F3007608F2007508F1007408F000A32D3B
:102890002B08031D4C2C4D2C562C0030F30000301F
:1028A000F2000030F1000030F000A32D2B08F800FA
:1028B000F9017908FB002C087802FA00031CFB03DD
:1028C0007A087F3EA5007B080318013E003EA60063
:1028D0007708A3007608A2007508A1007408A0007C
:1028E0000030F7000030F6000030F5000030F40052
:1028F0000030AA000030A9000030A8000030A70076
:10290000AC01D02C2C080319862C872CA72C013065
:10291000F8000310A00DA10DA20DA30DF80B892C3A
:102920000130F8000310F40DF50DF60DF70DF80B5E
:10293000922CAA1F9C2C9D2C9E2C74140130F80004
:102940000310A70DA80DA90DAA0DF80BA02C730854
:102950002302031DB52C72082202031DB52C710839
:102960002102031DB52C70082002031CB82CB92CC1
:10297000CE2C2A177008A0027108031C710FC12CFD
:10298000C22CA1027208031C720FC72CC82CA20211
:102990007308031C730FCD2CCE2CA3020130AC079F
:1029A0001A302C02031CD52CD62C822C230822048E
:1029B000210420040319DD2CDE2CFD2C2714FD2C12
:1029C0000130F8000310F40DF50DF60DF70DF80BBE
:1029D000E22CAA1FEC2CED2CEE2C74140130F80024
:1029E0000310A70DA80DA90DAA0DF80BF02CFF30B0
:1029F000A5070318A60AFF30A607F61F002D012D14
:102A0000E02CAC01AA1F052D062D222DFF30270535
:102A1000F800FF302805F900FF302905FA007F3063
:102A20002A05FB007B087A04790478040319192D20
:102A30001A2D1D2D0130AC00222D741C202D212DAE
:102A4000222D1A2D2C080319262D272D582D013043
:102A5000F407003003180130F50700300318013087
:102A6000F607003003180130F707771C382D392D91
:102A7000582D7408F8007508F9007608FA007708F0
:102A8000FB000130FC007B0DFB0CFA0CF90CF80C80
:102A9000FC0B432D7B08F7007A08F6007908F50057
:102AA0007808F4000130A5070318A60A0030A6072D
:102AB0002608803AFF0080307F02031D612DFF3021
:102AC0002502031C642D652D732DFF308312031323
:102AD000A5000030A6000030F7000030F6000030FE
:102AE000F5000030F400831203132608803AFF003B
:102AF00080307F02031D7E2D013025020318812DB9
:102B0000822D8F2D83120313A501A6010030F7003B
:102B10000030F6000030F5000030F400A40183120C
:102B200003132508AB002B1C962D972D992DF61716
:102B30009B2D7F30F6052B08F8000310780CF7006A
:102B40002408F7043F2C08007308F8008030F805CB
:102B5000730883120313A0002007FA00F21FB12D9F
:102B6000B22DB32D7A147A080319B72DB82DC82DBC
:102B70007A0A031DBC2DBD2DC52D0030F300003099
:102B8000F2000030F1000030F000F217F301D02D18
:102B90000030F3000030F2000030F1000030F000AF
:102BA0007708F9008030F905790878060319D92DDE
:102BB000DA2DDB2D78177708A0002007F900F61F23
:102BC000E22DE32DE42D791479080319E82DE92D80
:102BD000F92D790A031DED2DEE2DF62D0030F700AD
:102BE0000030F6000030F5000030F400F617F70171
:102BF000012E0030F7000030F6000030F500003004
:102C0000F4007A0879020318062E072E2B2E781F5F
:102C10000A2E0B2E0D2E8030F8067A08FB0079085C
:102C2000FA007B08F9007008FB007408F0007B08CC
:102C3000F4007108FB007508F1007B08F5007208CC
:102C4000FB007608F2007B08F6007308FB007708AB
:102C5000F3007B08F700FB017908A000A10121081F
:102C6000A3007A082002A200031CA3032308803AD1
:102C7000FF0080307F02031D3F2E1A302202031C0A
:102C8000422E432E7A2E7308720471047004031DC1
:102C90004A2E4C2E01304D2E0030FB000030F30048
:102CA0000030F2000030F1000030F0007908FA0046
:102CB000802E7B1C5C2E5D2E662E7B0883120313F8
:102CC000A0000310200C0138FB00682E0310FB0C41
:102CD000701C6B2E6C2E6D2EFB17013083120313AC
:102CE000A000730DF30CF20CF10CF00CA00B712E84
:102CF0000130FA0779087A02031C7F2E802E592EA4
:102D0000781B832E842ECF2E7A08031D882E892EC1
:102D1000922E0030F3000030F2000030F10000305D
:102D2000F000FF2F7408F007750803110318013E27
:102D300003199B2EF107760803110318013E0319AE
:102D4000A22EF207770803110318013E0319A92EDA
:102D5000F307731CAC2EAD2E872F7B1CB02EB12E2B
:102D6000BA2E7B0883120313A0000310200C013835
:102D7000FB00BC2E0310FB0C701CBF2EC02EC12EFE
:102D8000FB17013083120313A000730DF30CF20C38
:102D9000F10CF00CA00BC52E0130FA07872F730839
:102DA000803AFF007708803A7F02031DE12E760803
:102DB0007202031DE12E75087102031DE12E7408D5
:102DC00070020318E42EE52E3E2FFF30831203130A
:102DD000A000FF30A100FF30A200FF30A300740864
:102DE000A4007508A5007608A6007708A70070085B
:102DF000A4027108031C710FFE2EFF2EA50272089B
:102E0000031C720F042F052FA6027308031C730FF7
:102E10000A2F0B2FA7022408A00725080318250F47
:102E2000122F132FA10726080318260F182F192F6A
:102E3000A20727080318270AA3072308F30022087C
:102E4000F2002108F1002008F0008030F8067B0332
:102E5000FF3AFB007B08031D2E2F2F2F4C2F013034
:102E6000F007003003180130F1070030031801307B
:102E7000F207003003180130F3074C2F7408F002FA
:102E80007508031C750FF1027608031C760FF20219
:102E90007708031C770FF30273087204710470043F
:102EA000031D532F542F832F7B08031D582F592F99
:102EB000832F0030F3000030F2000030F1000030CA
:102EC000F000FF2F013083120313A0000310F00D58
:102ED000F10DF20DF30DA00B662FFB1F702F712F5C
:102EE000722F70147B1C752F762F7A2F03147B0D95
:102EF000FB007C2F0310FB0D7A080319802F812F14
:102F0000832F0130FA02F21F862F872F622FF901DB
:102F1000FB1F8B2F8C2F9A2F7B087F390319912F42
:102F2000922F952F0130F9009A2F701C982F992F0E
:102F30009A2F922F790803199E2F9F2FD32F01309C
:102F4000F007003003180130F1070030031801309A
:102F5000F207003003180130F307731CB02FB12FB4
:102F6000D32F700883120313A0007108A100720808
:102F7000A2007308A3000130A400230DA30CA20C2F
:102F8000A10CA00CA40BBD2F2308F3002208F20013
:102F90002108F1002008F0007A0A0319D02FD12F60
:102FA000D32F0130FA077A0A0319D72FD82FDD2F34
:102FB0007A08031DDC2FDD2FEB2F0030F3000030EB
:102FC000F2000030F1000030F0007A08031DE92F14
:102FD000EA2FEB2FF8017A1CEE2FEF2FF12FF217CB
:102FE000F32F7F30F2057A0883120313A000031039
:102FF000200CF300F81FFD2FFE2FFF2FF317080002
:1030000053346134663465347434793420344D3447
:103010006F34643465342034543468347234653425
:10302000733468346F346C34643473343A340A342F
:1030300020344F345334203454347234693470346F
:103040003A34203425342E34313466344334203439
:103050000A344834793473347434653472346534E2
:103060007334693473343A34203425342E34313493
:10307000663443340A340D3400344E346F347234C1
:103080006D3461346C3420344D346F3464346534C1
:1030900020345434683472346534733468346F3493
:1030A0006C34643473343A340A344F345334203437
:1030B00054347234693470343A34203425342E3424
:1030C0003134663443340A344834793473347434D4
:1030D0006534723465347334693473343A3420346B
:1030E00025342E343134663443340A340D340034FC
:1030F000443465346634613475346C34743420344B
:103100005434683472346534733468346F346C34D6
:10311000643473343A340A344F34533420345434DE
:103120007234693470343A34203425342E343134D6
:10313000663443340A34483479347334743465342F
:10314000723465347334693473343A34203425343A
:103150002E343134663443340A340D340034573459
:10316000613472346E3469346E3467343A342034E6
:10317000543465346D34703465347234613474346D
:10318000753472346534203465347834633465348E
:10319000653464346534643420344E346F347234AE
:1031A0006D3461346C3420346D346F346434653480
:1031B00020347434683472346534733468346F3452
:1031C0006C3464340A340D3400345734613472344E
:1031D0006E3469346E3467343A3420345434653490
:1031E0006D347034653472346134743475347234CF
:1031F000653420346534783463346534653464343C
:103200006534643420345334613466346534743442
:10321000793420346D346F3464346534203474343C
:10322000683472346534733468346F346C346434A5
:103230000A340D3400345734613472346E346934D6
:103240006E3467343A342034543465346D34703419
:1032500065347234613474347534723465342034B6
:103260006534783463346534653464346534643487
:103270002034643465346634613475346C347434A9
:1032800020347434683472346534733468346F3481
:103290006C3464340A340D3400344C344D343734D7
:1032A0003534203449346E346934743469346134CB
:1032B0006C3469347A34653464340A340D3400343F
:1032C000543465346D3470343A34203425342E341B
:1032D00031346634203443340A340D3400344434F9
:1032E00065346634613475346C34743420344D3450
:1032F0006F34643465340A340D3400344E346F3422
:1033000072346D3461346C3420344D346F34643431
:1033100065340A340D340034533461346634653412
:103320007434793420344D346F346434653400346B
:1033300069346E34663400346E3461346E34003473
:10334000FF1BAA2983137F1883170008840A031917
:10335000FF0A08007F087F398A000408840A0319DD
:04336000FF0A8200DE
:1033FE000A168A154F220A168A15080064008001E3
:10340E00840A0406031900340406062A0A168A15CD
:10341E0042220A168A1583160313911408000A16FF
:10342E008A1542220A168A158316031311140800F0
:10343E0073087204710470040319262A272A292A94
:10344E008030F30608008316031391120A168A15AC
:10345E0042220A168A1583160313111608008316C4
:10346E00031391160A168A1542220A168A15831616
:10347E00031311160800831603131419472A482A3A
:10348E00422A11081F39031D4D2A4E2A422A0800CE
:10349E0028308312031394008316031391019401B1
:1034AE0027309300871507160800F0000A168A15B4
:1034BE0042220A168A1570088312031393008C1D7C
:1034CE00692A6A2A662A8C110800F0000A168A11E7
:1034DE0001200A168A15003A0319762A772A6D2AD0
:1034EE00700883120313990008008316031318152E
:1034FE00333099001812831203139817831603138F
:10350E000713871798168312031318160800F31B58
:10351E00912A922A932AA22A7009F0007109F100C9
:10352E007209F2007309F300F00A0319F10A031984
:10353E00F20A0319F30A08000A168A1542220A161D
:10354E008A1583160313911583128C1DAF2AB02A88
:10355E00AB2A8C110A168A1542220A168A15831274
:10356E00031313080800F2000A168A152F240A16F0
:10357E008A15F30072080319C52AC62AC82AF3143D
:10358E00CA2AFD30F30573080A168A15E8220A16B0
:10359E008A150800F2000A168A152F240A168A15B3
:1035AE00F30072080319DC2ADD2ADF2A7315E12ADB
:1035BE00FB30F30573080A168A15E8220A168A15D7
:1035CE000800F1000A168A1516220A168A1590307E
:1035DE000A168A155C220A168A1501300A168A15F1
:1035EE005C220A168A1571080A168A155C220A16BA
:1035FE008A150A128A1103200A168A150800710804
:10360E00F6007008F500182B760884008317000862
:10361E00F4000130F607750884007408800001304C
:10362E00F5070130F2020030031CF303F302720AB5
:10363E00031D252B730A031D252B262B0B2B080090
:10364E007008F5007208F4007108F300F10A03190E
:10365E00F20A740883120313FF00730884000A161B
:10366E008A15A0210A168A15FF007508F50A84002E
:10367E007F08831780000008031D462B472B292B3C
:10368E000800F3000A168A1516220A168A159030BB
:10369E000A168A155C220A168A1573080A168A15E6
:1036AE005C220A168A1572080A168A155C220A16F8
:1036BE008A1571080A168A155C220A168A150A12CC
:1036CE008A1103200A168A150800F401F501701CF0
:1036DE00712B722B782B7208F4070318F50A7308F6
:1036EE00F50701300310F20DF30DFF3E031D792B8C
:1036FE0001300310F10CF00CFF3E031D802B7008FF
:10370E007104031D8B2B8C2B6E2B7508F100740826
:10371E00F0000800F2000A168A152F240A168A15E0
:10372E00F300E730F305A22BF315B02B7316B02B75
:10373E001830F304B02B7208013A0319B02B033A78
:10374E0003199B2B063A03199D2B023A03199F2B43
:10375E00B02B73080A168A15E8220A168A15080075
:10376E00CC2B7208FF00710884000A168A15A0215E
:10377E000A168A150A168A156C220A168A1501303F
:10378E00F1070318F20A0030F207720883120313CE
:10379E00FF00710884000A168A15A0210A168A15E0
:1037AE00003A031DDB2BDC2BB82B0800F800F401CC
:1037BE00F5017008F200F3017208F6007308F700C5
:1037CE00781CEA2BEB2BF12B7608F4070318F50A7D
:1037DE007708F50701300310F60DF70DFF3E031DB8
:1037EE00F22B0310F80C7808031DFE2BFF2BE72B92
:1037FE007508F1007408F000080083120313A60187
:10380E00A701212C2508A300A4012308F0002408F9
:10381E00F1002108F2002208F3000A128A110C208E
:10382E000A168A15013083120313A6070318A70A76
:10383E000030A70726082007A3002308840083175B
:10384E000008A5002508031D2D2C2E2C092C080080
:10385E000A168A1516220A168A1590300A168A1525
:10386E005C220A168A1501300A168A155C220A167F
:10387E008A150A168A150D220A168A1591300A160D
:10388E008A155C220A168A150A168A15A3220A16AA
:10389E008A15F1000A168A1536220A168A150A1298
:1038AE008A1103200A168A1571080800D83083126F
:1038BE000313E20083160313550883120313E30068
:1038CE000130E400E501E601EC01ED016330831601
:1038DE000313D0000030D1005608D2005708D30091
:1038EE006230D4000A168A158C240A168A158312A1
:1038FE000313650883160313550783120313E100A0
:10390E006108840083178001080083160313520890
:10391E0083120313DF00831603135308831203135A
:10392E00E000A82C831603135008CC005108CD00DC
:10393E005F30CE005408CF000A128A1524200A16D2
:10394E008A15831203136008FF005F0884000A16AD
:10395E008A15A0210A168A15003A031DB72CB82C19
:10396E00992C83160313D001D101080002300A16D8
:10397E008A1525260A168A15831203133708C200E4
:10398E003608C1003508C0003408BF000A168A1573
:10399E00FD260A168A15831203133F08D10051081B
:1039AE00CD00CE01CF01D0015008F3004F08F20038
:1039BE004E08F1004D08F00000300A168A1102215F
:1039CE000A168A15730883120313CC007208CB00F3
:1039DE007108CA007008C900080003300A168A155B
:1039EE0025260A168A15831203133708C2003608D5
:1039FE00C1003508C0003408BF000A168A15FD261E
:103A0E000A168A15831203133F08D1005108CD0000
:103A1E00CE01CF01D0015008F3004F08F2004E083E
:103A2E00F1004D08F00000300A168A1102210A1624
:103A3E008A15730883120313CC007208CB00710829
:103A4E00CA007008C9000800831203134C08A700AF
:103A5E004B08A6004A08A5004908A4004330A3005D
:103A6E008030A2000030A1000030A0000A128A159A
:103A7E007B210A168A15831203132308C20022081B
:103A8E00C1002108C0002008BF000A168A15FD26B5
:103A9E000A168A15831203134008CE003F08CD0084
:103AAE004E08F2004D08F10002300A168A1548231E
:103ABE000A168A150800831203134C08A7004B0838
:103ACE00A6004A08A5004908A4004330A300803090
:103ADE00A2000030A1000030A0000A128A157B213E
:103AEE000A168A15831203132308C2002208C10086
:103AFE002108C0002008BF000A168A15FD260A16E6
:103B0E008A15831203134008CE003F08CD004E08DD
:103B1E00F2004D08F10003300A168A1548230A16E2
:103B2E008A15080083120313AC1F9E2D9F2DA12D05
:103B3E00AB01AC01AD01AE01BB2D2030F000003069
:103B4E00F100831203132808F2002908F3000A1269
:103B5E008A110C200A168A15013083120313AD0741
:103B6E000318AE0A0030AE072E08803AFD002C086E
:103B7E00803A7D02031DC52D2B082D02031CC82D76
:103B8E00C92DA42D831203132A08A0002808A10012
:103B9E002908A2000A168A1504240A168A15080096
:103BAE0000307005F80000307105F90080307205A4
:103BBE00FA007F307305FB007B087A0479047804E1
:103BCE00031DEA2DEB2DF32D0030F3000030F20033
:103BDE000030F1000030F00000307405F8000030C5
:103BEE007505F90080307605FA007F307705FB0009
:103BFE007B087A0479047804031D062E072E0F2EF7
:103C0E000030F7000030F6000030F5000030F40010
:103C1E0077087306031D1D2E76087206031D1D2ED2
:103C2E0075087106031D1D2E740870060319202ECB
:103C3E00212E232E0310242E0314080083120313A7
:103C4E00BE000A168A1516220A168A1590300A1612
:103C5E008A155C220A168A15831203133E080A1669
:103C6E008A155C220A168A150A168A150D220A165C
:103C7E008A1591300A168A155C220A168A150A16BA
:103C8E008A15A3220A168A1583120313B800B901E6
:103C9E003808BA003908BB000A168A152A220A16F5
:103CAE008A150A168A15A3220A168A158312031379
:103CBE00B800B9013808BC003908BD000A168A15CB
:103CCE0036220A168A150A128A1103200A168A1536
:103CDE00831203133B08B9003A08B8003808B9003C
:103CEE00B8013C083807A8003D0803183D0A3907FB
:103CFE00A9000A168A1107200A168A1583120313C1
:103D0E002B08B7002A08B6002908B5002808B40009
:103D1E000800FB01FC017608840083130008F800FC
:103D2E00840A0008F900790883120313FF0078084B
:103D3E0084000A168A15A0210A168A152A3A031D2E
:103D4E00A92EAA2EDD2E760884000130831380075B
:103D5E00840A0318800A770884000008FF000230E6
:103D6E0080077F0884000008FB00840A0008FC001E
:103D7E00F82E7C08F1007B08F0000A30F2000030CB
:103D8E00F3000A168A156C230A168A157A0870072C
:103D9E00FB000030031801307107FC007608840028
:103DAE00013083138007840A0318800A7608840082
:103DBE0083130008F800840A0008F90079088312BA
:103DCE000313FF00780884000A168A15A0210A162C
:103DDE008A15D03EFA000A307A02031CF72EF82E0E
:103DEE00C02E7C08F7007B08F60008000310831233
:103DFE000313410D420DC8004808031D072F082F5D
:103E0E00112F0030C2000030C1000030C000003061
:103E1E00BF00722F3F08C3004008C4004108C50010
:103E2E004208C6001F300310C60CC50CC40CC30CD0
:103E3E00FF3E031D1A2F4308C700C117FF30BF05F1
:103E4E00FF30C005FF30C1050030C2059630C802F4
:103E5E00C81F322F332F4B2F4808803A973E031836
:103E6E00392F3A2F3B2F082F01300310C20CC10CF3
:103E7E00C00CBF0CFF3E031D3C2F0130C807031DB5
:103E8E00492F4A2F3B2F622F20304802031C502F00
:103E9E00512F5D2F082F0130C3000310BF0DC00D31
:103EAE00C10DC20DC30B542F0130C8024808031DAB
:103EBE00612F622F522F47080319662F672F722F1B
:103ECE00BF09C009C109C209BF0A0319C00A0319F3
:103EDE00C10A0319C20A0800831603136A08831263
:103EEE000313A50083160313690883120313A4009A
:103EFE0083160313680883120313A3008316031398
:103F0E00670883120313A2007308A5007208A400A9
:103F1E007108A3007008A2002208F4002308F5001F
:103F2E002408F6002508F70017300310F70CF60CDE
:103F3E00F50CF40CFF3E031D9C2FFF307405A00002
:103F4E0000307505A10020082104031DAF2FB02FEE
:103F5E00D32F2208F4002308F5002408F6002508C4
:103F6E00F70001300310F40DF50DF60DF70DFF3EC1
:103F7E00031DB92F7708760475047404031DC82F2A
:103F8E00C92FCE2F0230F0000030F100FF2F03308A
:103F9E00F0000030F100FF2F200A2104031DD82F5E
:103FAE00D92FFB2F2208F4002308F5002408F60071
:103FBE002508F70009300310F40DF50DF60DF70D79
:103FCE00FF3E031DE22F770876047504740403196F
:103FDE00F12FF32F0130F42F0030F800F90178089B
:103FEE00F0007908F100FF2F0430F0000030F100EE
:023FFE000800B9
:00000001FF
