:100000000A128A11DE2F7E088A007F0882000A12F7
:100010008A1103200A128A118000840A04087D06CE
:1000200003190034FF0A0319FE0A07287008710437
:1000300003191B281C2849280130F4002828013006
:100040000310F00DF10DFF3E031D20280130F407D1
:10005000F11F2B282C281F2871087302031D32283A
:1000600070087202031C352836283C287008F202FA
:100070007108031CF303F30201300310F10CF00CC0
:10008000FF3E031D3D280130F402031D4828492886
:100090002C287308F1007208F0000800F401F50143
:1000A000700871040319552856288B280130F60072
:1000B000622801300310F00DF10DFF3E031D5A2898
:1000C0000130F607F11F6528662859280130031012
:1000D000F40DF50DFF3E031D672871087302031D23
:1000E000732870087202031C762877287E2870080F
:1000F000F2027108031CF303F302741401300310BD
:10010000F10CF00CFF3E031D7F280130F602031DA9
:100110008A288B2866287508F1007408F00008000A
:10012000F901FA01760884008313000884000A129A
:100130008A150A200A128A112A3A031DA028A1282A
:10014000CD287608840001308007770884000008F5
:10015000FF00023080077F0884000008F900840A4D
:100160000008FA00DE287A08F1007908F0000A3069
:10017000F2000030F3000A128A1559270A128A1178
:1001800078087007F9000030031801307107FA0091
:100190007608840001308313800776088400000805
:1001A00084000A128A150A200A128A11D03EF80029
:1001B0000A307802031CDD28DE28B3287A08F7000D
:1001C0007908F600080083120313661CE828E92862
:1001D000F4282A08A0002808A1002908A2000A1271
:1001E0008A15A4270A128A1183120313AC1FF92857
:1001F000FA28FC28AB01AC01AD01AE011629203074
:10020000F0000030F100831203132808F2002908DF
:10021000F3000A128A114B240A128A110130831248
:100220000313AD070318AE0A0030AE072E08803A5C
:10023000FD002C08803A7D02031D20292B082D0289
:10024000031C23292429FF28831203136618292954
:100250002A2935292A08A0002808A1002908A20077
:100260000A128A15A4270A128A110800F501F31F41
:100270003A293B294229F209F309F20A0319F30A40
:100280000130F500F11F452946294B29F009F109F4
:10029000F00A0319F10A7008710403195029512951
:1002A0007E290130F4005D2901300310F00DF10DBD
:1002B000FF3E031D55290130F407F11F6029612914
:1002C000542971087302031D672970087202031C08
:1002D0006A296B2971297008F2027108031CF30363
:1002E000F30201300310F10CF00CFF3E031D7229E4
:1002F0000130F402031D7D297E2961297508031947
:10030000822983298829F209F309F20A0319F30AD9
:100310007308F1007208F0000800F501F11F91293F
:1003200092299929F009F109F00A0319F10A01301B
:10033000F500F31F9C299D29A429F209F309F20A6B
:100340000319F30A0130F506F601F701700871048C
:100350000319AB29AC29E1290130F400B829013097
:100360000310F00DF10DFF3E031DB0290130F4071D
:10037000F11FBB29BC29AF2901300310F60DF70D81
:10038000FF3E031DBD2971087302031DC9297008B2
:100390007202031CCC29CD29D4297008F2027108FD
:1003A000031CF303F302761401300310F10CF00C7C
:1003B000FF3E031DD5290130F402031DE029E12988
:1003C000BC2975080319E529E629EB29F609F7097F
:1003D000F60A0319F70A7708F1007608F00008001A
:1003E0000A128A15D0250A128A11D0300A128A15EB
:1003F00031260A128A1100300A128A1531260A1291
:100400008A1100300A128A1531260A128A118312C3
:1004100003136B080A128A15CF270A128A110A12CF
:100420008A1531260A128A11831203136A080A12E6
:100430008A15CF270A128A110A128A1531260A1242
:100440008A1101300A128A1531260A128A11831282
:10045000031369080A128A15CF270A128A110A1291
:100460008A1531260A128A118312031368080A12A8
:100470008A15CF270A128A110A128A1531260A1202
:100480008A118312031367080A128A15CF270A12EA
:100490008A110A128A1531260A128A110A128A153D
:1004A000D9250A128A110800FA007A088316031364
:1004B000E900A601043083120313EF000230EE00BE
:1004C0000230F9000430F800BA30F700F70B662A62
:1004D000F80B662AF90B662A000033300A128A15D7
:1004E000F5250A128A111A30F800F830F700F70BD8
:1004F000772AF80B772A000032300A128A15F52580
:100500000A128A111A30F800F830F700F70B862A21
:10051000F80B862A000028300A128A15F5250A12DF
:100520008A111A30F800F830F700F70B952AF80B0B
:10053000952A0000831203136F0808380A128A15DF
:10054000F5250A128A111A30F800F830F700F70B77
:10055000A72AF80BA72A00000A128A1541260A12B8
:100560008A11831203136E0804380A128A15F525BE
:100570000A128A11013083160313A60008000A121A
:100580008A15D0250A128A11D0300A128A1531260E
:100590000A128A1100300A128A1531260A128A11AB
:1005A0000A128A15E2250A128A11D1300A128A1516
:1005B00031260A128A110A128A157A260A128A111B
:1005C00083120313EC000A128A15FF250A128A11FE
:1005D0000A128A157A260A128A1183120313EB0073
:1005E0000A128A15FF250A128A110A128A157A261A
:1005F0000A128A1183120313EA000A128A15FF25D0
:100600000A128A110A128A157A260A128A110A1205
:100610008A15FF250A128A110A128A157A260A12E9
:100620008A1183120313E9000A128A15FF250A12A0
:100630008A110A128A157A260A128A118312031362
:10064000E8000A128A15FF250A128A110A128A1571
:100650007A260A128A1183120313E7000A128A15F6
:100660000B260A128A110A128A15D9250A128A1132
:100670000800013083120313B3008316031321080B
:1006800083120313B5008316031320088312031388
:10069000B4001F30B6000030B70083160313C60144
:1006A000872BFF30B6070318B70AFF30B7073608A5
:1006B000A73E84000A30F0000030F1003208F30059
:1006C0003108F2000A128A1116200A128A117008E3
:1006D000303E8313800083120313B301FF30B4074D
:1006E0000318B50AFF30B5070A30F0000030F100FA
:1006F0003208F3003108F2000A128A114E200A1261
:100700008A11710883120313B2007008B1008312BA
:100710003608370403198D2B8E2BAC2B310832048D
:10072000031D932B942B512B3308031D982B992BCE
:10073000512B3508803AFF0080307F02031DA22B29
:1007400001303402031CA52BA62BAC2B8312031300
:10075000E618AB2BAC2B512B831203132F08A800E8
:100760003008A9003608A73EAA003508AC003408B6
:10077000AB000A128A11E3200A128A110800FF3026
:1007800083160313860081130A128A1524260A127F
:100790008A117C300A128A1154220A128A110A1212
:1007A0008A1541260A128A11831203130618D92BBF
:1007B000DA2B2E2CED010530DA00DB016A080A1273
:1007C0008A11A5250A128A1183120313EA00083040
:1007D000DA00DB016B080A128A11A5250A128A11B8
:1007E00083120313EB000530DA00DB01DB0A690832
:1007F0000A128A11A5250A128A1183120313E9002D
:100800000830DA00DB01DB0A68080A128A11A52524
:100810000A128A1183120313E8000D30DA00DB019B
:10082000DB0A67080A128A11A5250A128A118312A7
:100830000313E7000A128A11F0210A128A11053007
:1008400083120313E5000F30E400F030E300E30B04
:10085000272CE40B272CE50B272C00000A128A1109
:10086000BF220A128A110A128A1172260A128A11EA
:10087000023083120313E5000430E400B930E300D2
:10088000E30B402CE40B402CE50B402C472CD42BE5
:100890000A128A110028720873040319502C512C73
:1008A000572C72087304031D562C572C5E2C7008AD
:1008B0000A128A15C7250A128A11E42C7208093E09
:1008C000F40073080318013E003EF500740884002C
:1008D0008317751C83130008F600840A0008F700CC
:1008E000760877040319752C762CA82C7208093E1B
:1008F000F40073080318013E003EF50074088400FC
:100900008317751C83130008F600840A0008F7009B
:100910007208023EF80073080318013E003EF90019
:10092000780884008317791C83130008FA00840A6E
:100930000008FB007B08803AFC007708803A7C02C4
:10094000031DA42C76087A020318A72CA82CE42CEB
:10095000720884008317731C83130008F400840A50
:100960000008F5007208023EF60073080318013E05
:10097000003EF700760884008317771C8313000875
:100980007407F9007508F8000318F80A801FC92CCD
:10099000F8037808FA007908840083177A1C831317
:1009A000700880007208023EF40073080318013ECC
:1009B000003EF500740884008317751C8313013012
:1009C0008007840A0318800A0800831203133A0878
:1009D00084008313000884000A128A150A200A1270
:1009E0008A11253A031DF52CF62C8B2D3A0884002C
:1009F0000130800783160313A001A1010030831288
:100A00000313E600FF3083160313A200FF30A30098
:100A100083120313C201222DE6143A088400013028
:100A20008007222D0130C200222D3A0884000008E0
:100A300084000A128A150A200A128A11303A031910
:100A40000C2D122D42080319262D272D152D3A089D
:100A5000F6003B08F7000A128A1190200A128A1148
:100A6000770883160313A1007608A000A11F392D73
:100A70003A2D442D83120313661483160313A00921
:100A8000A109A00A0319A10A831203133A088400DA
:100A900083130008C300430884000A128A150A2041
:100AA0000A128A11753A031D562D572D832D3B08C6
:100AB00084000008FF00023080077F0884000008DF
:100AC000BE00840A0008BF003A0884004308013EC3
:100AD0008000782D3808AF003908B0003F08B20018
:100AE0003E08B1000A128A1139230A128A11A42D74
:100AF000430884000A128A150A200A128A11753ADC
:100B000003196A2D832D831203133A0884000130E0
:100B100083138007A42D3A088400000884000A1279
:100B20008A150A200A128A11BC00BD013C08F00097
:100B30003D08F1003808F2003908F3000A128A1162
:100B40004B240A128A11832D080083120313E2003A
:100B5000061CAB2DAC2DA82D222E0130E2076D080E
:100B6000031DB32DB42DBB2D18306202031CB92D0B
:100B7000BA2DBB2DE2016D03031DBF2DC02DC72D66
:100B80003C306202031CC52DC62DC72DE201023088
:100B90006D06031DCC2DCD2DD52D20306202031CFA
:100BA000D22DD32DD52D0130E20003306D06031D6B
:100BB000DA2DDB2DE32D0D306202031CE02DE12D3B
:100BC000E32D0130E20004306D06031DE82DE92D10
:100BD000F02D64306202031CEE2DEF2DF02DE201AA
:100BE0005B08F5005A080A128A1591260A128A1122
:100BF0005F3083120313C9000130CA006208DC00B1
:100C0000DD015C08CB005D08CC000A128A151127B3
:100C10000A128A115F30F5000030F6000A128A15B8
:100C20007E270A128A11053083120313DE000F306B
:100C3000DD00F030DC00DC0B1B2EDD0B1B2EDE0B91
:100C40001B2E000083120313861C272E282EAD2D89
:100C50005B08F5005A080A128A1591260A128A11B1
:100C60000630F5008030F6000A128A157E270A1237
:100C70008A110A128A15AE260A128A1183120313E8
:100C80005B08F5005A080A128A1591260A128A1181
:100C90005F3083120313C9000130CA006208DC0010
:100CA000DD015C08CB005D08CC000A128A15112713
:100CB0000A128A115F30F5000030F6000A128A1518
:100CC0007E270A128A110A128A15AE260A128A1182
:100CD0008312031306186D2E6E2E222E0130ED079F
:100CE00062080800831203136C080A128A1564262E
:100CF0000A128A1183120313EC006B080A128A1578
:100D000064260A128A1183120313EB006A080A127E
:100D10008A1564260A128A1183120313EA006908ED
:100D20000A128A1564260A128A1183120313E90033
:100D300068080A128A1564260A128A11831203139C
:100D4000E80067080A128A1564260A128A118312BB
:100D50000313E7000A30F0000030F1006C08FB00DC
:100D6000FC017B08F2007C08F3000A128A1136218C
:100D70000A128A117008303E83160313E7000A3006
:100D8000F0000030F100831203136C08FB00FC013B
:100D90007B08F2007C08F3000A128A118D210A12E6
:100DA0008A117008303E83160313E6000A30F00003
:100DB0000030F100831203136B08FB00FC017B0879
:100DC000F2007C08F3000A128A1136210A128A11F5
:100DD0007008303E83160313E4000A30F000003040
:100DE000F100831203136B08FB00FC017B08F20087
:100DF0007C08F3000A128A118D210A128A117008E8
:100E0000303E83160313E3000A30F0000030F10097
:100E1000831203136A08FB00FC017B08F2007C08C4
:100E2000F3000A128A1136210A128A117008303E24
:100E300083160313E1000A30F0000030F100831242
:100E400003136A08FB00FC017B08F2007C08F30036
:100E50000A128A118D210A128A117008303E8316F7
:100E60000313E0000A30F0000030F1008312031396
:100E70006708FB00FC017B08F2007C08F3000A1203
:100E80008A1136210A128A117008303E8316031324
:100E9000D9000A30F0000030F10083120313670814
:100EA000FB00FC017B08F2007C08F3000A128A11A7
:100EB0008D210A128A117008303E83160313D80060
:100EC0000A30F0000030F100831203136808FB00C1
:100ED000FC017B08F2007C08F3000A128A1136211B
:100EE0000A128A117008303E83160313D4000A30A8
:100EF000F0000030F100831203136808FB00FC01CE
:100F00007B08F2007C08F3000A128A118D210A1274
:100F10008A117008303E83160313D3000A30F000A4
:100F20000030F100831203136908FB00FC017B0809
:100F3000F2007C08F3000A128A1136210A128A1183
:100F40007008303E83160313D1000A30F0000030E1
:100F5000F100831203136908FB00FC017B08F20017
:100F60007C08F3000A128A118D210A128A11700876
:100F7000303E83160313D000F50100300A128A15A3
:100F800091260A128A11DB30F5000030F6000A12B1
:100F90008A157E270A128A11F501F50A00300A1215
:100FA0008A1591260A128A11CB30F5000030F6001E
:100FB0000A128A157E270A128A1108008313E93063
:100FC000FD000E30FE00CC30FF00C73084000A1256
:100FD0008A1107200A128A11A0308400C7300A1231
:100FE0008A15C8250A128A11663084006E300A12EA
:100FF0008A15C8250A128A1183010A128A11BF2B89
:10100000FF1B0A2883137F1883170008840A03191B
:10101000FF0A080008308A000408840A82070034A6
:1010200025343034323475340034203420340034E4
:101B8E00080064008001840A040603190034040668
:101B9E00C92D0A128A1517260A128A1583160313DF
:101BAE00111408000A128A1517260A128A158316AE
:101BBE000313111508000A128A1517260A128A1520
:101BCE008316031391140800F4004030F1007408DA
:101BDE000A128A1534270A128A150800F40080307A
:101BEE00F10074080A128A1534270A128A150800A1
:101BFE008316031391120A128A1517260A128A15D2
:101C0E0083160313111608008316031391160A1276
:101C1E008A1517260A128A15831603131116080041
:101C2E008316031314191C2E1D2E172E11081F397F
:101C3E00031D222E232E172E080028308312031385
:101C4E009400831603139101940127309300871596
:101C5E0007160800F0000A128A1517260A128A15AE
:101C6E0070088312031393008C1D3E2E3F2E3B2EC5
:101C7E008C11080001300A128A15F5250A128A15F0
:101C8E000B30F6006230F500F50B4B2EF60B4B2E9B
:101C9E0000000800F200F101721C562E572E592E2C
:101CAE007008F1070310F00D0310F20C7208031DFB
:101CBE00612E622E532E71080800F5000F30750547
:101CCE00F3000A30F0007508F40004300310F40C31
:101CDE00FF3E031D6D2E74080A128A1551260A1234
:101CEE008A15730708000A128A1517260A128A1512
:101CFE0083160313911583128C1D862E872E822E2A
:101D0E008C110A128A1517260A128A1583120313CA
:101D1E0013080800FA00831603134A08F90049084D
:101D2E00F8004808F7004708F60004307502031C57
:101D3E00A12EA22EA32EF5017508763E84007A08F8
:101D4E0000070A128A15F5250A128A150800F201F3
:101D5E00BB2E0130F2078230F100DD30F000F00BC7
:101D6E00B62EF10BB62EBB2E0A3072020318C02E01
:101D7E00C12ECB2E83120313061CC62EC72ECB2EBE
:101D8E008618CA2ECB2EB02E08008034C034943460
:101D9E00D43444344134543445343A342034203429
:101DAE002F34203420342F34323430342034203445
:101DBE000034543449344D3445343A3420342034CC
:101DCE003A34203420343A34203420340034831210
:101DDE0003134608C800002F4408B8004508B90090
:101DEE004830BA004708BB000A128A11E5240A12CD
:101DFE008A1583120313480884000A128A150A20D2
:101E0E000A128A15003A031D0D2F0E2FF32EC40150
:101E1E00C50108004B3083120313CE004908CF00D2
:101E2E000030D000D101D201D801D9014F30C40009
:101E3E000030C5004A08C6004E30C7000A128A1587
:101E4E00EE260A128A158312031351084907CD0094
:101E5E004D088400831380010800F3000A128A15CE
:101E6E00D0250A128A158316031369080A128A15D9
:101E7E0031260A128A1571080A128A1531260A129B
:101E8E008A1573080A128A1531260A128A150A1241
:101E9E008A15D9250A128A154230F200F20B552FF7
:101EAE0000000800F401F501701C5E2F5F2F652FF6
:101EBE007208F4070318F50A7308F50701300310CA
:101ECE00F20DF30DFF3E031D662F01300310F10CD2
:101EDE00F00CFF3E031D6D2F70087104031D782F4B
:101EEE00792F5B2F7508F1007408F0000800932F0E
:101EFE007608FF00750884000A128A1500200A125F
:101F0E008A150A128A15EB250A128A150130F50771
:101F1E000318F60A0030F607760883120313FF0043
:101F2E00750884000A128A1500200A128A15003AD2
:101F3E00031DA22FA32F7F2F080083120313A601C8
:101F4E00A701C12F2508A300A4012308F00024082F
:101F5E00F1002108F2002208F3000A128A114B2424
:101F6E000A128A15013083120313A6070318A70A53
:101F7E000030A70726082007A30023088400831338
:101F8E000008A5002508031DCD2FCE2FA92F080070
:101F9E00FC000A30F0000030F1007C08F800F90176
:101FAE007808F2007908F3000A128A118D210A12BC
:101FBE008A157008FA000A30F0000030F1007C0833
:101FCE00F800F9017808F2007908F3000A128A1174
:101FDE0036210A128A157008FB007A08F8000330C1
:101FEE000310F80DFF3E031DF72F0310780D7B0431
:021FFE000800D9
:02400E007A3FF7
:00000001FF
