:100000000A128A11E92FFF1B0D2883137F1883170B
:100010000008840A0319FF0A080000308A00040857
:10002000840A820700344E346F34203472346534CD
:10003000733470346F346E34733465342034663402
:1000400072346F346D342034733465346E347334E9
:100050006F3472340A340D340034533465346E34E2
:1000600073346F34723420347234653461346434E0
:100070002034743469346D3465346F3475347434B9
:1000800021340A340D340034433468346534633425
:100090006B34733475346D342034453472347234B7
:0C00A0006F34723421340A340D34003403
:10099800003083160313981801300800F0000A127B
:1009A8008A11CC240A128A11003A0319DC2CDD2C96
:1009B800D32C7008831203139900080083160313BD
:1009C80018153330990018128312031398178316D9
:1009D80003130713871798168312031318160800B2
:1009E8007E088A007F0882000A128A11F4240A12FB
:1009F8008A118000840A04087D0603190034FF0A5E
:100A08000319FE0AF82C8316031306108312031326
:100A180006104130F100EE30F000F00B112DF10B13
:100A2800112D00008312031306141330F000F00B8D
:100A38001B2D1E2D83160313061408005234483448
:100A48002034203420343D342034303430342E34B3
:100A58003034203425340034543465346D347034E3
:100A680020343D342034303430342E343034203483
:100A780043340034532D7208FF00710884000A12B1
:100A88008A1103200A128A110A128A11D2240A1220
:100A98008A110130F1070318F20A0030F2077208D0
:100AA80083120313FF00710884000A128A110320BD
:100AB8000A128A11003A031D622D632D3F2D08008A
:100AC800831203138F018E01101406186C2D6D2DDF
:100AD800732D64300E02031C722D732D692D643042
:100AE8000E02031C782D792D7B2D00308F2D8F0160
:100AF8008E01061C802D812D872D64300E02031C6B
:100B0800862D872D7D2D64300E02031C8C2D8D2D96
:100B18008E2D792D01300800700884008001F201C3
:100B2800831203138F018E01A12D65300E02031C61
:100B38009E2D9F2DA12D0130D12D061CA42DA52D54
:100B4800992D8F018E01AF2D65300E02031CAD2D3E
:100B5800AE2DAF2D9F2D0618B22DB32DA82D3330F5
:100B68000E02031CB82DB92DC82D70088400013061
:100B7800F1007208073C013EC32D0310F10DFF3E42
:100B8800031DC12D710880040130F207083072027C
:100B9800031CCF2DD02D942D00300800F501F31F34
:100BA800D62DD72DDE2DF209F309F20A0319F30A1F
:100BB8000130F500F11FE12DE22DE72DF009F109D3
:100BC800F00A0319F10A700871040319EC2DED2DD0
:100BD8001A2E0130F400F92D01300310F00DF10D3B
:100BE800FF3E031DF12D0130F407F11FFC2DFD2DF3
:100BF800F02D71087302031D032E70087202031C86
:100C0800062E072E0D2E7008F2027108031CF3033E
:100C1800F30201300310F10CF00CFF3E031D0E2E01
:100C28000130F402031D192E1A2EFD2D7508031923
:100C38001E2E1F2E242EF209F309F20A0319F30AB5
:100C48007308F1007208F0000800F501F11F2D2E5D
:100C58002E2E352EF009F109F00A0319F10A013098
:100C6800F500F31F382E392E402EF209F309F20A47
:100C78000319F30A0130F506F601F701700871044B
:100C88000319472E482E7D2E0130F400542E0130D2
:100C98000310F00DF10DFF3E031D4C2E0130F4073B
:100CA800F11F572E582E4B2E01300310F60DF70D5D
:100CB800FF3E031D592E71087302031D652E70082F
:100CC8007202031C682E692E702E7008F2027108D9
:100CD800031CF303F302761401300310F10CF00C3B
:100CE800FF3E031D712E0130F402031D7C2E7D2E64
:100CF800582E75080319812E822E872EF609F709BA
:100D0800F60A0319F70A7708F1007608F0000800D8
:100D180001308316031386008030870006309F0059
:100D280010308312031390008F018E010A128A116A
:100D3800E2240A128A110B3083120313BE002630F4
:100D4800BD005D30BC00BC0BA72EBD0BA72EBE0B93
:100D5800A72E0A128A1107250A128A110A128A1165
:100D680064250A128A11003A0319BB2EBC2ED92F0A
:100D78007A30F0000A128A1190250A128A11003A74
:100D8800031DC72EC82EF82E7930F0000A128A11DA
:100D980090250A128A11003A031DD32ED42EF82E5C
:100DA8007C30F0000A128A1190250A128A11003A42
:100DB800031DDF2EE02EF82E7B30F0000A128A1178
:100DC80090250A128A11003A031DEB2EEC2EF82EFC
:100DD8007830F0000A128A1190250A128A11003A16
:100DE8000319F72EF82E022F1B30F1008030F20085
:100DF8000A128A113E250A128A11E22F7A08790707
:100E080083120313BC00BD01BD0D7C083C07BE0066
:100E18000030031801303D07BF007B083E07C000C3
:100E28000030031801303F07C100FF304005C20001
:100E380000304105C3007808C400C50143084506D1
:100E4800031D282F42084406031D2B2F2C2FCF2FBC
:100E58000A30F0000030F1007C08BC00BD013C08FD
:100E6800F2003D08F3000A128A1129260A128A1193
:100E78007008303E83120313B5000A30F0000030CA
:100E8800F1007C08BC00BD013C08F2003D08F300FD
:100E98000A128A11D2250A128A117008303E83126A
:100EA8000313B6000A30F0000030F1007B08BC00E4
:100EB800BD013C08F2003D08F3000A128A112926F8
:100EC8000A128A117008303E83120313B8000A30E0
:100ED800F0000030F1007A08BC00BD013C08F200C7
:100EE8003D08F3000A128A1129260A128A1170088D
:100EF800303E83120313A7000A30F0000030F100DF
:100F08007A08BC00BD013C08F2003D08F3000A1253
:100F18008A11D2250A128A117008303E83120313EF
:100F2800A8000A30F0000030F1007908BC00BD01CB
:100F38003C08F2003D08F3000A128A1129260A1219
:100F48008A117008303E83120313AA002E30F10074
:100F58000030F2000A128A113E250A128A11413025
:100F6800F1008030F2000A128A113E250A128A1115
:100F78002030F1000030F2000A128A113E250A12D0
:100F88008A114130F1008030F2000A128A113E25A0
:100F98000A128A11E22F3230F1008030F2000A1270
:100FA8008A113E250A128A11E22F0130F1008030A1
:100FB800F2000A128A113E250A128A1183120313BB
:100FC80010109F2E0A128A11002883133C30FD004E
:100FD8000530FE002230FF00203084000A128A11FA
:100FE800F8240A128A11F801F901FA01FB01FC013F
:080FF80083010A128A118C2EFC
:02400E00723FFF
:00000001FF
