:060000000A128A11FC2F18
:100DFA00700883120313950072089B00080083127F
:100E0A00031395019B010810881008118811080026
:100E1A00FF30831203139200FF30831603139200EC
:100E2A000C308312031397000C309D0095019B012F
:100E3A000800282F0630F3003030F200F20B232F7F
:100E4A00F30B232F00000130F0020030031CF103E2
:100E5A00F102700A031D352F710A031D352F362F33
:100E6A001F2F08007708F1007608F0008312031399
:100E7A001B08F800F9017808F2007908F3000A1251
:100E8A008A11FD260A128A1174037504031D4E2F56
:100E9A004F2F542F83120313081488105F2F023028
:100EAA0074067504031D5A2F5B2F5F2F83120313D9
:100EBA00081088140800831203131508F800F901B2
:100ECA007808F0007908F1007708F3007608F20054
:100EDA000A128A11FD260A128A1174037504031D67
:100EEA00772F782F7D2F8312031308158811882FE7
:100EFA00023074067504031D832F842F882F8312F2
:100F0A000313081188150800831603138701880143
:100F1A0083120313870188010A128A110D270A1204
:100F2A008A110230F4000030F500FF30F60000307C
:100F3A00F7000A128A1137270A128A110130F400BF
:100F4A000030F500FF30F6000030F7000A128A116F
:100F5A0060270A128A114030F0001F30F1000A128D
:100F6A008A111E270A128A110A128A1104270A12E2
:100F7A008A114030F0001F30F1000A128A111E2730
:100F8A000A128A110130F4000030F500FF30F60031
:100F9A000030F7000A128A1137270A128A11023022
:100FAA00F4000030F500FF30F6000030F7000A12B6
:100FBA008A1160270A128A114030F0001F30F100AE
:100FCA000A128A111E270A128A110A128A11042782
:100FDA000A128A114030F0001F30F1000A128A11F9
:100FEA001E270A128A11962F0A128A1100288301D3
:060FFA000A128A11892F82
:02400E00793FF8
:00000001FF
