:060000000A128A11DF2F35
:10000C0008007008F2000130F107FF30710784001E
:10001C000A168A1500200A128A11FF007208F20AC9
:10002C0084007F08831780000008031D1E281F28EA
:10003C000928080083120313A0002008031927289D
:10004C0028283C28F51F2B282C283C287209A200B4
:10005C007309A3007409A4007509A500A20A031969
:10006C00A30A0319A40A0319A50A44287508A500B4
:10007C007408A4007308A3007208A2007508740425
:10008C0073047204031D4B284C2855280030F500CE
:10009C000030F4000030F3000030F200D528963028
:1000AC00A10063280130A10701300310A50CA40C9A
:1000BC00A30CA20CFF3E031D5B28FE302505031D7F
:1000CC0068286928582883280130A1070130A20725
:1000DC00003003180130A307003003180130A407C7
:1000EC00003003180130A50701300310A50CA40C37
:1000FC00A30CA20CFF3E031D7B28FF302505031D1E
:10010C00882889286A2895280130A1020130F60038
:10011C000310A20DA30DA40DA50DF60B8E28A41B88
:10012C00982899289F280230210203189E289F287E
:10013C008A282118A228A328AB28FF30A205FF305B
:10014C00A3057F30A405FF30A5050310A10C2108E1
:10015C00F600F701F801F90118300310F60DF70D50
:10016C00F80DF90DFF3E031DB3287608A20477089D
:10017C00A3047808A4047908A50420080319C72847
:10018C00C828CD28F51FCB28CC28CD28A5172508A5
:10019C00F5002408F4002308F3002208F2000800FC
:1001AC003F3083160313CB008030CA000030C900E7
:1001BC000030C800AF01B0014708F3004608F20058
:1001CC004508F1004408F0000030F7000030F6005C
:1001DC000030F5000030F4000A168A1143200A1290
:1001EC008A110318FA28FB280C2B0C2983160313ED
:1001FC003608CB003508CA003408C9003308C800DB
:10020C000130AF070318B00A0030B0074130831239
:10021C000313A9002030A8000030A7000030A6006E
:10022C00831603134B0883120313AD0083160313B9
:10023C004A0883120313AC00831603134908831274
:10024C000313AB0083160313480883120313AA008D
:10025C000A128A15BE240A128A1183120313290862
:10026C0083160313B6008312031328088316031393
:10027C00B50083120313270883160313B4008312EB
:10028C000313260883160313B300440883120313C5
:10029C00CF0083160313450883120313D000831673
:1002AC000313460883120313D10083160313470864
:1002BC0083120313D2008316031333088312031320
:1002CC00CF02831603133408031C340F6E297129D3
:1002DC0083120313D002831603133508031C350F46
:1002EC0078297B2983120313D10283160313360852
:1002FC00031C360F8229852983120313D20283161D
:10030C000313831203135208F3005108F200500830
:10031C00F1004F08F0000A168A15FF250A128A11FF
:10032C00F31BA8297308031DA9297208031DA92909
:10033C007108031DA92902307002031DA529031C95
:10034C00A829A929FC288316031336088312031342
:10035C00C30083160313350883120313C2008316DC
:10036C000313340883120313C100831603133308D9
:10037C0083120313C000831603134708831203135D
:10038C00C70083160313460883120313C600831693
:10039C000313450883120313C50083160313440883
:1003AC0083120313C4000A168A1140230A128A11FD
:1003BC00031CE129E229FC28831603134408831249
:1003CC000313CF0083160313450883120313D000C5
:1003DC0083160313460883120313D10083160313E9
:1003EC00470883120313D2008316031348088312A1
:1003FC000313CF02831603134908031C490F072A62
:10040C000A2A83120313D002831603134A08031C0F
:10041C004A0F112A142A83120313D10283160313D1
:10042C004B08031C4B0F1B2A1E2A83120313D202E8
:10043C0083160313831203135208F3005108F200BE
:10044C005008F1004F08F0000A168A15FF250A1211
:10045C008A11F31B422A7308031D412A7208031DDB
:10046C00412A7108031D412A02307002031D3E2AE5
:10047C000318412A422AD32A831603134B08C700B8
:10048C004A08C6004908C5004808C4000C2B413076
:10049C00F3002030F2000030F1000030F000831641
:1004AC0003134B08F7004A08F6004908F500480802
:1004BC00F4000A128A1592200A128A117308831604
:1004CC000313CB007208CA007108C9007008C80079
:1004DC00FF30AF070318B00AFF30B007440883128F
:1004EC000313CF0083160313450883120313D000A4
:1004FC0083160313460883120313D10083160313C8
:10050C00470883120313D20083160313480883127F
:10051C000313CF02831603134908031C490F972AB0
:10052C009A2A83120313D002831603134A08031C5E
:10053C004A0FA12AA42A83120313D1028316031390
:10054C004B08031C4B0FAB2AAE2A83120313D202A7
:10055C0083160313831203135208F3005108F2009D
:10056C005008F1004F08F0000A168A15FF250A12F0
:10057C008A11F31BD22A7308031DD12A7208031D9A
:10058C00D12A7108031DD12A02307002031DCE2A14
:10059C000318D12AD22AD32A422A831603134708D6
:1005AC0083120313C3008316031346088312031329
:1005BC00C20083160313450883120313C10083166C
:1005CC000313440883120313C000831603134B0850
:1005DC0083120313C700831603134A0883120313F1
:1005EC00C60083160313490883120313C500831630
:1005FC000313480883120313C4000A168A114023FC
:10060C000A128A11031C0B2B0C2B4D2A8312031379
:10061C004E0883160313A9002908AA00ED1B172BFB
:10062C00182B1D2B6D08A3006C08A200212B063083
:10063C00A2000030A3002308AE002208AD00013058
:10064C00AD070318AE0A0030AE0766302A06031D4C
:10065C00302B312B4B2BB01F342B352B3F2B3F30FA
:10066C00CB008030CA000030C9000030C800AF0198
:10067C00B001673029060319442B452B4B2B2F084F
:10068C00AD070318AE0A3008AE07B701B80147082A
:10069C00BC004608BB004508BA004408B9004B082A
:1006AC00B6004A08B5004908B4004808B300462C07
:1006BC00831603134B08F3004A08F2004908F100B3
:1006CC004808F0003C08F7003B08F6003A08F50033
:1006DC003908F4000A128A1592200A128A1173083A
:1006EC0083120313B0007208AF007108AE007008DB
:1006FC00AD000A168A11CC250A128A118312031333
:10070C00300883160313C000831203132F088316BB
:10071C000313BF00831203132E0883160313BE00AA
:10072C00831203132D0883160313BD004008F30036
:10073C003F08F2003E08F1003D08F0000A168A114D
:10074C00A5210A128A11710883160313AC007008D4
:10075C00AB004B0883120313AD00831603134A0836
:10076C0083120313AC00831603134908831203137B
:10077C00AB0083160313480883120313AA008316D5
:10078C000313400883120313A900831603133F08B5
:10079C0083120313A800831603133E08831203135A
:1007AC00A700831603133D0883120313A6000A1235
:1007BC008A15BE240A128A11831203132908C30056
:1007CC002808C2002708C1002608C000831603139E
:1007DC003C0883120313C700831603133B088312D0
:1007EC000313C600831603133A0883120313C500C0
:1007FC0083160313390883120313C4000A168A15CF
:10080C0086260A128A1183120313430883160313D4
:10081C00BC0083120313420883160313BB0083121C
:10082C000313410883160313BA0083120313400801
:10083C0083160313B9004130F3002030F20000306E
:10084C00F1000030F0004B08F7004A08F6004908A8
:10085C00F5004808F4000A128A1592200A128A112F
:10086C00730883160313CB007208CA007108C90001
:10087C007008C8000130B7070318B80A0030B80771
:10088C003808803A83120313CF00831603132E0803
:10089C00803A831203134F02031D582C8316031343
:1008AC002D083702031C5B2C5C2C5E2B4030831212
:1008BC000313A900A030A8000030A7000030A60048
:1008CC00831603134B0883120313AD008316031313
:1008DC004A0883120313AC008316031349088312CE
:1008EC000313AB0083160313480883120313AA00E7
:1008FC000A128A15BE240A128A11831203132908BC
:10090C0083160313C00083120313280883160313E2
:10091C00BF0083120313270883160313BE00831230
:10092C000313260883160313BD003C08831203131C
:10093C00C300831603133B0883120313C2008316F0
:10094C0003133A0883120313C100831603133908E7
:10095C0083120313C000831603134008831203137E
:10096C00C700831603133F0883120313C6008316B4
:10097C0003133E0883120313C500831603133D08AB
:10098C0083120313C4000A168A1140230A128A1117
:10099C000318D12CD22CDD2C003083160313C0008D
:1009AC000030BF000030BE000030BD00062D8316A5
:1009BC0003133C08F3003B08F2003A08F100390835
:1009CC00F0004008F7003F08F6003E08F5003D082F
:1009DC00F4000A168A1143200A128A11031CF72C00
:1009EC00F82C062D831603132B18FD2CFE2C062D2C
:1009FC000030C0000030BF000030BE000030BD0031
:100A0C00831603134008F3003F08F2003E08F10080
:100A1C003D08F0004708F7004608F6004508F500C9
:100A2C004408F4000A128A1562220A128A11730809
:100A3C0083160313BC007208BB007108BA0070085F
:100A4C00B9003C0883120313C300831603133B083D
:100A5C0083120313C200831603133A088312031381
:100A6C00C10083160313390883120313C0004130ED
:100A7C00A9002030A8000030A7000030A600831683
:100A8C000313360883120313AD00831603133508C2
:100A9C0083120313AC00831603133408831203135D
:100AAC00AB0083160313330883120313AA000A1234
:100ABC008A15BE240A128A11831203132908C7004F
:100ACC002808C6002708C5002608C4000A168A1183
:100ADC0040230A128A11031C742D752DC82D013068
:100AEC0083160313AF070318B00A0030B007413068
:100AFC0083120313A9002030A8000030A700003097
:100B0C00A60083160313360883120313AD00831655
:100B1C000313350883120313AC0083160313340834
:100B2C0083120313AB0083160313330883120313CE
:100B3C00AA000A128A15BE240A128A118312031300
:100B4C00290883160313B60083120313280883168F
:100B5C000313B50083120313270883160313B40081
:100B6C0083120313260883160313B30066302A0678
:100B7C00031DC12DC22DC82D0130AD070318AE0ABF
:100B8C000030AE07831603133608CB003508CA00B5
:100B9C003408C9003308C8003008A1002F08A00091
:100BAC00A801A401A501B701B8013C2F83160313BA
:100BBC004B08F3004A08F2004908F1004808F0001D
:100BCC003C08F7003B08F6003A08F5003908F40039
:100BDC000A128A1592200A128A11730883120313BF
:100BEC00B0007208AF007108AE007008AD000A16B4
:100BFC008A11CC250A128A1183120313300883162A
:100C0C000313C000831203132F0883160313BF00B2
:100C1C00831203132E0883160313BE0083120313CF
:100C2C002D0883160313BD004008F3003F08F200A3
:100C3C003E08F1003D08F0000A168A11A5210A129F
:100C4C008A117108803AFF0080307F02031D302E1C
:100C5C000A3070020318332E342E4A2E83160313D7
:100C6C004008F3003F08F2003E08F1003D08F00098
:100C7C000A168A11A5210A128A1171088316031308
:100C8C00AC007008AB00502E093083160313AB0078
:100C9C000030AC002808031D542E552E862EA11FA3
:100CAC00582E592E862E4208103E84002E30831763
:100CBC0080000130C2070318C30A0030C307FF309D
:100CCC00B1070318B20AFF30B2070130A800862E14
:100CDC004208103E84003030831780000130C20778
:100CEC000318C30A0030C307FF30B1070318B20A58
:100CFC00FF30B207FF30A4070318A50AFF30A50781
:100D0C0024082504031D8B2E8C2E6E2E4208103EBB
:100D1C0084002B08303E831780000130C207031873
:100D2C00C30A0030C307FF30B1070318B20AFF3003
:100D3C00B2074B0883120313AD00831603134A0842
:100D4C0083120313AC008316031349088312031395
:100D5C00AB0083160313480883120313AA008316EF
:100D6C000313400883120313A900831603133F08CF
:100D7C0083120313A800831603133E088312031374
:100D8C00A700831603133D0883120313A6000A124F
:100D9C008A15BE240A128A11831203132908C30070
:100DAC002808C2002708C1002608C00083160313B8
:100DBC003C0883120313C700831603133B088312EA
:100DCC000313C600831603133A0883120313C500DA
:100DDC0083160313390883120313C4000A168A15E9
:100DEC0086260A128A1183120313430883160313EF
:100DFC00BC0083120313420883160313BB00831237
:100E0C000313410883160313BA008312031340081B
:100E1C0083160313B9004130F3002030F200003088
:100E2C00F1000030F0004B08F7004A08F6004908C2
:100E3C00F5004808F4000A128A1592200A128A1149
:100E4C00730883160313CB007208CA007108C9001B
:100E5C007008C800FF30A0070318A10AFF30A107D3
:100E6C000130B7070318B80A0030B8073808803AC1
:100E7C0083120313CF00831603132E08803A8312B8
:100E8C0003134F02031D4E2F831603132D08370235
:100E9C000318512F522F612F831603134308803AE6
:100EAC00FF0080307F02031D5D2F4B304202031C7C
:100EBC00602F612FDC2D4F3083160313B7000030E9
:100ECC00B8003708103E840083178001103083125D
:100EDC000313CF0083160313420883120313CF02AC
:100EEC00831603133708831203134F07F0001030D7
:100EFC00F100831603134308F3004208F2000A16AC
:100F0C008A1542260A128A118316031342083702E5
:100F1C00C2004308031C430A3802C3004108031DE6
:100F2C00982F9A2F01309B2F003083120313CF0080
:100F3C00D0014F0883160313B70083120313500814
:100F4C0083160313B80041080319AD2FAE2FBA2F27
:100F5C00FF30C2070318C30AFF30C3074208103E14
:100F6C0084004108831780003708B1023808031C3D
:100F7C00B203B202831203134808A8004908A9005F
:100F8C00831603134208103E83120313AA00831620
:100F9C000313320883120313AC00831603133108B6
:100FAC0083120313AB000A168A1191200A128A11BC
:100FBC00080083120313EC018313DA308400EE3043
:100FCC000A168A15DA250A128A11831790308400C2
:100FDC00B4300A168A15DA250A128A1110308400E8
:100FEC0060300A168A15DA250A128A1183010A164C
:040FFC008A154A2FD9
:10100A0001300A168A152B260A128A150A168A151B
:10101A00D2250A128A150A168A1100200A128A157E
:10102A003B3083120313A900A030A8002830A70080
:10103A000A30A6000A168A15E2250A128A157008CD
:10104A0083120313C0007108C100C201C30143081F
:10105A00F5004208F4004108F3004008F2000030AD
:10106A000A128A1120200A128A157508831203139C
:10107A00AD007408AC007308AB007208AA000A122B
:10108A008A15BE240A128A15831203132908C70077
:10109A002808C6002708C5002608C4003C30F3000B
:1010AA002330F200D730F1000A30F0004708F70089
:1010BA004608F6004508F5004408F4000A128A15A5
:1010CA0092200A128A15730883120313CB0072083E
:1010DA00CA007108C9007008C800C330F30088301C
:1010EA00F2009330F1003330F0004B08F7004A0861
:1010FA00F6004908F5004808F4000A128A15622227
:10110A000A128A15730883160313E9007208E800A5
:10111A007108E7007008E6000800770883120313D5
:10112A00A4008030A4057708F8007807AB00F61F02
:10113A009F28A028A1282B142B080319A528A62824
:10114A00B6282B0A031DAA28AB28B3280030F700BB
:10115A000030F6000030F5000030F400F617F70111
:10116A00BE280030F7000030F6000030F5000030ED
:10117A00F40073088039A4067308F8007807AC00F5
:10118A00F21FC828C928CA282C142C080319CE28EB
:10119A00CF28DF282C0A031DD328D428DC280030C6
:1011AA00F3000030F2000030F1000030F000F217D6
:1011BA00F301E7280030F3000030F2000030F100BC
:1011CA000030F0007308720471047004031DEE28E5
:1011DA00EF2806290030F7000030F6000030F5004D
:1011EA000030F4008030F6047F30F7042408F70456
:1011FA007708F3007608F2007508F1007408F00029
:10120A00612A2B08031D0A290B2914290030F3002F
:10121A000030F2000030F1000030F000612A2B08A3
:10122A00F800F9017908FB002C087802FA00031C7F
:10123A00FB037A087F3EA5007B080318013E003EA7
:10124A00A6007708A3007608A2007508A100740812
:10125A00A0000030F7000030F6000030F500003042
:10126A00F4000030AA000030A9000030A8000030C5
:10127A00A700AC018E292C080319442945296529A0
:10128A000130F8000310A00DA10DA20DA30DF80B5B
:10129A0047290130F8000310F40DF50DF60DF70D8E
:1012AA00F80B5029AA1F5A295B295C2974140130AA
:1012BA00F8000310A70DA80DA90DAA0DF80B5E29B9
:1012CA0073082302031D732972082202031D73295E
:1012DA0071082102031D732970082002031C762954
:1012EA0077298C292A177008A0027108031C710F2C
:1012FA007F298029A1027208031C720F8529862979
:10130A00A2027308031C730F8B298C29A3020130D4
:10131A00AC071A302C02031C93299429402923086C
:10132A0022042104200403199B299C29BB29271480
:10133A00BB290130F8000310F40DF50DF60DF70D79
:10134A00F80BA029AA1FAA29AB29AC2974140130C9
:10135A00F8000310A70DA80DA90DAA0DF80BAE29C8
:10136A00FF30A5070318A60AFF30A607F61FBE29F5
:10137A00BF299E29AC01AA1FC329C429E029FF302D
:10138A002705F800FF302805F900FF302905FA0083
:10139A007F302A05FB007B087A0479047804031954
:1013AA00D729D829DB290130AC00E029741CDE29B1
:1013BA00DF29E029D8292C080319E429E529162A66
:1013CA000130F407003003180130F5070030031824
:1013DA000130F607003003180130F707771CF629A9
:1013EA00F729162A7408F8007508F9007608FA0031
:1013FA007708FB000130FC007B0DFB0CFA0CF90CA2
:10140A00F80CFC0B012A7B08F7007A08F600790829
:10141A00F5007808F4000130A5070318A60A003081
:10142A00A6072608803AFF0080307F02031D1F2A84
:10143A00FF302502031C222A232A312AFF30831275
:10144A000313A5000030A6000030F7000030F600B4
:10145A000030F5000030F400831203132608803AA6
:10146A00FF0080307F02031D3C2A01302502031849
:10147A003F2A402A4D2A83120313A501A6010030F0
:10148A00F7000030F6000030F5000030F400A40147
:10149A00831203132508AB002B1C542A552A572AFA
:1014AA00F617592A7F30F6052B08F8000310780C36
:1014BA00F7002408F704FD2808007308F8008030B4
:1014CA00F805730883120313A0002007FA00F21F1D
:1014DA006F2A702A712A7A147A080319752A762AC9
:1014EA00862A7A0A031D7A2A7B2A832A0030F30085
:1014FA000030F2000030F1000030F000F217F30182
:10150A008E2A0030F3000030F2000030F100003083
:10151A00F0007708F9008030F90579087806031990
:10152A00972A982A992A78177708A0002007F9009D
:10153A00F61FA02AA12AA22A791479080319A62A31
:10154A00A72AB72A790A031DAB2AAC2AB42A003083
:10155A00F7000030F6000030F5000030F400F6170E
:10156A00F701BF2A0030F7000030F6000030F5001E
:10157A000030F4007A0879020318C42AC52AE92A35
:10158A00781FC82AC92ACB2A8030F8067A08FB00B5
:10159A007908FA007B08F9007008FB007408F0006B
:1015AA007B08F4007108FB007508F1007B08F50060
:1015BA007208FB007608F2007B08F6007308FB004D
:1015CA007708F3007B08F700FB017908A000A10166
:1015DA002108A3007A082002A200031CA3032308FF
:1015EA00803AFF0080307F02031DFD2A1A30220252
:1015FA00031C002B012B382B73087204710470042E
:10160A00031D082B0A2B01300B2B0030FB00003086
:10161A00F3000030F2000030F1000030F0007908E9
:10162A00FA003E2B7B1C1A2B1B2B242B7B088312C4
:10163A000313A0000310200C0138FB00262B031013
:10164A00FB0C701C292B2A2B2B2BFB170130831226
:10165A000313A000730DF30CF20CF10CF00CA00BA9
:10166A002F2B0130FA0779087A02031C3D2B3E2BF7
:10167A00172B781B412B422B8D2B7A08031D462BE7
:10168A00472B502B0030F3000030F2000030F100FD
:10169A000030F000BD2C7408F00775080311031818
:1016AA00013E0319592BF107760803110318013E6D
:1016BA000319602BF207770803110318013E031977
:1016CA00672BF307731C6A2B6B2B452C7B1C6E2B29
:1016DA006F2B782B7B0883120313A0000310200CB6
:1016EA000138FB007A2B0310FB0C701C7D2B7E2B20
:1016FA007F2BFB17013083120313A000730DF30C29
:10170A00F20CF10CF00CA00B832B0130FA07452CDC
:10171A007308803AFF007708803A7F02031D9F2BE7
:10172A0076087202031D9F2B75087102031D9F2BF9
:10173A00740870020318A22BA32BFC2BFF30831210
:10174A000313A000FF30A100FF30A200FF30A30066
:10175A007408A4007508A5007608A6007708A700F3
:10176A007008A4027108031C710FBC2BBD2BA502C3
:10177A007208031C720FC22BC32BA6027308031C28
:10178A00730FC82BC92BA7022408A0072508031822
:10179A00250FD02BD12BA10726080318260FD62BED
:1017AA00D72BA20727080318270AA3072308F30041
:1017BA002208F2002108F1002008F0008030F80623
:1017CA007B03FF3AFB007B08031DEC2BED2B0A2C55
:1017DA000130F007003003180130F1070030031818
:1017EA000130F207003003180130F3070A2C74089D
:1017FA00F0027508031C750FF1027608031C760FB8
:10180A00F2027708031C770FF3027308720471045B
:10181A007004031D112C122C412C7B08031D162C5D
:10182A00172C412C0030F3000030F2000030F10098
:10183A000030F000BD2C013083120313A000031006
:10184A00F00DF10DF20DF30DA00B242CFB1F2E2C25
:10185A002F2C302C70147B1C332C342C382C031472
:10186A007B0DFB003A2C0310FB0D7A0803193E2C62
:10187A003F2C412C0130FA02F21F442C452C202C1B
:10188A00F901FB1F492C4A2C582C7B087F39031974
:10189A004F2C502C532C0130F900582C701C562C0C
:1018AA00572C582C502C790803195C2C5D2C912C40
:1018BA000130F007003003180130F1070030031837
:1018CA000130F207003003180130F307731C6E2C45
:1018DA006F2C912C700883120313A0007108A100C9
:1018EA007208A2007308A3000130A400230DA30C00
:1018FA00A20CA10CA00CA40B7B2C2308F300220839
:10190A00F2002108F1002008F0007A0A03198E2C4F
:10191A008F2C912C0130FA077A0A0319952C962CF0
:10192A009B2C7A08031D9A2C9B2CA92C0030F300BF
:10193A000030F2000030F1000030F0007A08031D98
:10194A00A72CA82CA92CF8017A1CAC2CAD2CAF2CF6
:10195A00F217B12C7F30F2057A0883120313A00024
:10196A000310200CF300F81FBB2CBC2CBD2CF31762
:10197A000800831203132908B3008030B30529082D
:10198A00AE002E07B900A81FCB2CCC2CCD2C3914B5
:10199A0039080319D12CD22CE12C390A031DD62C73
:1019AA00D72CDF2C0030A9000030A8000030A70097
:1019BA000030A600A817E92C0030A9000030A800C2
:1019CA000030A7000030A6002D088039B3062D0884
:1019DA00AE002E07B800AC1FF32CF42CF52C3814EB
:1019EA0038080319F92CFA2C092D380A031DFE2C84
:1019FA00FF2C072D0030AD000030AC000030AB00EA
:101A0A000030AA00AC17112D0030AD000030AC0038
:101A1A000030AB000030AA0038080319152D162D26
:101A2A001B2D3908031D1A2D1B2D242D0030A9004A
:101A3A000030A8000030A7000030A600FF2F2608BB
:101A4A00F0002C080A168A15CF260A128A15710880
:101A5A0083120313BF007008BE003E08AE00AF0138
:101A6A00B001B1013108B7003008B6002F08B5003F
:101A7A002E08B4003F08AE00AF01B001B101310831
:101A8A00BD003008BC002F08BB002E08BA0027088A
:101A9A00F0002B080A168A15CF260A128A15710831
:101AAA0083120313BF007008BE003E08AE00AF01E8
:101ABA00B001B1012E08B4072F0803110318013E23
:101ACA000319682DB507300803110318013E0319DD
:101ADA006F2DB607310803110318013E0319762D3D
:101AEA00B7073F08AE00AF01B001B1012E08BA072F
:101AFA002F0803110318013E0319842DBB07300870
:101B0A0003110318013E03198B2DBC073108031179
:101B1A000318013E0319922DBD072808F0002A0870
:101B2A000A168A15CF260A128A1571088312031318
:101B3A00BF007008BE003E08AE00AF01B001B1019F
:101B4A002E08B4072F0803110318013E0319AE2DFE
:101B5A00B507300803110318013E0319B52DB6075E
:101B6A00310803110318013E0319BC2DB7073F08BA
:101B7A00AE00AF01B001B1012E08BA072F08031158
:101B8A000318013E0319CA2DBB07300803110318B5
:101B9A00013E0319D12DBC07310803110318013E78
:101BAA000319D82DBD070830AE000310B40DB50DCA
:101BBA00B60DB70DAE0BDA2D2708F0002A080A1663
:101BCA008A15CF260A128A15710883120313BF00D9
:101BDA007008BE003E08AE003F08AF00B001B10178
:101BEA002E08B4072F0803110318013E0319FE2D0E
:101BFA00B507300803110318013E0319052EB6076D
:101C0A00310803110318013E03190C2EB7072608E1
:101C1A00F0002B080A168A15CF260A128A157108AF
:101C2A0083120313BF007008BE003E08AE003F08CF
:101C3A00AF00B001B1012E08B4072F080311031831
:101C4A00013E0319292EB507300803110318013E76
:101C5A000319302EB607310803110318013E031980
:101C6A00372EB7070830AE000310B40DB50DB60D08
:101C7A00B70DAE0B392E2608F0002A080A168A1567
:101C8A00CF260A128A15710883120313BF0070083F
:101C9A00BE003E08AE003F08AF00B001B1012E08F9
:101CAA00B4072F0803110318013E03195D2EB50767
:101CBA00300803110318013E0319642EB6073108D0
:101CCA0003110318013E03196B2EB7072708F0000A
:101CDA002C080A168A15CF260A128A157108831249
:101CEA000313BF007008BE003E08AE003F08AF00F5
:101CFA00B001B1012E08BA072F0803110318013EDB
:101D0A000319882EBB07300803110318013E031973
:101D1A008F2EBC07310803110318013E0319962EB2
:101D2A00BD072808F0002B080A168A15CF260A12C2
:101D3A008A15710883120313BF007008BE003E089B
:101D4A00AE003F08AF00B001B1012E08BA072F0854
:101D5A0003110318013E0319B32EBB073008031100
:101D6A000318013E0319BA2EBC07310803110318E0
:101D7A00013E0319C12EBD072808F0002C080A16D7
:101D8A008A15CF260A128A15710883120313BF0017
:101D9A007008BE003E08AE003F08AF00B001B101B6
:101DAA0008300310AE0DAF0DB00DB10DFF3E031D8F
:101DBA00D62E2E08BA072F0803110318013E03195D
:101DCA00E72EBB07300803110318013E0319EE2E54
:101DDA00BC07310803110318013E0319F52EBD078C
:101DEA003408AE003508AF003608B0003708B10035
:101DFA0018300310B10CB00CAF0CAE0CFF3E031D33
:101E0A00FE2E2E08BA072F0803110318013E0319E4
:101E1A000F2FBB07300803110318013E0319162FB1
:101E2A00BC07310803110318013E03191D2FBD0712
:101E3A000830AE000310B40DB50DB60DB70DAE0BDC
:101E4A001F2F39083807AE00AF01AF0D2E08823EAA
:101E5A00BE002F080318013EFF3EBF00512F01307C
:101E6A00AE000310BA0DBB0DBC0DBD0DAE0B362F67
:101E7A00B71F402F412F422F3A140130AE000310F2
:101E8A00B40DB50DB60DB70DAE0B442FFF30BE071E
:101E9A000318BF0AFF30BF07BC1F542F552F342F1A
:101EAA00B801B71F592F5A2F762FFF303405AE00CD
:101EBA00FF303505AF00FF303605B0007F303705FB
:101ECA00B100310830042F042E0403196D2F6E2F30
:101EDA00712F0130B800762F3A1C742F752F762F88
:101EEA006E2F380803197A2F7B2FAC2F0130BA07CF
:101EFA00003003180130BB07003003180130BC075B
:101F0A00003003180130BD073D1C8C2F8D2FAC2FDC
:101F1A003A08AE003B08AF003C08B0003D08B100EB
:101F2A000130B200310DB10CB00CAF0CAE0CB20BDB
:101F3A00972F3108BD003008BC002F08BB002E08BF
:101F4A00BA000130BE070318BF0A0030BF073F08B6
:101F5A00803AFF0080307F02031DB52FFF303E021A
:101F6A00031CB82FB92FC42F7F3083120313BD006F
:101F7A008030BC000030BB000030BA00F52F83125D
:101F8A0003133F08803AFF0080307F02031DCF2FE2
:101F9A0001303E020318D22FD32FDF2F00308312D5
:101FAA000313BD000030BC000030BB000030BA0093
:101FBA00B301F52F831203133E08B900FF30BA05A7
:101FCA00FF30BB057F30BC050030BD05391CEE2F44
:101FDA00EF2FF02FBC173908AE0003102E0CBD00EE
:101FEA003308BD043D08A9003C08A8003B08A70027
:101FFA003A08A6000800831203131F1905280628A9
:10200A0000280800730872047104700403190E286A
:10201A000F2811288030F3060800831603130710CF
:10202A0087100711081288120813881302300A163B
:10203A008A15A2270A168A1128300A168A15A22793
:10204A000A168A1106300A168A15A2270A168A1152
:10205A000C300A168A15A2270A168A1101300A16A6
:10206A008A15A2270A168A110330F4009730F30062
:10207A00F30B3D28F40B3D28422808000030700578
:10208A00F80000307105F90080307205FA007F30DF
:10209A007305FB007B087A0479047804031D56282B
:1020AA0057285F280030F3000030F2000030F100BA
:1020BA000030F00000307405F80000307505F900B2
:1020CA0080307605FA007F307705FB007B087A04BA
:1020DA0079047804031D722873287B280030F700DE
:1020EA000030F6000030F5000030F400770873067F
:1020FA00031D892876087206031D8928750871064A
:10210A00031D89287408700603198C288D288F28C6
:10211A000310902803140800831203136C1C9628DA
:10212A009728A2282A08A0002808A1002908A200A6
:10213A000A168A151F270A168A1183120313AC1F5F
:10214A00A728A828AA28AB01AC01AD01AE01C42872
:10215A002030F0000030F100831203132808F20047
:10216A002908F3000A168A11A6220A168A110130D2
:10217A0083120313AD070318AE0A0030AE072E0808
:10218A00803AFD002C08803A7D02031DCE282B08D8
:10219A002D02031CD128D228AD28831203136C18F0
:1021AA00D728D828E3282A08A0002808A100290847
:1021BA00A2000A168A151F270A168A110800F901B1
:1021CA00FA01760884008313000884000A168A1527
:1021DA0000200A168A112A3A031DF428F528212913
:1021EA007608840001308007770884000008FF0021
:1021FA00023080077F0884000008F900840A00087A
:10220A00FA0032297A08F1007908F0000A30F2005F
:10221A000030F3000A168A15AA260A168A117808C7
:10222A007007F9000030031801307107FA007608C8
:10223A008400013083138007760884000008840034
:10224A000A168A1500200A168A11D03EF8000A30AA
:10225A007802031C3129322907297A08F7007908FC
:10226A00F600080000300A168A152B260A168A116B
:10227A000A168A15D2250A168A110A168A11002008
:10228A000A168A113E3083120313A900FA30A800F5
:10229A005E30A7003530A6000A168A15E2250A160E
:1022AA008A11700883120313C0007108C100C201A9
:1022BA00C3014308F5004208F4004108F30040084E
:1022CA00F20000300A128A1120200A168A117508B3
:1022DA0083120313AD007408AC007308AB007208D4
:1022EA00AA000A128A15BE240A168A118312031337
:1022FA002908C7002808C6002708C5002608C40000
:10230A00C330F3008830F2008030F1000030F00072
:10231A004708F7004608F6004508F5004408F400A7
:10232A000A128A1562220A168A117308831603137F
:10233A00E5007208E4007108E3007008E200080092
:10234A000310720D730DF9007908031DAD29AE292A
:10235A00B7290030F3000030F2000030F1000030FD
:10236A00F000182A7008F4007108F5007208F600E7
:10237A007308F7001F300310F70CF60CF50CF40C79
:10238A00FF3E031DC0297408F800F217FF30F0055C
:10239A00FF30F105FF30F2050030F3059630F902FF
:1023AA00F91FD829D929F1297908803A973E0318C3
:1023BA00DF29E029E129AE2901300310F30CF20CE0
:1023CA00F10CF00CFF3E031DE2290130F907031D51
:1023DA00EF29F029E129082A20307902031CF6297D
:1023EA00F729032AAE290130F4000310F00DF10D8C
:1023FA00F20DF30DF40BFA290130F9027908031DE5
:10240A00072A082AF829780803190C2A0D2A182AF3
:10241A00F009F109F209F309F00A0319F10A03199B
:10242A00F20A0319F30A0800831603135D088312DC
:10243A000313A500831603135C0883120313A40075
:10244A00831603135B0883120313A3008316031373
:10245A005A0883120313A2007308A5007208A40085
:10246A007108A3007008A2002208F4002308F500EE
:10247A002408F6002508F70017300310F70CF60CAD
:10248A00F50CF40CFF3E031D422AFF307405A00030
:10249A0000307505A10020082104031D552A562A7B
:1024AA00792A2208F4002308F5002408F6002508F2
:1024BA00F70001300310F40DF50DF60DF70DFF3E90
:1024CA00031D5F2A7708760475047404031D6E2AB7
:1024DA006F2A742A0230F0000030F100A52A033076
:1024EA00F0000030F100A52A200A2104031D7E2AEB
:1024FA007F2AA12A2208F4002308F5002408F600FE
:10250A002508F70009300310F40DF50DF60DF70D47
:10251A00FF3E031D882A770876047504740403199C
:10252A00972A992A01309A2A0030F800F901780886
:10253A00F0007908F100A52A0430F0000030F1001B
:10254A000800720873040319AB2AAC2AB22A72086B
:10255A007304031DB12AB22AB92A70080A128A1111
:10256A0006200A168A113F2B7208093EF4007308E6
:10257A000318013E003EF500740884008317751C99
:10258A0083130008F600840A0008F7007608770427
:10259A000319D02AD12A032B7208093EF4007308C2
:1025AA000318013E003EF500740884008317751C69
:1025BA0083130008F600840A0008F7007208023E36
:1025CA00F80073080318013E003EF90078088400F9
:1025DA008317791C83130008FA00840A0008FB0099
:1025EA007B08803AFC007708803A7C02031DFF2AA8
:1025FA0076087A020318022B032B3F2B72088400F9
:10260A008317731C83130008F400840A0008F5007A
:10261A007208023EF60073080318013E003EF700F6
:10262A00760884008317771C831300087407F9005F
:10263A007508F8000318F80A801F242BF803780895
:10264A00FA007908840083177A1C831370088000C3
:10265A007208023EF40073080318013E003EF500BA
:10266A00740884008317751C831301308007840A59
:10267A000318800A08000030831203134005FA0089
:10268A0000304105FB0080304205FC007F304305E5
:10269A00FD007D087C047B047A04031D552B562B10
:1026AA005E2B0030C3000030C2000030C100003091
:1026BA00C00000304405FA0000304505FB008030B8
:1026CA004605FC007F304705FD007D087C047B043D
:1026DA007A04031D712B722B7A2B0030C70000304D
:1026EA00C6000030C5000030C400C31F7D2B7E2BFE
:1026FA00A22B0030FA000030FB000030FC008030D2
:10270A00FD004008FA024108031C410F8D2B8E2B55
:10271A00FB024208031C420F932B942BFC02430832
:10272A00031C430F992B9A2BFD027D08C3007C08DA
:10273A00C2007B08C1007A08C000C71FA52BA62BC0
:10274A00CA2B0030FA000030FB000030FC00803059
:10275A00FD004408FA024508031C450FB52BB62BA9
:10276A00FB024608031C460FBB2BBC2BFC02470886
:10277A00031C470FC12BC22BFD027D08C7007C0832
:10278A00C6007B08C5007A08C4008030C3068030C2
:10279A00C70647084302031DDC2B46084202031DF5
:1027AA00DC2B45084102031DDC2B440840020318B8
:1027BA00DF2BE02BE22B0310E32B03140800831614
:1027CA000313690883120313C300831603136808EB
:1027DA0083120313C20083160313670883120313B9
:1027EA00C10083160313660883120313C000003066
:1027FA00C7000030C6000030C5000030C4000A1609
:10280A008A1140230A168A1103180C2C0D2C302C1D
:10281A00A43083160313D4000130D5006908F300ED
:10282A006808F2006708F1006608F0000A168A15BF
:10283A0063260A168A11730883160313D9007208CD
:10284A00D8007108D7007008D6000A168A157527AD
:10285A000A168A11432CA43083160313D40021309C
:10286A00D5006908D9006808D8006708D700660843
:10287A00D6000A168A1575270A168A1180300A1692
:10288A008A15A2270A168A11A430F3001030F40020
:10289A000A168A1514260A168A118316031365085E
:1028AA0083120313C30083160313640883120313EA
:1028BA00C20083160313630883120313C10083162D
:1028CA000313620883120313C0000030C7000030EC
:1028DA00C6000030C5000030C4000A168A11402321
:1028EA000A168A1103187A2C7B2C9E2C9430831694
:1028FA000313D4001130D5006508F3006408F20010
:10290A006308F1006208F0000A168A1563260A169F
:10291A008A11730883160313D9007208D800710844
:10292A00D7007008D6000A168A1575270A168A1162
:10293A00B12C943083160313D4003030D5006508C7
:10294A00D9006408D8006308D7006208D6000A16BE
:10295A008A1575270A168A11C0300A168A15A227FF
:10296A000A168A119430F3001030F4000A168A15F8
:10297A0014260A168A11080083160313C10183124A
:10298A0003134D0883160313C700831203134C085D
:10299A0083160313C600831203134B08831603130B
:1029AA00C500831203134A0883160313C400470899
:1029BA0083120313C30083160313460883120313F7
:1029CA00C20083160313450883120313C10083163A
:1029DA000313440883120313C0000030C7000030F9
:1029EA00C6000030C5000030C4000A168A11402310
:1029FA000A168A110318022D032D1E2D0130831683
:102A0A000313C1004708F3004608F2004508F10025
:102A1A004408F0000A168A1107200A168A11730858
:102A2A0083160313C7007208C6007108C500700830
:102A3A00C40083160313C201C3016B08B2006A08FB
:102A4A00B100410803192A2D2B2D3B2D4108031DE6
:102A5A002F2D302D352D2B30A6000030A700392D13
:102A6A002D30A6000030A7002608C1004708F30051
:102A7A004608F2004508F1004408F0000A168A11D7
:102A8A0019220A168A1170037104031D4D2D4E2D49
:102A9A00932D8316031341080319542D552D652DC3
:102AAA004108831203179000FF3083160313B107FE
:102ABA000318B20AFF30B2070130C2000030C30067
:102ACA004208103EF0003F30F1000A128A11072036
:102ADA000A168A11FD3083160313B1070318B20AC6
:102AEA00FF30B207831203134808A8004908A90057
:102AFA001030AA0083160313320883120313AC00A2
:102B0A0083160313310883120313AB000A168A11C2
:102B1A0091200A168A110A128A11DE2F83160313CC
:102B2A004708F3004608F2004508F1004408F0009F
:102B3A000A168A1119220A168A1170087104031DCD
:102B4A00A72DAA2D0A128A11D62883160313410823
:102B5A000319B02DB12DC12D41088312031790001E
:102B6A00FF3083160313B1070318B20AFF30B20706
:102B7A000130C2000030C3004208103EF00043306A
:102B8A00F1000A128A1107200A168A116F2D83167C
:102B9A000317130883120313C000831603171208BE
:102BAA0083120313BF00831603171108831203133A
:102BBA00BE0083160317100883120313BD003008E2
:102BCA00C0002F08BF002E08BE002D08BD003D081A
:102BDA00B1003E08B2003F08B3004008B400173005
:102BEA000310B40CB30CB20CB10CFF3E031DF52D4F
:102BFA00FF303105B50000303205B6003508813E98
:102C0A00BB0036080318013EFF3EBC003C08803A70
:102C1A00FF0080307F02031D142E17303B02031C75
:102C2A00172E182E192EDA2E83120313BC1B1E2EF2
:102C3A001F2E8F2E3B0AFF00FF30B100FF30B2007B
:102C4A007F30B3000030B4002F2E340DB40CB30C17
:102C5A00B20CB10CFF0B2A2E3408BA003308B900A3
:102C6A003208B8003108B70037083D05B100380806
:102C7A003E05B20039083F05B3003A084005B400E2
:102C8A003408330432043104031D4C2E4D2E4E2ECB
:102C9A00182E3D08B1003E08B2003F08B3004008B4
:102CAA00B4001F300310B40CB30CB20CB10CFF3ECD
:102CBA00031D572E34083304320431040319662ED7
:102CCA00672E7E2E3708BD07380803110318013E08
:102CDA000319702EBE07390803110318013E0319A0
:102CEA00772EBF073A0803110318013E03197E2EF7
:102CFA00C0073709B1003809B2003909B3003A09E7
:102D0A00B4003108BD053208BE053308BF053408D2
:102D1A00C005D22E3D08B1003E08B2003F08B300FC
:102D2A004008B4001F300310B40CB30CB20CB10C41
:102D3A00FF3E031D982E3408330432043104031D68
:102D4A00A72EA82EB12E0030C0000030BF000030E0
:102D5A00BE000030BD00D22E3D08B1003E08B200D0
:102D6A003F08B3004008B40001300310B10DB20DA2
:102D7A00B30DB40DFF3E031DBA2E340833043204DA
:102D8A0031040319C92ECA2ED22EBF30C00080309A
:102D9A00BF000030BE000030BD004008B0003F0850
:102DAA00AF003E08AE003D08AD00080083160313CD
:102DBA004E0884008313000884000A168A1500202E
:102DCA000A168A11253A031DEB2EEC2EE22F4E0825
:102DDA00840001308007EA01EB01003083120313FB
:102DEA00EC00FF3083160313EC00FF30ED004E08B1
:102DFA00F6004F08F7000A168A11E4200A168A110B
:102E0A00770883160313EB007608EA00EB1F0E2FF0
:102E1A000F2F192F831203136C1483160313EA0955
:102E2A00EB09EA0A0319EB0A4E0884008313000827
:102E3A0084000A168A1500200A168A112E3A031DE2
:102E4A00272F282F3B2F4E088400013080074E0879
:102E5A00F6004F08F7000A168A11E4200A168A11AA
:102E6A00770883160313ED007608EC004E088400F9
:102E7A008313000883120313DA005A0884000A161F
:102E8A008A1500200A168A11D900532F0130DA0751
:102E9A005E2F6C30D9005E2FD9015E2F59084C3A4B
:102EAA0003194B2F2A3A03194E2F0A3A03194B2FAB
:102EBA00512F5A0884000A168A1500200A168A1108
:102ECA00663A031D692F6A2FDA2F9B2F8316031385
:102EDA004F0884000008FF00043080077F08840040
:102EEA00000883120313D500840A0008D600840A56
:102EFA000008D700840A0008D800A32F83160313FA
:102F0A004F0884000008FF00043080077F0884000F
:102F1A00000883120313D500840A0008D600840A25
:102F2A000008D700840A0008D800A32F59084C3A91
:102F3A000319832F203A03196B2FA32F8316031328
:102F4A004E088400831203135A08013E8000CF2FD3
:102F5A00831603134C0883120313C8008316031342
:102F6A004D0883120313C9005808CD005708CC0036
:102F7A005608CB005508CA005A0884000A168A1552
:102F8A0000200A168A11CE000A168A11C1240A16CE
:102F9A008A11FF2F5A0884000A168A1500200A1679
:102FAA008A11663A0319AD2FDA2F831603134E08D6
:102FBA008400013083138007FF2F4E088400000825
:102FCA0084000A168A1500200A168A11831203132E
:102FDA00D300D4015308F0005408F10083160313F8
:102FEA004C08F2004D08F3000A168A11A6220A16A6
:102FFA008A11DA2F080018308A000408840A820726
:10300A000034413444343534393432343A34203497
:10301A002D34253432342E3431346634203443345A
:10302A0000344C344D343334333435343A34203468
:10303A002D34253432342E3431346634203443343A
:10304A000034413444343534393432343A34203457
:10305A00253432342E343134663420344334003447
:10306A004C344D343334333435343A342034253403
:10307A0032342E34313466342034433400346934E3
:0E308A006E34663400346E3461346E340034BB
:103BA4000330F000F00BD42D831203131F1508000B
:103BB40064008001840A0406031900340406DB2D22
:103BC400831203131E08F100831603131E08F0006A
:103BD4000800033083160313850080309F004130B2
:103BE400831203139F000D30F100FB30F000F00B43
:103BF400F92DF10BF92DFE2D0800F31B022E032ED7
:103C0400042E132E7009F0007109F1007209F200FC
:103C14007309F300F00A0319F10A0319F20A0319EC
:103C2400F30A0800F601242E76087307F5007508D8
:103C34008400831700080A168A15D1270A168A15E4
:103C44000130F60774087602031C292E2A2E162E3C
:103C54000800F2007208F000F00DF00DF00D831270
:103C640003131F087006C73970069F000330F10064
:103C74009730F000F00B3C2EF10B3C2E412E080047
:103C84007108F6007008F500542E76088400831736
:103C94000008F4000130F6077508840074088000F9
:103CA4000130F5070130F2020030031CF303F30284
:103CB400720A031D612E730A031D612E622E472EA4
:103CC4000800831603136108F7006008F6005F0814
:103CD400F5005E08F4007308F7007208F600710836
:103CE400F5007008F400FF30F405FF30F505FF30EF
:103CF400F6057F30F7057708F3007608F2007508BB
:103D0400F1007408F0000800803083120313C30626
:103D14004708F3004608F2004508F1004408F000A3
:103D24004308F7004208F6004108F5004008F40093
:103D34000A128A1562220A168A157308831203135B
:103D4400C3007208C2007108C1007008C0000800F6
:103D5400F401F501701CAF2EB02EB62E7208F407D4
:103D64000318F50A7308F50701300310F20DF30D7B
:103D7400FF3E031DB72E01300310F10CF00CFF3E83
:103D8400031DBE2E70087104031DC92ECA2EAC2E4D
:103D94007508F1007408F0000800F800F401F5015A
:103DA4007008F200F3017208F6007308F700781C3B
:103DB400DC2EDD2EE32E7608F4070318F50A7708C7
:103DC400F50701300310F60DF70DFF3E031DE42E39
:103DD4000310F80C7808031DF02EF12ED92E750867
:103DE400F1007408F00008008316031352088312CC
:103DF4000313DB000C2F831603135008CC00510867
:103E0400CD005B30CE005308CF000A168A11DB26A2
:103E14000A168A15831203135B0884000A168A158E
:103E240000200A168A15003A031D192F1A2FFD2E99
:103E340083160313D001D101080083120313A601D2
:103E4400A7013C2F2508A300A4012308F00024089F
:103E5400F1002108F2002208F3000A168A11A622B2
:103E64000A168A15013083120313A6070318A70A3A
:103E74000030A70726082007A3002308840083171F
:103E84000008A5002508031D482F492F242F0800EA
:103E94000A168A1112200A168A150A168A15EB25A3
:103EA4000A168A150B3083120313EB002630EA003E
:103EB4005D30E900E90B5C2FEA0B5C2FEB0B5C2F08
:103EC4000A168A1137210A168A150A128A1505203C
:103ED4000A168A150A168A11E4230A168A15542F1B
:103EE4000A128A110028D63083120313DD008316C8
:103EF4000313540883120313DE000130DF00E001D2
:103F0400E101E701E8015E3083160313D0000030BD
:103F1400D1005508D2005D30D3000A168A15F62662
:103F24000A168A15831203136008831603135407B1
:103F340083120313DC005C088400831780010800EB
:103F4400F20083120313071087107208F0398800F7
:103F540007150330F1009730F000F00BAF2FF10B91
:103F6400AF2FB42F8312031307117208F00003302C
:103F74000310F00DFF3E031DBA2F0310700DF0392E
:103F8400880007150330F1009730F000F00BC82FBC
:103F9400F10BC82FCD2F8312031307110800F20071
:103FA40083120313071487107208F0398800071569
:103FB4000330F1009730F000F00BDE2FF10BDE2F11
:103FC400E32F8312031307117208F0000330031068
:103FD400F00DFF3E031DE92F0310700DF03988002A
:103FE40007150330F1009730F000F00BF72FF10BB9
:0C3FF400F72FFC2F8312031307110800A5
:02400E00793FF8
:00000001FF
