:100000000A128A11F52F00308A000408840A820738
:100010000034203420342034203420345434483404
:1000200049344E344734533420342034203420347F
:1000300020340034203420345434483445342034BF
:1000400045344D34423445344434443445344434E6
:06005000203420340034CE
:100B920008340A128A11FF250A128A1183160313D6
:100BA200111408000A128A11FF250A128A118316EB
:100BB20003131115080018300A128A1150260A125E
:100BC2008A113530F600F60BE42D08001C300A12AB
:100BD2008A1150260A128A113530F600F60BEF2DD3
:100BE2000800283083120313940083160313910123
:100BF2009401273093008715071608008316031304
:100C02001419042E052EFF2D11081F39031D0A2E5B
:100C12000B2EFF2D0800F0000A128A11FF250A127E
:100C22008A1170088312031393008C1D192E1A2E39
:100C3200162E8C110800F300831203132108F3040B
:100C4200730804380A128A1135260A128A117308A7
:100C5200FB390A128A1135260A128A114230F20031
:100C6200F20B312E00000800F1000A128A11CA2587
:100C72000A128A118312031320080A128A110C26FF
:100C82000A128A1171087D040A128A110C260A12AC
:100C92008A110A128A11D3250A128A110800F50054
:100CA20083120313A1017508F0390A128A111C2656
:100CB2000A128A117508F40003300310F40DFF3E86
:100CC200031D5E2E0310740DF0390A128A111C26C0
:100CD2000A128A110800F500013083120313A100E1
:100CE2007508F0390A128A111C260A128A1175082F
:100CF200F40003300310F40DFF3E031D7B2E03109E
:100D0200740DF0390A128A111C260A128A1108007F
:100D1200F701F8019F2E7708760784000A128A11DC
:100D220003200A128A110A128A116C260A128A11E7
:100D32000130F7070318F80A0030F807770876073A
:100D420084000A128A1103200A128A11003A031D32
:100D5200AB2EAC2E8C2E0800F700CF2E7608BF3EAD
:100D62000A128A1150260A128A11DA2E7608933E46
:100D72000A128A1150260A128A11DA2E7608D33EF6
:100D82000A128A1150260A128A11DA2E76087F3E3A
:100D92000A128A1150260A128A11DA2E7708023AAA
:100DA2000319AF2E013A0319B72E073A0319BF2EC2
:100DB200C72E08000A128A11F2250A128A114E3031
:100DC2000A128A1159270A128A11F601F60A01300B
:100DD2000A128A11AD260A128A111230F6000A127C
:100DE2008A1189260A128A11F601F60A02300A12BB
:100DF2008A11AD260A128A110130F6000A128A11EE
:100E020089260A128A113330FC00BB30FB00DF3026
:100E1200FA00FA0B0A2FFB0B0A2FFC0B0A2F112FD9
:100E22000A128A11E7250A128A110830FC001B30C7
:100E3200FB002730FA00FA0B1C2FFB0B1C2FFC0BBC
:100E42001C2F0A128A11E7250A128A110830FC00A7
:100E52001B30FB002730FA00FA0B2D2FFB0B2D2F36
:100E6200FC0B2D2F0A128A11DC250A128A11083076
:100E7200FC001B30FB002730FA00FA0B3E2FFB0B65
:100E82003E2FFC0B3E2F0A128A11DC250A128A1110
:100E92000830FC001B30FB002730FA00FA0B4F2F02
:100EA200FB0B4F2FFC0B4F2F112F0A128A11002818
:100EB200F900790883120313A00000300A128A1184
:100EC20035260A128A119C30F700D730F600F60B4D
:100ED200682FF70B682F03300A128A1150260A1264
:100EE2008A111A30F700F830F600F60B762FF70B5E
:100EF200762F000003300A128A1150260A128A1134
:100F02001A30F700F830F600F60B852FF70B852F15
:100F1200000003300A128A1150260A128A111A306E
:100F2200F700F830F600F60B942FF70B942F000021
:100F320002300A128A1150260A128A111A30F70058
:100F4200F830F600F60BA32FF70BA32F0000283082
:100F52000A128A1150260A128A110230F80004304D
:100F6200F700BA30F600F60BB42FF70BB42FF80BDC
:100F7200B42F00000C300A128A1150260A128A116C
:100F82000230F8000430F700BA30F600F60BC72F33
:100F9200F70BC72FF80BC72F000001300A128A1176
:100FA20050260A128A110230F8000430F700BA30D3
:100FB200F600F60BDA2FF70BDA2FF80BDA2F000018
:100FC20006300A128A1150260A128A110230F800DB
:100FD2000430F700BA30F600F60BED2FF70BED2FC9
:100FE200F80BED2F000008000A128A11C9250A1217
:0E0FF2008A11FD00A10183010A128A11DB2E73
:02400E003A3F37
:00000001FF
