:060000000A128A11D12F43
:10000A0008007208730403190B280C2812287208B6
:10001A007304031D11281228192870080A128A115C
:10002A0005200A128A119F287208093EF4007308F3
:10003A000318013E003EF500740884008317751CFE
:10004A0083130008F600840A0008F700760877048C
:10005A0003193028312863287208093EF40073080E
:10006A000318013E003EF500740884008317751CCE
:10007A0083130008F600840A0008F7007208023E9B
:10008A00F80073080318013E003EF900780884005E
:10009A008317791C83130008FA00840A0008FB00FE
:1000AA007B08803AFC007708803A7C02031D5F28AF
:1000BA0076087A020318622863289F287208840047
:1000CA008317731C83130008F400840A0008F500E0
:1000DA007208023EF60073080318013E003EF7005C
:1000EA00760884008317771C831300087407F900C5
:1000FA007508F8000318F80A801F8428F80378089E
:10010A00FA007908840083177A1C83137008800028
:10011A007208023EF40073080318013E003EF5001F
:10012A00740884008317751C831301308007840ABE
:10013A000318800A08003F3083160313E200803058
:10014A00E1000030E0000030DF00C601C7015E08B0
:10015A00F3005D08F2005C08F1005B08F000003073
:10016A00F7000030F6000030F5000030F4000A16FF
:10017A008A1560240A128A110318C428C5288E2AEF
:10018A00D628831603134D08E2004C08E1004B08F9
:10019A00E0004A08DF000130C6070318C70A00302A
:1001AA00C707413083120313AD002030AC00003082
:1001BA00AB000030AA0083160313620883120313EC
:1001CA00B10083160313610883120313B000831668
:1001DA000313600883120313AF00831603135F0827
:1001EA0083120313AE000A128A15BE240A128A1158
:1001FA00831203132D0883160313CD0083120313EE
:10020A002C0883160313CC00831203132B088316BE
:10021A000313CB00831203132A0883160313CA009D
:10022A005B08B3005C08B4005D08B5005E08B60060
:10023A004A08B3024B08031C4B0F24292529B40290
:10024A004C08031C4C0F2A292B29B5024D08031C04
:10025A004D0F30293129B6023608F3003508F2006D
:10026A003408F1003308F0000A168A15AB220A1284
:10027A008A11F31B50297308031D51297208031DA3
:10028A0051297108031D512902307002031D4D299D
:10029A00031C50295129C628831603134D088312BB
:1002AA000313C700831603134C0883120313C600F3
:1002BA00831603134B0883120313C5008316031313
:1002CA004A0883120313C400831603135E088312B9
:1002DA000313CB00831603135D0883120313CA00AA
:1002EA00831603135C0883120313C90083160313CE
:1002FA005B0883120313C8000A168A15A6260A1277
:10030A008A11031C89298A29C628831603135B08C4
:10031A00B3005C08B4005D08B5005E08B6005F086B
:10032A00B3026008031C600F9B299C29B402610870
:10033A00031C610FA129A229B5026208031C620FDE
:10034A00A729A829B6023608F3003508F2003408AE
:10035A00F1003308F0000A168A15AB220A128A1134
:10036A00F31BC8297308031DC7297208031DC7296F
:10037A007108031DC72902307002031DC42903181E
:10038A00C729C829552A831603136208DE006108A3
:10039A00DD006008DC005F08DB008E2A4130831232
:1003AA000313C7002030C6000030C5000030C40067
:1003BA0083160313620883120313CB0083160313F5
:1003CA00610883120313CA00831603136008831299
:1003DA000313C900831603135F0883120313C800AB
:1003EA000A128A1504200A128A1183120313470873
:1003FA0083160313E20083120313460883160313BA
:10040A00E10083120313450883160313E0008312E5
:10041A000313440883160313DF00FF30C6070318CB
:10042A00C70AFF30C7075B08B3005C08B4005D0861
:10043A00B5005E08B6005F08B3026008031C600FCF
:10044A00272A282AB4026108031C610F2D2A2E2AA2
:10045A00B5026208031C620F332A342AB602360830
:10046A00F3003508F2003408F1003308F0000A16E8
:10047A008A15AB220A128A11F31B542A7308031D28
:10048A00532A7208031D532A7108031D532A023086
:10049A007002031D502A0318532A542A552AC829C0
:1004AA00831603135E0883120313C700831603130C
:1004BA005D0883120313C600831603135C088312B4
:1004CA000313C500831603135B0883120313C400C6
:1004DA0083160313620883120313CB0083160313D4
:1004EA00610883120313CA00831603136008831278
:1004FA000313C900831603135F0883120313C8008A
:10050A000A168A15A6260A128A11031C8D2A8E2A11
:10051A00D329831603133208C0004008C10083168A
:10052A000317A71B992A9A2AA52A270883160313B1
:10053A00BA0083160317260883160313B900AB2AD9
:10054A00063083160313B9000030BA003A08C50012
:10055A003908C4000130C4070318C50A0030C507AA
:10056A0066304106031DBA2ABB2AD52AC71FBE2AEE
:10057A00BF2AC92A3F30E2008030E1000030E000A3
:10058A000030DF00C601C701673040060319CE2AD2
:10059A00CF2AD52A4608C4070318C50A4708C5073B
:1005AA00CE01CF015E08D3005D08D2005C08D100FD
:1005BA005B08D0006208CD006108CC006008CB005F
:1005CA005F08CA00FE2B8316031362088312031303
:1005DA00C70083160313610883120313C600831628
:1005EA000313600883120313C500831603135F08FD
:1005FA0083120313C40083160313530883120313CD
:10060A00CB0083160313520883120313CA008316FE
:10061A000313510883120313C900831603135008E6
:10062A0083120313C8000A128A1504200A128A11B7
:10063A00831203134708E1004608E0004508DF007B
:10064A004408DE000A168A114D260A128A118312FC
:10065A000313610883160313D70083120313600878
:10066A0083160313D600831203135F08831603133A
:10067A00D500831203135E0883160313D4005708A8
:10068A00F3005608F2005508F1005408F0000A1663
:10069A008A110F200A128A11710883160313C300E4
:1006AA007008C200620883120313B1008316031391
:1006BA00610883120313B0008316031360088312C0
:1006CA000313AF00831603135F0883120313AE00EC
:1006DA0083160313570883120313AD0083160313FB
:1006EA00560883120313AC008316031355088312AA
:1006FA000313AB0083160313540883120313AA00CF
:10070A000A128A15BE240A128A11831203132D08AB
:10071A0083160313A700831203132C0883160313EB
:10072A00A600831203132B0883160313A500831252
:10073A0003132A0883160313A4005308AB005208B4
:10074A00AA005108A9005008A8000A168A15AE2462
:10075A000A128A11831603132708D3002608D20027
:10076A002508D1002408D000413083120313C700A2
:10077A002030C6000030C5000030C40083160313C1
:10078A00620883120313CB008316031361088312D2
:10079A000313CA0083160313600883120313C900E4
:1007AA00831603135F0883120313C8000A128A15FB
:1007BA0004200A128A1183120313470883160313AB
:1007CA00E20083120313460883160313E10083121F
:1007DA000313450883160313E00083120313440826
:1007EA0083160313DF000130CE070318CF0A003047
:1007FA00CF074F08803AB3004508803A3302031DF9
:10080A00082C44084E02031C0B2C0C2CE82A4030FE
:10081A0083120313AD00A030AC000030AB000030EF
:10082A00AA0083160313620883120313B100831606
:10083A000313610883120313B000831603136008BD
:10084A0083120313AF00831603135F088312031383
:10085A00AE000A128A15BE240A128A1183120313E1
:10086A002D0883160313D700831203132C0883164B
:10087A000313D600831203132B0883160313D50020
:10088A00831203132A0883160313D400530883120E
:10089A000313C70083160313520883120313C600F7
:1008AA0083160313510883120313C5008316031317
:1008BA00500883120313C4008316031357088312C4
:1008CA000313CB0083160313560883120313CA00BB
:1008DA0083160313550883120313C90083160313DF
:1008EA00540883120313C8000A168A15A6260A1288
:1008FA008A110318812C822C8D2C00308316031345
:10090A00D7000030D6000030D5000030D400B62C15
:10091A00831603135308F3005208F2005108F1003A
:10092A005008F0005708F7005608F6005508F50079
:10093A005408F4000A168A1560240A128A11031C44
:10094A00A72CA82CB62C831603134218AD2CAE2C58
:10095A00B62C0030D7000030D6000030D500003069
:10096A00D40083160313570883120313E100831676
:10097A000313560883120313E00083160313550862
:10098A0083120313DF00831603135408831203131D
:10099A00DE00831603135E0883120313E500831631
:1009AA0003135D0883120313E400831603135C0820
:1009BA0083120313E300831603135B0883120313E2
:1009CA00E2000A128A15CE210A128A11831203132F
:1009DA00610883160313D300831203136008831676
:1009EA000313D200831203135F0883160313D10083
:1009FA00831203135E0883160313D000530883126D
:100A0A000313C70083160313520883120313C60085
:100A1A0083160313510883120313C50083160313A5
:100A2A00500883120313C4004130AD002030AC00DB
:100A3A000030AB000030AA00831603134D0883125E
:100A4A000313B100831603134C0883120313B00077
:100A5A00831603134B0883120313AF008316031381
:100A6A004A0883120313AE000A128A15BE240A1218
:100A7A008A11831203132D08CB002C08CA002B08F5
:100A8A00C9002A08C8000A168A15A6260A128A1157
:100A9A00031C502D512DA42D013083160313C607B4
:100AAA000318C70A0030C707413083120313AD0089
:100ABA002030AC000030AB000030AA0083160313CC
:100ACA004D0883120313B100831603134C088312D3
:100ADA000313B000831603134B0883120313AF00EA
:100AEA00831603134A0883120313AE000A128A15E7
:100AFA00BE240A128A11831203132D0883160313C4
:100B0A00CD00831203132C0883160313CC0083121F
:100B1A0003132B0883160313CB00831203132A082B
:100B2A0083160313CA0066304106031D9D2D9E2DB0
:100B3A00A42D0130C4070318C50A0030C50783165F
:100B4A0003134D08E2004C08E1004B08E0004A0894
:100B5A00DF004708B8004608B700BF01BB01BC0167
:100B6A00CE01CF01462F83160313620883120313A3
:100B7A00C70083160313610883120313C600831682
:100B8A000313600883120313C500831603135F0857
:100B9A0083120313C4008316031353088312031327
:100BAA00CB0083160313520883120313CA00831659
:100BBA000313510883120313C90083160313500841
:100BCA0083120313C8000A128A1504200A128A1112
:100BDA00831203134708E1004608E0004508DF00D6
:100BEA004408DE000A168A114D260A128A11831257
:100BFA000313610883160313D700831203136008D3
:100C0A0083160313D600831203135F088316031394
:100C1A00D500831203135E0883160313D400570802
:100C2A00F3005608F2005508F1005408F0000A16BD
:100C3A008A110F200A128A117108803AFF00803047
:100C4A007F02031D2A2E0A30700203182D2E2E2E23
:100C5A00442E831603135708F3005608F20055086A
:100C6A00F1005408F0000A168A110F200A128A119C
:100C7A00710883160313C3007008C2004A2E093094
:100C8A0083160313C2000030C3003F08031D4E2E13
:100C9A004F2E802EB81F522E532E802E5908103EEA
:100CAA0084002E30831780000130D9070318DA0A2E
:100CBA000030DA07FF30C8070318C90AFF30C9072E
:100CCA000130BF00802E5908103E8400303083174F
:100CDA0080000130D9070318DA0A0030DA07FF303A
:100CEA00C8070318C90AFF30C907FF30BB07031832
:100CFA00BC0AFF30BC073B083C04031D852E862E28
:100D0A00682E5908103E84004208303E831780003E
:100D1A000130D9070318DA0A0030DA07FF30C807AA
:100D2A000318C90AFF30C907620883120313B10006
:100D3A0083160313610883120313B0008316031387
:100D4A00600883120313AF00831603135F0883122C
:100D5A000313AE0083160313570883120313AD005F
:100D6A0083160313560883120313AC008316031366
:100D7A00550883120313AB00831603135408831216
:100D8A000313AA000A128A15BE240A128A118312B0
:100D9A0003132D0883160313A700831203132C08C9
:100DAA0083160313A600831203132B088316031357
:100DBA00A500831203132A0883160313A4005308F9
:100DCA00AB005208AA005108A9005008A8000A1648
:100DDA008A15AE240A128A11831603132708D30030
:100DEA002608D2002508D1002408D00041308312F9
:100DFA000313C7002030C6000030C5000030C4000D
:100E0A0083160313620883120313CB00831603139A
:100E1A00610883120313CA0083160313600883123E
:100E2A000313C900831603135F0883120313C80050
:100E3A000A128A1504200A128A1183120313470818
:100E4A0083160313E200831203134608831603135F
:100E5A00E10083120313450883160313E00083128B
:100E6A000313440883160313DF00FF30B707031880
:100E7A00B80AFF30B8070130CE070318CF0A00308E
:100E8A00CF074F08803AB3004508803A3302031D62
:100E9A00502F44084E020318532F542F632F8316E2
:100EAA0003135A08803AFF0080307F02031D5F2F28
:100EBA004B305902031C622F632FB82D4F30831613
:100ECA000313CE000030CF004E08103E8400831773
:100EDA0080011030B3005908B3024E083307F000FE
:100EEA001030F1005A08F3005908F2000A168A1560
:100EFA000D230A128A118316031359084E02D900C8
:100F0A005A08031C5A0A4F02DA005808031D8E2F8A
:100F1A00902F0130912F0030B300B4013308CE0076
:100F2A003408CF00580803199B2F9C2FA82FFF3095
:100F3A00D9070318DA0AFF30DA075908103E840085
:100F4A005808831780004E08C8024F08031CC903BB
:100F5A00C9022C0883120313A800831603132D0851
:100F6A0083120313A900831603135908103E831230
:100F7A000313AA0083160313490883120313AC0050
:100F8A0083160313480883120313AB000A168A1543
:100F9A0022240A128A110800831603170A128A15D4
:100FAA0000200A128A11EC000A128A1501200A127C
:100FBA008A11ED000A128A1502200A128A11EE001D
:100FCA000A128A1503200A128A11EF008317903039
:100FDA008400BF300A168A1503220A128A111030B9
:100FEA00840060300A168A1503220A128A118301C4
:100FFA000A168A11F3298034C0349434D434831203
:10100A0003134B08D5008030D5054B08CC004C079C
:10101A00DC00CA1F1128122813285C145C08031963
:10102A001728182828285C0A031D1C281D2825288B
:10103A000030CB000030CA000030C9000030C800C0
:10104A00CA17CB0130280030CB000030CA0000306C
:10105A00C9000030C80047088039D5064708CC00C7
:10106A004C07DD00C61F3A283B283C285D145D0862
:10107A0003194028412851285D0A031D452846289E
:10108A004E280030C7000030C6000030C5000030CE
:10109A00C400C617C70159280030C7000030C6006F
:1010AA000030C5000030C400470846044504440423
:1010BA00031D6028612878280030CB000030CA0060
:1010CA000030C9000030C8008030CA047F30CB0429
:1010DA005508CB044B08C7004A08C6004908C50092
:1010EA004808C400CD295C08031D7C287D28862871
:1010FA000030C7000030C6000030C5000030C40010
:10110A00CD295C08CC00CD014D08CF005D084C020A
:10111A00CE00031CCF034E087F3ED6004F080318AB
:10112A00013E003ED7004B08D4004A08D3004908C4
:10113A00D2004808D1000030CB000030CA0000308D
:10114A00C9000030C8000030DB000030DA0000308F
:10115A00D9000030D800DD01FA285D080319B62845
:10116A00B728D7280130CC000310D10DD20DD30DEA
:10117A00D40DCC0BB9280130CC000310C80DC90D11
:10118A00CA0DCB0DCC0BC228DB1FCC28CD28CE280C
:10119A0048140130CC000310D80DD90DDA0DDB0D3F
:1011AA00CC0BD02847085402031DE52846085302F1
:1011BA00031DE52845085202031DE528440851028B
:1011CA00031CE828E928F8285B174408D1024508D7
:1011DA00031C450FD2024608031C460FD3024708D8
:1011EA00031C470FD4020130DD071A305D02031CCD
:1011FA00FF280029B2285408530452045104031941
:10120A00072908292729581427290130CC00031057
:10121A00C80DC90DCA0DCB0DCC0B0C29DB1F162925
:10122A001729182948140130CC000310D80DD90DFC
:10123A00DA0DDB0DCC0B1A29FF30D6070318D70AB3
:10124A00FF30D707CA1F2A292B290A29DD01DB1FEC
:10125A002F2930294C29FF305805CC00FF30590579
:10126A00CD00FF305A05CE007F305B05CF004F0816
:10127A004E044D044C0403194329442947290130DB
:10128A00DD004C29481C4A294B294C2944295D0870
:10129A0003195029512982290130C807003003183F
:1012AA000130C907003003180130CA07003003189B
:1012BA000130CB074B1C6229632982294808CC00DC
:1012CA004908CD004A08CE004B08CF000130D000B3
:1012DA004F0DCF0CCE0CCD0CCC0CD00B6D294F087A
:1012EA00CB004E08CA004D08C9004C08C80001309E
:1012FA00D6070318D70A0030D7075708803AFF00E5
:10130A0080307F02031D8B29FF305602031C8E2971
:10131A008F299D29FF3083120313D6000030D7008E
:10132A000030CB000030CA000030C9000030C800CD
:10133A00831203135708803AFF0080307F02031D8F
:10134A00A829013056020318AB29AC29B9298312FE
:10135A000313D601D7010030CB000030CA00003099
:10136A00C9000030C800D501831203135608DC00F7
:10137A005C1CC029C129C329CA17C5297F30CA05DF
:10138A005C08CC0003104C0CCB005508CB046F282A
:10139A00080083120313610883160313A000803028
:1013AA00A005831203136108E60066078316031378
:1013BA00A20083120313E01FE329E429E729831615
:1013CA00031322148316031322080319ED29EE29A5
:1013DA00012A220A031DF229F329FD29003083126A
:1013EA000313E1000030E0000030DF000030DE00CF
:1013FA008312E017E1010B2A003083120313E10084
:10140A000030E0000030DF000030DE00650883169F
:10141A000313A1008030A105210820060319162A0A
:10142A00172A182A2017831203136508E60066078D
:10143A0083160313A10083120313E41F252A262A05
:10144A00292A831603132114831603132108031967
:10145A002F2A302A432A210A031D342A352A3F2AF1
:10146A00003083120313E5000030E4000030E3008B
:10147A000030E2008312E417E5014D2A003083129E
:10148A000313E5000030E4000030E3000030E2001E
:10149A0083160313220821020318542A552A9B2A69
:1014AA00201F582A592A5B2A8030A0062208A30046
:1014BA002108A2002308A100831203135E088316E1
:1014CA000313A300831203136208DE0083160313B7
:1014DA00230883120313E2005F0883160313A30091
:1014EA00831203136308DF0083160313230883128E
:1014FA000313E300600883160313A3008312031384
:10150A006408E00083160313230883120313E4001C
:10151A00610883160313A300831203136508E1000D
:10152A0083160313230883120313E5008316031398
:10153A00A301210883120313E600E7016708E90003
:10154A00831603132208831203136602E800031C9E
:10155A00E9036908803AFF0080307F02031DB72A39
:10156A001A306802031CBA2ABB2A012B83120313FE
:10157A00610860045F045E04031DC42AC62A0130A0
:10158A00C72A003083160313A30000308312031303
:10159A00E1000030E0000030DF000030DE0083169A
:1015AA0003132108A200092B231CDC2ADD2AE82ABE
:1015BA00230883120313E6000310660C013883160E
:1015CA000313A300EA2A0310A30C831203135E1C5D
:1015DA00EF2AF02AF32A83160313A3170130831282
:1015EA00E600610DE10CE00CDF0CDE0CE60BF62ADE
:1015FA00013083160313A20783160313210822025C
:10160A00031C082B092BD92A201B0C2B0D2B652B0D
:10161A002208031D112B122B1D2B003083120313DA
:10162A00E1000030E0000030DF000030DE00BD2CB9
:10163A00831203136208DE07630803110318013ECD
:10164A000319282BDF07640803110318013E031945
:10165A002F2BE007650803110318013E0319362BE7
:10166A00E107611C392B3A2B2B2C83160313231CFD
:10167A003F2B402B4B2B230883120313E600031046
:10168A00660C013883160313A3004D2B0310A30C19
:10169A00831203135E1C522B532B562B83160313F0
:1016AA00A31701308312E600610DE10CE00CDF0C98
:1016BA00DE0CE60B592B013083160313A2072B2CE1
:1016CA00831203136108803AFF006508803A7F029B
:1016DA00031D792B64086002031D792B63085F02DE
:1016EA00031D792B62085E0203187C2B7D2BD82BF5
:1016FA00FF30E600FF30E700FF30E800FF30E90086
:10170A006208EA006308EB006408EC006508ED0073
:10171A005E08EA025F08031C5F0F942B952BEB020D
:10172A006008031C600F9A2B9B2BEC026108031CB8
:10173A00610FA02BA12BED026A08E6076B080318BC
:10174A006B0FA82BA92BE7076C0803186C0FAE2B9D
:10175A00AF2BE8076D0803186D0AE9076908E1006D
:10176A006808E0006708DF006608DE00803083163C
:10177A000313A0062303FF3AA3002308031DC62B65
:10178A00C72BE62B013083120313DE070030031840
:10179A000130DF07003003180130E007003003187A
:1017AA000130E107E62B6208DE026308031C630FBF
:1017BA00DF026408031C640FE0026508031C650F5E
:1017CA00E1028312610860045F045E04031DEE2BCC
:1017DA00EF2B262C831603132308031DF52BF62B58
:1017EA00262C003083120313E1000030E0000030A1
:1017FA00DF000030DE00BD2C0130E6000310DE0DF4
:10180A00DF0DE00DE10DE60B032C83160313A31F76
:10181A000F2C102C132C831203135E14831603133C
:10182A00231C182C192C1D2C0314230DA3001F2C68
:10183A000310A30D22080319232C242C262C013073
:10184A00A2028312E01F2A2C2B2C012C83160313CD
:10185A00A101A31F312C322C442C23087F390319F0
:10186A00372C382C3D2C013083160313A100442C4D
:10187A00831203135E1C422C432C442C382C8316EF
:10188A000313210803194A2C4B2C812C0130831293
:10189A000313DE07003003180130DF070030031896
:1018AA000130E007003003180130E107611C5E2CAB
:1018BA005F2C812C5E08E6005F08E7006008E800FC
:1018CA006108E9000130EA00690DE90CE80CE70C4F
:1018DA00E60CEA0B692C6908E1006808E000670871
:1018EA00DF006608DE0083160313220A03197E2C22
:1018FA007F2C812C0130A20783160313220A0319B5
:10190A00872C882C8D2C2208031D8C2C8D2C9F2C27
:10191A00003083120313E1000030E0000030DF00E2
:10192A000030DE00831603132208031D9D2C9E2C13
:10193A009F2CA001221CA22CA32CA72C83120313D8
:10194A00E017AB2C7F3083120313E00583160313D1
:10195A00220883120313E6000310660CE1008316C3
:10196A000313A01FB92CBA2CBD2C83120313E11741
:10197A000800831203132D08B7008030B7052D081D
:10198A00B2003207BD00AC1FCB2CCC2CCD2C3D14A1
:10199A003D080319D12CD22CE12C3D0A031DD62C6B
:1019AA00D72CDF2C0030AD000030AC000030AB008B
:1019BA000030AA00AC17E92C0030AD000030AC00B2
:1019CA000030AB000030AA0031088039B706310870
:1019DA00B2003207BC00B01FF32CF42CF52C3C14D7
:1019EA003C080319F92CFA2C092D3C0A031DFE2C7C
:1019FA00FF2C072D0030B1000030B0000030AF00DE
:101A0A000030AE00B017112D0030B1000030B00028
:101A1A000030AF000030AE003C080319152D162D1A
:101A2A001B2D3D08031D1A2D1B2D242D0030AD0042
:101A3A000030AC000030AB000030AA00FF2F2A08AB
:101A4A00F00030080A168A159D230A128A157108B1
:101A5A0083120313C3007008C2004208B200B30124
:101A6A00B401B5013508BB003408BA003308B9001F
:101A7A003208B8004308B200B301B401B501350811
:101A8A00C1003408C0003308BF003208BE002B086A
:101A9A00F0002F080A168A159D230A128A15710862
:101AAA0083120313C3007008C2004208B200B301D4
:101ABA00B401B5013208B807330803110318013E0F
:101ACA000319682DB907340803110318013E0319D5
:101ADA006F2DBA07350803110318013E0319762D35
:101AEA00BB074308B200B301B401B5013208BE070F
:101AFA00330803110318013E0319842DBF07340864
:101B0A0003110318013E03198B2DC0073508031171
:101B1A000318013E0319922DC1072C08F0002E0864
:101B2A000A168A159D230A128A157108831203134D
:101B3A00C3007008C2004208B200B301B401B50183
:101B4A003208B807330803110318013E0319AE2DF2
:101B5A00B907340803110318013E0319B52DBA0752
:101B6A00350803110318013E0319BC2DBB074308AE
:101B7A00B200B301B401B5013208BE07330803113C
:101B8A000318013E0319CA2DBF07340803110318AD
:101B9A00013E0319D12DC007350803110318013E70
:101BAA000319D82DC1070830B2000310B80DB90DBA
:101BBA00BA0DBB0DB20BDA2D2B08F0002E080A164F
:101BCA008A159D230A128A15710883120313C3000A
:101BDA007008C2004208B2004308B300B401B5015C
:101BEA003208B807330803110318013E0319FE2D02
:101BFA00B907340803110318013E0319052EBA0761
:101C0A00350803110318013E03190C2EBB072A08D5
:101C1A00F0002F080A168A159D230A128A157108E0
:101C2A0083120313C3007008C2004208B2004308BB
:101C3A00B300B401B5013208B80733080311031819
:101C4A00013E0319292EB907340803110318013E6E
:101C5A000319302EBA07350803110318013E031978
:101C6A00372EBB070830B2000310B80DB90DBA0DF4
:101C7A00BB0DB20B392E2A08F0002E080A168A1557
:101C8A009D230A128A15710883120313C300700870
:101C9A00C2004208B2004308B300B401B5013208D9
:101CAA00B807330803110318013E03195D2EB9075B
:101CBA00340803110318013E0319642EBA073508C4
:101CCA0003110318013E03196B2EBB072B08F00002
:101CDA0030080A168A159D230A128A15710883127A
:101CEA000313C3007008C2004208B2004308B300DD
:101CFA00B401B5013208BE07330803110318013EC7
:101D0A000319882EBF07340803110318013E03196B
:101D1A008F2EC007350803110318013E0319962EAA
:101D2A00C1072C08F0002F080A168A159D230A12EB
:101D3A008A15710883120313C3007008C20042088F
:101D4A00B2004308B300B401B5013208BE07330834
:101D5A0003110318013E0319B32EBF0734080311F8
:101D6A000318013E0319BA2EC007350803110318D8
:101D7A00013E0319C12EC1072C08F00030080A16CB
:101D8A008A159D230A128A15710883120313C30048
:101D9A007008C2004208B2004308B300B401B5019A
:101DAA0008300310B20DB30DB40DB50DFF3E031D7F
:101DBA00D62E3208BE07330803110318013E031951
:101DCA00E72EBF07340803110318013E0319EE2E4C
:101DDA00C007350803110318013E0319F52EC10780
:101DEA003808B2003908B3003A08B4003B08B50015
:101DFA0018300310B50CB40CB30CB20CFF3E031D23
:101E0A00FE2E3208BE07330803110318013E0319D8
:101E1A000F2FBF07340803110318013E0319162FA9
:101E2A00C007350803110318013E03191D2FC10706
:101E3A000830B2000310B80DB90DBA0DBB0DB20BC4
:101E4A001F2F3D083C07B200B301B30D3208823E92
:101E5A00C20033080318013EFF3EC300512F013070
:101E6A00B2000310BE0DBF0DC00DC10DB20B362F4F
:101E7A00BB1F402F412F422F3E140130B2000310E6
:101E8A00B80DB90DBA0DBB0DB20B442FFF30C20706
:101E9A000318C30AFF30C307C01F542F552F342F0E
:101EAA00BC01BB1F592F5A2F762FFF303805B200BD
:101EBA00FF303905B300FF303A05B4007F303B05E7
:101ECA00B500350834043304320403196D2F6E2F1C
:101EDA00712F0130BC00762F3E1C742F752F762F80
:101EEA006E2F3C0803197A2F7B2FAC2F0130BE07C7
:101EFA00003003180130BF07003003180130C00753
:101F0A00003003180130C107411C8C2F8D2FAC2FD4
:101F1A003E08B2003F08B3004008B4004108B500CB
:101F2A000130B600350DB50CB40CB30CB20CB60BBF
:101F3A00972F3508C1003408C0003308BF003208A3
:101F4A00BE000130C2070318C30A0030C3074308A2
:101F5A00803AFF0080307F02031DB52FFF30420216
:101F6A00031CB82FB92FC42F7F3083120313C1006B
:101F7A008030C0000030BF000030BE00F52F831251
:101F8A0003134308803AFF0080307F02031DCF2FDE
:101F9A00013042020318D22FD32FDF2F00308312D1
:101FAA000313C1000030C0000030BF000030BE0083
:101FBA00B701F52F831203134208BD00FF30BE0597
:101FCA00FF30BF057F30C0050030C1053D1CEE2F34
:101FDA00EF2FF02FC0173D08B2000310320CC100DA
:101FEA003708C1044108AD004008AC003F08AB0007
:061FFA003E08AA000800E9
:1020040083160313141907280828022811081F39F6
:10201400031D0D280E28022808000310720D730DED
:10202400F9007908031D1728182821280030F30027
:102034000030F2000030F1000030F0008228700817
:10204400F4007108F5007208F6007308F7001F30F9
:102054000310F70CF60CF50CF40CFF3E031D2A28B4
:102064007408F800F217FF30F005FF30F105FF3077
:10207400F2050030F3059630F902F91F422843288F
:102084005B287908803A973E031849284A284B2848
:10209400182801300310F30CF20CF10CF00CFF3E85
:1020A400031D4C280130F907031D59285A284B28D1
:1020B400722820307902031C602861286D281828B2
:1020C4000130F4000310F00DF10DF20DF30DF40BDB
:1020D40064280130F9027908031D712872286228E6
:1020E40078080319762877288228F009F109F2097B
:1020F400F309F00A0319F10A0319F20A0319F30A9E
:102104000800E5300A168A1552250A168A11710844
:1021140083160313A8007208A900AA01AB012B08B7
:10212400FC002A08FB002908FA002808F9000030FE
:102134000A168A154A270A168A117C08831603137D
:10214400AF007B08AE007A08AD007908AC002F0818
:10215400F3002E08F2002D08F1002C08F0000030E6
:10216400F7000030F6000030F5000030F4000A16E5
:102174008A1560240A168A11031CC128C228CD2896
:10218400003083160313A7000030A6000030A5001A
:102194000030A4003A29C03083120313E100C03098
:1021A400E0000030DF000030DE004730C700803040
:1021B400C6000030C5000030C4004230AD00FA3023
:1021C400AC000030AB000030AA00831603132F08C4
:1021D40083120313B100831603132E08831203130F
:1021E400B000831603132D0883120313AF00831664
:1021F40003132C0883120313AE000A128A15BE249B
:102204000A168A11831203132D08CB002C08CA0066
:102214002B08C9002A08C8000A128A1504200A16C5
:102224008A11831203134708E5004608E4004508B1
:10223400E3004408E2000A128A15CE210A168A1124
:1022440083120313610883160313A7008312031375
:10225400600883160313A600831203135F08831612
:102264000313A500831203135E0883160313A4004B
:102274000800E3300A168A1552250A168A117108D5
:1022840083160313A8007208A900AA01AB012B0846
:10229400FC002A08FB002908FA002808F90000308D
:1022A4000A168A154A270A168A117C08831603130C
:1022B400AF007B08AE007A08AD007908AC002F08A7
:1022C400F3002E08F2002D08F1002C08F000003075
:1022D400F7000030F6000030F5000030F4000A1674
:1022E4008A1560240A168A11031C79297A298529FA
:1022F400C33083160313A7008830A6008030A500DE
:102304000030A400F229C23083120313E1003B30F1
:10231400E0006630DF006630DE004730C700803002
:10232400C6000030C5000030C4004330AD002F307B
:10233400AC00B830AB005230AA00831603132F0848
:1023440083120313B100831603132E08831203139D
:10235400B000831603132D0883120313AF008316F2
:1023640003132C0883120313AE000A128A15BE2429
:102374000A168A11831203132D08CB002C08CA00F5
:102384002B08C9002A08C8000A128A1504200A1654
:102394008A11831203134708E5004608E400450840
:1023A400E3004408E2000A128A15CE210A168A11B3
:1023B40083120313610883160313A7008312031304
:1023C400600883160313A600831203135F088316A1
:1023D4000313A500831203135E0883160313A400DA
:1023E40008000A168A15FD210A168A117C300A167D
:1023F4008A15AC250A168A110A168A1587220A1626
:102404008A110A168A11E2240A168A110A168A15F2
:102414003C220A168A11730883160317DF00720818
:10242400DE007108DD007008DC000A168A1531220E
:102434000A168A11730883160317E3007208E20070
:102444007108E1007008E0000A168A113B210A169F
:102454008A1183160313270883160317E7008316CC
:102464000313260883160317E600831603132508AF
:1024740083160317E5008316031324088316031732
:10248400E4000A168A1183200A168A11831603139C
:10249400270883160317EB008316031326088316F5
:1024A4000317EA0083160313250883160317E900AC
:1024B40083160313240883160317E800F50100307C
:1024C4000A168A15F0220A168A11AE3083160317EB
:1024D400C3002A30C4005F08C8005E08C7005D0856
:1024E400C6005C08C5006308CC006208CB00610824
:1024F400CA006008C9000A168A1578230A168A11C8
:10250400AE30F5000A168A1597220A168A11F501CB
:10251400F50A00300A168A15F0220A168A11AE301E
:1025240083160317C3001930C4006708C80066087F
:10253400C7006508C6006408C5006B08CC006A08BB
:10254400CB006908CA006808C9000A168A157823EE
:102554000A168A11AE30F5000A168A1597220A1651
:102564008A11153083160317DB004B30DA00BD30B7
:10257400D900D90BBB2ADA0BBB2ADB0BBB2AC22A34
:10258400032A0A128A11002883160313D80131087A
:10259400DE003008DD002F08DC002E08DB005E08BA
:1025A40083120313C700831603135D0883120313F6
:1025B400C600831603135C0883120313C500831635
:1025C40003135B0883120313C4000030CB000030F4
:1025D400CA000030C9000030C8000A168A15A626B1
:1025E4000A168A110318F72AF82A132B01308316C6
:1025F4000313D8005E08F3005D08F2005C08F100E4
:102604005B08F0000A168A1547220A168A11730815
:1026140083160313DE007208DD007108DC00700805
:10262400DB0083160313D901DA0183160317250887
:1026340083160313C9008316031724088316031390
:10264400C80058080319272B282B382B5808031DBA
:102654002C2B2D2B322B2B30BD000030BE00362B03
:102664002D30BD000030BE003D08D8005E08F300E8
:102674005D08F2005C08F1005B08F0000A168A1598
:1026840019260A168A1170037104031D4A2B4B2B59
:10269400942B8316031358080319512B522B622BC6
:1026A4005808831203179000FF3083160313C807DA
:1026B4000318C90AFF30C9070130D9000030DA0015
:1026C4005908103EF0003B30F1000A168A15D72253
:1026D4000A168A11FD3083160313C8070318C90AA2
:1026E400FF30C9072C0883120313A80083160313B1
:1026F4002D0883120313A9001030AA0083160313B4
:10270400490883120313AC00831603134808831289
:102714000313AB000A168A1522240A168A110A1218
:102724008A11D02F831603135E08F3005D08F200AC
:102734005C08F1005B08F0000A168A1519260A16CF
:102744008A1170087104031DA82BAB2B0A128A117D
:10275400A0288316031358080319B12BB22BC22BDC
:102764005808831203179000FF3083160313C80719
:102774000318C90AFF30C9070130D9000030DA0054
:102784005908103EF0003F30F1000A168A15D7228E
:102794000A168A116C2B83160313650884008313AD
:1027A400000884000A168A1500200A168A11253AA0
:1027B400031DDD2BDE2BC42C65088400013080074B
:1027C40083160317A401A5010030AA00FF30A60058
:1027D400FF30A700831603136508840000088400F3
:1027E4000A168A1500200A168A112E3A031DFB2B9D
:1027F400FC2B0F2C65088400013080076508F60067
:102804006608F7000A168A15FE240A168A11770844
:1028140083160317A7007608A6000313650884002F
:1028240083130008EC006C0884000A168A15002043
:102834000A168A11EB00262C0130EC07312C6C307F
:10284400EB00312CEB01312C6B084C3A03191E2C94
:102854002A3A0319212C0A3A03191E2C242C6C0839
:1028640084000A168A1500200A168A11663A031D86
:102874003C2C3D2C9C2C682C660884008317000893
:10288400FF00043080077F0884000008E700840A02
:102894000008E800840A0008E900840A0008EA0045
:1028A400702C6608840083170008FF00043080073A
:1028B4007F0884000008E700840A0008E800840A0E
:1028C4000008E900840A0008EA00702C6B084C3AFE
:1028D4000319532C203A03193E2C702C65088400EC
:1028E4006C08013E83138000912C6308AC006408DB
:1028F400AD006A08B1006908B0006808AF00670855
:10290400AE006C0884000A168A1500200A168A1183
:10291400B2000A168A11C6220A168A11E12C6C0822
:1029240084000A168A1500200A168A11663A0319C9
:10293400772C9C2C65088400000884000A168A15EC
:1029440000200A168A11253A031DA92CAA2CBC2C96
:1029540065088400013080072530F0000030F10064
:102964006308F2006408F3000A128A1106200A16AA
:102974008A11E12C83160313650884000130831344
:102984008007E12C65088400000884000A168A1573
:1029940000200A168A1183120313EE00EF016E0859
:1029A400F0006F08F100831603136308F200640853
:1029B400F3000A128A1106200A168A11BC2C080098
:1029C4000A168A150B220A168A1150300A168A151D
:1029D40077220A168A110A168A1514220A168A11EF
:1029E400023083160313A6000430A500B930A400F6
:1029F400A40BFA2CA50BFA2CA60BFA2C012D0A1603
:102A04008A150B220A168A1151300A168A15772262
:102A14000A168A110A168A15C0220A168A11831602
:102A24000313B4000A168A1552220A168A110A16CA
:102A34008A15C0220A168A1183160313B5000A16D2
:102A44008A1552220A168A110A168A15C0220A16F3
:102A54008A1183160313B6000A168A1552220A161F
:102A64008A110A168A15C0220A168A1183160313BC
:102A7400B7000A168A155E220A168A110A168A15E2
:102A840014220A168A118316031334083F39A4004A
:102A9400A5012408AE002508AF003508A400A5014F
:102AA4002408B0002508B1003608A400A5012408B4
:102AB400A8002508A9003708FC39A400A5012408AA
:102AC400AA002508AB002E08A500A40130082404A0
:102AD400B20031082504B3002B08A5002A08A4007D
:102AE4000310A50CA40C0310A50CA40C2908A70022
:102AF4002808A6000630FF000310A60DA70DFF0B43
:102B04007E2D24082604AC0025082704AD0042309D
:102B140083120313AD00C830AC000030AB000030AA
:102B2400AA004630C7007F30C600FC30C500003024
:102B3400C400831603133208F9003308FA00FB01BA
:102B4400FC0100300A168A154A270A168A117C08E5
:102B540083120313CB007B08CA007A08C9007908E2
:102B6400C8000A128A1504200A168A118312031354
:102B74004708B1004608B0004508AF004408AE005D
:102B84000A128A15BE240A168A11831203132D0809
:102B9400831603179F00831203132C08831603174D
:102BA4009E00831203132B08831603179D008312C0
:102BB40003132A08831603179C00C23083120313DD
:102BC400E1002030E0000030DF000030DE00433060
:102BD400AD002530AC000030AB000030AA00463018
:102BE400C7007F30C600FC30C5000030C400831627
:102BF40003132C08F9002D08FA00FB01FC01003036
:102C04000A168A154A270A168A117C0883120313A6
:102C1400CB007B08CA007A08C9007908C8000A12E8
:102C24008A1504200A168A11831203134708B10077
:102C34004608B0004508AF004408AE000A128A15E1
:102C4400BE240A168A11831203132D08E5002C08EA
:102C5400E4002B08E3002A08E2000A128A15CE21B8
:102C64000A168A1183120313610883160317A3003B
:102C740083120313600883160317A200831203133D
:102C84005F0883160317A100831203135E088316DB
:102C94000317A000080083160317130883160313F1
:102CA400A90083160317120883160313A8008316BA
:102CB4000317110883160313A700831603171008BC
:102CC40083160313A60083120313610883160313E8
:102CD400A90083120313600883160313A800831248
:102CE40003135F0883160313A700831203135E08FC
:102CF40083160313A600260883120313E200831627
:102D04000313270883120313E3008316031328080D
:102D140083120313E4008316031329088312031395
:102D2400E50017300310E50CE40CE30CE20CFF3E65
:102D3400031D942EFF306205E60000306305E700B2
:102D44006608813E83160313A400831203136708E5
:102D54000318013EFF3E83160313A5002508803A9D
:102D6400FF0080307F02031DB92E17302402031C9C
:102D7400BC2EBD2EBE2EFF2F83160313A51BC32E00
:102D8400C42E822F240AFF00FF3083120313E200B3
:102D9400FF30E3007F30E4000030E500D62E650DFF
:102DA400E50CE40CE30CE20CFF0BD12E6508831652
:102DB4000313A30083120313640883160313A200EE
:102DC40083120313630883160313A10083120313EE
:102DD400620883160313A000200826058312031338
:102DE400E200831603132108270583120313E3006B
:102DF400831603132208280583120313E4008316A1
:102E040003132308290583120313E50065086404EA
:102E140063046204031D0F2F102F112FBD2E831680
:102E24000313260883120313E200831603132708EF
:102E340083120313E3008316031328088312031376
:102E4400E40083160313290883120313E5001F30DB
:102E54000310E50CE40CE30CE20CFF3E031D2A2FE7
:102E640065086404630462040319392F3A2F532F4D
:102E7400831603132008A607210803110318013E33
:102E84000319452FA707220803110318013E03194C
:102E94004C2FA807230803110318013E0319532FCD
:102EA400A90783160313200983120313E200831670
:102EB4000313210983120313E30083160313220966
:102EC40083120313E40083160313230983120313E9
:102ED400E500620883160313A6058312031363082F
:102EE40083160313A70583120313640883160313BD
:102EF400A80583120313650883160313A905E72F96
:102F0400260883120313E20083160313270883128F
:102F14000313E30083160313280883120313E40046
:102F240083160313290883120313E5001F300310CB
:102F3400E50CE40CE30CE20CFF3E031D992F65083D
:102F4400640463046204031DA82FA92FB42F003066
:102F540083160313A9000030A8000030A700003036
:102F6400A600E72F83160313260883120313E20037
:102F740083160313270883120313E3008316031332
:102F8400280883120313E400831603132908831209
:102F94000313E50001300310E20DE30DE40DE50D2C
:102FA400FF3E031DCD2F6508640463046204031906
:102FB400DC2FDD2FE72FBF3083160313A9008030E9
:102FC400A8000030A7000030A600831603132908C8
:102FD40083120313E10083160313280883120313D7
:102FE400E00083160313270883120313DF008316FC
:102FF4000313260883120313DE00080018308A0026
:103004000408840A8207003426349E3478343E341B
:10301400EE34E93491343E341334CE34CC343E347B
:10302400AA34AA342A343F34D134F7341734373429
:103034008034713431343F345334483454343A3462
:1030440025342E34313466344334203425342E343C
:1030540031346634253425340034483459345434F6
:103064003A3425342E343134663443342034253410
:103074002E343134663425342534003469346E34C6
:0C308400663400346E3461346E34003465
:1033FA000A168A156A220A168A15080064008001CC
:10340A00840A0406031900340406042A0A168A11D7
:10341A0002200A168A1583160313111408000A16C5
:10342A008A1102200A168A15831603131115080039
:10343A00F4008030F10074080A168A152E230A1641
:10344A008A150800F4004030F10074080A168A153B
:10345A002E230A168A150800831603171F08F3007D
:10346A001E08F2001D08F1001C08F000080083166F
:10347A0003172308F3002208F2002108F1002008AC
:10348A00F0000800730872047104700403194E2ACC
:10349A004F2A512A8030F30608008316031391122B
:1034AA000A168A1102200A168A15831603131116A0
:1034BA0008008316031391160A168A1102200A16A7
:1034CA008A15831603131116080028308312031372
:1034DA0094008316031391019401273093008715F2
:1034EA0007160800F0000A168A1102200A168A1521
:1034FA0070088312031393008C1D842A852A812A5B
:10350A008C11080001300A168A151D220A168A151E
:10351A000B30F6006230F500F50B912AF60B912A72
:10352A0000000800A22A7508840000080A168A15F5
:10353A0027220A168A150130F507750884008317B1
:10354A000008031DA92AAA2A982A0800F31BAE2AF2
:10355A00AF2AB02ABF2A7009F0007109F100720976
:10356A00F2007309F300F00A0319F10A0319F20AC7
:10357A000319F30A08000A168A1102200A168A1584
:10358A0083160313911583128C1DCC2ACD2AC82ABF
:10359A008C110A168A1102200A168A15831203133D
:1035AA00130808007008F2000130F107FF307107B4
:1035BA0084000A168A1500200A168A15FF00720866
:1035CA00F20A84007F08831780000008031DEE2A90
:1035DA00EF2AD92A0800FA00831603176F08F900A0
:1035EA006E08F8006D08F7006C08F60004307502E2
:1035FA00031C002B012B022BF5017508763E840073
:10360A007A0800070A168A151D220A168A15080062
:10361A007108F6007008F5001F2B760884008317DE
:10362A000008F4000130F607750884007408800069
:10363A000130F5070130F2020030031CF303F302F4
:10364A00720A031D2C2B730A031D2C2B2D2B122BF4
:10365A000800F3000A168A150B220A168A15831621
:10366A0003136F080A168A1577220A168A15710833
:10367A000A168A1577220A168A1573080A168A15EF
:10368A0077220A168A150A168A1514220A168A1524
:10369A004230F200F20B4F2B00000800F401F50152
:1036AA00701C582B592B5F2B7208F4070318F50A64
:1036BA007308F50701300310F20DF30DFF3E031DE9
:1036CA00602B01300310F10CF00CFF3E031D672B39
:1036DA0070087104031D722B732B552B7508F100AA
:1036EA007408F0000800C53083160317CD0043089C
:1036FA00CE000130CF00D001D101D701D801CE30A0
:10370A00BF000130C0004408C100CD30C2000A1613
:10371A008A15EF230A168A158316031750084307DA
:10372A0083160313EE006E088400831780010800D5
:10373A00F800F401F5017008F200F3017208F600CE
:10374A007308F700781CAA2BAB2BB12B7608F40769
:10375A000318F50A7708F50701300310F60DF70D7F
:10376A00FF3E031DB22B0310F80C7808031DBE2B75
:10377A00BF2BA72B7508F1007408F000080083120C
:10378A000313A601A701E12B2508A300A40123081E
:10379A00F0002408F1002108F2002208F3000A12BE
:1037AA008A1106200A168A15013083120313A60706
:1037BA000318A70A0030A70726082007A300230832
:1037CA00840083170008A5002508031DED2BEE2BA6
:1037DA00C92B080083160317410883160313ED004B
:1037EA000F2C831603173F0883160313E30083166F
:1037FA000317400883160313E400ED30E50083162F
:10380A000317420883160313E6000A168A11CD230A
:10381A000A168A15831603136D0884000A168A1578
:10382A0000200A168A15003A031D1C2C1D2CF62BA3
:10383A0083160317BF01C001080083120313AC1FCC
:10384A00272C282C2A2CAB01AC01AD01AE01442C4B
:10385A002030F0000030F100831203132808F20030
:10386A002908F3000A128A1106200A168A1501305D
:10387A0083120313AD070318AE0A0030AE072E08F1
:10388A00803AFD002C08803A7D02031D4E2C2B083D
:10389A002D02031C512C522C2D2C831203132A089F
:1038AA00A0002808A1002908A2000A168A15C42324
:1038BA000A168A15080000307005F80000307105F4
:1038CA00F90080307205FA007F307305FB007B082F
:1038DA007A0479047804031D732C742C7C2C003030
:1038EA00F3000030F2000030F1000030F000003048
:1038FA007405F80000307505F90080307605FA0085
:10390A007F307705FB007B087A0479047804031D6D
:10391A008F2C902C982C0030F7000030F6000030E5
:10392A00F5000030F40077087306031DA62C76080C
:10393A007206031DA62C75087106031DA62C7408B1
:10394A0070060319A92CAA2CAC2C0310AD2C031455
:10395A000800803083160313A7062B08831203136B
:10396A00E100831603132A0883120313E000831667
:10397A000313290883120313DF008316031328088D
:10398A0083120313DE00831603132708831203131B
:10399A00E50083160313260883120313E400831633
:1039AA000313250883120313E30083160313240861
:1039BA0083120313E2000A128A15CE210A168A1507
:1039CA0083120313610883160313A70083120313D8
:1039DA00600883160313A600831203135F08831675
:1039EA000313A500831203135E0883160313A400AE
:1039FA000800F901FA01760884008313000884009C
:103A0A000A168A1500200A168A152A3A031D0E2D4F
:103A1A000F2D3C2D7608840001308007770884003A
:103A2A0083170008FF00023080077F08840000081F
:103A3A00F900840A0008FA004D2D7A08F100790885
:103A4A00F0000A30F2000030F3000A168A155323F8
:103A5A000A168A1578087007F90000300318013031
:103A6A007107FA007608840001308313800776080C
:103A7A008400000884000A168A1500200A168A158E
:103A8A00D03EF8000A307802031C4C2D4D2D222D11
:103A9A007A08F7007908F6000800F6000A168A156F
:103AAA000B220A168A1580300A168A1577220A16F8
:103ABA008A1576080A168A1577220A168A150A16A8
:103ACA008A1514220A168A150330F5000830F40004
:103ADA007730F300F30B6F2DF40B6F2DF50B6F2D71
:103AEA000A168A150B220A168A1581300A168A15B1
:103AFA0077220A168A150A168A15C0220A168A1504
:103B0A00F300F4017308F400F3017308F700740872
:103B1A00F8000A168A15C0220A168A15F300F4015B
:103B2A007308F7047408F804FC30F705FF30F80549
:103B3A000A168A155E220A168A150A168A15142288
:103B4A000A168A157808F2007708F1000800FA00C8
:103B5A007A0883160313EF0083160317AD010430A6
:103B6A0083120317E1000230E0000230F90004304A
:103B7A00F800BA30F700F70BC02DF80BC02DF90B7F
:103B8A00C02D000033300A168A151D220A168A151E
:103B9A001A30F800F830F700F70BD12DF80BD12DB9
:103BAA00000032300A168A151D220A168A151A30A2
:103BBA00F800F830F700F70BE02DF80BE02D0000C5
:103BCA0028300A168A151D220A168A151A30F80094
:103BDA00F830F700F70BEF2DF80BEF2D00008312EA
:103BEA000317610808380A168A151D220A168A154B
:103BFA001A30F800F830F700F70B012EF80B012EF7
:103C0A0000000A168A1587220A168A1583120317D4
:103C1A00600804380A168A151D220A168A15013008
:103C2A0083160317AD0008008316031717088312BB
:103C3A000313A50083160317160883120313A4009F
:103C4A0083160317150883120313A3008316031799
:103C5A00140883120313A2007308A5007208A400B3
:103C6A007108A3007008A2002208F4002308F500D6
:103C7A002408F6002508F70017300310F70CF60C95
:103C8A00F50CF40CFF3E031D422EFF307405A00014
:103C9A0000307505A10020082104031D552E562E5B
:103CAA00792E2208F4002308F5002408F6002508D6
:103CBA00F70001300310F40DF50DF60DF70DFF3E78
:103CCA00031D5F2E7708760475047404031D6E2E97
:103CDA006F2E742E0230F0000030F100A52E033052
:103CEA00F0000030F100A52E200A2104031D7E2ECB
:103CFA007F2EA12E2208F4002308F5002408F600DE
:103D0A002508F70009300310F40DF50DF60DF70D2F
:103D1A00FF3E031D882E7708760475047404031980
:103D2A00972E992E01309A2E0030F800F901780862
:103D3A00F0007908F100A52E0430F0000030F100FF
:103D4A0008000030831203134405CC0000304505F7
:103D5A00CD0080304605CE007F304705CF004F08A2
:103D6A004E044D044C04031DBB2EBC2EC42E003041
:103D7A00C7000030C6000030C5000030C400003063
:103D8A004805CC0000304905CD0080304A05CE00F8
:103D9A007F304B05CF004F084E044D044C04031DE1
:103DAA00D72ED82EE02E0030CB000030CA000030CB
:103DBA00C9000030C800C71FE32EE42E082F0030C8
:103DCA00CC000030CD000030CE008030CF00440857
:103DDA00CC024508031C450FF32EF42ECD024608EB
:103DEA00031C460FF92EFA2ECE024708031C470F72
:103DFA00FF2E002FCF024F08C7004E08C6004D08FD
:103E0A00C5004C08C400CB1F0B2F0C2F302F0030DD
:103E1A00CC000030CD000030CE008030CF00480802
:103E2A00CC024908031C490F1B2F1C2FCD024A083C
:103E3A00031C4A0F212F222FCE024B08031C4B0FC3
:103E4A00272F282FCF024F08CB004E08CA004D0853
:103E5A00C9004C08C8008030C7068030CB064B0822
:103E6A004702031D422F4A084602031D422F4908F2
:103E7A004502031D422F480844020318452F462FC6
:103E8A00482F0310492F0314080083120313A400B8
:103E9A0024080319512F522F662FFC1F552F562F16
:103EAA00662F7909A6007A09A7007B09A8007C0970
:103EBA00A900A60A0319A70A0319A80A0319A90A35
:103ECA006E2F7C08A9007B08A8007A08A700790849
:103EDA00A6007C087B047A047904031D752F762FCB
:103EEA007F2F0030FC000030FB000030FA00003069
:103EFA00F900FF2F9630A5008D2F0130A50701305C
:103F0A000310A90CA80CA70CA60CFF3E031D852FB5
:103F1A00FE302905031D922F932F822FAD2F0130DA
:103F2A00A5070130A607003003180130A7070030A3
:103F3A0003180130A807003003180130A90701301F
:103F4A000310A90CA80CA70CA60CFF3E031DA52F55
:103F5A00FF302905031DB22FB32F942FBF2F013035
:103F6A00A5020130A0000310A60DA70DA80DA90DEA
:103F7A00A00BB82FA81BC22FC32FC92F02302502AE
:103F8A000318C82FC92FB42F2518CC2FCD2FD52F02
:103F9A00FF30A605FF30A7057F30A805FF30A90529
:103FAA000310A50C2508A000A101A201A301183045
:103FBA000310A00DA10DA20DA30DFF3E031DDD2FC1
:103FCA002008A6042108A7042208A8042308A90493
:103FDA0024080319F12FF22FF72FFC1FF52FF62FC4
:103FEA00F72FA9172908FC002808FB002708FA0060
:063FFA002608F900080092
:00000001FF
