:100000000A128A11E22F7308720471047004031932
:100010000A280B280D288030F306080083160317E2
:10002000170883120313A5008316031716088312FB
:100030000313A40083160317150883120313A300E8
:1000400083160317140883120313A2007308A50074
:100050007208A4007108A3007008A2002208F4002E
:100060002308F5002408F6002508F70017300310D0
:10007000F70CF60CF50CF40CFF3E031D3728FF308F
:100080007405A00000307505A10020082104031D9F
:100090004A284B286E282208F4002308F50024087B
:1000A000F6002508F70001300310F40DF50DF60DEC
:1000B000F70DFF3E031D5428770876047504740479
:1000C000031D6328642869280230F0000030F10025
:1000D0009A280330F0000030F1009A28200A210409
:1000E000031D7328742896282208F4002308F500BD
:1000F0002408F6002508F70009300310F40DF50D6B
:10010000F60DF70DFF3E031D7D2877087604750474
:10011000740403198C288E2801308F280030F800D1
:10012000F9017808F0007908F1009A280430F0000D
:100130000030F10008003F3083160313CB008030FD
:10014000CA000030C9000030C800AF01B001470844
:10015000F3004608F2004508F1004408F0000030C2
:10016000F7000030F6000030F5000030F4000A1609
:100170008A1561270A128A110318BF28C028D12ABC
:10018000D128831603133608CB003508CA0034087B
:10019000C9003308C8000130AF070318B00A0030A7
:1001A000B007413083120313A3002030A2000030B7
:1001B000A1000030A000831603134B088312031321
:1001C000A700831603134A0883120313A60083169D
:1001D0000313490883120313A50083160313480869
:1001E00083120313A4000A128A15BE240A128A116C
:1001F00083120313230883160313B6008312031319
:10020000220883160313B5008312031321088316F3
:100210000313B40083120313200883160313B300DF
:10022000440883120313CD00831603134508831279
:100230000313CE0083160313460883120313CF0063
:1002400083160313470883120313D0008316031386
:10025000330883120313CD02831603133408031CDF
:10026000340F3329362983120313CE028316031366
:100270003508031C350F3D29402983120313CF0293
:10028000831603133608031C360F47294A298312A5
:100290000313D00283160313831203135008F300D1
:1002A0004F08F2004E08F1004D08F0000A168A15BA
:1002B0007E230A128A11F31B6D297308031D6E2910
:1002C0007208031D6E297108031D6E290230700229
:1002D000031D6A29031C6D296E29C1288316031387
:1002E000360883120313BD008316031335088312E7
:1002F0000313BC0083160313340883120313BB00DB
:1003000083160313330883120313BA0083160313EF
:10031000470883120313C100831603134608831290
:100320000313C00083160313450883120313BF0091
:1003300083160313440883120313BE000A168A119E
:10034000C2220A128A11031CA629A729C1288316D2
:100350000313440883120313CD00831603134508C7
:1003600083120313CE00831603134608831203136C
:10037000CF0083160313470883120313D00083169C
:100380000313480883120313CD028316031349088D
:10039000031C490FCC29CF2983120313CE028316E5
:1003A00003134A08031C4A0FD629D92983120313C1
:1003B000CF02831603134B08031C4B0FE029E329DC
:1003C00083120313D00283160313831203135008FE
:1003D000F3004F08F2004E08F1004D08F0000A1635
:1003E0008A157E230A128A11F31B072A7308031D3C
:1003F000062A7208031D062A7108031D062A023008
:100400007002031D032A0318062A072A982A831656
:1004100003134B08C7004A08C6004908C50048082E
:10042000C400D12A4130F3002030F2000030F10046
:100430000030F000831603134B08F7004A08F6005B
:100440004908F5004808F4000A128A1592200A1299
:100450008A11730883160313CB007208CA0071084F
:10046000C9007008C800FF30AF070318B00AFF309A
:10047000B007440883120313CD0083160313450805
:1004800083120313CE00831603134608831203134B
:10049000CF0083160313470883120313D00083167B
:1004A0000313480883120313CD028316031349086C
:1004B000031C490F5C2A5F2A83120313CE028316A2
:1004C00003134A08031C4A0F662A692A831203137E
:1004D000CF02831603134B08031C4B0F702A732A99
:1004E00083120313D00283160313831203135008DD
:1004F000F3004F08F2004E08F1004D08F0000A1614
:100500008A157E230A128A11F31B972A7308031D8A
:10051000962A7208031D962A7108031D962A023036
:100520007002031D932A0318962A972A982A072AED
:1005300083160313470883120313BD0083160313A6
:10054000460883120313BC00831603134508831265
:100550000313BB0083160313440883120313BA006A
:10056000831603134B0883120313C100831603136E
:100570004A0883120313C000831603134908831229
:100580000313BF0083160313480883120313BE002E
:100590000A168A11C2220A128A11031CD02AD12AF1
:1005A000122A831203134C0883160313A900290887
:1005B000AA00E91BDC2ADD2AE22A6908A3006808F0
:1005C000A200E62A0630A2000030A3002308AE00F5
:1005D0002208AD000130AD070318AE0A0030AE07A7
:1005E00066302A06031DF52AF62A102BB01FF92AB9
:1005F000FA2A042B3F30CB008030CA000030C900FB
:100600000030C800AF01B001673029060319092B7B
:100610000A2B102B2F08AD070318AE0A3008AE07BF
:10062000B701B8014708BC004608BB004508BA003E
:100630004408B9004B08B6004A08B5004908B400A0
:100640004808B3001F2C831603134B08F3004A0815
:10065000F2004908F1004808F0003C08F7003B08A8
:10066000F6003A08F5003908F4000A128A159220BB
:100670000A128A11730883120313B0007208AF00C4
:100680007108AE007008AD000A168A11C6240A125D
:100690008A1183120313300883160313C0008312D8
:1006A00003132F0883160313BF00831203132E08AE
:1006B00083160313BE00831203132D08831603133E
:1006C000BD00400883120313BD00831603133F08C7
:1006D00083120313BC00831603133E088312031313
:1006E000BB00831603133D0883120313BA000A16D6
:1006F0008A1119210A128A11831203133B088316E7
:100700000313AC00831203133A0883160313AB00E0
:100710004B0883120313A700831603134A0883129E
:100720000313A60083160313490883120313A500BD
:1007300083160313480883120313A40083160313BC
:10074000400883120313A300831603133F08831288
:100750000313A200831603133E0883120313A100A0
:10076000831603133D0883120313A0000A128A158F
:10077000BE240A128A11831203132308BD00220823
:10078000BC002108BB002008BA00831603133C08F4
:1007900083120313C100831603133B088312031350
:1007A000C000831603133A0883120313BF00831695
:1007B0000313390883120313BE000A168A151E2577
:1007C0000A128A11831203133D0883160313BC0017
:1007D000831203133C0883160313BB008312031315
:1007E0003B0883160313BA00831203133A088316D7
:1007F0000313B9004130F3002030F2000030F10063
:100800000030F0004B08F7004A08F6004908F500F0
:100810004808F4000A128A1592200A128A117308F5
:1008200083160313CB007208CA007108C900700850
:10083000C8000130B7070318B80A0030B8073808F5
:10084000803A83120313CD00831603132E08803AD7
:10085000831203134D02031D312C831603132D083D
:100860003702031C342C352C232B40308312031306
:10087000A300A030A2000030A1000030A000831629
:1008800003134B0883120313A700831603134A08AC
:1008900083120313A600831603134908831203135C
:1008A000A50083160313480883120313A4000A1239
:1008B0008A15BE240A128A11831203132308831691
:1008C0000313C00083120313220883160313BF000F
:1008D00083120313210883160313BE00831203132C
:1008E000200883160313BD003C0883120313BD00C8
:1008F000831603133B0883120313BC0083160313F0
:100900003A0883120313BB008316031339088312BA
:100910000313BA0083160313400883120313C100A4
:10092000831603133F0883120313C00083160313B7
:100930003E0883120313BF00831603133D0883127E
:100940000313BE000A168A11C2220A128A11031862
:10095000AA2CAB2CB62C003083160313C000003039
:10096000BF000030BE000030BD00DF2C8316031333
:100970003C08F3003B08F2003A08F1003908F000A7
:100980004008F7003F08F6003E08F5003D08F40077
:100990000A168A1561270A128A11031CD02CD12C41
:1009A000DF2C831603132B18D62CD72CDF2C00300A
:1009B000C0000030BF000030BE000030BD00831614
:1009C00003134008F3003F08F2003E08F1003D0821
:1009D000F0004708F7004608F6004508F50044080F
:1009E000F4000A128A1562220A128A117308831609
:1009F0000313BC007208BB007108BA007008B9008C
:100A00003C0883120313BD00831603133B088312B3
:100A10000313BC00831603133A0883120313BB00AD
:100A200083160313390883120313BA004130A3005D
:100A30002030A2000030A1000030A0008316031374
:100A4000360883120313A700831603133508831295
:100A50000313A60083160313340883120313A5009F
:100A600083160313330883120313A4000A128A1592
:100A7000BE240A128A11831203132308C10022081C
:100A8000C0002108BF002008BE000A168A11C22239
:100A90000A128A11031C4D2D4E2DA12D01308316F3
:100AA0000313AF070318B00A0030B00741308312B8
:100AB0000313A3002030A2000030A1000030A000EA
:100AC00083160313360883120313A7008316031338
:100AD000350883120313A600831603133408831208
:100AE0000313A50083160313330883120313A40012
:100AF0000A128A15BE240A128A11831203132308CC
:100B000083160313B60083120313220883160313FC
:100B1000B50083120313210883160313B400831254
:100B20000313200883160313B30066302A06031D3F
:100B30009A2D9B2DA12D0130AD070318AE0A003070
:100B4000AE07831603133608CB003508CA003408F5
:100B5000C9003308C8003008A1002F08A000A80170
:100B6000A401A501B701B801392F831603134B085F
:100B7000F3004A08F2004908F1004808F0003C0878
:100B8000F7003B08F6003A08F5003908F4000A12AD
:100B90008A1592200A128A11730883120313B00077
:100BA0007208AF007108AE007008AD000A168A1115
:100BB000C6240A128A118312031330088316031302
:100BC000C000831203132F0883160313BF00831280
:100BD00003132E0883160313BE00831203132D087C
:100BE00083160313BD00400883120313BD00831650
:100BF00003133F0883120313BC00831603133E083C
:100C000083120313BB00831603133D0883120313DF
:100C1000BA000A168A1119210A128A1183120313C3
:100C20003B08803AFF0080307F02031D192E0A30F6
:100C30003A0203181C2E1D2E472E8316031340085C
:100C400083120313BD00831603133F08831203139B
:100C5000BC00831603133E0883120313BB008316E4
:100C600003133D0883120313BA000A168A111921CF
:100C70000A128A11831203133B0883160313AC0074
:100C8000831203133A0883160313AB004D2E093069
:100C900083160313AB000030AC002808031D512E4F
:100CA000522E832EA11F552E562E832E4208103E03
:100CB00084002E30831780000130C2070318C30A56
:100CC0000030C307FF30B1070318B20AFF30B20784
:100CD0000130A800832E4208103E84003030831774
:100CE00080000130C2070318C30A0030C307FF3079
:100CF000B1070318B20AFF30B207FF30A407031888
:100D0000A50AFF30A50724082504031D882E892E77
:100D10006B2E4208103E84002B08303E8317800063
:100D20000130C2070318C30A0030C307FF30B10700
:100D30000318B20AFF30B2074B0883120313A7004F
:100D4000831603134A0883120313A60083160313A2
:100D5000490883120313A50083160313480883125E
:100D60000313A40083160313400883120313A30084
:100D7000831603133F0883120313A2008316031381
:100D80003E0883120313A100831603133D08831248
:100D90000313A0000A128A15BE240A128A118312B4
:100DA00003132308BD002208BC002108BB00200853
:100DB000BA00831603133C0883120313C100831681
:100DC00003133B0883120313C000831603133A086E
:100DD00083120313BF00831603133908831203130E
:100DE000BE000A168A151E250A128A1183120313E1
:100DF0003D0883160313BC00831203133C088316BB
:100E00000313BB00831203133B0883160313BA00BA
:100E1000831203133A0883160313B9004130F30019
:100E20002030F2000030F1000030F0004B08F700F5
:100E30004A08F6004908F5004808F4000A128A1525
:100E400092200A128A11730883160313CB007208CA
:100E5000CA007108C9007008C800FF30A007031855
:100E6000A10AFF30A1070130B7070318B80A003004
:100E7000B8073808803A83120313CD008316031392
:100E80002E08803A831203134D02031D4B2F831645
:100E900003132D08370203184E2F4F2F5E2F831692
:100EA00003134308803AFF0080307F02031D5A2F4E
:100EB0004B304202031C5D2F5E2FB52D4F30831641
:100EC0000313B7000030B8003708103E84008317C2
:100ED0008001103083120313CD00831603134208E0
:100EE00083120313CD0283160313370883120313EF
:100EF0004D07F0001030F100831603134308F30090
:100F00004208F2000A168A15FD240A128A11831675
:100F1000031342083702C2004308031C430A380285
:100F2000C3004108031D952F972F0130982F0030E3
:100F300083120313CD00CE014D0883160313B700AF
:100F4000831203134E0883160313B80041080319D4
:100F5000AA2FAB2FB72FFF30C2070318C30AFF30E9
:100F6000C3074208103E84004108831780003708F9
:100F7000B1023808031CB203B202831203134608FD
:100F8000A8004708A900831603134208103E8312E5
:100F90000313AA0083160313320883120313AC0051
:100FA00083160313310883120313AB000A168A1544
:100FB000AF270A128A11831203132908C7002808D1
:100FC000C60008008313E4308400ED300A168A1549
:100FD000E3220A128A11831790308400A8300A167F
:100FE0008A15E3220A128A111030840060300A1632
:100FF0008A15E3220A128A1183010A168A118F299F
:101000000A168A152B230A128A1500300A168A1529
:10101000BF240A128A1508000A168A15F4220A1239
:101020008A1590300A168A1538230A128A1500305C
:101030000A168A1538230A128A150A168A15EB220F
:101040000A128A1591300A168A1538230A128A154F
:101050000A168A1593230A128A1583120313C800ED
:101060000A168A1506230A128A150A168A15932368
:101070000A128A1583120313C9000A168A1512234D
:101080000A128A150A168A15FD220A128A15831277
:101090000313490E0F39C600480EF039C604480E36
:1010A0000F39C700F030C71D0030C7044608F000F4
:1010B0004708F1000030F11BFF30F200F30001306F
:1010C0000A168A1112240A128A157308831203134E
:1010D000A7007208A6007108A5007008A4003D30A2
:1010E000A3008030A2000030A1000030A0000A124E
:1010F0008A15BE240A128A15831203132308BD0021
:101100002208BC002108BB002008BA000A168A1178
:1011100019210A128A15831203133B08C5003A08E5
:10112000C4000800770883120313A4008030A405CC
:101130007708F8007807AB00F61F9F28A028A128A1
:101140002B142B080319A528A628B6282B0A031D43
:10115000AA28AB28B3280030F7000030F600003092
:10116000F5000030F400F617F701BE280030F70054
:101170000030F6000030F5000030F40073088039CC
:10118000A4067308F8007807AC00F21FC828C92825
:10119000CA282C142C080319CE28CF28DF282C0AA3
:1011A000031DD328D428DC280030F3000030F200DF
:1011B0000030F1000030F000F217F301E7280030B2
:1011C000F3000030F2000030F1000030F00073084E
:1011D000720471047004031DEE28EF280629003004
:1011E000F7000030F6000030F5000030F4008030E9
:1011F000F6047F30F7042408F7047708F300760834
:10120000F2007508F1007408F000612A2B08031D34
:101210000A290B2914290030F3000030F2000030B5
:10122000F1000030F000612A2B08F800F90179087C
:10123000FB002C087802FA00031CFB037A087F3EAF
:10124000A5007B080318013E003EA6007708A30016
:101250007608A2007508A1007408A0000030F7000D
:101260000030F6000030F5000030F4000030AA0035
:101270000030A9000030A8000030A700AC018E2982
:101280002C0803194429452965290130F800031069
:10129000A00DA10DA20DA30DF80B47290130F800F8
:1012A0000310F40DF50DF60DF70DF80B5029AA1FDC
:1012B0005A295B295C2974140130F8000310A70D2A
:1012C000A80DA90DAA0DF80B5E2973082302031DB2
:1012D000732972082202031D732971082102031D5C
:1012E000732970082002031C762977298C292A1774
:1012F0007008A0027108031C710F7F298029A102C8
:101300007208031C720F85298629A2027308031C28
:10131000730F8B298C29A3020130AC071A302C02E1
:10132000031C932994294029230822042104200422
:1013300003199B299C29BB292714BB290130F800DC
:101340000310F40DF50DF60DF70DF80BA029AA1FEB
:10135000AA29AB29AC2974140130F8000310A70D99
:10136000A80DA90DAA0DF80BAE29FF30A50703188B
:10137000A60AFF30A607F61FBE29BF299E29AC0189
:10138000AA1FC329C429E029FF302705F800FF3030
:101390002805F900FF302905FA007F302A05FB00F7
:1013A0007B087A04790478040319D729D829DB2922
:1013B0000130AC00E029741CDE29DF29E029D8299E
:1013C0002C080319E429E529162A0130F407003016
:1013D00003180130F507003003180130F60700301C
:1013E00003180130F707771CF629F729162A740825
:1013F000F8007508F9007608FA007708FB0001305C
:10140000FC007B0DFB0CFA0CF90CF80CFC0B012A10
:101410007B08F7007A08F6007908F5007808F400F0
:101420000130A5070318A60A0030A6072608803A4F
:10143000FF0080307F02031D1F2AFF302502031C9E
:10144000222A232A312AFF3083120313A5000030F9
:10145000A6000030F7000030F6000030F500003044
:10146000F400831203132608803AFF0080307F02C5
:10147000031D3C2A0130250203183F2A402A4D2A29
:1014800083120313A501A6010030F7000030F60017
:101490000030F5000030F400A40183120313250886
:1014A000AB002B1C542A552A572AF617592A7F308D
:1014B000F6052B08F8000310780CF7002408F70451
:1014C000FD2808007308F8008030F80573088312BF
:1014D0000313A0002007FA00F21F6F2A702A712A56
:1014E0007A147A080319752A762A862A7A0A031D3D
:1014F0007A2A7B2A832A0030F3000030F200003081
:10150000F1000030F000F217F3018E2A0030F300F2
:101510000030F2000030F1000030F0007708F900F0
:101520008030F905790878060319972A982A992AAC
:1015300078177708A0002007F900F61FA02AA12A33
:10154000A22A791479080319A62AA72AB72A790AA0
:10155000031DAB2AAC2AB42A0030F7000030F60095
:101560000030F5000030F400F617F701BF2A003014
:10157000F7000030F6000030F5000030F4007A0883
:1015800079020318C42AC52AE92A781FC82AC92A59
:10159000CB2A8030F8067A08FB007908FA007B082D
:1015A000F9007008FB007408F0007B08F400710873
:1015B000FB007508F1007B08F5007208FB00760857
:1015C000F2007B08F6007308FB007708F3007B0845
:1015D000F700FB017908A000A1012108A3007A0807
:1015E0002002A200031CA3032308803AFF008030DE
:1015F0007F02031DFD2A1A302202031C002B012B3F
:10160000382B7308720471047004031D082B0A2B15
:1016100001300B2B0030FB000030F3000030F200F3
:101620000030F1000030F0007908FA003E2B7B1CFE
:101630001A2B1B2B242B7B0883120313A0000310EF
:10164000200C0138FB00262B0310FB0C701C292BEF
:101650002A2B2B2BFB17013083120313A000730DD1
:10166000F30CF20CF10CF00CA00B2F2B0130FA074D
:1016700079087A02031C3D2B3E2B172B781B412B3C
:10168000422B8D2B7A08031D462B472B502B003005
:10169000F3000030F2000030F1000030F000BD2C0B
:1016A0007408F007750803110318013E0319592B3C
:1016B000F107760803110318013E0319602BF207A6
:1016C000770803110318013E0319672BF307731CF6
:1016D0006A2B6B2B452C7B1C6E2B6F2B782B7B087E
:1016E00083120313A0000310200C0138FB007A2B97
:1016F0000310FB0C701C7D2B7E2B7F2BFB17013006
:1017000083120313A000730DF30CF20CF10CF00C18
:10171000A00B832B0130FA07452C7308803AFF0099
:101720007708803A7F02031D9F2B76087202031D03
:101730009F2B75087102031D9F2B740870020318FC
:10174000A22BA32BFC2BFF3083120313A000FF302E
:10175000A100FF30A200FF30A3007408A4007508A8
:10176000A5007608A6007708A7007008A4027108F3
:10177000031C710FBC2BBD2BA5027208031C720F3A
:10178000C22BC32BA6027308031C730FC82BC92BD3
:10179000A7022408A00725080318250FD02BD12B5A
:1017A000A10726080318260FD62BD72BA207270838
:1017B0000318270AA3072308F3002208F2002108D0
:1017C000F1002008F0008030F8067B03FF3AFB00B0
:1017D0007B08031DEC2BED2B0A2C0130F0070030A9
:1017E00003180130F107003003180130F207003010
:1017F00003180130F3070A2C7408F0027508031C63
:10180000750FF1027608031C760FF2027708031CAD
:10181000770FF3027308720471047004031D112C16
:10182000122C412C7B08031D162C172C412C003048
:10183000F3000030F2000030F1000030F000BD2C69
:10184000013083120313A0000310F00DF10DF20D0F
:10185000F30DA00B242CFB1F2E2C2F2C302C7014DE
:101860007B1C332C342C382C03147B0DFB003A2CBE
:101870000310FB0D7A0803193E2C3F2C412C01303C
:10188000FA02F21F442C452C202CF901FB1F492C95
:101890004A2C582C7B087F3903194F2C502C532C81
:1018A0000130F900582C701C562C572C582C502CF9
:1018B000790803195C2C5D2C912C0130F007003065
:1018C00003180130F107003003180130F20700302F
:1018D00003180130F307731C6E2C6F2C912C7008C9
:1018E00083120313A0007108A1007208A2007308FC
:1018F000A3000130A400230DA30CA20CA10CA00C8A
:10190000A40B7B2C2308F3002208F2002108F1002D
:101910002008F0007A0A03198E2C8F2C912C0130AC
:10192000FA077A0A0319952C962C9B2C7A08031D2A
:101930009A2C9B2CA92C0030F3000030F2000030D0
:10194000F1000030F0007A08031DA72CA82CA92C68
:10195000F8017A1CAC2CAD2CAF2CF217B12C7F30D7
:10196000F2057A0883120313A0000310200CF30081
:10197000F81FBB2CBC2CBD2CF317080083120313DB
:101980002308AD008030AD052308A8002807B30068
:10199000A21FCB2CCC2CCD2C331433080319D12C03
:1019A000D22CE12C330A031DD62CD72CDF2C00308F
:1019B000A3000030A2000030A1000030A000A21758
:1019C000E92C0030A3000030A2000030A10000305C
:1019D000A00027088039AD062708A8002807B20014
:1019E000A61FF32CF42CF52C321432080319F92C11
:1019F000FA2C092D320A031DFE2CFF2C072D003076
:101A0000A7000030A6000030A5000030A400A617F3
:101A1000112D0030A7000030A6000030A5000030D6
:101A2000A40032080319152D162D1B2D3308031D94
:101A30001A2D1B2D242D0030A3000030A2000030F1
:101A4000A1000030A000FF2F2008F00026080A1691
:101A50008A158D250A128A15710883120313B9009D
:101A60007008B8003808A800A901AA01AB012B082A
:101A7000B1002A08B0002908AF002808AE003908D4
:101A8000A800A901AA01AB012B08B7002A08B600DB
:101A90002908B5002808B4002108F00025080A1616
:101AA0008A158D250A128A15710883120313B9004D
:101AB0007008B8003808A800A901AA01AB012808DD
:101AC000AE07290803110318013E0319682DAF075B
:101AD0002A0803110318013E03196F2DB0072B08C4
:101AE00003110318013E0319762DB1073908A80028
:101AF000A901AA01AB012808B4072908031103189A
:101B0000013E0319842DB5072A0803110318013E6D
:101B100003198B2DB6072B0803110318013E031977
:101B2000922DB7072208F00024080A168A158D2581
:101B30000A128A15710883120313B9007008B800DD
:101B40003808A800A901AA01AB012808AE07290896
:101B500003110318013E0319AE2DAF072A08031124
:101B60000318013E0319B52DB0072B080311031804
:101B7000013E0319BC2DB1073908A800A901AA012B
:101B8000AB012808B407290803110318013E031903
:101B9000CA2DB5072A0803110318013E0319D12DD8
:101BA000B6072B0803110318013E0319D82DB707F8
:101BB0000830A8000310AE0DAF0DB00DB10DA80B8D
:101BC000DA2D2108F00024080A168A158D250A123C
:101BD0008A15710883120313B9007008B800380819
:101BE000A8003908A900AA01AB012808AE072908F6
:101BF00003110318013E0319FE2DAF072A08031134
:101C00000318013E0319052EB0072B080311031812
:101C1000013E03190C2EB1072008F00025080A1612
:101C20008A158D250A128A15710883120313B900CB
:101C30007008B8003808A8003908A900AA01AB014B
:101C40002808AE07290803110318013E0319292E9D
:101C5000AF072A0803110318013E0319302EB007FD
:101C60002B0803110318013E0319372EB107083062
:101C7000A8000310AE0DAF0DB00DB10DA80B392E9D
:101C80002008F00024080A168A158D250A128A15E4
:101C9000710883120313B9007008B8003808A8004F
:101CA0003908A900AA01AB012808AE0729080311C9
:101CB0000318013E03195D2EAF072A08031103180C
:101CC000013E0319642EB0072B0803110318013ECF
:101CD00003196B2EB1072108F00026080A168A1591
:101CE0008D250A128A15710883120313B900700832
:101CF000B8003808A8003908A900AA01AB012808D3
:101D0000B407290803110318013E0319882EB507EB
:101D10002A0803110318013E03198F2EB6072B085A
:101D200003110318013E0319962EB7072208F0008D
:101D300025080A168A158D250A128A15710883123C
:101D40000313B9007008B8003808A8003908A900C2
:101D5000AA01AB012808B407290803110318013EA2
:101D60000319B32EB5072A0803110318013E0319FE
:101D7000BA2EB6072B0803110318013E0319C12E12
:101D8000B7072208F00026080A168A158D250A12C0
:101D90008A15710883120313B9007008B800380857
:101DA000A8003908A900AA01AB0108300310A80D4A
:101DB000A90DAA0DAB0DFF3E031DD62E2808B407B2
:101DC000290803110318013E0319E72EB5072A0855
:101DD00003110318013E0319EE2EB6072B08031159
:101DE0000318013E0319F52EB7072E08A8002F0887
:101DF000A9003008AA003108AB0018300310AB0C62
:101E0000AA0CA90CA80CFF3E031DFE2E2808B4073F
:101E1000290803110318013E03190F2FB5072A08DB
:101E200003110318013E0319162FB6072B080311DF
:101E30000318013E03191D2FB7070830A80003102F
:101E4000AE0DAF0DB00DB10DA80B1F2F330832072B
:101E5000A800A901A90D2808823EB8002908031886
:101E6000013EFF3EB900512F0130A8000310B40D10
:101E7000B50DB60DB70DA80B362FB11F402F412F52
:101E8000422F34140130A8000310AE0DAF0DB00D79
:101E9000B10DA80B442FFF30B8070318B90AFF3063
:101EA000B907B61F542F552F342FB201B11F592F28
:101EB0005A2F762FFF302E05A800FF302F05A900DE
:101EC000FF303005AA007F303105AB002B082A0413
:101ED0002904280403196D2F6E2F712F0130B200D1
:101EE000762F341C742F752F762F6E2F320803191E
:101EF0007A2F7B2FAC2F0130B4070030031801304C
:101F0000B507003003180130B60700300318013060
:101F1000B707371C8C2F8D2FAC2F3408A80035083D
:101F2000A9003608AA003708AB000130AC002B0D21
:101F3000AB0CAA0CA90CA80CAC0B972F2B08B70064
:101F40002A08B6002908B5002808B4000130B807EF
:101F50000318B90A0030B9073908803AFF00803009
:101F60007F02031DB52FFF303802031CB82FB92F95
:101F7000C42F7F3083120313B7008030B6000030C7
:101F8000B5000030B400F52F831203133908803AEE
:101F9000FF0080307F02031DCF2F0130380203186D
:101FA000D22FD32FDF2F003083120313B70000305E
:101FB000B6000030B5000030B400AD01F52F83123B
:101FC00003133808B300FF30B405FF30B5057F3088
:101FD000B6050030B705331CEE2FEF2FF02FB617E4
:101FE0003308A8000310280CB7002D08B7043708E1
:101FF000A3003608A2003508A1003408A00008009C
:10200000FF1B0A2883137F1883170008840A03190B
:10201000FF0A080010308A000408840A820700348E
:102020004D346F34643465343A34203443346F347F
:102030006D34703461347234613474346F3472349A
:1020400000344D346F34643465343A3420344934C8
:102050006E3474346534723472347534703474345C
:1020600000344D346F34643465343A3420344F34A2
:102070006E3465342D34533468346F347434003422
:102080004D344334503439343834303430342034DF
:1020900052346534613464347934003454346534F2
:1020A0006D3470343A34203425342E34323466346E
:1020B00020344334003469346E34663400346E3472
:0620C00061346E340034AF
:1020D2000800F901FA0176088400831300088400DD
:1020E2000A168A110A200A168A112A3A031D7A2828
:1020F2007B28A728760884000130800777088400AF
:102102000008FF00023080077F0884000008F90001
:10211200840A0008FA00B8287A08F1007908F00069
:102122000A30F2000030F3000A168A1542250A1618
:102132008A1178087007F90000300318013071071E
:10214200FA00760884000130831380077608840041
:10215200000884000A168A110A200A168A11D03E43
:10216200F8000A307802031CB728B8288D287A08AC
:10217200F7007908F600080083120313051CC22831
:10218200C328DD280A168A156C240A168A110A1633
:102192008A1548230A168A1180300A168A15DD2408
:1021A2000A168A112230F2008030F3000A168A15CC
:1021B20067250A168A111829851CE028E128FB28C0
:1021C2000A168A156F260A168A110A168A154823D4
:1021D2000A168A1180300A168A15DD240A168A1117
:1021E2000130F2008030F3000A168A1567250A16BC
:1021F2008A111829051DFE28FF2818290A168A1592
:10220200AB260A168A110A168A1548230A168A115B
:1022120080300A168A15DD240A168A111230F2005D
:102222008030F3000A168A1567250A168A110800FB
:102232000310831203133C0D3D0DC3004308031D1D
:10224200232924292D290030BD000030BC00003094
:10225200BB000030BA008E293A08BE003B08BF001E
:102262003C08C0003D08C1001F300310C10CC00C67
:10227200BF0CBE0CFF3E031D36293E08C200BC1730
:10228200FF30BA05FF30BB05FF30BC050030BD058D
:102292009630C302C31F4E294F2967294308803A4B
:1022A200973E03185529562957292429013003102E
:1022B200BD0CBC0CBB0CBA0CFF3E031D58290130EF
:1022C200C307031D6529662957297E292030430249
:1022D200031C6C296D29792924290130BE000310C1
:1022E200BA0DBB0DBC0DBD0DBE0B70290130C30272
:1022F2004308031D7D297E296E294208031982297C
:1023020083298E29BA09BB09BC09BD09BA0A031976
:10231200BB0A0319BC0A0319BD0A08000A168A156A
:1023220058230A168A110A168A1548230A168A1190
:1023320000300A168A15DD240A168A113130F2009D
:102342008030F3000A168A1567250A168A111A3098
:1023520083120313EF005E30EE006D30ED00ED0BE3
:10236200B029EE0BB029EF0BB029B7290A168A1152
:10237200BD200A168A110A128A150C200A168A1121
:1023820083120313440883160313E000831203131A
:10239200450883160313E1000030E11BFF30E20021
:1023A200E3006308F3006208F2006108F1006008CC
:1023B200F00001300A168A1112240A168A117308D3
:1023C20083160313DF007208DE007108DD00700857
:1023D200DC00C0300A168A15DD240A168A119830EC
:1023E20083160313D4001030D5000030D6003F30DE
:1023F200D7005F08DB005E08DA005D08D9005C08E0
:10240200D8000A168A1166230A168A1100300A16A3
:102412008A15DD240A168A119830F2000130F30081
:102422000A168A1567250A168A1133308312031396
:10243200EF00BB30EE00DF30ED00ED0B1E2AEE0B9D
:102442001E2AEF0B1E2AB7290A128A1100287208C7
:10245200730403192D2A2E2A342A72087304031DC9
:10246200332A342A3B2A70080A168A1169200A166E
:102472008A11C12A7208093EF40073080318013E4A
:10248200003EF500740884008317751C831300084E
:10249200F600840A0008F700760877040319522A26
:1024A200532A852A7208093EF40073080318013E74
:1024B200003EF500740884008317751C831300081E
:1024C200F600840A0008F7007208023EF80073085A
:1024D2000318013E003EF900780884008317791C36
:1024E20083130008FA00840A0008FB007B08803A84
:1024F200FC007708803A7C02031D812A76087A0262
:102502000318842A852AC12A720884008317731C3F
:1025120083130008F400840A0008F5007208023EE2
:10252200F60073080318013E003EF70076088400A7
:102532008317771C831300087407F9007508F800E5
:102542000318F80A801FA62AF8037808FA00790807
:10255200840083177A1C8313700880007208023E7D
:10256200F40073080318013E003EF500740884006D
:102572008317751C831301308007840A0318800AAD
:1025820008000030831203133A05C20000303B05F5
:10259200C30080303C05C4007F303D05C5004508BE
:1025A200440443044204031DD72AD82AE02A0030F7
:1025B200BD000030BC000030BB000030BA0000306B
:1025C2003E05C20000303F05C30080304005C40014
:1025D2007F304105C5004508440443044204031DFD
:1025E200F32AF42AFC2A0030C1000030C000003077
:1025F200BF000030BE00BD1FFF2A002B242B00307D
:10260200C2000030C3000030C4008030C5003A0868
:10261200C2023B08031C3B0F0F2B102BC3023C08CA
:10262200031C3C0F152B162BC4023D08031C3D0F47
:102632001B2B1C2BC5024508BD004408BC004308E7
:10264200BB004208BA00C11F272B282B4C2B00309D
:10265200C2000030C3000030C4008030C5003E0814
:10266200C2023F08031C3F0F372B382BC30240081E
:10267200031C400F3D2B3E2BC4024108031C410F9B
:10268200432B442BC5024508C1004408C00043083F
:10269200BF004208BE008030BD068030C10641083E
:1026A2003D02031D5E2B40083C02031D5E2B3F08CA
:1026B2003B02031D5E2B3E083A020318612B622B7C
:1026C200642B0310652B0314080080308316031358
:1026D2005602003003195502031C702B712B762B06
:1026E2004B30EA000030EB00112CD8308312031378
:1026F200DF0083160313540883120313E200013030
:10270200E300003083160313560202300319550208
:10271200031C8C2B8D2B9E2B5508FF3E831203131B
:10272200EB008316031356080318013EFF3E831283
:102732000313EC00E401E501A82B0130831203131B
:10274200EB000030EC000130E4000030E5006230C4
:1027520083160313D0000030D1005708D2005F3037
:10276200D3000A168A1538260A168A11831603130D
:10277200510883120313E1008316031350088312D6
:102782000313E00083160313550856040319CA2BDA
:10279200CB2B112C83120313E11BD02BD12B112C29
:1027A200831603135508FF3E83120313DA008316C0
:1027B200031356080318013EFF3E83120313DB0086
:1027C2006108803ADC005B08803A5C02031DEB2B57
:1027D2005A086002031CEE2BEF2B002C8316031306
:1027E2005508FF3E83120313DD00831603135608B8
:1027F2000318013EFF3E83120313DE00062C8312F0
:1028020003136108DE006008DD005D088316031310
:10281200540783120313DA005A08840083178001D5
:102822000800F80078080319172C182C2C2CF31F19
:102832001B2C1C2C2C2C7009FA007109FB0072094C
:10284200FC007309FD00FA0A0319FB0A0319FC0ACA
:102852000319FD0A342C7308FD007208FC0071088C
:10286200FB007008FA007308720471047004031DFF
:102872003B2C3C2C452C0030F3000030F2000030A1
:10288200F1000030F000C52C9630F900532C0130D5
:10289200F90701300310FD0CFC0CFB0CFA0CFF3E97
:1028A200031D4B2CFE307D05031D582C592C482C42
:1028B200732C0130F9070130FA0700300318013098
:1028C200FB07003003180130FC0700300318013009
:1028D200FD0701300310FD0CFC0CFB0CFA0CFF3E53
:1028E200031D6B2CFF307D05031D782C792C5A2C8F
:1028F200852C0130F9020130F4000310FA0DFB0DB2
:10290200FC0DFD0DF40B7E2CFC1B882C892C8F2CCE
:102912000230790203188E2C8F2C7A2C7918922C83
:10292200932C9B2CFF30FA05FF30FB057F30FC0512
:10293200FF30FD050310F90C7908F400F501F601EA
:10294200F70118300310F40DF50DF60DF70DFF3EEB
:10295200031DA32C7408FA047508FB047608FC0412
:102962007708FD0478080319B72CB82CBD2CF31F87
:10297200BB2CBC2CBD2CFD177D08F3007C08F2009B
:102982007B08F1007A08F000080083160317130889
:1029920083120313C0008316031712088312031352
:1029A200BF0083160317110883120313BE00831698
:1029B2000317100883120313BD003008C0002F084C
:1029C200BF002E08BE002D08BD003D08B1003E0824
:1029D200B2003F08B3004008B40017300310B40C33
:1029E200B30CB20CB10CFF3E031DEF2CFF303105CE
:1029F200B50000303205B6003508813EBB0036080E
:102A02000318013EFF3EBC003C08803AFF008030C4
:102A12007F02031D0E2D17303B02031C112D122DB8
:102A2200132DD42D83120313BC1B182D192D892DA0
:102A32003B0AFF00FF30B100FF30B2007F30B3002D
:102A42000030B400292D340DB40CB30CB20CB10C0F
:102A5200FF0B242D3408BA003308B9003208B8003D
:102A62003108B70037083D05B10038083E05B2000D
:102A720039083F05B3003A084005B400340833046E
:102A820032043104031D462D472D482D122D3D08D9
:102A9200B1003E08B2003F08B3004008B4001F3046
:102AA2000310B40CB30CB20CB10CFF3E031D512D3C
:102AB20034083304320431040319602D612D782D5A
:102AC2003708BD07380803110318013E03196A2DA0
:102AD200BE07390803110318013E0319712DBF0700
:102AE2003A0803110318013E0319782DC00737096C
:102AF200B1003809B2003909B3003A09B40031080B
:102B0200BD053208BE053308BF053408C005CC2D0B
:102B12003D08B1003E08B2003F08B3004008B400CF
:102B22001F300310B40CB30CB20CB10CFF3E031DEA
:102B3200922D3408330432043104031DA12DA22D39
:102B4200AB2D0030C0000030BF000030BE000030AE
:102B5200BD00CC2D3D08B1003E08B2003F08B300D5
:102B62004008B40001300310B10DB20DB30DB40D25
:102B7200FF3E031DB42D340833043204310403191B
:102B8200C32DC42DCC2DBF30C0008030BF0000301B
:102B9200BE000030BD004008B0003F08AF003E0854
:102BA200AE003D08AD00080083160313C101831275
:102BB20003134B0883160313C700831203134A0837
:102BC20083160313C60083120313490883160313E3
:102BD200C50083120313480883160313C400470871
:102BE20083120313BD0083160313460883120313D3
:102BF200BC0083160313450883120313BB0083161C
:102C02000313440883120313BA000030C1000030DA
:102C1200C0000030BF000030BE000A168A11C22276
:102C22000A168A110318162E172E322E0130831619
:102C32000313C1004708F3004608F2004508F100FB
:102C42004408F0000A128A1103200A168A11730836
:102C520083160313C7007208C6007108C500700806
:102C6200C40083160313C201C3016708B2006608D9
:102C7200B100410803193E2E3F2E4F2E4108031D7D
:102C8200432E442E492E2B30A6000030A7004D2E95
:102C92002D30A6000030A7002608C1004708F30027
:102CA2004608F2004508F1004408F0000A128A11B1
:102CB2000E200A168A1170037104031D612E622E02
:102CC200AD2E8316031341080319682E692E792E3F
:102CD2004108831203179000FF3083160313B107D4
:102CE2000318B20AFF30B2070130C2000030C3003D
:102CF2004208103EF0004C30F1000A168A153824C2
:102D02000A168A11FD3083160313B1070318B20A9B
:102D1200FF30B207831203134608A8004708A90030
:102D22001030AA0083160313320883120313AC0077
:102D320083160313310883120313AB000A168A1594
:102D4200AF270A168A11831203132908C70028081D
:102D5200C6000A128A11E12F831603134708F300F3
:102D62004608F2004508F1004408F0000A128A11F0
:102D72000E200A168A1170087104031DC12EC42E7A
:102D82000A128A119B288316031341080319CA2EBB
:102D9200CB2EDB2E4108831203179000FF308316DF
:102DA2000313B1070318B20AFF30B2070130C200A1
:102DB2000030C3004208103EF0005030F1000A1605
:102DC2008A1538240A168A11832E831603134E0895
:102DD20084008313000884000A168A110A200A1646
:102DE2008A11253A031DF62EF72ED82F4E0884009D
:102DF20001308007E601E7010030EC00FF30E80017
:102E0200FF30E9004E088400000884000A168A1187
:102E12000A200A168A112E3A031D102F112F242F71
:102E22004E088400013080074E08F6004F08F70074
:102E32000A168A116A200A168A1177088316031362
:102E4200E9007608E8004E08840083130008831224
:102E52000313D800580884000A168A110A200A1699
:102E62008A11D7003C2F0130D807472F6C30D7008A
:102E7200472FD701472F57084C3A0319342F2A3AC4
:102E82000319372F0A3A0319342F3A2F58088400AE
:102E92000A168A110A200A168A11663A031D522F4F
:102EA200532FCF2F842F831603134F08840000085B
:102EB200FF00043080077F08840000088312031398
:102EC200D300840A0008D400840A0008D500840ACA
:102ED2000008D6008C2F831603134F0884000008C5
:102EE200FF00043080077F08840000088312031368
:102EF200D300840A0008D400840A0008D500840A9A
:102F02000008D6008C2F57084C3A03196C2F203A30
:102F12000319542F8C2F831603134E088400831237
:102F220003135808013E8000C42F831603134C0874
:102F320083120313C600831603134D08831203136F
:102F4200C7005608CB005508CA005408C9005308E8
:102F5200C800580884000A168A110A200A168A1123
:102F6200CC000A168A11D5250A168A118312031378
:102F7200470883160313CD008312031346088316F2
:102F82000313CC00FF2F580884000A168A110A2066
:102F92000A168A11663A0319962FCF2F8316031346
:102FA2004E08840001308007CC01CD01FF2F4E086E
:102FB2008400000884000A168A110A200A168A115F
:102FC20083120313D100D2015108F0005208F1001C
:102FD200831603134C08F2004D08F3000A168A11F7
:102FE20028220A168A11831603134E088400013020
:0E2FF200831380070130CC000030CD000800B2
:1035C60064008001840A0406031900340406E42A10
:1035D6000A168A151E230A168A15831603139114D2
:1035E60008000A168A151E230A168A15831603135F
:1035F600111408000A168A151E230A168A15831640
:103606000313111508008316031391120A168A155F
:103616001E230A168A15831603131116080083162D
:10362600031391160A168A151E230A168A1583167F
:10363600031311160800831603131419232B242BC6
:103646001E2B11081F39031D292B2A2B1E2B0800A0
:1036560028308312031394008316031391019401F7
:1036660031309300871507160800F0000A168A15F0
:103676001E230A168A1570088312031393008C1DE5
:10368600452B462B422B8C11080001300A168A1551
:1036960006240A168A151430F3007930F200F20B6C
:1036A600522BF30B522B572B0800831603130514CA
:1036B6008514051506309F000A168A15B4250A16C4
:1036C6008A150A128A1500200A168A15080070083B
:1036D600F2006F2B0130F007700884008317000892
:1036E600031D762B772B6D2B72087002F000F1010B
:1036F600F01BF1030800F31B812B822B832B922BEB
:103706007009F0007109F1007209F2007309F30003
:10371600F00A0319F10A0319F20A0319F30A080059
:103726000A168A151E230A168A158316031391157F
:1037360083128C1D9F2BA02B9B2B8C110A168A158E
:103746001E230A168A158312031313080800F200B3
:103756000A168A150A260A168A15F300720803192C
:10376600B52BB62BB82B7315BA2BFB30F3057308A4
:103776000A168A15BF240A168A150800F2000A16C8
:103786008A150A260A168A15F30072080319CC2B25
:10379600CD2BCF2BF314D12BFD30F30573080A166E
:1037A6008A15BF240A168A150800F2000A168A1519
:1037B6000A260A168A15F30072080319E32BE42B6E
:1037C600E62BF317E82B7F30F30573080A168A15E4
:1037D600BF240A168A150800F2000A168A150A2658
:1037E6000A168A15F30072080319FA2BFB2BFD2B18
:1037F6007314FF2BFE30F30573080A168A15BF24CF
:103806000A168A150800F1008312031307107108BF
:1038160086008714C730F000102CF00B0F2C132CE9
:10382600142C831203138710C730F0001A2CF00BE8
:10383600192C1D2C1E2C0800F100831203130714EB
:10384600710886008714C730F000292CF00B282C4D
:103856002C2C2D2C831203138710C730F000332C29
:10386600F00B322C362C372C08007008F200013091
:10387600F107FF30710784000A168A110A200A161A
:103886008A15FF007208F20A84007F0883178000F9
:103896000008031D4F2C502C3A2C080000300A1645
:1038A6008A15A3240A168A1500300A168A15EF23EC
:1038B6000A168A1500300A168A15D8230A168A159A
:1038C600C330F600CD30F500F50B672CF60B672CF0
:1038D600080000300A168A15A3240A168A15013034
:1038E6000A168A15EF230A168A1501300A168A1552
:1038F600D8230A168A15C330F600CD30F500F50B2D
:10390600822CF60B822C0800F3000A168A150A266A
:103916000A168A15F400E730F40573080339F20035
:1039260002300310F20DFF3E031D942C0310720D9E
:10393600F40474080A168A15BF240A168A150800A4
:10394600F3000A168A150A260A168A15F4009F300D
:10395600F40573080339F20004300310F20DFF3E3C
:10396600031DB02C0310720DF40474080A168A1590
:10397600BF240A168A150800F1000A168A15F422D1
:103986000A168A1590300A168A1538230A168A15D9
:1039960001300A168A1538230A168A1571080A167E
:1039A6008A1538230A168A150A168A15FD220A165A
:1039B6008A150800F20080307202031CE32CE42C06
:1039C600EA2CA9307202031CE92CEA2CF62CC03032
:1039D6007202031CEF2CF02CFC2CE9307202031847
:1039E600F52CF62CFC2C72080A168A1506240A16E3
:1039F6008A1508007108F6007008F5000F2D760884
:103A0600840083170008F4000130F6077508840067
:103A1600740880000130F5070130F2020030031C03
:103A2600F303F302720A031D1C2D730A031D1C2DDA
:103A36001D2D022D0800803083120313BD06410898
:103A4600F3004008F2003F08F1003E08F0003D0890
:103A5600F7003C08F6003B08F5003A08F4000A12A5
:103A66008A1562220A168A15730883120313BD008B
:103A76007208BC007108BB007008BA000800F401A7
:103A8600F501701C472D482D4E2D7208F4070318BA
:103A9600F50A7308F50701300310F20DF30DFF3E2A
:103AA600031D4F2D01300310F10CF00CFF3E031DDA
:103AB600562D70087104031D612D622D442D750865
:103AC600F1007408F00008007C2D7308FF007208EE
:103AD60084000A168A1100200A168A150A168A1503
:103AE6001F240A168A150130F2070318F30A00305C
:103AF600F307730883120313FF00720884000A1683
:103B06008A1100200A168A15003A031D8B2D8C2D6A
:103B1600682D0800F800F401F5017008F200F301C1
:103B26007208F6007308F700781C9A2D9B2DA12DBC
:103B36007608F4070318F50A7708F507013003102D
:103B4600F60DF70DFF3E031DA22D0310F80C7808A5
:103B5600031DAE2DAF2D972D7508F1007408F000EA
:103B660008008316031387100710860183120313B8
:103B76008710071086014130F500EE30F400F40B93
:103B8600C22DF50BC22D000038300A168A15062400
:103B96000A168A150F300A168A1506240A168A1579
:103BA60006300A168A1506240A168A150A168A1572
:103BB60048230A168A15080083120313A601A701D3
:103BC600FC2D2508A300A4012308F0002408F10019
:103BD6002108F2002208F3000A168A1128220A1682
:103BE6008A15013083120313A6070318A70A0030AB
:103BF600A70726082007A3002308840083170008C8
:103C0600A5002508031D082E092EE42D08000A1616
:103C16008A15F4220A168A1590300A168A15382350
:103C26000A168A1501300A168A1538230A168A15C5
:103C36000A168A15EB220A168A1591300A168A1573
:103C460038230A168A150A168A1593230A168A1520
:103C5600F1000A168A1512230A168A150A168A15FB
:103C6600FD220A168A1571080800831603135208E6
:103C760083120313D90083160313E401E5015A2EB8
:103C8600831603135008CC005108CD005930CE00DE
:103C96005308CF000A168A11E6260A168A158316D5
:103CA60003134C08E4070318E50A4D08E5078312D9
:103CB6000313590884000A168A110A200A168A155F
:103CC600003A031D672E682E432E831603136508DC
:103CD600D1006408D00008000A168A1551240A1675
:103CE6008A1501300A168A15EF230A168A153C3002
:103CF600F1000030F2000A168A1524270A168A15E2
:103D06003730F1000030F2000A168A15E7260A1647
:103D16008A1500300A168A15EF230A168A1500300E
:103D26000A168A15AA230A168A1503300A168A1550
:103D3600A3240A168A1502300A168A1587240A163B
:103D46008A1500300A168A15C1230A168A15080034
:103D56000A168A1551240A168A1501300A168A157A
:103D6600EF230A168A154630F1000030F2000A16D3
:103D76008A1524270A168A154130F1000030F20010
:103D86000A168A15E7260A168A1500300A168A15B3
:103D9600EF230A168A1500300A168A15AA230A1670
:103DA6008A1503300A168A15A3240A168A150130C5
:103DB6000A168A1587240A168A1501300A168A15E4
:103DC600C1230A168A1508000310710DF700720D3B
:103DD600F8007808F4007708F300740DF40CF30C7F
:103DE6007308F50077080139F30006300310F30D68
:103DF600FF3E031DF92E0310730DF6000A168A15F1
:103E0600F4220A168A1590300A168A1538230A16DD
:103E16008A1502300A168A1538230A168A15750875
:103E26000A168A1538230A168A1576080A168A1576
:103E360038230A168A150A168A15FD220A168A15C5
:103E460008000310710DF700720DF8007808F400F1
:103E56007708F300740DF40CF30C7308F50077087B
:103E66000139F30006300310F30DFF3E031D362F14
:103E76000310730DF6000A168A15F4220A168A151F
:103E860090300A168A1538230A168A1503300A1640
:103E96008A1538230A168A1575080A168A153823CC
:103EA6000A168A1576080A168A1538230A168A15F6
:103EB6000A168A15FD220A168A15080000307005B2
:103EC600F80000307105F90080307205FA007F3085
:103ED6007305FB007B087A0479047804031D742FAC
:103EE600752F7D2F0030F3000030F2000030F10016
:103EF6000030F00000307405F80000307505F90058
:103F060080307605FA007F307705FB007B087A045F
:103F160079047804031D902F912F992F0030F70014
:103F26000030F6000030F5000030F4007708730624
:103F3600031DA72F76087206031DA72F75087106A5
:103F4600031DA72F740870060319AA2FAB2FAD2FD8
:103F56000310AE2F0314080083120313AC1FB42FF3
:103F6600B52FB72FAB01AC01AD01AE01D12F20307B
:103F7600F0000030F100831203132808F20029082C
:103F8600F3000A168A1128220A168A1501308312AE
:103F96000313AD070318AE0A0030AE072E08803AA9
:103FA600FD002C08803A7D02031DDB2F2B082D0215
:103FB600031CDE2FDF2FBA2F831203132A08A0005B
:103FC6002808A1002908A2000A168A15DF250A1664
:103FD6008A15831203132A08F0000A168A156A2323
:103FE6000A168A15831203132B087007A8002C08DB
:0A3FF60003182C0A7107A900080047
:00000001FF
