:100000000A128A11EB2F00308A000408840A820742
:100010000034443469347334743461346E3463347A
:1000200065343A3420342534753463346D340D34FA
:040030000A3400345A
:100A3A000800831603130610861483120313061084
:100A4A00080064008001840A0406031900340406BD
:100A5A00272DF000831203130C1E342D352D2F2D54
:100A6A00700899000800831603130713871781304B
:100A7A009900181518128312031398178316031373
:100A8A0098168312031318160800552D710884004E
:100A9A0000080A128A112E250A128A110130F1075A
:100AAA007108840083130008031D5C2D5D2D4B2DF6
:100ABA000800323083120313B5003008B600003044
:100ACA00B700B801B901BF01C0013630AC0000302F
:100ADA00AD003108AE003530AF000A128A11812507
:100AEA000A128A118312031338083007B400340833
:100AFA008400831380010800831203132E08FD006B
:100B0A00952D831203132C08A0002D08A1007D3017
:100B1A00A2002F08A3000A128A1127270A128A1193
:100B2A007D0884000A128A1103200A128A11003AE7
:100B3A00031DA02DA12D862D83120313AC01AD0137
:100B4A0008008312031306141030F900F90BAB2DB9
:100B5A000000831203130610861CB42DB52DB12D87
:100B6A008F018E0110148618BB2DBC2DB82D1010C4
:100B7A000F08FB000E08FA009130F0000030F10077
:100B8A007B08F3007A08F2000A128A114B260A122D
:100B9A008A117108F8007008F700080070087104DB
:100BAA000319D82DD92D062E0130F400E52D013078
:100BBA000310F00DF10DFF3E031DDD2D0130F4078A
:100BCA00F11FE82DE92DDC2D71087302031DEF2DAD
:100BDA0070087202031CF22DF32DF92D7008F2022F
:100BEA007108031CF303F30201300310F10CF00C3B
:100BFA00FF3E031DFA2D0130F402031D052E062EB9
:100C0A00E92D7308F1007208F00008000A128A112F
:100C1A001E250A128A110A128A1138250A128A1105
:100C2A0010308312031390000A128A11A6250A12A1
:100C3A008A11780883120313C5007708C4004B3061
:100C4A00B0000130B1004508B3004408B2000A12EE
:100C5A008A115E250A128A114B30F1000A128A1192
:100C6A004A250A128A110D3083120313C300AF30CA
:100C7A00C200B530C100C10B402EC20B402EC30BBF
:100C8A00402E472E192E0A128A110028F401F50166
:100C9A00700871040319522E532E882E0130F60063
:100CAA005F2E01300310F00DF10DFF3E031D572E8C
:100CBA000130F607F11F622E632E562E0130031003
:100CCA00F40DF50DFF3E031D642E71087302031D1A
:100CDA00702E70087202031C732E742E7B2E7008FD
:100CEA00F2027108031CF303F302741401300310B7
:100CFA00F10CF00CFF3E031D7C2E0130F602031DA1
:100D0A00872E882E632E7508F1007408F0000800FB
:100D1A00720873040319922E932E992E7208730483
:100D2A00031D982E992EA02E70080A128A111D25CD
:100D3A000A128A11262F7208093EF4007308031852
:100D4A00013E003EF500740884008317751C831366
:100D5A000008F600840A0008F700760877040319E9
:100D6A00B72EB82EEA2E7208093EF400730803184B
:100D7A00013E003EF500740884008317751C831336
:100D8A000008F600840A0008F7007208023EF8001C
:100D9A0073080318013E003EF9007808840083179F
:100DAA00791C83130008FA00840A0008FB007B08F8
:100DBA00803AFC007708803A7C02031DE62E76080A
:100DCA007A020318E92EEA2E262F72088400831766
:100DDA00731C83130008F400840A0008F5007208E3
:100DEA00023EF60073080318013E003EF70076083B
:100DFA0084008317771C831300087407F9007508A9
:100E0A00F8000318F80A801F0B2FF8037808FA0075
:100E1A007908840083177A1C83137008800072088B
:100E2A00023EF40073080318013E003EF500740800
:100E3A0084008317751C831301308007840A031802
:100E4A00800A080083120313220884000008840021
:100E5A000A128A1103200A128A11253A031D362F13
:100E6A00372FD12F2208840001308007C601C7011D
:100E7A000030CA00FF30C800FF30C90022088400D1
:100E8A000008AA002A0884000A128A1103200A12FA
:100E9A008A11753A031D522F532FCA2F2308840033
:100EAA0083130008FF00023080077F0884000008CF
:100EBA00A600840A0008A700220884002A08013E26
:100ECA008000BF2F2030AB000130AB022B08A03EC0
:100EDA0084000A30F0000030F1002708F3002608E9
:100EEA00F2000A128A11D3250A128A117008303EBA
:100EFA00831380000A30F0000030F10083120313DC
:100F0A002708F3002608F2000A128A114B260A1251
:100F1A008A11710883120313A7007008A600260815
:100F2A0027040319992F9A2FB82F2B08031D9E2FD8
:100F3A009F2F692FB82F2B08A03E84008313000827
:100F4A00A400A5012408F0002508F1002008F200F9
:100F5A002108F3000A128A118D260A128A11013019
:100F6A0083120313AB0720302B06031DBD2FBE2FA0
:100F7A00A02FEA2F2A0884000A128A1103200A12D3
:100F8A008A11753A0319672FCA2F8312031322088D
:100F9A00840001308007EA2F2208840000088400B8
:100FAA000A128A1103200A128A11A400A501240830
:100FBA00F0002508F1002008F2002108F3000A12C7
:100FCA008A118D260A128A11CA2F08008313463005
:100FDA0084006B300A128A1126250A128A11A0305F
:100FEA008400C0300A128A1126250A128A11830146
:060FFA000A128A110B2E01
:02400E00723FFF
:00000001FF
