:100000000A128A11EB2FFF1B0D2883137F18831709
:100010000008840A0319FF0A080000308A00040857
:10002000840A820700344434533431343634323451
:1000300030342034533445344E3453344F345234F6
:100040000034543465346D3470343A3420342534FB
:0C00500064342E3425346434433400340E
:1005F6000800831203130711002B012B00000800CB
:100606008312031387100715082B092B0000080017
:1006160064008001840A04060319003404060C2BC6
:10062600F71B162B172B182B232B7609F8007709A7
:10063600F900F80A0319F90A7808F6007908F700AC
:1006460008007008F200292B0130F00770088400BA
:1006560083130008031D302B312B272B72087002E1
:10066600F000F101F01BF1030800F6014F2B7608AC
:100676007307840074080318740A83120313FF00B7
:100686000A128A1103200A128A110A128A114F24A9
:100696000A128A110130F60775087602031C542BDC
:1006A600552B3A2B0800333083120313B800310858
:1006B600B9000030BA00BB01BC01C201C301393028
:1006C600AD000030AE003208AF003830B0000A127C
:1006D6008A1179230A128A11831203133B08310700
:1006E600B7003708840083138001080083120313C0
:1006F6002F08FD008D2B831203132D08A0002E0852
:10070600A1007D30A2003008A3000A128A11052735
:100716000A128A117D0884000A128A110D200A1213
:100726008A11003A031D982B992B7E2B83120313F3
:10073600AD01AE010800F200831603130710F301A2
:100746008312031387107208F000730AAC2B031090
:10075600F00CFF3E031DAA2B01307005F1000708BF
:100766007106FE39710687008714B92BBA2B000073
:100776000130F30708307302031CC22BC32BA32BD3
:1007860008000A128A1103230A128A11AA300A12D1
:100796008A119E230A128A110A128A11EA230A1260
:1007A6008A117108FA007008F9000A128A11FC22EF
:1007B6000A128A117A1CE02BE12BE52B0030F90492
:1007C600FE30FA047A08F8007908F7000800F40108
:1007D600F501831603130714F6018312031387101A
:1007E600F42BF52B0000760AFF008312031307088B
:1007F6000139F200F301022C0310F20DF30DFF0B89
:10080600FF2B7208F4047308F50487140A2C0B2CCA
:1008160000000130F60709307602031C132C142C55
:10082600F02B8316031307107508F1007408F00007
:100836000800F10083120313871107120F30880591
:100846007108F03988048716282C292C0000831299
:1008560003138712A630F000F00B2F2C00000F3088
:100866008312031388057108F00003300310F00D9E
:10087600FF3E031D392C0310700DF03988048716CE
:10088600442C452C0000831203138712A630F00077
:10089600F00B4B2C00000800F100831203138715A0
:1008A60007120F3088057108F039880487165B2C0B
:1008B6005C2C0000831203138712A630F000F00BA5
:1008C600622C00000F308312031388057108F000B4
:1008D60003300310F00DFF3E031D6C2C0310700D4A
:1008E600F03988048716772C782C000083120313BE
:1008F6008712A630F000F00B7E2C000008000A12CA
:100906008A1103230A128A110C300A128A119E23B5
:100916000A128A1102300A128A119E230A128A11B9
:100926000A128A11FC220A128A110230F600453098
:10093600F500A930F400F40B9E2CF50B9E2CF60B5B
:100946009E2CA52C0A128A1103230A128A11EE3054
:100956000A128A119E230A128A110A128A11FC228D
:100966000A128A111430F6000730F5001130F4002F
:10097600F40BBB2CF50BBB2CF60BBB2CC22C0800C6
:100986006230F3006530F200F20BC72CF30BC72C74
:10099600CC2C03300A128A111C240A128A11213027
:1009A600F3007630F200F20BD62CF30BD62C0000B7
:1009B60003300A128A111C240A128A11F930F20035
:1009C600F20BE32CE62C03300A128A111C240A12BD
:1009D6008A1102300A128A111C240A128A1128303E
:1009E6000A128A111C240A128A110C300A128A1160
:1009F6001C240A128A1106300A128A111C240A12B1
:100A06008A1101300A128A111C240A128A110D3029
:100A1600F300FB30F200F20B0E2DF30B0E2D132D0F
:100A26000800F501F31F182D192D202DF209F309E1
:100A3600F20A0319F30A0130F500F11F232D242DC4
:100A4600292DF009F109F00A0319F10A7008710459
:100A560003192E2D2F2D5C2D0130F4003B2D013076
:100A66000310F00DF10DFF3E031D332D0130F40789
:100A7600F11F3E2D3F2D322D71087302031D452DAA
:100A860070087202031C482D492D4F2D7008F20282
:100A96007108031CF303F30201300310F10CF00C90
:100AA600FF3E031D502D0130F402031D5B2D5C2D0E
:100AB6003F2D75080319602D612D662DF209F30986
:100AC600F20A0319F30A7308F1007208F00008002D
:100AD600F501F11F6F2D702D772DF009F109F00A40
:100AE6000319F10A0130F500F31F7A2D7B2D822DB3
:100AF600F209F309F20A0319F30A0130F506F601C1
:100B0600F701700871040319892D8A2DBF2D013054
:100B1600F400962D01300310F00DF10DFF3E031D7C
:100B26008E2D0130F407F11F992D9A2D8D2D013050
:100B36000310F60DF70DFF3E031D9B2D7108730282
:100B4600031DA72D70087202031CAA2DAB2DB22D12
:100B56007008F2027108031CF303F30276140130E5
:100B66000310F10CF00CFF3E031DB32D0130F4020F
:100B7600031DBE2DBF2D9A2D75080319C32DC42D37
:100B8600C92DF609F709F60A0319F70A7708F100DD
:100B96007608F0000800720873040319D32DD42DCB
:100BA600DA2D72087304031DD92DDA2DE12D700894
:100BB6000A128A11FB220A128A11672E7208093E4E
:100BC600F40073080318013E003EF5007408840023
:100BD6008317751C83130008F600840A0008F700C3
:100BE600760877040319F82DF92D2B2E7208093E85
:100BF600F40073080318013E003EF50074088400F3
:100C06008317751C83130008F600840A0008F70092
:100C16007208023EF80073080318013E003EF90010
:100C2600780884008317791C83130008FA00840A65
:100C36000008FB007B08803AFC007708803A7C02BB
:100C4600031D272E76087A0203182A2E2B2E672ECE
:100C5600720884008317731C83130008F400840A47
:100C66000008F5007208023EF60073080318013EFC
:100C7600003EF700760884008317771C831300086C
:100C86007407F9007508F8000318F80A801F4C2E3F
:100C9600F8037808FA007908840083177A1C83130E
:100CA600700880007208023EF40073080318013EC3
:100CB600003EF500740884008317751C8313013009
:100CC6008007840A0318800A080083160313871016
:100CD60007118711071287120F3088050F3083120C
:100CE6000313880587100711033083120313C60008
:100CF6008A30C5005530C400C40B7F2EC50B7F2E2D
:100D0600C60B7F2E0A128A11C3240A128A110A12EE
:100D16008A1182240A128A1180300A128A111C242E
:100D26000A128A110130F3008030F4000D30F5000C
:100D36000A128A1138230A128A110A128A11C42346
:100D46000A128A11780883120313CC007708CB00A5
:100D56004B18AE2EAF2EB22EC901CA01B62E0530E3
:100D6600C9000030CA000230F0000030F1004C0823
:100D7600F3004B08F2000A128A116B250A128A1137
:100D8600710883120313C8007008C7005230B100FF
:100D96000F30B2004808B4004708B3004A08B6004E
:100DA6004908B5000A128A1156230A128A11C03060
:100DB6000A128A111C240A128A115230F3000030DA
:100DC600F4005230F0000A128A1124230A128A1102
:100DD6007008F5000A128A1138230A128A111A308D
:100DE60083120313C6005E30C5006D30C400C40B09
:100DF600FA2EC50BFA2EC60BFA2E012FA02E0A12BA
:100E06008A11002883120313220884000008840034
:100E16000A128A110D200A128A11253A031D142F6F
:100E2600152FD12F2208840001308007CD01CE0175
:100E36000030D100FF30CF00FF30D0002208840000
:100E46000008A700270884000A128A110D200A123A
:100E56008A11643A0319302F312F3D2F2708840059
:100E66000A128A110D200A128A11693A031D3C2FB3
:100E76003D2FCA2F2308840083130008FF00023089
:100E860080077F0884000008A800840A0008A900DB
:100E9600220884002708013E80002030AC00A91BF0
:100EA600552F572F0130582F0030A6000130AC02C5
:100EB6002C08A03E84000A30F0000030F10029081A
:100EC600F3002808F2000A128A1114250A128A1160
:100ED6007108F7007008F6000A128A1113230A1225
:100EE6008A117608303E831380000A30F000003005
:100EF600F100831203132908F3002808F2000A12EE
:100F06008A116B250A128A11710883120313A9002C
:100F16007008A800280829040319922F932F982FE8
:100F26002C08031D972F982F592F2C0803199C2F37
:100F36009D2FC32F26080319A12FA22FC32F0130DF
:100F4600AC022C08A03E84002D3083138000C32FF2
:100F56002C08A03E840083130008A400A5012408E1
:100F6600F0002508F1002008F2002108F3000A121B
:100F76008A11CE250A128A11013083120313AC0797
:100F860020302C06031DC82FC92FAB2FEA2F831242
:100F960003132208840001308007EA2F2208840008
:100FA600000884000A128A110D200A128A11A40070
:100FB600A5012408F0002508F1002008F200210808
:100FC600F3000A128A11CE250A128A11CA2F0800C6
:100FD60083134D30840062300A128A110B230A12E1
:100FE6008A11A0308400C0300A128A110B230A121B
:0A0FF6008A1183010A128A11682E85
:02400E00BA3FB7
:00000001FF
