:060000000A128A110C280F
:10000800FE00030EF6000A08F7000A168A15CE2D20
:100018000A128A110F28F001F101F201F301F4012B
:1000280083160313ED018317CB308400D5300A16ED
:100038008A155E230A128A111030840060300A166D
:100048008A155E230A128A1183010A168A116F2BF8
:1000580083160313600883120313CB00831603135C
:100068005F0883120313CA00831603135E08831202
:100078000313C900831603135D0883120313C80012
:1000880083160313660883120313CF008316031322
:10009800650883120313CE008316031364088312C2
:1000A8000313CD0083160313630883120313CC00D4
:1000B8000A168A1162200A128A11031C642867280A
:1000C8000A128A152C2C831603133608C400440818
:1000D800C500F41B7028712876287408BE007308C0
:1000E800BD007A280630BD000030BE003E08C900B9
:1000F8003D08C8000130C8070318C90A0030C907FD
:1001080066304506031D89288A28A428CB1F8D2818
:100118008E2898283F30E6008030E5000030E40063
:100128000030E300CA01CB016730440603199D285B
:100138009E28A4284A08C8070318C90A4B08C907F3
:10014800D201D3016008D7005F08D6005E08D50049
:100158005D08D4006608D1006508D0006408CF00A7
:100168006308CE00E129831603136608831203137C
:10017800CB0083160313650883120313CA00831682
:100188000313640883120313C90083160313630857
:1001980083120313C800831603135708831203132B
:1001A800CF0083160313560883120313CE00831659
:1001B8000313550883120313CD0083160313540841
:1001C80083120313CC000A128A1100260A128A111C
:1001D800831203134B08E5004A08E4004908E300CA
:1001E8004808E2000A168A11BC210A128A118312F1
:1001F8000313650883160313DB00831203136408D3
:1002080083160313DA008312031363088316031398
:10021800D90083120313620883160313D8005B08FE
:1002280083120313E500831603135A08831203137A
:10023800E40083160313590883120313E30083169B
:100248000313580883120313E2000A168A155D2661
:100258000A128A1183120313630883160313C70053
:1002680083120313620883160313C60066088312F9
:100278000313B50083160313650883120313B40030
:1002880083160313640883120313B300831603133E
:10029800630883120313B200831603135B088312E7
:1002A8000313B100831603135A0883120313B00013
:1002B80083160313590883120313AF00831603131D
:1002C800580883120313AE000A128A15BE240A12B4
:1002D8008A1183120313310883160313AB008312A8
:1002E8000313300883160313AA00831203132F087D
:1002F80083160313A900831203132E08831603130E
:10030800A8005708AF005608AE005508AD005408BD
:10031800AC000A168A1112200A128A1183160313D6
:100328002B08D7002A08D6002908D5002808D400A9
:10033800413083120313CB002030CA000030C900BB
:100348000030C80083160313660883120313CF0016
:1003580083160313650883120313CE008316031351
:10036800640883120313CD008316031363088312F2
:100378000313CC000A128A1100260A128A1183126A
:1003880003134B0883160313E600831203134A086A
:1003980083160313E5008312031349088316031316
:1003A800E40083120313480883160313E3000130A3
:1003B800D2070318D30A0030D3075308803AB7008E
:1003C8004908803A3702031DEB2948085202031CEA
:1003D800EE29EF29B728403083120313B100A0306B
:1003E800B0000030AF000030AE008316031366087B
:1003F80083120313B50083160313650883120313CE
:10040800B40083160313640883120313B30083161E
:100418000313630883120313B2000A128A15BE2459
:100428000A128A1183120313310883160313DB009F
:1004380083120313300883160313DA00831203139D
:100448002F0883160313D900831203132E0883166B
:100458000313D800570883120313CB008316031322
:10046800560883120313CA00831603135508831210
:100478000313C90083160313540883120313C80017
:10048800831603135B0883120313CF008316031329
:100498005A0883120313CE008316031359088312D4
:1004A8000313CD0083160313580883120313CC00DB
:1004B8000A168A1162200A128A110318642A652A08
:1004C800702A003083160313DB000030DA00003096
:1004D800D9000030D800B72A8316031357088312AF
:1004E8000313A30083160313560883120313A200F1
:1004F80083160313550883120313A10083160313ED
:10050800540883120313A000831603135B08831295
:100518000313A700831603135A0883120313A600B4
:1005280083160313590883120313A50083160313B4
:10053800580883120313A4000A168A150D260A12F6
:100548008A11031CA82AA92AB72A83160313461856
:10055800AE2AAF2AB72A0030DB000030DA000030BC
:10056800D9000030D800831603135B0883120313E5
:10057800E500831603135A0883120313E400831655
:100588000313590883120313E3008316031358084F
:1005980083120313E2008316031360088312031304
:1005A800E900831603135F0883120313E800831618
:1005B80003135E0883120313E700831603135D0811
:1005C80083120313E6000A168A112E250A128A11CD
:1005D80083120313650883160313D70083120313CA
:1005E800640883160313D600831203136308831663
:1005F8000313D50083120313620883160313D40070
:10060800570883120313CB0083160313560883126B
:100618000313CA0083160313550883120313C90072
:1006280083160313540883120313C8004130B10022
:100638002030B0000030AF000030AE008316031346
:10064800510883120313B50083160313500883124D
:100658000313B400831603134F0883120313B30064
:10066800831603134E0883120313B2000A128A1565
:10067800BE240A128A11831203133108CF003008EE
:10068800CE002F08CD002E08CC000A168A11622051
:100698000A128A11031C512B522BA52B01308316E9
:1006A8000313CA070318CB0A0030CB074130831263
:1006B8000313B1002030B0000030AF000030AE00AE
:1006C80083160313510883120313B500831603130B
:1006D800500883120313B400831603134F088312C0
:1006E8000313B300831603134E0883120313B200D7
:1006F8000A128A15BE240A128A11831203133108BA
:1007080083160313D10083120313300883160313CF
:10071800D000831203132F0883160313CF0083120C
:1007280003132E0883160313CE0066304506031DF7
:100738009E2B9F2BA52B0130C8070318C90A003030
:10074800C907831603135108E6005008E5004F084F
:10075800E4004E08E3004B08BC004A08BB00C30194
:10076800BF01C001D201D3016B2D831603136608A4
:1007780083120313CB008316031365088312031334
:10078800CA0083160313640883120313C90083166F
:100798000313630883120313C8008316031357084F
:1007A80083120313CF00831603135608831203130F
:1007B800CE0083160313550883120313CD00831646
:1007C8000313540883120313CC000A128A1100265B
:1007D8000A128A11831203134B08E5004A08E40041
:1007E8004908E3004808E2000A168A11BC210A12E7
:1007F8008A1183120313650883160313DB0083121F
:100808000313640883160313DA00831203136308BF
:1008180083160313D9008312031362088316031384
:10082800D8005B0883120313E500831603135A08E4
:1008380083120313E4008316031359088312031366
:10084800E30083160313580883120313E2000A1601
:100858008A155D260A128A11831203136308803AE7
:10086800FF0080307F02031D3B2C0A306202031810
:100878003E2C3F2C692C831603135B088312031349
:10088800E500831603135A0883120313E400831642
:100898000313590883120313E3008316031358083C
:1008A80083120313E2000A168A155D260A128A11BA
:1008B80083120313630883160313C70083120313F9
:1008C800620883160313C6006F2C093083160313BE
:1008D800C6000030C7004308031D732C742CA52CD8
:1008E800BC1F772C782CA52C6108103E84002E3074
:1008F800831780000130E1070318E20A0030E2079D
:10090800FF30CC070318CD0AFF30CD070130C300F4
:10091800A52C6108103E8400303083178000013018
:10092800E1070318E20A0030E207FF30CC0703189A
:10093800CD0AFF30CD07FF30BF070318C00AFF30CC
:10094800C0073F084004031DAA2CAB2C8D2C61085E
:10095800103E84004608303E831780000130E107CE
:100968000318E20A0030E207FF30CC070318CD0A6B
:10097800FF30CD07660883120313B50083160313EF
:10098800650883120313B4008316031364088312E3
:100998000313B30083160313630883120313B2000F
:1009A800831603135B0883120313B1008316031322
:1009B8005A0883120313B0008316031359088312CD
:1009C8000313AF0083160313580883120313AE00F2
:1009D8000A128A15BE240A128A11831203133108D7
:1009E80083160313AB008312031330088316031313
:1009F800AA00831203132F0883160313A900831276
:100A080003132E0883160313A8005708AF005608CF
:100A1800AE005508AD005408AC000A168A11122021
:100A28000A128A11831603132B08D7002A08D60046
:100A38002908D5002808D400413083120313CB00BD
:100A48002030CA000030C9000030C80083160313E4
:100A5800660883120313CF008316031365088312F5
:100A68000313CE0083160313640883120313CD0007
:100A780083160313630883120313CC000A128A1126
:100A880000260A128A11831203134B0883160313D4
:100A9800E600831203134A0883160313E500831242
:100AA8000313490883160313E40083120313480849
:100AB80083160313E300FF30BB070318BC0AFF309B
:100AC800BC070130D2070318D30A0030D3075308F4
:100AD800803AB7004908803A3702031D752D480847
:100AE80052020318782D792D882D83160313620876
:100AF800803AFF0080307F02031D842D4B30610255
:100B0800031C872D882DB92B4F3083160313D20071
:100B18000030D3005208103E840083178001103043
:100B2800B7006108B7025208370783120313A00001
:100B38001030A10083160313620883120313A30065
:100B480083160313610883120313A2000A168A1579
:100B5800DF230A128A118316031361085202E10087
:100B68006208031C620A5302E2005C08031DBD2DE3
:100B7800BF2D0130C02D0030B700B8013708D200B2
:100B88003808D3005C080319CA2DCB2DD72DFF30A8
:100B9800E1070318E20AFF30E2076108103E84000B
:100BA8005C08831780005208CC025308031CCD034D
:100BB800CD02300883120313B500831603133108DE
:100BC80083120313B600831603136108103E8312C1
:100BD8000313B700831603134D0883120313B900D8
:100BE800831603134C0883120313B8000A168A15D8
:100BF80090250A128A110800831203134F08D9009E
:100C08008030D9054F08D0005007E000CE1F0D2EC8
:100C18000E2E0F2E601460080319132E142E242E86
:100C2800600A031D182E192E212E0030CF00003027
:100C3800CE000030CD000030CC00CE17CF012C2ED6
:100C48000030CF000030CE000030CD000030CC00A6
:100C58004B088039D9064B08D0005007E100CA1F5D
:100C6800362E372E382E6114610803193C2E3D2E7E
:100C78004D2E610A031D412E422E4A2E0030CB0014
:100C88000030CA000030C9000030C800CA17CB01C4
:100C9800552E0030CB000030CA000030C9000030AB
:100CA800C8004B084A0449044804031D5C2E5D2E05
:100CB800742E0030CF000030CE000030CD00003060
:100CC800CC008030CE047F30CF045908CF044F08C1
:100CD800CB004E08CA004D08C9004C08C800C92FEF
:100CE8006008031D782E792E822E0030CB0000304C
:100CF800CA000030C9000030C800C92F6008D00001
:100D0800D1015108D30061085002D200031CD3035B
:100D180052087F3EDA0053080318013E003EDB000C
:100D28004F08D8004E08D7004D08D6004C08D5000B
:100D38000030CF000030CE000030CD000030CC00B5
:100D48000030DF000030DE000030DD000030DC0065
:100D5800E101F62E61080319B22EB32ED32E01300D
:100D6800D0000310D50DD60DD70DD80DD00BB52E4C
:100D78000130D0000310CC0DCD0DCE0DCF0DD00B12
:100D8800BE2EDF1FC82EC92ECA2E4C140130D0002B
:100D98000310DC0DDD0DDE0DDF0DD00BCC2E4B0866
:100DA8005802031DE12E4A085702031DE12E490887
:100DB8005602031DE12E48085502031CE42EE52EB9
:100DC800F42E5F174808D5024908031C490FD602BC
:100DD8004A08031C4A0FD7024B08031C4B0FD802C2
:100DE8000130E1071A306102031CFB2EFC2EAE2EE7
:100DF80058085704560455040319032F042F232FAA
:100E08005C14232F0130D0000310CC0DCD0DCE0D76
:100E1800CF0DD00B082FDF1F122F132F142F4C14B8
:100E28000130D0000310DC0DDD0DDE0DDF0DD00B21
:100E3800162FFF30DA070318DB0AFF30DB07CE1F57
:100E4800262F272F062FE101DF1F2B2F2C2F482FAE
:100E5800FF305C05D000FF305D05D100FF305E0536
:100E6800D2007F305F05D300530852045104500468
:100E780003193F2F402F432F0130E100482F4C1C0E
:100E8800462F472F482F402F610803194C2F4D2F0D
:100E98007E2F0130CC07003003180130CD07003019
:100EA80003180130CE07003003180130CF074F1C5C
:100EB8005E2F5F2F7E2F4C08D0004D08D1004E08C2
:100EC800D2004F08D3000130D400530DD30CD20CFC
:100ED800D10CD00CD40B692F5308CF005208CE0088
:100EE8005108CD005008CC000130DA070318DB0A9E
:100EF8000030DB075B08803AFF0080307F02031D6B
:100F0800872FFF305A02031C8A2F8B2F992FFF300F
:100F180083120313DA000030DB000030CF0000300A
:100F2800CE000030CD000030CC00831203135B08E4
:100F3800803AFF0080307F02031DA42F01305A023F
:100F48000318A72FA82FB52F83120313DA01DB018B
:100F58000030CF000030CE000030CD000030CC0093
:100F6800D901831203135A08E000601CBC2FBD2F5F
:100F7800BF2FCE17C12F7F30CE056008D0000310D9
:100F8800500CCF005908CF046B2E080083160317A6
:100F9800180883160313EB00EA2F831603171608A5
:100FA80083160313E7008316031717088316031322
:100FB800E800EB30E90083160317190883160313BA
:100FC800EA000A128A155C200A128A118316031392
:100FD8006B0884000A168A1500200A128A11003A42
:100FE800031DF72FF82FD12F8316031796019701AA
:040FF80008000800E5
:1010080083120313A901AA01260884008313000888
:1010180084000A168A1500200A128A152A3A031D26
:101028001628172846282608840001308007270834
:10103800840083170008FF00023080077F088400BF
:101048000008A900840A0008AA0057282A08A10055
:101058002908A0000A30A2000030A3000A168A1549
:1010680027240A128A158312031328082007A900C7
:101078000030031801302107AA0026088400013037
:101088008313800726088400000884000A168A153E
:1010980000200A128A15D03EA8000A302802031C34
:1010A800562857282A282A08A7002908A600080031
:1010B80083160313690884008313000884000A1642
:1010C8008A1500200A128A15253A031D6C286D28F6
:1010D8005E29690884000130800783160317D3014D
:1010E800D401003083160313ED00FF30F300FF3006
:1010F800F40069088400000884000A168A15002094
:101108000A128A152E3A031D8A288B28A4286908F2
:10111800840001308007690883120313A600831630
:1011280003136A0883120313A7000A128A150420FE
:101138000A128A15831203132708F4002608F300FD
:1011480083160313690884008313000883160317A2
:101158009500150884000A168A1500200A128A15B7
:101168009400BE2801309507C9286C309400C9281E
:101178009401C92814084C3A0319B6282A3A0319C5
:10118800B9280A3A0319B628BC28150884000A1693
:101198008A1500200A128A15663A031DD428D52814
:1011A80056290829831603136A0884008317000840
:1011B800FF00043080077F088400000883160317A7
:1011C8009000840A00089100840A00089200840AAA
:1011D800000893001029831603136A0884008317F4
:1011E8000008FF00043080077F0884000008831689
:1011F80003179000840A00089100840A00089200EE
:10120800840A00089300102914084C3A0319EF289F
:10121800203A0319D6281029831603136908840075
:10122800831603171508013E831380004B29831684
:1012380003136708B0006808B10083160317130882
:1012480083160313B50083160317120883160313B6
:10125800B40083160317110883160313B30083160B
:101268000317100883160313B20083160317150813
:1012780084000A168A1500200A128A158316031399
:10128800B6000A128A1582210A128A1581291508C0
:1012980084000A168A1500200A128A15663A03196C
:1012A8001B29562983160313690884000130831308
:1012B8008007812969088400000884000A168A15B5
:1012C80000200A128A1583120313EE00EF016E083C
:1012D800A0006F08A1008316031367088312031385
:1012E800A20083160313680883120313A3000A16C7
:1012F8008A1560270A128A155629080083160313CF
:10130800DC013508E0003408DF003308DE0032086D
:10131800DD00600883120313CB00831603135F08F4
:1013280083120313CA00831603135E088312031380
:10133800C900831603135D0883120313C800003025
:10134800CF000030CE000030CD000030CC000A16AF
:101358008A1162200A128A150318B329B429EB29C5
:10136800013083160313DC00600883120313A30003
:10137800831603135F0883120313A2008316031353
:101388005E0883120313A100831603135D088312FA
:101398000313A0000A168A1585230A128A158312D8
:1013A8000313230883160313E00083120313220890
:1013B80083160313DF008312031321088316031314
:1013C800DE0083120313200883160313DD0083163F
:1013D8000313E101E201831603175408831603136C
:1013E800CD0083160317530883160313CC005C083B
:1013F8000319FF29002A102A5C08031D042A052A5C
:101408000A2A2B30C1000030C2000E2A2D30C1003C
:101418000030C2004108DC00600883120313A300F7
:10142800831603135F0883120313A20083160313A2
:101438005E0883120313A100831603135D08831249
:101448000313A0000A168A15D3260A128A158312D6
:10145800031320032104031D322A332A7E2A83160C
:1014680003135C080319392A3A2A4A2A5C088312AA
:1014780003179000FF3083160313CC070318CD0A17
:10148800FF30CD070130E1000030E2006108103E76
:1014980083120313A0001930A1000A168A15C42369
:1014A8000A128A15FD3083160313CC070318CD0AD8
:1014B800FF30CD07300883120313B50083160313DA
:1014C800310883120313B6001030B70083160313D4
:1014D8004D0883120313B900831603134C088312B3
:1014E8000313B8000A168A1590250A128A150A12DB
:1014F8008A11FF2D83160313600883120313A300B8
:10150800831603135F0883120313A20083160313C1
:101518005E0883120313A100831603135D08831268
:101528000313A0000A168A15D3260A128A158312F5
:10153800031320082104031DA22AA32AC72A8316FD
:1015480003135C080319A92AAA2ABA2A5C08831279
:1015580003179000FF3083160313CC070318CD0A36
:10156800FF30CD070130E1000030E2006108103E95
:1015780083120313A0001D30A1000A168A15C42384
:101588000A128A15562A3F3083160313E600803064
:10159800E5000030E4000030E300CA01CB01600838
:1015A80083120313A300831603135F088312031324
:1015B800A200831603135E0883120313A100831687
:1015C80003135D0883120313A0000030A700003046
:1015D800A6000030A5000030A4000A168A150D26C2
:1015E8000A128A150318F92AFC2A0A128A1167288E
:1015F8000D2B831603135108E6005008E5004F0829
:10160800E4004E08E3000130CA070318CB0A003093
:10161800CB07413083120313B1002030B0000030F3
:10162800AF000030AE00831603136608831203135D
:10163800B50083160313650883120313B4008316D9
:101648000313640883120313B30083160313630898
:1016580083120313B2000A128A15BE240A128A15CD
:1016680083120313310883160313D1008312031363
:10167800300883160313D000831203132F08831630
:101688000313CF00831203132E0883160313CE000F
:101698005D08B7005E08B8005F08B9006008BA00C6
:1016A8004E08B7024F08031C4F0F5B2B5C2BB80288
:1016B8005008031C500F612B622BB9025108031C00
:1016C800510F672B682BBA023A0883120313A30041
:1016D80083160313390883120313A2008316031316
:1016E800380883120313A1008316031337088312E3
:1016F8000313A0000A168A1592230A128A15831268
:101708000313A31B972B2308031D982B2208031DE3
:10171800982B2108031D982B02302002031D942BBF
:10172800031C972B982BFD2A831603135108831249
:101738000313CB0083160313500883120313CA0044
:10174800831603134F0883120313C9008316031368
:101758004E0883120313C80083160313600883120C
:101768000313CF00831603135F0883120313CE00FD
:10177800831603135E0883120313CD008316031325
:101788005D0883120313CC000A168A1162200A121C
:101798008A15031CD02BD12BFD2A831603135D0851
:1017A800B7005E08B8005F08B9006008BA006308AF
:1017B800B7026408031C640FE22BE32BB802650828
:1017C800031C650FE82BE92BB9026608031C660F9A
:1017D800EE2BEF2BBA023A0883120313A3008316E9
:1017E8000313390883120313A2008316031338085E
:1017F80083120313A10083160313370883120313FC
:10180800A0000A168A1592230A128A158312031356
:10181800A31B212C2308031D1E2C2208031D1E2C8C
:101828002108031D1E2C02302002031D1B2C031847
:101838001E2C212C0A128A112C28831603136608E1
:10184800E0006508DF006408DE006308DD00F92AAF
:10185800413083120313CB002030CA000030C90086
:101868000030C80083160313660883120313CF00E1
:1018780083160313650883120313CE00831603131C
:10188800640883120313CD008316031363088312BD
:101898000313CC000A128A1100260A128A15831231
:1018A80003134B0883160313E600831203134A0835
:1018B80083160313E50083120313490883160313E1
:1018C800E40083120313480883160313E300FF3070
:1018D800CA070318CB0AFF30CB075D08B7005E08BC
:1018E800B8005F08B9006008BA006308B702640866
:1018F800031C640F802C812CB8026508031C650F3B
:10190800862C872CB9026608031C660F8C2C8D2C3C
:10191800BA023A0883120313A30083160313390883
:1019280083120313A20083160313380883120313C8
:10193800A10083160313370883120313A0000A16A5
:101948008A1592230A128A1583120313A31BBD2C2E
:101958002308031DBC2C2208031DBC2C2108031DD1
:10196800BC2C02302002031DB92C0318BC2CBD2C42
:101978001E2C212C831203133108BB008030BB05B9
:101988003108B6003607C100B01FCB2CCC2CCD2CAB
:10199800411441080319D12CD22CE12C410A031D12
:1019A800D62CD72CDF2C0030B1000030B00000302E
:1019B800AF000030AE00B017E92C0030B1000030A5
:1019C800B0000030AF000030AE0035088039BB06EB
:1019D8003508B6003607BC00B41FF32CF42CF52CE0
:1019E8003C143C080319F92CFA2C092D3C0A031D58
:1019F800FE2CFF2C072D0030B5000030B40000305D
:101A0800B3000030B200B417112D0030B50000301B
:101A1800B4000030B3000030B2003C080319152DA3
:101A2800162D1B2D4108031D1A2D1B2D242D0030AA
:101A3800B1000030B0000030AF000030AE00FF2F22
:101A48002E08A00034080A168A1577240A128A1567
:101A5800831203132108C7002008C6004608B600F1
:101A6800B701B801B9013908C0003808BF00370804
:101A7800BE003608BD004708B600B701B801B90175
:101A88003908C5003808C4003708C3003608C20042
:101A98002F08A00033080A168A1577240A128A1517
:101AA800831203132108C7002008C6004608B600A1
:101AB800B701B801B9013608BD0737080311031883
:101AC800013E0319682DBE07380803110318013EAB
:101AD80003196F2DBF07390803110318013E0319B5
:101AE800762DC0074708B600B701B801B901360816
:101AF800C207370803110318013E0319842DC307D1
:101B0800380803110318013E03198B2DC40739083F
:101B180003110318013E0319922DC5073008A000D0
:101B280032080A168A1577240A128A1583120313B3
:101B38002108C7002008C6004608B600B701B8014A
:101B4800B9013608BD07370803110318013E031908
:101B5800AE2DBE07380803110318013E0319B52D31
:101B6800BF07390803110318013E0319BC2DC0072C
:101B78004708B600B701B801B9013608C2073708E7
:101B880003110318013E0319CA2DC30738080311AE
:101B98000318013E0319D12DC4073908031103188E
:101BA800013E0319D82DC5070830B6000310BD0D36
:101BB800BE0DBF0DC00DB60BDA2D2F08A0003208E0
:101BC8000A168A1577240A128A1583120313210824
:101BD800C7002008C6004608B6004708B700B80185
:101BE800B9013608BD07370803110318013E031968
:101BF800FE2DBE07380803110318013E0319052EF0
:101C0800BF07390803110318013E03190C2EC0073A
:101C18002E08A00033080A168A1577240A128A1596
:101C2800831203132108C7002008C6004608B6001F
:101C38004708B700B801B9013608BD0737080311CE
:101C48000318013E0319292EBE073808031103188B
:101C5800013E0319302EBF07390803110318013E4E
:101C68000319372EC0070830B6000310BD0DBE0D8E
:101C7800BF0DC00DB60B392E2E08A00032080A166B
:101C88008A1577240A128A15831203132108C700BC
:101C98002008C6004608B6004708B700B801B901D1
:101CA8003608BD07370803110318013E03195D2ED6
:101CB800BE07380803110318013E0319642EBF0735
:101CC800390803110318013E03196B2EC0072F08AA
:101CD800A00034080A168A1577240A128A15831276
:101CE80003132108C7002008C6004608B6004708A5
:101CF800B700B801B9013608C2073708031103183D
:101D0800013E0319882EC307380803110318013E42
:101D180003198F2EC407390803110318013E03194C
:101D2800962EC5073008A00033080A168A157724AE
:101D38000A128A15831203132108C7002008C60057
:101D48004608B6004708B700B801B9013608C20707
:101D5800370803110318013E0319B32EC3073808C7
:101D680003110318013E0319BA2EC40739080311D9
:101D78000318013E0319C12EC5073008A000340816
:101D88000A168A1577240A128A1583120313210862
:101D9800C7002008C6004608B6004708B700B801C3
:101DA800B90108300310B60DB70DB80DB90DFF3ED7
:101DB800031DD62E3608C207370803110318013E43
:101DC8000319E72EC307380803110318013E031946
:101DD800EE2EC407390803110318013E0319F52E26
:101DE800C5073D08B6003E08B7003F08B8004008E0
:101DF800B90018300310B90CB80CB70CB60CFF3E7C
:101E0800031DFE2E3608C207370803110318013ECA
:101E180003190F2FC307380803110318013E0319CC
:101E2800162FC407390803110318013E03191D2F83
:101E3800C5070830B6000310BD0DBE0DBF0DC00D9F
:101E4800B60B1F2F41083C07B600B701B70D36087F
:101E5800823EC60037080318013EFF3EC700512FD7
:101E68000130B6000310C20DC30DC40DC50DB60B6D
:101E7800362FC01F402F412F422F42140130B60089
:101E88000310BD0DBE0DBF0DC00DB60B442FFF30A6
:101E9800C6070318C70AFF30C707C41F542F552F9A
:101EA800342FBC01C01F592F5A2F762FFF303D0504
:101EB800B600FF303E05B700FF303F05B8007F3061
:101EC8004005B900390838043704360403196D2F62
:101ED8006E2F712F0130BC00762F421C742F752F86
:101EE800762F6E2F3C0803197A2F7B2FAC2F0130E9
:101EF800C207003003180130C3070030031801304F
:101F0800C407003003180130C507451C8C2F8D2FDE
:101F1800AC2F4208B6004308B7004408B80045088B
:101F2800B9000130BA00390DB90CB80CB70CB60CB1
:101F3800BA0B972F3908C5003808C4003708C30002
:101F48003608C2000130C6070318C70A0030C707A1
:101F58004708803AFF0080307F02031DB52FFF300D
:101F68004602031CB82FB92FC42F7F3083120313E6
:101F7800C5008030C4000030C3000030C200F52F17
:101F8800831203134708803AFF0080307F02031D45
:101F9800CF2F013046020318D22FD32FDF2F003066
:101FA80083120313C5000030C4000030C3000030A2
:101FB800C200BB01F52F831203134608C100FF308E
:101FC800C205FF30C3057F30C4050030C505411C7C
:101FD800EE2FEF2FF02FC4174108B6000310360C70
:101FE800C5003B08C5044508B1004408B0004308D3
:081FF800AF004208AE00080032
:10200600313083120313900013308F0088308E0016
:102016000C10831603130C140B178B170800803053
:1020260083160313AB062F0883120313E5008316EA
:1020360003132E0883120313E400831603132D08DB
:1020460083120313E300831603132C08831203136E
:10205600E200831603132B0883120313E900831689
:1020660003132A0883120313E800831603132908AF
:1020760083120313E700831603132808831203133E
:10208600E6000A168A112E250A168A1183120313F0
:10209600650883160313AB008312031364088316C3
:1020A6000313AA0083120313630883160313A900FC
:1020B60083120313620883160313A8000800003076
:1020C600831203134805D00000304905D100803043
:1020D6004A05D2007F304B05D30053085204510401
:1020E6005004031D7728782880280030CB00003064
:1020F600CA000030C9000030C80000304C05D000CE
:1021060000304D05D10080304E05D2007F304F059E
:10211600D3005308520451045004031D93289428F5
:102126009C280030CF000030CE000030CD000030BB
:10213600CC00CB1F9F28A028C4280030D000003038
:10214600D1000030D2008030D3004808D0024908C0
:10215600031C490FAF28B028D1024A08031C4A0FB6
:10216600B528B628D2024B08031C4B0FBB28BC2847
:10217600D3025308CB005208CA005108C9005008C0
:10218600C800CF1FC728C828EC280030D000003070
:10219600D1000030D2008030D3004C08D0024D0868
:1021A600031C4D0FD728D828D1024E08031C4E0F0A
:1021B600DD28DE28D2024F08031C4F0FE328E4284F
:1021C600D3025308CF005208CE005108CD00500864
:1021D600CC008030CB068030CF064F084B02031D63
:1021E600FE284E084A02031DFE284D084902031D1B
:1021F600FE284C0848020318012902290429031065
:1022060005290314080083120313A80028080319DC
:102216000D290E292229A31F112912292229200955
:10222600AA002109AB002209AC002309AD00AA0AC5
:102236000319AB0A0319AC0A0319AD0A2A292308A4
:10224600AD002208AC002108AB002008AA00230834
:10225600220421042004031D312932293B290030A0
:10226600A3000030A2000030A1000030A000BB296E
:102276009630A90049290130A90701300310AD0C99
:10228600AC0CAB0CAA0CFF3E031D4129FE302D05FC
:10229600031D4E294F293E2969290130A90701301E
:1022A600AA07003003180130AB07003003180130CD
:1022B600AC07003003180130AD0701300310AD0C38
:1022C600AC0CAB0CAA0CFF3E031D6129FF302D059B
:1022D600031D6E296F2950297B290130A90201307F
:1022E600A4000310AA0DAB0DAC0DAD0DA40B742903
:1022F600AC1B7E297F2985290230290203188429EF
:10230600852970292918882989299129FF30AA0544
:10231600FF30AB057F30AC05FF30AD050310A90CCF
:102326002908A400A501A601A70118300310A40DD1
:10233600A50DA60DA70DFF3E031D99292408AA0485
:102346002508AB042608AC042708AD0428080319A1
:10235600AD29AE29B329A31FB129B229B329AD17D7
:102366002D08A3002C08A2002B08A1002A08A00013
:102376000800831603174E0883160313A900831655
:1023860003174D0883160313A800831603174C087A
:1023960083160313A700831603174B08831603132C
:1023A600A60083120313650883160313A90083127C
:1023B6000313640883160313A80083120313630828
:1023C60083160313A70083120313620883160313ED
:1023D600A600260883120313E600831603132708B4
:1023E60083120313E70083160313280883120313CB
:1023F600E80083160313290883120313E900173034
:102406000310E90CE80CE70CE60CFF3E031D032A5B
:10241600FF306605EA0000306705EB006A08813E7A
:1024260083160313A400831203136B080318013EDB
:10243600FF3E83160313A5002508803AFF0080306F
:102446007F02031D282A17302402031C2B2A2C2A5C
:102456002D2A6E2B83160313A51B322A332AF12A43
:10246600240AFF00FF3083120313E600FF30E70063
:102476007F30E8000030E900452A690DE90CE80CD8
:10248600E70CE60CFF0B402A690883160313A3002A
:1024960083120313680883160313A200831203131F
:1024A600670883160313A1008312031366088316B5
:1024B6000313A0002008260583120313E6008316E3
:1024C60003132108270583120313E700831603135A
:1024D6002208280583120313E80083160313230832
:1024E600290583120313E900690868046704660472
:1024F600031D7E2A7F2A802A2C2A83160313260888
:1025060083120313E60083160313270883120313AB
:10251600E70083160313280883120313E8008316C3
:102526000313290883120313E9001F300310E90C73
:10253600E80CE70CE60CFF3E031D992A69086804BF
:10254600670466040319A82AA92AC22A8316031354
:102556002008A607210803110318013E0319B42A0F
:10256600A707220803110318013E0319BB2AA8076F
:10257600230803110318013E0319C22AA90783166B
:102586000313200983120313E6008316031321099C
:1025960083120313E700831603132209831203131E
:1025A600E80083160313230983120313E900660860
:1025B60083160313A60583120313670883160313F2
:1025C600A70583120313680883160313A80583124D
:1025D6000313690883160313A905562B26088312CD
:1025E6000313E60083160313270883120313E70079
:1025F60083160313280883120313E80083160313B4
:10260600290883120313E9001F300310E90CE80CB4
:10261600E70CE60CFF3E031D082B690868046704F7
:102626006604031D172B182B232B00308316031368
:10263600A9000030A8000030A7000030A600562BE5
:1026460083160313260883120313E6008316031367
:10265600270883120313E70083160313280883123F
:102666000313E80083160313290883120313E900F2
:1026760001300310E60DE70DE80DE90DFF3E031DE1
:102686003C2B690868046704660403194B2B4C2B22
:10269600562BBF3083160313A9008030A8000030E4
:1026A600A7000030A600831603132908831203131C
:1026B600E50083160313280883120313E400831628
:1026C6000313270883120313E30083160313260854
:1026D60083120313E20008000A168A155E250A16FD
:1026E6008A110A168A1566230A168A110A168A1587
:1026F6004E240A168A110A168A157A230A168A1190
:102706000A168A1557230A168A110A168A156F237E
:102716000A168A1183120313210883160317C400AD
:1027260083120313200883160317C3004430831251
:102736000313CB007F30CA00C030C9000030C80088
:102746004030B100A030B0000030AF000030AE0025
:1027560083160317430883120313A0008316031777
:10276600440883120313A100A201A30100300A1634
:102776008A1106210A168A11831203132308B5004B
:102786002208B4002108B3002008B2000A128A15F4
:10279600BE240A168A11831203133108CF003008AB
:1027A600CE002F08CD002E08CC000A128A11002672
:1027B6000A168A11831203134B0883160317C800DF
:1027C600831203134A0883160317C70083120313E1
:1027D600490883160317C600831203134808831695
:1027E6000317C500480883120313B50083160317A1
:1027F600470883120313B40083160317460883128F
:102806000313B30083160317450883120313B2009C
:102816004230B100E030B0000030AF000030AE0012
:102826000A128A15BE240A168A1183120313310866
:10283600CF003008CE002F08CD002E08CC00403047
:10284600CB00A030CA000030C9000030C8000A1210
:102856008A1100260A168A11831203134B08E50013
:102866004A08E4004908E3004808E2000A168A1507
:102876005D260A168A118312031362086D3E8316BB
:102886000317C9008312031363080318013E003EB1
:1028960083160317CA00C23083120313E500B4304F
:1028A600E4000030E3000030E2004230CB00E030CC
:1028B600CA000030C9000030C8004330B1003430CF
:1028C600B0000030AF000030AE0083160317490891
:1028D600933E83120313A000831603174A080318B6
:1028E600013EFF3E83120313A100A201A3010030A3
:1028F6000A168A1106210A168A118312031323085F
:10290600B5002208B4002108B3002008B2000A125C
:102916008A15BE240A168A11831203133108CF00C2
:102926003008CE002F08CD002E08CC000A128A11DE
:1029360000260A168A11831203134B08E9004A0877
:10294600E8004908E7004808E6000A168A112E251D
:102956000A168A1183120313650883160317C20029
:1029660083120313640883160317C100831203132B
:10297600630883160317C0008312031362088316C5
:102986000317BF004A0883120313A1008316031717
:10299600490883120313A0000A168A152D250A1664
:1029A6008A1180300A168A15CB240A168A11AF308E
:1029B600831603179A0001309B0048089F004708BA
:1029C6009E0046089D0045089C000A168A150224AA
:1029D6000A168A11AF3083120313A3001030A40025
:1029E6000A168A15A9230A168A11C0300A168A15EC
:1029F600CB240A168A11AF30831603179A000D30BE
:102A06009B0042089F0041089E0040089D003F0829
:102A16009C000A168A1502240A168A11AF30831200
:102A26000313A3001030A4000A168A15A9230A1658
:102A36008A11033083160317AE008A30AD00553075
:102A4600AC00AC0B242DAD0B242DAE0B242D7E2B10
:102A56000A128A110C28831203136508EA008030D3
:102A6600EA05650883160313A000200783120313E3
:102A7600EC00E41F3F2D402D412D6C146C0803190A
:102A8600452D462D562D6C0A031D4A2D4B2D532DD3
:102A96000030E5000030E4000030E3000030E200E2
:102AA600E417E5015E2D0030E5000030E40000305B
:102AB600E3000030E2006908EB008030EB056B08AC
:102AC6006A060319672D682D692D6A17690883162A
:102AD6000313A000200783120313EB00E81F742DD5
:102AE600752D762D6B146B0803197A2D7B2D8B2D86
:102AF6006B0A031D7F2D802D882D0030E9000030E4
:102B0600E8000030E7000030E600E817E901932D01
:102B16000030E9000030E8000030E7000030E60051
:102B26006C086B020318982D992DBD2D6A1F9C2DDC
:102B36009D2D9F2D8030EA066C08ED006B08EC0099
:102B46006D08EB006208ED006608E2006D08E6001D
:102B56006308ED006708E3006D08E7006408ED0010
:102B66006808E4006D08E8006508ED006908E500FE
:102B76006D08E900ED016B0883160313A000A1019F
:102B86002108A300831203136C0883160313200283
:102B9600A200031CA3032308803AFF0080307F02B3
:102BA600031DD72D1A302202031CDA2DDB2D1C2E15
:102BB600831203136508640463046204031DE42D91
:102BC600E62D0130E72D0030ED000030E500003045
:102BD600E4000030E3000030E2006B08EC00242E35
:102BE6006D1CF62DF72D022E6D0883160313A0001B
:102BF6000310200C013883120313ED00042E03107A
:102C0600ED0C621C072E082E092EED1701308316D7
:102C16000313A00083120313650DE50CE40CE30C0B
:102C2600E20C83160313A00B0D2E0130831203133F
:102C3600EC07831203136B086C02031C232E242E4D
:102C4600F32D6A1B272E282E7B2E6C08031D2C2E97
:102C56002D2E362E0030E5000030E4000030E30073
:102C66000030E200FF2F6608E20767080311031829
:102C7600013E03193F2EE307680803110318013EBE
:102C86000319462EE407690803110318013E0319C8
:102C96004D2EE507651C502E512E6B2F6D1C542EA4
:102CA600552E602E6D0883160313A0000310200C0A
:102CB600013883120313ED00622E0310ED0C621C23
:102CC600652E662E672EED17013083160313A000BE
:102CD60083120313650DE50CE40CE30CE20C83167A
:102CE6000313A00B6B2E013083120313EC076B2F1B
:102CF6006508803AFF006908803A7F02031D8D2E21
:102D060068086402031D8D2E67086302031D8D2E5D
:102D1600660862020318902E912E1C2FFF30831630
:102D26000313A000FF30A100FF30A200FF30A30074
:102D360083120313660883160313A4008312031376
:102D4600670883160313A500831203136808831606
:102D56000313A60083120313690883160313A7003F
:102D660083120313620883160313A4028312031348
:102D76006308031C630FC02EC32E83160313A5021C
:102D8600831203136408031C640FCA2ECD2E831608
:102D96000313A602831203136508031C650FD42EC2
:102DA600D72E83160313A702831203138316031366
:102DB6002408A00725080318250FE22EE32EA107F5
:102DC60026080318260FE82EE92EA207270803185F
:102DD600270AA307230883120313E50083160313A8
:102DE600220883120313E4008316031321088312B7
:102DF6000313E30083160313200883120313E20070
:102E06008030EA066D03FF3AED006D08031D0C2FB6
:102E16000D2F2A2F0130E207003003180130E30797
:102E2600003003180130E407003003180130E507CD
:102E36002A2F6608E2026708031C670FE302680888
:102E4600031C680FE4026908031C690FE5026508A4
:102E5600640463046204031D312F322F672F6D084B
:102E6600031D362F372F672F0030E5000030E400B2
:102E76000030E3000030E200FF2F01308316031319
:102E8600A000031083120313E20DE30DE40DE50D1C
:102E960083160313A00B442F83120313ED1F542F25
:102EA600552F562F62146D1C592F5A2F5E2F03145F
:102EB6006D0DED00602F0310ED0D6C080319642FE6
:102EC600652F672F0130EC02E41F6A2F6B2F402F0E
:102ED600EB01ED1F6F2F702F7E2F6D087F390319C1
:102EE600752F762F792F0130EB007E2F621C7C2FF9
:102EF6007D2F7E2F762F6B080319822F832FD12FDC
:102F06000130E207003003180130E30700300318F0
:102F16000130E407003003180130E507651C942FE3
:102F2600952FD12F620883160313A0008312031373
:102F3600630883160313A100831203136408831620
:102F46000313A20083120313650883160313A30059
:102F56000130A400230DA30CA20CA10CA00CA40B01
:102F6600AD2F230883120313E500831603132208EB
:102F760083120313E4008316031321088312031339
:102F8600E30083160313200883120313E2006C0A7E
:102F96000319CE2FCF2FD12F0130EC076C0A03195E
:102FA600D52FD62FDB2F6C08031DDA2FDB2FE92F49
:102FB6000030E5000030E4000030E3000030E200BD
:102FC6006C08031DE72FE82FE92FEA016C1CEC2F94
:102FD600ED2FEF2FE417F12F7F30E4056C088316F1
:102FE6000313A0000310200C83120313E500EA1F4D
:102FF600FD2FFE2FFF2FE517080018308A00040862
:10300600840A8207003456346F346C3474343A348C
:10301600203425342E343234663456340034413468
:103026006E3467346C3465343A34203425342E34A7
:1030360031346634003469346E34663400346E34A8
:0630460061346E34003419
:1036AE00831203131F195C2B5D2B572B080064002C
:1036BE008001840A04060319003404065F2B41308E
:1036CE00831203139F008030831603139F0008009C
:1036DE00831203131E08A100831603131E08831200
:1036EE000313A0000800023083120313A000A00BE6
:1036FE007E2B0000831203131F1508008312031381
:10370E00230822042104200403198E2B8F2B912BC6
:10371E008030A306080083120313A31B972B982B4C
:10372E00992BA82B2009A0002109A1002209A20093
:10373E002309A300A00A0319A10A0319A20A031957
:10374E00A30A080083120313A601BD2B2608230724
:10375E00A50025088400831700080A168A15FC2484
:10376E000A168A15013083120313A60724082602AF
:10377E00031CC22BC32BAD2B08008312031320088E
:10378E00A2000130A107FF30210784000A168A1516
:10379E0000200A168A15FF002208A20A84007F085C
:1037AE00831780000008031DDD2BDE2BC82B0800BD
:1037BE00831203132108A6002008A500F32B260868
:1037CE00840083170008A4000130A6072508840092
:1037DE00240880000130A5070130A2020030031C2E
:1037EE00A303A302220A031D002C230A031D002C8F
:1037FE00012CE62B08009C3083160317A0001A0834
:10380E00A1000130A200A301A401AA01AB01A130C5
:10381E009600013097001B089800A03099000A12FC
:10382E008A11CA270A168A158316031723081A0740
:10383E0083160313EC006C088400831780010800C4
:10384E0083120313A401A501201C2E2C2F2C352C22
:10385E002208A4070318A50A2308A50701300310A0
:10386E00A20DA30DFF3E031D362C01300310A10C3B
:10387E00A00CFF3E031D3D2C20082104031D482CE7
:10388E00492C2B2C2508A1002408A00008000A169C
:10389E008A1103200A168A15A530F1000030F200B5
:1038AE00F001013083120313A000700A602C031084
:1038BE00A00DFF3E031D5E2C2008FF3A8316031356
:1038CE008905013083120313A000700A702C0310B7
:1038DE00A00DFF3E031D6E2C2008FF3A890508003F
:1038EE0083120313A800A401A5012008A200A301BE
:1038FE002208A6002308A700281C862C872C8D2CB6
:10390E002608A4070318A50A2708A50701300310E7
:10391E00A60DA70DFF3E031D8E2C0310A80C280824
:10392E00031D9A2C9B2C832C2508A1002408A00093
:10393E00080083120313B301B401BD2C3208B0008A
:10394E00B1013008A0003108A1002E08A2002F08F6
:10395E00A3000A168A1560270A168A1501308312EB
:10396E000313B3070318B40A0030B40733082D0746
:10397E00B0003008840083170008B2003208031D1F
:10398E00C92CCA2CA52C080083120313A200071001
:10399E0087102208F03988000715033083120313AD
:1039AE00A1009730A000A00BDA2CA10BDA2C831209
:1039BE00031307112208A00003300310A00DFF3ED1
:1039CE00031DE42C0310200DF03988000715033079
:1039DE0083120313A1009730A000A00BF42CA10BAF
:1039EE00F42C831203130711080083120313A20091
:1039FE00071487102208F039880007150330831248
:103A0E000313A1009730A000A00B0B2DA10B0B2DC3
:103A1E008312031307112208A00003300310A00D18
:103A2E00FF3E031D152D0310200DF03988000715DC
:103A3E00033083120313A1009730A000A00B252D95
:103A4E00A10B252D831203130711080083120313F4
:103A5E002108803AFF0080307F02031D382D6D3023
:103A6E00200203183B2D3C2D422D6D308312031383
:103A7E00A0000030A100831203132108803AFF003A
:103A8E0080307F02031D4D2DDE302002031C502D91
:103A9E00512D572DDD3083120313A0000030A100ED
:103AAE00831203132108F2002008F1000800831688
:103ABE0003130710871007110812881208138813B2
:103ACE0002300A168A15CB240A168A1528300A16D1
:103ADE008A15CB240A168A1506300A168A15CB24A7
:103AEE000A168A150C300A168A15CB240A168A1560
:103AFE0001300A168A15CB240A168A150330831252
:103B0E000313A4009730A300A30B8B2DA40B8B2DB6
:103B1E00080083120313B91F952D962D982DB80109
:103B2E00B901BB01BC01B22D203083120313A000DA
:103B3E000030A1003508A2003608A3000A168A1527
:103B4E0060270A168A15013083120313BB07031868
:103B5E00BC0A0030BC073C08803ABA003908803AEB
:103B6E003A02031DBC2D38083B02031CBF2DC02D8D
:103B7E009B2D831203133708AD003508AE003608AF
:103B8E00AF000A168A15A0240A168A150800831299
:103B9E0003130C1CD32DD42D062E0C100130F50062
:103BAE00700ADB2D0310F50DFF3E031DD92D750890
:103BBE008904F801F901EA2D00000130F807031815
:103BCE00F90A0030F90772087902031DF02D710809
:103BDE007802031CF32DF42DE32D0130F500700A4D
:103BEE00FA2D0310F50DFF3E031DF82D7508FF3A53
:103BFE0083120313890513308F0088308E007708E7
:103C0E008A00760E8300FE0E7E0E090000308312AF
:103C1E0003132005A80000302105A90080302205DD
:103C2E00AA007F302305AB002B082A0429042804A0
:103C3E00031D222E232E2B2E0030A3000030A200B7
:103C4E000030A1000030A00000302405A800003094
:103C5E002505A90080302605AA007F302705AB0078
:103C6E002B082A0429042804031D3E2E3F2E472E1E
:103C7E000030A7000030A6000030A5000030A400E0
:103C8E0027082306031D552E26082206031D552E32
:103C9E0025082106031D552E240820060319582E2B
:103CAE00592E5B2E03105C2E031408000310831292
:103CBE000313640D650DEB006B08031D672E682E54
:103CCE00712E0030E5000030E4000030E3000030DB
:103CDE00E200D22E6208E6006308E7006408E800FE
:103CEE006508E9001F300310E90CE80CE70CE60C40
:103CFE00FF3E031D7A2E6608EA00E417FF30E20548
:103D0E00FF30E305FF30E4050030E5059630EB02A9
:103D1E00EB1F922E932EAB2E6B08803A973E031814
:103D2E00992E9A2E9B2E682E01300310E50CE40C72
:103D3E00E30CE20CFF3E031D9C2E0130EB07031D2E
:103D4E00A92EAA2E9B2EC22E20306B02031CB02E43
:103D5E00B12EBD2E682E0130E6000310E20DE30DEC
:103D6E00E40DE50DE60BB42E0130EB026B08031DDE
:103D7E00C12EC22EB22E6A080319C62EC72ED22EFF
:103D8E00E209E309E409E509E20A0319E30A031962
:103D9E00E40A0319E50A0800831603175208831272
:103DAE000313AF0083160317510883120313AE00DB
:103DBE0083160317500883120313AD0083160317DF
:103DCE004F0883120313AC002308AF002208AE0085
:103DDE002108AD002008AC002C08A4002D08A50079
:103DEE002E08A6002F08A70017300310A70CA60C4C
:103DFE00A50CA40CFF3E031DFC2EFF302405AA00CB
:103E0E0000302505AB002A082B04031D0F2F102FA1
:103E1E00332F2C08A4002D08A5002E08A6002F086D
:103E2E00A70001300310A40DA50DA60DA70DFF3E92
:103E3E00031D192F2708260425042404031D282FEB
:103E4E00292F2E2F0230A0000030A1005F2F03304B
:103E5E00A0000030A1005F2F2A0A2B04031D382F6B
:103E6E00392F5B2F2C08A4002D08A5002E08A600C4
:103E7E002F08A70009300310A40DA50DA60DA70D40
:103E8E00FF3E031D422F2708260425042404031990
:103E9E00512F532F0130542F0030A800A9012808AC
:103EAE00A0002908A1005F2F0430A0000030A1005F
:103EBE00080083120313220823040319672F682FA7
:103ECE006E2F22082304031D6D2F6E2F752F2008D1
:103EDE000A128A11FD270A168A15FF2F2208093E9B
:103EEE00A40023080318013E003EA5002408840008
:103EFE008317251C83130008A600840A0008A70058
:103F0E002608270403198C2F8D2FBF2F2208093E58
:103F1E00A40023080318013E003EA50024088400D7
:103F2E008317251C83130008A600840A0008A70027
:103F3E002208023EA80023080318013E003EA900F5
:103F4E00280884008317291C83130008AA00840AFA
:103F5E000008AB002B08803AAC002708803A2C02F0
:103F6E00031DBB2F26082A020318BE2FBF2FFF2FBB
:103F7E0083120313220884008317231C8313000863
:103F8E00A400840A0008A5002208023EA600230809
:103F9E000318013E003EA700260884008317271C45
:103FAE00831300082407A9002508A8000318A80AEF
:103FBE00801FE22FA803831203132808AA002908E2
:103FCE00840083172A1C8313200880002208023ED7
:103FDE00A40023080318013E003EA5002408840017
:103FEE008317251C831301308007840A0318800A67
:023FFE000800B9
:02400E00793FF8
:00000001FF
