:100000000A128A11FC2F00308A000408840A820731
:100010000034203420342034203420345434483404
:1000200049344E344734533420342034203420347F
:1000300020340034203420345434483445342034BF
:1000400045344D34423445344434443445344434E6
:100050002034203400342A342A34203420345334D9
:1000600055344234533443344934423445342034D3
:100070002A342A3400342A342A34203420342034D8
:100080004C3449344B3445342034203420342A3421
:040090002A340034DA
:100E080001300A128A1114270A128A110A30F300D3
:100E1800BC30F200F20B0E2FF30B0E2F000008006F
:100E2800F100831203130710710886008714A63097
:100E3800F000F00B1D2F0000831203138710A6305B
:100E4800F000F00B252F00000800F10083120313B7
:100E58000714710886008714A630F000F00B322FB3
:100E68000000831203138710A630F000F00B3A2F0E
:100E7800000008004D2F720884000A128A1103200E
:100E88000A128A110A128A1129270A128A110130B4
:100E9800F207720884000A128A1103200A128A11C2
:100EA800003A031D582F592F3F2F0800F2008030B9
:100EB8007202031C602F612F672FA9307202031C76
:100EC800662F672F732FC0307202031C6C2F6D2F93
:100ED800792FE93072020318722F732F792F720855
:100EE8000A128A1114270A128A110800831603139A
:100EF80087100710860183120313871007108601D5
:100F08002130F5007630F400F40B882FF50B882F8C
:100F1800000038300A128A1114270A128A110F3079
:100F28000A128A1114270A128A1106300A128A1123
:100F380014270A128A1101300A128A1114270A1278
:100F48008A1180300A128A115A270A128A1112301D
:100F5800F2000A128A113E270A128A11C0300A12B8
:100F68008A115A270A128A110130F2000A128A11CC
:100F78003E270A128A111A30F6005E30F5006E30EC
:100F8800F400F40BC52FF50BC52FF60BC52F000089
:100F98000A128A1104270A128A1180300A128A1149
:100FA8005A270A128A112330F2000A128A113E27A0
:100FB8000A128A11C0300A128A115A270A128A1193
:100FC8003330F2000A128A113E270A128A111A30A7
:100FD800F6005E30F5006E30F400F40BF12FF50BDF
:100FE800F12FF60BF12F0000A52F0A128A11002805
:080FF80083010A128A117A2F0D
:02400E007A3FF7
:00000001FF
