:100000000A128A11FC2F00308A000408840A820731
:1000100000340234063404340C3408340934013416
:10002000033445346E3474346534723420342734E8
:1000300046342734203474346F3420346D346F34B4
:1000400076346534203466346F34723477346134F6
:10005000723464342C34203427344234273420342E
:1000600074346F3420346D346F3476346534203416
:100070006234613463346B347734613472346434A1
:100080002C3420346F3472342034273453342734E2
:10009000203474346F342034733474346F347034D7
:1000A0003A340A340D3400340A340D3449346E3491
:1000B000763461346C3469346434203443346F34BE
:1000C0006D346D3461346E3464342E3420344D34E8
:1000D000613469346E347434613469346E34693433
:1000E0006E34673420344C346134733474342034C7
:1000F000533474346134743465342E340A340D341A
:10010000003453347434653470347034653472346C
:1001100020344D346F3474346F34723420344334AB
:100120006F346E34743472346F346C342034493428
:100130006E3469347434693461346C3469347A34BB
:10014000653464340A340D3400340A340D344D34CB
:100150006F3474346F34723420344D346F347634E9
:1001600069346E34673420344234613463346B3420
:1001700077346134723464340A340D3400340A3410
:100180000D344D346F3474346F34723420344D3444
:100190006F34763469346E346734203446346F34C7
:1001A000723477346134723464340A340D34003478
:1001B0000A340D344D346F3474346F347234203457
:1001C000533474346F3470347034653464340A34A6
:0401D0000D340034B6
:100DCC0000308316031398180130080083120313A4
:100DDC008C1EF12EF22EEC2E1A080800F0000A12CE
:100DEC008A11E6260A128A11003A0319FE2EFF2EEA
:100DFC00F52E700883120313990008008316031351
:100E0C001815333099001812831203139817831690
:100E1C000313071387179816831203131816080069
:100E2C00252F710884000A128A1103200A128A11D4
:100E3C000A128A11F4260A128A110130F10771087C
:100E4C0084000A128A1103200A128A11003A031D27
:100E5C00302F312F172F0800FA0183160313880146
:100E6C00FF308312031388000A128A1104270A1216
:100E7C008A115330F8008312031388017930F10082
:100E8C000A128A1116270A128A110930F1000A1265
:100E9C008A1116270A128A11831203138C1E572FDC
:100EAC00582FA72F0A128A11EC260A128A11F90060
:100EBC00463079060319632F642F6A2F6630790642
:100ECC00031D692F6A2F742FB730F1000A128A1193
:100EDC0016270A128A114630F800A72F42307906DD
:100EEC000319792F7A2F802F62307906031D7F2FFB
:100EFC00802F8A2F9D30F1000A128A1116270A12B0
:100F0C008A114230F800A72F5330790603198F2F1E
:100F1C00902F962F73307906031D952F962FA02FA7
:100F2C00D030F1000A128A1116270A128A11533096
:100F3C00F800A72F4C30F1000A128A1116270A125A
:100F4C008A1146307806031DAC2FAD2FD42F0730F5
:100F5C007A02031CB22FB32FB62FF401F501BD2F6B
:100F6C007A08013EF400003003180130F5007408D3
:100F7C00FA007A08013E84000A128A1103200A1230
:100F8C008A118312031388008230F300DD30F200E3
:100F9C00F20BCE2FF30BCE2FD32F522F42307806DD
:100FAC00031DD92FDA2FEE2F7A08031DDE2FDF2F2A
:100FBC00E42F0730F6000030F700EB2F7A08FF3EE5
:100FCC00F600FF3003180030F7007608FA00BF2F48
:100FDC0053307806031DF32FF42FF82F83120313CD
:100FEC008801522F522F0A128A11002883010A12EB
:040FFC008A11322FF5
:02400E00713F00
:00000001FF
