:100000000A128A11DC2FF401F501701C0828092856
:100010000F287208F4070318F50A7308F507013072
:100020000310F20DF30DFF3E031D102801300310E5
:10003000F10CF00CFF3E031D172870087104031D1E
:100040002228232805287508F1007408F00008000C
:10005000831603133308F3003208F2003108F1006D
:100060003008F0000030F7000030F6000030F500F6
:100070000030F4000A168A1161220A128A11031C48
:100080004228432892283F3083120313D7000030C0
:10009000D6000030D5000030D40083160313330897
:1000A00083120313DB008316031332088312031336
:1000B000DA0083160313310883120313D900831661
:1000C0000313300883120313D8000A128A15B025CF
:1000D0000A128A11831203135708EB005608EA002C
:1000E0005508E9005408E8000A168A11A8250A12E2
:1000F0008A11831203136B0883160313B300831250
:1001000003136A0883160313B200831203136908EA
:1001100083160313B10083120313680883160313B5
:10012000B000E028BF3083120313D7000030D600A0
:100130000030D5000030D400831603133308831237
:100140000313DB0083160313320883120313DA0050
:1001500083160313310883120313D9008316031384
:10016000300883120313D8000A128A15B0250A1228
:100170008A11831203135708EB005608EA0055084A
:10018000E9005408E8000A168A1189240A128A1123
:10019000831203136B0883160313B3008312031334
:1001A0006A0883160313B2008312031369088316C7
:1001B0000313B10083120313680883160313B000FE
:1001C000330883120313EB008316031332088312E0
:1001D0000313EA0083160313310883120313E900A3
:1001E00083160313300883120313E8000A168A15D6
:1001F000DB260A128A11831203136908831603137C
:10020000B10083120313680883160313B0000800BB
:10021000831203133D08C7008030C7053D08C200A4
:100220004207CD00BC1F1529162917294D144D086A
:1002300003191B291C292B294D0A031D20292129BB
:1002400029290030BD000030BC000030BB00003068
:10025000BA00BC1733290030BD000030BC000030AC
:10026000BB000030BA0041088039C7064108C2000F
:100270004207CC00C01F3D293E293F294C144C08A1
:1002800003194329442953294C0A031D48294929A4
:1002900051290030C1000030C0000030BF000030E4
:1002A000BE00C0175B290030C1000030C000003024
:1002B000BF000030BE004C0803195F296029652982
:1002C0004D08031D642965296E290030BD000030EA
:1002D000BC000030BB000030BA00492C3A08F000E6
:1002E00040080A168A154E230A128A1171088312D1
:1002F0000313D3007008D2005208C200C301C40126
:10030000C5014508CB004408CA004308C90042089B
:10031000C8005308C200C301C401C5014508D1008B
:100320004408D0004308CF004208CE003B08F0004C
:100330003F080A168A154E230A128A117108831281
:100340000313D3007008D2005208C200C301C401D5
:10035000C5014208C807430803110318013E0319E9
:10036000B229C907440803110318013E0319B9292A
:10037000CA07450803110318013E0319C029CB071A
:100380005308C200C301C401C5014208CE07430897
:1003900003110318013E0319CE29CF0744080311A6
:1003A0000318013E0319D529D00745080311031886
:1003B000013E0319DC29D1073C08F0003E080A166B
:1003C0008A154E230A128A11710883120313D3006F
:1003D0007008D2005208C200C301C401C50142081E
:1003E000C807430803110318013E0319F829C90778
:1003F000440803110318013E0319FF29CA074508E1
:1004000003110318013E0319062ACB075308C20043
:10041000C301C401C5014208CE07430803110318F4
:10042000013E0319142ACF07440803110318013EA3
:1004300003191B2AD007450803110318013E0319AD
:10044000222AD1070830C2000310C80DC90DCA0DF9
:10045000CB0DC20B242A3B08F0003E080A168A1571
:100460004E230A128A11710883120313D3007008F5
:10047000D2005208C2005308C300C401C50142089B
:10048000C807430803110318013E0319482AC90786
:10049000440803110318013E03194F2ACA074508EF
:1004A00003110318013E0319562ACB073A08F0003E
:1004B0003F080A168A154E230A128A117108831200
:1004C0000313D3007008D2005208C2005308C300BF
:1004D000C401C5014208C807430803110318013EBF
:1004E0000319732AC907440803110318013E0319AD
:1004F0007A2ACA07450803110318013E0319812A05
:10050000CB070830C2000310C80DC90DCA0DCB0DB2
:10051000C20B832A3A08F0003E080A168A154E23B9
:100520000A128A11710883120313D3007008D200D3
:100530005208C2005308C300C401C5014208C807DD
:10054000430803110318013E0319A72AC9074408E9
:1005500003110318013E0319AE2ACA074508031107
:100560000318013E0319B52ACB073B08F0004008E9
:100570000A168A154E230A128A1171088312031370
:10058000D3007008D2005208C2005308C300C4014F
:10059000C5014208CE07430803110318013E0319A1
:1005A000D22ACF07440803110318013E0319D92AA0
:1005B000D007450803110318013E0319E02AD107AB
:1005C0003C08F0003F080A168A154E230A128A11C9
:1005D000710883120313D3007008D2005208C200BE
:1005E0005308C300C401C5014208CE0743080311E4
:1005F0000318013E0319FD2ACF074408031103180D
:10060000013E0319042BD007450803110318013ECE
:1006100003190B2BD1073C08F00040080A168A1575
:100620004E230A128A11710883120313D300700833
:10063000D2005208C2005308C300C401C5010830EB
:100640000310C20DC30DC40DC50DFF3E031D202BAD
:100650004208CE07430803110318013E0319312B4A
:10066000CF07440803110318013E0319382BD007A4
:10067000450803110318013E03193F2BD107480811
:10068000C2004908C3004A08C4004B08C50018301E
:100690000310C50CC40CC30CC20CFF3E031D482B39
:1006A0004208CE07430803110318013E0319592BD2
:1006B000CF07440803110318013E0319602BD0072C
:1006C000450803110318013E0319672BD1070830B1
:1006D000C2000310C80DC90DCA0DCB0DC20B692B8A
:1006E0004D084C07C200C301C30D4208823ED20030
:1006F00043080318013EFF3ED3009B2B0130C2008C
:100700000310CE0DCF0DD00DD10DC20B802BCB1F02
:100710008A2B8B2B8C2B4E140130C2000310C80D7A
:10072000C90DCA0DCB0DC20B8E2BFF30D20703189B
:10073000D30AFF30D307D01F9E2B9F2B7E2BCC01DB
:10074000CB1FA32BA42BC02BFF304805C200FF30CA
:100750004905C300FF304A05C4007F304B05C50082
:1007600045084404430442040319B72BB82BBB2BA0
:100770000130CC00C02B4E1CBE2BBF2BC02BB82B86
:100780004C080319C42BC52BF62B0130CE070030C3
:1007900003180130CF07003003180130D0070030B4
:1007A00003180130D107511CD62BD72BF62B4E083E
:1007B000C2004F08C3005008C4005108C5000130F2
:1007C000C600450DC50CC40CC30CC20CC60BE12BF6
:1007D0004508D1004408D0004308CF004208CE00AD
:1007E0000130D2070318D30A0030D3075308803AE8
:1007F000FF0080307F02031DFF2BFF305202031CDD
:10080000022C032C0E2C7F3083120313D100803076
:10081000D0000030CF000030CE003F2C83120313F5
:100820005308803AFF0080307F02031D192C0130ED
:10083000520203181C2C1D2C292C00308312031388
:10084000D1000030D0000030CF000030CE00C70112
:100850003F2C831203135208CD00FF30CE05FF302A
:10086000CF057F30D0050030D1054D1C382C392CF8
:100870003A2CD0174D08C2000310420CD100470893
:10088000D1045108BD005008BC004F08BB004E0801
:10089000BA00080083160313A8003930A9003030CD
:1008A000AA00573058060430031959065A045B044D
:1008B00003195B2C5C2CD52F423083120313A30049
:1008C000C830A2000030A1000030A000831603133E
:1008D0005B08F3005A08F2005908F1005808F000CC
:1008E00001300A168A1103230A128A11730883122F
:1008F0000313A7007208A6007108A5007008A400E1
:100900000A128A15AA210A128A11831203132308D4
:1009100083160313BA0083120313220883160313EA
:10092000B90083120313210883160313B80083123E
:100930000313200883160313B7003A088312031326
:10094000BD0083160313390883120313BC008316FA
:100950000313380883120313BB00831603133708ED
:1009600083120313BA00831603133A088312031386
:10097000C10083160313390883120313C0008316C2
:100980000313380883120313BF00831603133708B9
:1009900083120313BE000A128A1108210A128A1157
:1009A000831203133D0883160313AE00831203134F
:1009B0003C0883160313AD00831203133B08831610
:1009C0000313AC00831203133A0883160313AB001E
:1009D0003E3083120313BD00CD30BC003530BB0068
:1009E000A830BA00831603133A0883120313C10018
:1009F00083160313390883120313C00083160313ED
:100A0000380883120313BF008316031337088312B9
:100A10000313BE000A128A1108210A128A118312D6
:100A200003133D08D7003C08D6003B08D5003A0820
:100A3000D400BB30BD008030BC00C730BB003B30B1
:100A4000BA00831603132E0883120313C100831602
:100A500003132D0883120313C000831603132C08FD
:100A600083120313BF00831603132B08831203138F
:100A7000BE000A128A1108210A128A118312031376
:100A80003D08DB003C08DA003B08D9003A08D800F2
:100A90000A128A15B0250A128A1183120313570805
:100AA00083160313B200831203135608831603132D
:100AB000B10083120313550883160313B000831289
:100AC0000313540883160313AF00C03083120313BB
:100AD000D7009930D6001930D500CE30D400831617
:100AE0000313320883120313DB0083160313310848
:100AF00083120313DA0083160313300883120313DF
:100B0000D900831603132F0883120313D8000A1287
:100B10008A15B0250A128A11831203135708831607
:100B20000313A70083120313560883160313A600AA
:100B300083120313550883160313A50083120313AE
:100B4000540883160313A400270883120313EB0031
:100B500083160313260883120313EA008316031374
:100B6000250883120313E900831603132408831254
:100B70000313E800831603133A0883120313EF00EC
:100B800083160313390883120313EE00831603132D
:100B9000380883120313ED008316031337088312FA
:100BA0000313EC000A168A1504230A128A11831211
:100BB00003136B0883160313B600831203136A082A
:100BC00083160313B50083120313690883160313F6
:100BD000B40083120313680883160313B3000330B1
:100BE0005C06D93003195D065E045F040319F92D14
:100BF000FA2D142F83160313360883120313C10032
:100C000083160313350883120313C00083160313DE
:100C1000340883120313BF008316031333088312AF
:100C20000313BE003B30BD001B30BC005230BB0084
:100C30000030BA000A128A1108210A128A1183129E
:100C400003133D08DB003C08DA003B08D9003A08F2
:100C5000D8003E30D7004A30D6000930D5000330E6
:100C6000D4000A128A15B0250A128A1183120313BE
:100C7000570883160313AE00831203135608831616
:100C80000313AD0083120313550883160313AC003E
:100C900083120313540883160313AB005F08F30099
:100CA0005E08F2005D08F1005C08F00001300A16F1
:100CB0008A1103230A128A11730883120313A700EF
:100CC0007208A6007108A5007008A4004230A300B5
:100CD000C830A2000030A1000030A0000A128A151E
:100CE000AA210A128A11831203132308DB002208A7
:100CF000DA002108D9002008D800C130D700F03030
:100D0000D6000030D5000030D4000A128A15B02574
:100D10000A128A11831203135708C1005608C00033
:100D20005508BF005408BE00831603132E08831213
:100D30000313BD00831603132D0883120313BC0095
:100D4000831603132C0883120313BB0083160313AB
:100D50002B0883120313BA000A128A1108210A12FF
:100D60008A11831203133D0883160313B200831202
:100D700003133C0883160313B100831203133B08CB
:100D800083160313B000831203133A088316031368
:100D9000AF00320883120313D70083160313310800
:100DA00083120313D6008316031330088312031330
:100DB000D500831603132F0883120313D400831660
:100DC0000313360883120313DB008316031335085D
:100DD00083120313DA0083160313340883120313F8
:100DE000D90083160313330883120313D8000A12A1
:100DF0008A15B0250A128A11831203135708831625
:100E00000313B60083120313560883160313B500A9
:100E100083120313550883160313B40083120313BC
:100E2000540883160313B300423083120313BD002A
:100E3000C830BC000030BB000030BA00831603137A
:100E4000360883120313C100831603133508831277
:100E50000313C00083160313340883120313BF0067
:100E600083160313330883120313BE000A128A1178
:100E700008210A128A11831203133D0883160313F3
:100E8000BA00831203133C0883160313B9008312BC
:100E900003133B0883160313B800831203133A08A5
:100EA00083160313B70028080319572F582FAE2FA6
:100EB0003A0883120313DB008316031339088312E5
:100EC0000313DA0083160313380883120313D900BF
:100ED00083160313370883120313D8004030D7005A
:100EE000A030D6000030D5000030D4000A128A1598
:100EF000B0250A128A11831203135708A700560857
:100F0000A6005508A5005408A4004130A3002030D5
:100F1000A2000030A1000030A0000A128A15AA2108
:100F20000A128A11831203132308EB002208EA0035
:100F30002108E9002008E8000A168A15DB260A12B3
:100F40008A1183120313690883160313AA008312FC
:100F50000313680883160313A900D52F3A088312D8
:100F60000313EB0083160313390883120313EA00FB
:100F700083160313380883120313E900831603133F
:100F8000370883120313E8000A168A15DB260A12B3
:100F90008A1183120313690883160313AA008312AC
:100FA0000313680883160313A900831603132A0882
:100FB000A3002908A20008008313E030FD001A30C6
:100FC000FE001E30FF00D83084000A168A15AA22BF
:100FD0000A128A1183171030840030300A168A15DD
:100FE00016220A128A118313C6308400D8300A16DA
:100FF0008A1516220A128A1183010A128A15742B85
:101000000800F0000A168A1566220A128A1570086E
:101010008312031393008C1D0E280F280B288C11AC
:10102000003083160313111B0130080083160313CD
:10103000BA01BB013930BD003030BE000A168A1536
:101040002F220A128A1580300A128A1501200A12EC
:101050008A15003A03192D282E283A280A168A15CF
:1010600038220A128A15393083160313B40030303F
:10107000B500A92901300A128A1501200A128A1521
:10108000003A03194428452846282E280A168A15AE
:1010900026220A128A1581300A128A1501200A12A4
:1010A0008A15003A03195528562857282E280A165B
:1010B0008A15E5220A128A1583160313B600B701B2
:1010C0003608B8003708B9000A168A1541220A12F4
:1010D0008A150A168A15E5220A128A158316031341
:1010E000B600B7013608BA003708BB000A168A15E1
:1010F0004D220A128A150A168A1538220A128A15F2
:10110000831603133808B700B6013A083604BF0047
:101110003B083704C000C101C201BC30F1000330FC
:101120000A168A153D240A128A15003A031D9928C9
:101130009A28A329831603133C1E9F28A028FC2865
:101140000230B600420DC20CC10CC00CBF0CB60B75
:10115000A2280030F3000030F2000030F1006430CB
:10116000F0004208F7004108F6004008F5003F088B
:10117000F4000A168A1582240A128A157308831647
:101180000313C2007208C1007108C0007008BF00DC
:101190000030F3000030F2000030F1002030F000A9
:1011A0004208F7004108F6004008F5003F08F40047
:1011B0000A168A1567270A128A15730883160313FD
:1011C000C2007208C1007108C0007008BF0078300A
:1011D000BF07EC300318ED30C007FF30031CC10718
:1011E000FF30031CC2074208DF004108DE00400850
:1011F000DD003F08DC0057290430B600420DC20C68
:10120000C10CC00CBF0CB60BFE280030F300003040
:10121000F2000030F1006430F0004208F7004108AD
:10122000F6004008F5003F08F4000A168A158224EB
:101230000A128A15730883160313C2007208C100CC
:101240007108C0007008BF000030F3000030F200E9
:101250000030F1001030F0004208F7004108F600BD
:101260004008F5003F08F4000A168A1567270A129D
:101270008A15730883160313C2007208C10071082F
:10128000C0007008BF00A030BF07F6300318F73069
:10129000C007FF30031CC107FF30031CC207420810
:1012A000DB004108DA004008D9003F08D80041308F
:1012B00083120313A3002030A2000030A1000030ED
:1012C000A000831603134208F3004108F20040080F
:1012D000F1003F08F00001300A168A1103230A12B8
:1012E0008A15730883120313A7007208A6007108F9
:1012F000A5007008A4000A128A15AA210A128A15EC
:1013000083120313230883160313B30083120313FA
:10131000220883160313B2008312031321088316D5
:101320000313B10083120313200883160313B000C4
:101330000A128A1128200A128A158316031331080B
:10134000BE003008BD00831603133E08B5003D08FB
:10135000B4000800831203132708B1008030B105E0
:101360002708A8002807B800A61FB729B829B92957
:10137000381438080319BD29BE29CE29380A031D9F
:10138000C229C329CB290030A7000030A6000030B5
:10139000A5000030A400A617A701D6290030A70099
:1013A0000030A6000030A5000030A40023088039DA
:1013B000B1062308A8002807B900A21FE029E129E7
:1013C000E229391439080319E629E729F729390AE6
:1013D000031DEB29EC29F4290030A3000030A20002
:1013E0000030A1000030A000A217A301FF290030A7
:1013F000A3000030A2000030A1000030A0002308AC
:10140000220421042004031D062A072A1E2A003074
:10141000A7000030A6000030A5000030A4008030F6
:10142000A6047F30A7043108A7042708A3002608D4
:10143000A2002508A1002408A000732B3808031D72
:10144000222A232A2C2A0030A3000030A2000030D8
:10145000A1000030A000732B3808A800A9012908BA
:10146000AB0039082802AA00031CAB032A087F3E00
:10147000B2002B080318013E003EB3002708B0005D
:101480002608AF002508AE002408AD000030A700F4
:101490000030A6000030A5000030A4000030B700E6
:1014A0000030B6000030B5000030B400B901A02A09
:1014B000390803195C2A5D2A7D2A0130A80003102F
:1014C000AD0DAE0DAF0DB00DA80B5F2A0130A80019
:1014D0000310A40DA50DA60DA70DA80B682AB71F14
:1014E000722A732A742A24140130A8000310B40D40
:1014F000B50DB60DB70DA80B762A23083002031DD3
:101500008B2A22082F02031D8B2A21082E02031D7D
:101510008B2A20082D02031C8E2A8F2A9E2A371719
:101520002008AD022108031C210FAE022208031C73
:10153000220FAF022308031C230FB0020130B907AA
:101540001A303902031CA52AA62A582A30082F046B
:101550002E042D040319AD2AAE2ACD2A3414CD2A27
:101560000130A8000310A40DA50DA60DA70DA80B12
:10157000B22AB71FBC2ABD2ABE2A24140130A800F3
:101580000310B40DB50DB60DB70DA80BC02AFF3072
:10159000B2070318B30AFF30B307A61FD02AD12A17
:1015A000B02AB901B71FD52AD62AF22AFF3034054E
:1015B000A800FF303505A900FF303605AA007F30AE
:1015C0003705AB002B082A04290428040319E92A4B
:1015D000EA2AED2A0130B900F22A241CF02AF12A65
:1015E000F22AEA2A39080319F62AF72A282B0130A9
:1015F000A407003003180130A5070030031801309C
:10160000A607003003180130A707271C082B092B59
:10161000282B2408A8002508A9002608AA002708C6
:10162000AB000130AC002B0DAB0CAA0CA90CA80C24
:10163000AC0B132B2B08A7002A08A6002908A5002D
:101640002808A4000130B2070318B30A0030B3071A
:101650003308803AFF0080307F02031D312BFF30BA
:101660003202031C342B352B432BFF308312031320
:10167000B2000030B3000030A7000030A6000030F8
:10168000A5000030A400831203133308803AFF0042
:1016900080307F02031D4E2B013032020318512B84
:1016A000522B5F2B83120313B201B3010030A7004A
:1016B0000030A6000030A5000030A400B101831264
:1016C00003133208B800381C662B672B692BA6174A
:1016D0006B2B7F30A6053808A8000310280CA70044
:1016E0003108A704152A08000A168A1559220A1279
:1016F0008A150A168A1594220A128A154A30F100B0
:101700009130F2000A168A1528230A128A158730AA
:10171000F1009030F2000A168A1528230A128A1561
:10172000F30100300A168A11AF210A128A150A162F
:101730008A1575230A128A15003A031DA02BA12BC6
:10174000B32B0A128A1516200A128A158316031360
:10175000350883160317D100831603133408831644
:101760000317D000C22BCE30F1009030F2000A16E1
:101770008A1528230A128A15393083160317D000D8
:101780003030D100AC30F1009030F2000A168A15EA
:1017900028230A128A15F30100300A168A15CD2271
:1017A0000A128A150A168A1575230A128A15003A32
:1017B000031DDB2BDC2B002C0A128A1516200A12C3
:1017C0008A1583160313350883160317D30083166F
:1017D0000313340883160317D20001300A128A114A
:1017E0004A240A128A158316031323088316031743
:1017F000D50083160313220883160317D400132C75
:101800000F30F1009130F2000A168A1528230A12CF
:101810008A15393083160317D2003030D30039309F
:10182000D4003030D500393050063030031951061D
:1018300003191B2C1C2C752C0A30F0000030F10011
:101840005108F3005008F2000A168A151F250A12E3
:101850008A15710883160317D7007008D6000A305E
:10186000F0000030F1005108F3005008F2000A16B1
:101870008A15C8240A128A157108F7007008F60044
:101880000A168A1583220A128A1577088316031707
:10189000D9007608D800903083120313D10040306D
:1018A000D2000030D3006730D4009130D5008316C9
:1018B0000317570883120313D7008316031756081C
:1018C00083120313D60083160317590883120313D8
:1018D000D90083160317580883120313D8000A1679
:1018E0008A1559260A128A15862C90308312031302
:1018F000D1004030D2000030D3009830D400913075
:10190000D5000A168A1559260A128A159030F10058
:101910000130F2000A168A1528230A128A15393076
:101920008316031752063030031953060319992CF6
:101930009A2CF32C0A30F0000030F1005308F30029
:101940005208F2000A168A151F250A128A15710814
:1019500083160317D7007008D6000A30F000003055
:10196000F1005308F3005208F2000A168A15C82441
:101970000A128A157108F7007008F6000A168A150F
:1019800083220A128A15770883160317D90076086E
:10199000D800903083120313D1004030D2000030C1
:1019A000D3002D30D4009130D5008316031757088B
:1019B00083120313D70083160317560883120313E9
:1019C000D60083160317590883120313D900831610
:1019D0000317580883120313D8000A168A155926CC
:1019E0000A128A15042D903083120313D10040305F
:1019F000D2000030D3008030D4009130D5000A16D8
:101A00008A1559260A128A159030F1000130F20029
:101A10000A168A1528230A128A15393083160317E5
:101A200054063030031955060319172D182D712D42
:101A30000A30F0000030F1005508F3005408F200BD
:101A40000A168A151F250A128A15710883160317AC
:101A5000D7007008D6000A30F0000030F1005508B9
:101A6000F3005408F2000A168A15C8240A128A15CF
:101A70007108F7007008F6000A168A1583220A1208
:101A80008A15770883160317D9007608D800903096
:101A900083120313D1004030D2000030D3006230F3
:101AA000D4009030D5008316031757088312031310
:101AB000D70083160317560883120313D600831624
:101AC0000317590883120313D90083160317580804
:101AD00083120313D8000A168A1559260A128A158A
:101AE000822D903083120313D1004030D200003099
:101AF000D300EF30D4009030D5000A168A1559264D
:101B00000A128A159030F1000130F2000A168A1587
:101B100028230A128A150030F1009030F2000A16CC
:101B20008A1528230A128A153330F1009030F2000A
:101B30000A168A1528230A128A15CB308316031336
:101B4000C500EC30C4008330C300C30BA52DC40B0B
:101B5000A52DC50BA52DAC2D872B0A128A110028A7
:101B6000831203135708E4008030E4055708DC00B3
:101B70005C07E600D61FBD2DBE2DBF2D661466087E
:101B80000319C32DC42DD42D660A031DC82DC92DDC
:101B9000D12D0030D7000030D6000030D500003005
:101BA000D400D617D701DC2D0030D7000030D60086
:101BB0000030D5000030D4005B08E5008030E5053A
:101BC000650864060319E52DE62DE72D64175B080B
:101BD000DC005C07E500DA1FEE2DEF2DF02D65141B
:101BE00065080319F42DF52D052E650A031DF92D41
:101BF000FA2D022E0030DB000030DA000030D90070
:101C00000030D800DA17DB010D2E0030DB00003089
:101C1000DA000030D9000030D800660865020318E9
:101C2000122E132E372E641F162E172E192E8030CB
:101C3000E4066608E7006508E6006708E500540862
:101C4000E7005808D4006708D8005508E70059088D
:101C5000D5006708D9005608E7005A08D60067087B
:101C6000DA005708E7005B08D7006708DB00E701E8
:101C70006508DC00DD015D08DF0066085C02DE004F
:101C8000031CDF035F08803AFF0080307F02031DE2
:101C90004B2E1A305E02031C4E2E4F2E842E8312C2
:101CA00003135708560455045404031D582E5A2E86
:101CB00001305B2E0030E7000030D7000030D60046
:101CC0000030D5000030D4006508E6008C2E671C7B
:101CD0006A2E6B2E722E6708DC0003105C0C013834
:101CE000E700742E0310E70C541C772E782E792E03
:101CF000E7170130DC00570DD70CD60CD50CD40CEF
:101D0000DC0B7B2E0130E6078312031365086602A5
:101D1000031C8B2E8C2E672E641B8F2E902ED72E9D
:101D20006608031D942E952E9E2E0030D70000309D
:101D3000D6000030D5000030D400FF2F5808D4075B
:101D4000590803110318013E0319A72ED5075A0895
:101D500003110318013E0319AE2ED6075B080311C9
:101D60000318013E0319B52ED707571CB82EB92EFC
:101D70008B2F671CBC2EBD2EC42E6708DC00031001
:101D80005C0C0138E700C62E0310E70C541CC92E6A
:101D9000CA2ECB2EE7170130DC00570DD70CD60C1E
:101DA000D50CD40CDC0BCD2E0130E6078B2F570859
:101DB000803AFF005B08803A7F02031DE92E5A0833
:101DC0005602031DE92E59085502031DE92E580835
:101DD00054020318EC2EED2E442FFF30DC00FF30B0
:101DE000DD00FF30DE00FF30DF005808E00059085A
:101DF000E1005A08E2005B08E3005408E0025508DD
:101E0000031C550F042F052FE1025608031C560F23
:101E10000A2F0B2FE2025708031C570F102F112F08
:101E2000E3026008DC0761080318610F182F192FFF
:101E3000DD0762080318620F1E2F1F2FDE076308DD
:101E40000318630ADF075F08D7005E08D6005D0845
:101E5000D5005C08D4008030E4066703FF3AE70051
:101E60006708031D342F352F522F0130D40700305F
:101E700003180130D507003003180130D6070030B1
:101E800003180130D707522F5808D4025908031CF1
:101E9000590FD5025A08031C5A0FD6025B08031CBF
:101EA0005B0FD7025708560455045404031D592FDD
:101EB0005A2F872F6708031D5E2F5F2F872F003053
:101EC000D7000030D6000030D5000030D400FF2FFE
:101ED0000130DC000310D40DD50DD60DD70DDC0B71
:101EE0006A2FE71F742F752F762F5414671C792FD4
:101EF0007A2F7E2F0314670DE700802F0310E70D64
:101F000066080319842F852F872F0130E602D61F1C
:101F10008A2F8B2F682FE501E71F8F2F902F9E2F81
:101F200067087F390319952F962F992F0130E50007
:101F30009E2F541C9C2F9D2F9E2F962F65080319B2
:101F4000A22FA32FD52F0130D40700300318013062
:101F5000D507003003180130D607003003180130D0
:101F6000D707571CB42FB52FD52F5408DC005508C0
:101F7000DD005608DE005708DF000130E0005F0D8D
:101F8000DF0CDE0CDD0CDC0CE00BBF2F5F08D70094
:101F90005E08D6005D08D5005C08D400660A031907
:101FA000D22FD32FD52F0130E607660A0319D92F78
:101FB000DA2FDF2F6608031DDE2FDF2FED2F003015
:101FC000D7000030D6000030D5000030D4006608BD
:101FD000031DEB2FEC2FED2FE401661CF02FF12FEA
:101FE000F32FD617F52F7F30D6056608DC000310D7
:101FF0005C0CD700E41FFD2FFE2FFF2FD717080022
:102000000A340D34573461346934743469346E34AD
:1020100067342034313430342034733465346334DD
:102020006F346E3464347334203466346F347234F5
:10203000203474346834653420346E346534783434
:10204000743420346D3465346134733475347234CF
:1020500065346D3465346E3474342E342E342E343D
:102060000A340D3400340A340D342A342A342A3424
:102070002A342A342A342A342A342A342A342A3470
:102080002A342D342D342D342D342D342D342D344B
:102090002D342D342D342D342D342D342D342D3438
:1020A0002D342D342D342A342A342A342A342A3437
:1020B0002A342A342A342A342A342A342A340A3450
:1020C0000D340034483475346D3469346434693403
:1020D000743479342034283443346F346D3470349C
:1020E00065346E3473346134743465346434293443
:1020F0003A342034253464342E34253430343134A9
:1021000064342034253425340A340D3400345334F7
:10211000743461347234743469346E346734203406
:10212000543465346D3470346534723461347434CD
:10213000753472346534203443346F346E347634FD
:1021400065347234733469346F346E342E342E3403
:102150002E340A340D340034533474346134723400
:10216000743469346E3467342034483475346D34D3
:1021700069346434693474347934203443346F34CA
:102180006E34763465347234733469346F346E343B
:102190002E342E342E340A340D3400345434653445
:1021A0006D3470346534723461347434753472341F
:1021B0006534203443346F346E347634653472348D
:1021C000733469346F346E342034543469346D346C
:1021D00065346F34753474340A340D340034483443
:1021E00075346D346934643469347434793420342A
:1021F000283443346F346D34703465346E34733442
:10220000613474346534643429343A3420344534C8
:10221000723472346F3472340A340D3400344834FA
:1022200075346D34693464346934743479342034E9
:1022300043346F346E3476346534723473346934B5
:102240006F346E342034543469346D3465346F34F3
:10225000753474340A340D340034483475346D34B4
:102260006934643469347434793420342834523411
:102270006134773429343A342034253464342E34AC
:1022800025343034313464342034253425340A3450
:102290000D34003454344834303432342034533420
:1022A00065346E3473346F347234203449346E3490
:1022B00069347434693461346C3469347A34613427
:1022C000743469346F346E340A340D340034543449
:1022D00065346D34703465347234613474347534FB
:1022E000723465343A342034253464342E34253441
:1022F000303431346434203443340A340D340034FF
:10230000483475346D3469346434693474347934E0
:102310002034283452346134773429343A34203428
:102320004534723472346F3472340A340D340034EC
:10233000543465346D3470346534723461347434BB
:102340007534723465343A3420344534723472341E
:0A2350006F3472340A340D34003487
:10235E00F4001130F50074080319B629B729B8290D
:10236E00F51673080319BC29BD29BE29F514750885
:10237E00F10003300A168A15C8230A168A110800BE
:10238E00720873040319CC29CD29D329720873045A
:10239E00031DD229D329DA2970080A128A150020C2
:1023AE000A168A11602A7208093EF400730803188F
:1023BE00013E003EF500740884008317751C8313DC
:1023CE000008F600840A0008F7007608770403195F
:1023DE00F129F229242A7208093EF4007308031821
:1023EE00013E003EF500740884008317751C8313AC
:1023FE000008F600840A0008F7007208023EF80092
:10240E0073080318013E003EF90078088400831714
:10241E00791C83130008FA00840A0008FB007B086D
:10242E00803AFC007708803A7C02031D202A760849
:10243E007A020318232A242A602A7208840083173A
:10244E00731C83130008F400840A0008F500720858
:10245E00023EF60073080318013E003EF7007608B0
:10246E0084008317771C831300087407F90075081E
:10247E00F8000318F80A801F452AF8037808FA00B6
:10248E007908840083177A1C831370088000720801
:10249E00023EF40073080318013E003EF500740876
:1024AE0084008317751C831301308007840A031878
:1024BE00800A080000307005F80000307105F90040
:1024CE0080307205FA007F307305FB007B087A04BA
:1024DE0079047804031D742A752A7D2A0030F300CE
:1024EE000030F2000030F1000030F00000307405D2
:1024FE00F80000307505F90080307605FA007F305F
:10250E007705FB007B087A0479047804031D902A72
:10251E00912A992A0030F7000030F6000030F500BD
:10252E000030F400F31F9C2A9D2AC12A0030F800C7
:10253E000030F9000030FA008030FB007008F8021D
:10254E007108031C710FAC2AAD2AF9027208031C24
:10255E00720FB22AB32AFA027308031C730FB82A39
:10256E00B92AFB027B08F3007A08F2007908F10021
:10257E007808F000F71FC42AC52AE92A0030F800AF
:10258E000030F9000030FA008030FB007408F802C9
:10259E007508031C750FD42AD52AF9027608031C78
:1025AE00760FDA2ADB2AFA027708031C770FE02A65
:1025BE00E12AFB027B08F7007A08F6007908F5009D
:1025CE007808F4008030F3068030F706770873023F
:1025DE00031DFB2A76087202031DFB2A7508710281
:1025EE00031DFB2A740870020318FE2AFF2A012B12
:1025FE000310022B03140800F80078080319082BA7
:10260E00092B1D2BF31F0C2B0D2B1D2B7009FA0004
:10261E007109FB007209FC007309FD00FA0A031927
:10262E00FB0A0319FC0A0319FD0A252B7308FD008A
:10263E007208FC007108FB007008FA00730872043F
:10264E0071047004031D2C2B2D2B362B0030F30040
:10265E000030F2000030F1000030F000B62B963062
:10266E00F900442B0130F90701300310FD0CFC0C6E
:10267E00FB0CFA0CFF3E031D3C2BFE307D05031DAB
:10268E00492B4A2B392B642B0130F9070130FA07FD
:10269E00003003180130FB07003003180130FC072F
:1026AE00003003180130FD0701300310FD0CFC0C47
:1026BE00FB0CFA0CFF3E031D5C2BFF307D05031D4A
:1026CE00692B6A2B4B2B762B0130F9020130F4006B
:1026DE000310FA0DFB0DFC0DFD0DF40B6F2BFC1B07
:1026EE00792B7A2B802B0230790203187F2B802BCB
:1026FE006B2B7918832B842B8C2BFF30FA05FF3034
:10270E00FB057F30FC05FF30FD050310F90C790841
:10271E00F400F501F601F70118300310F40DF50D74
:10272E00F60DF70DFF3E031D942B7408FA04750881
:10273E00FB047608FC047708FD0478080319A82B1F
:10274E00A92BAE2BF31FAC2BAD2BAE2BFD177D089B
:10275E00F3007C08F2007B08F1007A08F000080014
:10276E00013083120313B500B21BBE2BC02B0130F8
:10277E00C12B0030B80083160313510883120313C4
:10278E00B70083160313500883120313B6003808DC
:10279E000319D22BD32BE92BFF30B6070318B70A38
:1027AE00FF30B7073808031DDD2BDE2BE32B2B3054
:1027BE00B3000030B400E72B2D30B3000030B4006E
:1027CE003308B8001F30B9000030BA008312031767
:1027DE00AF01312CFF308312B9070318BA0AFF304C
:1027EE00BA073908103E84000A30F0000030F100BC
:1027FE003208F3003108F2000A168A15C8240A16A8
:10280E008A117108F7007008F6000A168A158322DD
:10281E000A168A117608303E83178000831203133E
:10282E00B501FF30B6070318B70AFF30B7070A30F5
:10283E00F0000030F1003208F3003108F2000A1601
:10284E008A151F250A168A11710883120313B20006
:10285E007008B10003133A08803AFF0080307F02FF
:10286E00031D3B2C01303902031C3E2C3F2C5F2CE8
:10287E008312031331083204031D462C472CF12B0F
:10288E003508031D4B2C4C2CF12B3708803AFF00DA
:10289E0080307F02031D552C01303602031C582C4C
:1028AE00592C5F2C83160313D6185E2C5F2CF12B3C
:1028BE008312031338080319652C662C722CFF3013
:1028CE00B9070318BA0AFF30BA073908103E840058
:1028DE003808831780002F08A8003008A90039088F
:1028EE00103EAA003708AC003608AB000A168A154F
:1028FE0082250A168A11831203132908B0002808AC
:10290E00AF000800831603134D08AF004C08AE004D
:10291E004B08AD004A08AC00831203136B088316F4
:10292E000313AF00831203136A0883160313AE005A
:10293E0083120313690883160313AD008312031366
:10294E00680883160313AC002C08A0002D08A10004
:10295E002E08A2002F08A30017300310A30CA20C00
:10296E00A10CA00CFF3E031DB42CFF302005A400CB
:10297E0000302105A5002408813EAA002508031871
:10298E00013EFF3EAB002B08803AFF0080307F02F5
:10299E00031DD32C17302A02031CD62CD72CD82C6F
:1029AE00A72D83160313AB1BDD2CDE2C4E2D2A0A0E
:1029BE00FF00FF30A000FF30A1007F30A2000030EA
:1029CE00A300EE2C230DA30CA20CA10CA00CFF0B4C
:1029DE00E92C2308A9002208A8002108A700200836
:1029EE00A60026082C05A00027082D05A100280802
:1029FE002E05A20029082F05A30023082204210476
:102A0E002004031D0B2D0C2D0D2DD72C2C08A000F2
:102A1E002D08A1002E08A2002F08A3001F300310BE
:102A2E00A30CA20CA10CA00CFF3E031D162D230817
:102A3E00220421042004031D252D262D3D2D2608BC
:102A4E00AC07270803110318013E03192F2DAD07FC
:102A5E00280803110318013E0319362DAE07290865
:102A6E0003110318013E03193D2DAF072609A000DF
:102A7E002709A1002809A2002909A3002008AC05F6
:102A8E002108AD052208AE052308AF05912D2C08AF
:102A9E00A0002D08A1002E08A2002F08A3001F30B1
:102AAE000310A30CA20CA10CA00CFF3E031D572D6E
:102ABE0023082204210420040319662D672D702D8E
:102ACE008030AF000030AE000030AD000030AC0002
:102ADE00912D2C08A0002D08A1002E08A2002F0871
:102AEE00A30001300310A00DA10DA20DA30DFF3EFA
:102AFE00031D792D23082204210420040319882D97
:102B0E00892D912D3F30AF008030AE000030AD00EA
:102B1E000030AC002F0883120313EB00831603134F
:102B2E002E0883120313EA00831603132D08831253
:102B3E000313E900831603132C0883120313E80012
:102B4E000800831603134908AF004808AE00470873
:102B5E00AD004608AC00831203136B0883160313F3
:102B6E00AF00831203136A0883160313AE00831299
:102B7E000313690883160313AD0083120313680849
:102B8E0083160313AC002C08A0002D08A1002E08FC
:102B9E00A2002F08A30017300310A30CA20CA10C47
:102BAE00A00CFF3E031DD32DFF302005A4000030E6
:102BBE002105A5002408813EAA0025080318013E20
:102BCE00FF3EAB002B08803AFF0080307F02031DD2
:102BDE00F22D17302A02031CF52DF62DF72DC62ED9
:102BEE0083160313AB1BFC2DFD2D6D2E2A0AFF0041
:102BFE00FF30A000FF30A1007F30A2000030A30004
:102C0E000D2E230DA30CA20CA10CA00CFF0B082E55
:102C1E002308A9002208A8002108A7002008A60062
:102C2E0026082C05A00027082D05A10028082E0532
:102C3E00A20029082F05A300230822042104200442
:102C4E00031D2A2E2B2E2C2EF62D2C08A0002D081F
:102C5E00A1002E08A2002F08A3001F300310A30C02
:102C6E00A20CA10CA00CFF3E031D352E230822043E
:102C7E00210420040319442E452E5C2E2608AC0791
:102C8E00270803110318013E03194E2EAD0728081D
:102C9E0003110318013E0319552EAE07290803111F
:102CAE000318013E03195C2EAF072609A000270961
:102CBE00A1002809A2002909A3002008AC052108BB
:102CCE00AD052208AE052308AF05B02E2C08A000D6
:102CDE002D08A1002E08A2002F08A3001F300310FC
:102CEE00A30CA20CA10CA00CFF3E031D762E2308F4
:102CFE00220421042004031D852E862E8F2E0030E3
:102D0E00AF000030AE000030AD000030AC00B02E91
:102D1E002C08A0002D08A1002E08A2002F08A30049
:102D2E0001300310A00DA10DA20DA30DFF3E031D3A
:102D3E00982E23082204210420040319A72EA82E5E
:102D4E00B02EBF30AF008030AE000030AD0000308E
:102D5E00AC002F0883120313EB00831603132E0807
:102D6E0083120313EA00831603132D088312031331
:102D7E00E900831603132C0883120313E8000800DE
:102D8E00831203133D08840083130008BF00840AD6
:102D9E000008C0004008FF003F0884000A168A158C
:102DAE0000200A168A11253A031DDE2EDF2ED42F9F
:102DBE003D088400013083138007840A0318800ABB
:102DCE0083160313D001D1010030D600FF30D2009C
:102DDE00FF30D30083120313C7011B2F8316031377
:102DEE00D614831203133D08840001308313800729
:102DFE00840A0318800A1B2F0130C7001B2F3D08C1
:102E0E00840083130008BF00840A0008C000400835
:102E1E00FF003F0884000A168A1500200A168A1140
:102E2E00303A0319F52E032F470803191F2F202FB1
:102E3E00062F3D08F6003E08F7000A168A15EC2507
:102E4E000A168A11770883160313D1007608D0006C
:102E5E00D11F322F332F392F5614D009D109D00A52
:102E6E000319D10A831203133D088400831300084B
:102E7E00C800840A00088403C9004908FF004808F6
:102E8E0084000A168A1500200A168A11643A03195C
:102E9E00512F522F602F4908FF00480884000A1650
:102EAE008A1500200A168A11693A031D5F2F602FBA
:102EBE00972F3E08840083130008FF00023080071E
:102ECE007F0884000008C300840A0008C400013093
:102EDE00BF003F084807C1004908C0000318C00AD8
:102EEE00BF1BC0034008C2003D088400410880009B
:102EFE004208840A800084033B08AF003C08B000FF
:102F0E004408B2004308B1000A168A11B7230A1604
:102F1E008A11831203133008BC002F08BB00FF2F49
:102F2E003D08840083130008BF00840A0008C00017
:102F3E004008FF003F0884000A168A1500200A1672
:102F4E008A11253A031DAC2FAD2FC92F3D088400E1
:102F5E00013083138007840A0318800A2530F0009D
:102F6E000030F1003B08F2003C08F3000A168A110B
:102F7E00C7210A168A11013083120313BB000030D9
:102F8E00BC00FF2F3D088400013083138007840AA4
:102F9E000318800ABB01BC01FF2F3D088400831378
:102FAE000008BF00840A0008C0004008FF003F0868
:102FBE0084000A168A1500200A168A11C100C20161
:102FCE004108F0004208F1003B08F2003C08F30013
:102FDE000A168A11C7210A168A11831203133D0895
:102FEE008400013083138007840A0318800AC22FDD
:102FFE000800FF1B0A2883137F1883170008840A12
:10300E000319FF0A08007F087F398A000408840A22
:06301E000319FF0A820005
:1034200000308316031398180130080064008001EF
:10343000840A0406031900340406172A5734043496
:10344000003400340334D934003400340A168A15A9
:1034500066220A168A1583160313911408000A16A9
:103460008A1566220A168A1583160313111408009A
:103470000A168A1566220A168A1583160313111571
:1034800008008316031391120A168A1566220A167B
:103490008A15831603131116080083160313911659
:1034A0000A168A1566220A168A1583160313111640
:1034B000080028308312031394008316031391012C
:1034C000940127309300871507160800831603130D
:1034D00014196B2A6C2A662A11081F39031D712AD8
:1034E000722A662A0800F0000A168A1510220A16A7
:1034F0008A15003A03197D2A7E2A742A70088312DD
:10350000031399000800F71B862A872A882A932A22
:103510007609F8007709F900F80A0319F90A78081A
:10352000F6007908F70008008316031318156730B2
:1035300099001812831203139817831603130713A5
:103540008717981683120313181608007E088A003E
:103550007F0882000A168A15A6220A168A1580009C
:10356000840A04087D0603190034FF0A0319FE0AC1
:10357000AA2A7008F200BE2A0130F0077008840001
:1035800083170008031DC52AC62ABC2A72087002C8
:10359000F000F101F01BF1030800F4000130F50028
:1035A00074080319D42AD52AD62AF51673080319E4
:1035B000DA2ADB2ADC2AF5147508F10003300A1632
:1035C0008A15C8230A168A1508000A168A15662263
:1035D0000A168A1583160313911583128C1DF12A7E
:1035E000F22AED2A8C110A168A1566220A168A1505
:1035F000831603131418FD2AFE2A002B0030032B18
:103600008312031313080800803083120313EB06A0
:103610006F08D7006E08D6006D08D5006C08D4007E
:103620006B08DB006A08DA006908D9006808D8006E
:103630000A128A15B0250A168A1583120313570831
:10364000EB005608EA005508E9005408E8000800B5
:103650003D2B7208FF00710884000A168A150020AD
:103660000A168A150A168A1573220A168A15013057
:10367000F1070318F20A0030F207720883120313ED
:10368000FF00710884000A168A1500200A168A15A0
:10369000003A031D4C2B4D2B292B0800F800F40198
:1036A000F5017008F200F3017208F6007308F700E4
:1036B000781C5B2B5C2B622B7608F4070318F50A49
:1036C0007708F50701300310F60DF70DFF3E031DD7
:1036D000632B0310F80C7808031D6F2B702B582BED
:1036E0007508F1007408F0000800F501952B76309C
:1036F000F10000300A168A153D240A168A15003A90
:10370000031D832B842B8A2B7618872B882B8A2BDF
:1037100000309C2B0130F5070630F4003030F30008
:10372000F30B902BF40B902B000065307502031CFB
:103730009A2B9B2B772B0130080083120313A601D1
:10374000A701BA2B2508A300A4012308F000240830
:10375000F1002108F2002208F3000A168A11C7219D
:103760000A168A15013083120313A6070318A70A45
:103770000030A70726082007A3002308840083172A
:103780000008A5002508031DC62BC72BA22B080087
:10379000F2000A168A152F220A168A1580300A129C
:1037A0008A1501200A168A15003A0319D82BD92B3D
:1037B000DB2B0130F92B72080A128A1501200A1638
:1037C0008A15003A0319E52BE62BE72BD92B710854
:1037D0000A128A1501200A168A15003A0319F12BDC
:1037E000F22BF32BD92B0A168A1538220A168A15C2
:1037F00000300800831203134C08CF004D08D0009E
:1038000083160313CE01CF01202C4A08BB004B08BE
:10381000BC004F30BD004E08BE000A168A11C726F4
:103820000A168A15831203133B0883160313CE0767
:103830000318CF0A831203133C0883160313CF0720
:10384000831203135008FF004F0884000A168A15DC
:1038500000200A168A15003A031D2F2C302C052C47
:10386000831603134F0883120313CB00831603132D
:103870004E0883120313CA000800F2000A168A15C4
:103880002F220A168A1580300A128A1501200A167C
:103890008A15003A03194D2C4E2C502C0130812CE6
:1038A00072080A128A1501200A168A15003A0319AD
:1038B0005A2C5B2C5C2C4E2C0A168A1526220A16D2
:1038C0008A1581300A128A1501200A168A15003AD3
:1038D00003196B2C6C2C6D2C4E2C710884000A166D
:1038E0008A15E5220A168A15831380000A168A159E
:1038F0004D220A168A150A168A1538220A168A15C2
:10390000003008000030FC000030FB000030FA00FE
:103910000030F900701C8D2C8E2CA52C7408F90732
:10392000750803110318013E0319972CFA0776084E
:1039300003110318013E03199E2CFB07770803119E
:103940000318013E0319A52CFC070130F8000310F1
:10395000F40DF50DF60DF70DF80BA72C0130031043
:10396000F30CF20CF10CF00CFF3E031DAF2C7308AE
:10397000720471047004031DBE2CBF2C8A2C7C08B9
:10398000F3007B08F2007A08F1007908F0000800E3
:10399000F501F31FCC2CCD2CD42CF209F309F20A3B
:1039A0000319F30A0130F500F11FD72CD82CDD2CB8
:1039B000F009F109F00A0319F10A700871040319FA
:1039C000E22CE32C102D0130F400EF2C0130031019
:1039D000F00DF10DFF3E031DE72C0130F407F11F40
:1039E000F22CF32CE62C71087302031DF92C7008DD
:1039F0007202031CFC2CFD2C032D7008F2027108CE
:103A0000031CF303F30201300310F10CF00CFF3E32
:103A1000031D042D0130F402031D0F2D102DF32C76
:103A200075080319142D152D1A2DF209F309F20A40
:103A30000319F30A7308F1007208F0000800F50199
:103A4000F11F232D242D2B2DF009F109F00A031964
:103A5000F10A0130F500F31F2E2D2F2D362DF2091E
:103A6000F309F20A0319F30A0130F506F601F7012A
:103A70007008710403193D2D3E2D732D0130F400A3
:103A80004A2D01300310F00DF10DFF3E031D422DB4
:103A90000130F407F11F4D2D4E2D412D0130031043
:103AA000F60DF70DFF3E031D4F2D71087302031D28
:103AB0005B2D70087202031C5E2D5F2D662D700851
:103AC000F2027108031CF303F302761401300310B1
:103AD000F10CF00CFF3E031D672D0130F402031DB5
:103AE000722D732D4E2D75080319772D782D7D2D90
:103AF000F609F709F60A0319F70A7708F1007608BC
:103B0000F000080083160313561C872D882D952D71
:103B1000831203132A08A0002808A1002908A20084
:103B20000A168A159D230A168A1583120313AC1FE1
:103B30009A2D9B2D9D2DAB01AC01AD01AE01B72D92
:103B40002030F0000030F100831203132808F20047
:103B50002908F3000A168A11C7210A168A150130AE
:103B600083120313AD070318AE0A0030AE072E0808
:103B7000803AFD002C08803A7D02031DC12D2B08E0
:103B80002D02031CC42DC52DA02D8316031356181A
:103B9000CA2DCB2DD82D831203132A08A000280884
:103BA000A1002908A2000A168A159D230A168A1563
:103BB000831203132A08F0000A168A15B9220A167E
:103BC0008A15831203132B087007A8002C0803180A
:103BD0002C0A7107A9000800FB01FC01760884008B
:103BE00083130008F800840A0008F900790883129A
:103BF0000313FF00780884000A168A1500200A16AD
:103C00008A152A3A031D052E062E392E76088400C1
:103C1000013083138007840A0318800A7708840020
:103C20000008FF00023080077F0884000008FB00C6
:103C3000840A0008FC00542E7C08F1007B08F00088
:103C40000A30F2000030F3000A128A1103200A162B
:103C50008A157A087007FB000030031801307107DD
:103C6000FC0076088400013083138007840A03185F
:103C7000800A7608840083130008F800840A00088C
:103C8000F900790883120313FF00780884000A16EC
:103C90008A1500200A168A15D03EFA000A307A02E8
:103CA000031C532E542E1C2E7C08F7007B08F600B4
:103CB00008008030831203135302003003195202AC
:103CC000031C632E642E6B2E4B3083160313D4001B
:103CD0000030D500DA2E5630DF005108E200013006
:103CE000E30000305302023003195202031C792E04
:103CF0007A2E852E5208FF3EEB0053080318013E32
:103D0000FF3EEC00E401E5018D2E0130EB000030B8
:103D1000EC000130E4000030E5006230CA00003001
:103D2000CB005408CC005508CD005F30CE000A16F9
:103D30008A15FA230A168A15831203134B08E10029
:103D40004A08E000520853040319A72EA82EDA2EC1
:103D5000E11BAB2EAC2EDA2E5208FF3EDA005308E0
:103D60000318013EFF3EDB006108803ADC005B087F
:103D7000803A5C02031DBE2E5A086002031CC12E4D
:103D8000C22ECD2E831203135208FF3EDD005308CE
:103D90000318013EFF3EDE00D32E83120313610899
:103DA000DE006008DD005D085107DA005A08840073
:103DB0008317800108000310831203136A0D6B0D33
:103DC00083160313A1002108031DE72EE82EF32E0E
:103DD000003083120313EB000030EA000030E900EA
:103DE0000030E800662F831203136808EC006908AE
:103DF000ED006A08EE006B08EF001F300310EF0CB7
:103E0000EE0CED0CEC0CFF3E031DFE2E6C08831631
:103E10000313A00083120313EA17FF30E805FF30F5
:103E2000E905FF30EA050030EB05963083160313F1
:103E3000A102A11F1C2F1D2F392F2108803A973E68
:103E40000318232F242F252FE82E0130031083126F
:103E50000313EB0CEA0CE90CE80CFF3E031D262FC4
:103E6000013083160313A107031D372F382F252F89
:103E7000542F20302102031C3E2F3F2F4F2FE82EBE
:103E8000013083120313EC000310E80DE90DEA0D75
:103E9000EB0DEC0B442F013083160313A102210814
:103EA000031D532F542F402F20080319582F592F2B
:103EB000662F83120313E809E909EA09EB09E80A06
:103EC0000319E90A0319EA0A0319EB0A0800831225
:103ED0000313A101F31F6D2F6E2F7B2FF009F10942
:103EE000F209F309F00A0319F10A0319F20A031996
:103EF000F30A0130A100F71F7E2F7F2F8C2FF409CA
:103F0000F509F609F709F40A0319F50A0319F60A7F
:103F10000319F70A0130A1060030A5000030A40003
:103F20000030A3000030A200730872047104700412
:103F300003199B2F9C2FE72F0130A000AA2F0130DF
:103F4000F8000310F00DF10DF20DF30DF80BA12F99
:103F50000130A007F31FAD2FAE2F9F2F0130F800C7
:103F60000310A20DA30DA40DA50DF80BB02F73081F
:103F70007702031DC52F72087602031DC52F710835
:103F80007502031DC52F70087402031CC82FC92FAA
:103F9000D82F7008F4027108031C710FF502720823
:103FA000031C720FF6027308031C730FF70222142E
:103FB00001300310F30CF20CF10CF00CFF3E031D6A
:103FC000D92F0130A002031DE62FE72FAE2F2108C5
:103FD0000319EB2FEC2FF72FA209A309A409A509B8
:103FE000A20A0319A30A0319A40A0319A50A25089A
:103FF000F3002408F2002308F1002208F000080072
:00000001FF
