:100000000A128A11D72F403478347D34013403101A
:10001000720D730DF9007908031D0F281028192897
:100020000030F3000030F2000030F1000030F0004A
:100030007A287008F4007108F5007208F600730859
:10004000F7001F300310F70CF60CF50CF40CFF3E14
:10005000031D22287408F800F217FF30F005FF3066
:10006000F105FF30F2050030F3059630F902F91F73
:100070003A283B2853287908803A973E03184128AC
:1000800042284328102801300310F30CF20CF10C25
:10009000F00CFF3E031D44280130F907031D5128D1
:1000A000522843286A2820307902031C58285928EE
:1000B000652810280130F4000310F00DF10DF20D49
:1000C000F30DF40B5C280130F9027908031D69284F
:1000D0006A285A28780803196E286F287A28F009A8
:1000E000F109F209F309F00A0319F10A0319F20AF6
:1000F0000319F30A0800831203133C08C60080307A
:10010000C6053C08BD003D07CD00BB1F88288928D7
:100110008A284D144D0803198E288F289F284D0AD0
:10012000031D932894289C280030BC000030BB009D
:100130000030BA000030B900BB17BC01A72800305E
:10014000BC000030BB000030BA000030B9003808F5
:100150008039C6063808BD003D07CE00B71FB1285C
:10016000B228B3284E144E080319B728B828C82857
:100170004E0A031DBC28BD28C5280030B800003039
:10018000B7000030B6000030B500B717B801D0286E
:100190000030B8000030B7000030B6000030B500C5
:1001A0003808370436043504031DD728D828EF282B
:1001B0000030BC000030BB000030BA000030B90095
:1001C0008030BB047F30BC044608BC043C08B80047
:1001D0003B08B7003A08B6003908B500442A4D0874
:1001E000031DF328F428FD280030B8000030B700C4
:1001F0000030B6000030B500442A4D08BD00BE01F5
:100200003E08C0004E083D02BF00031CC0033F086B
:100210007F3EC70040080318013E003EC8003C086E
:10022000C5003B08C4003A08C3003908C2000030CA
:10023000BC000030BB000030BA000030B900003014
:10024000CC000030CB000030CA000030C900CE0125
:1002500071294E0803192D292E294E290130BD0080
:100260000310C20DC30DC40DC50DBD0B30290130E7
:10027000BD000310B90DBA0DBB0DBC0DBD0B392966
:10028000CC1F43294429452939140130BD000310EE
:10029000C90DCA0DCB0DCC0DBD0B47293808450241
:1002A000031D5C2937084402031D5C2936084302FC
:1002B000031D5C2935084202031C5F2960296F2950
:1002C0004C173508C2023608031C360FC302370824
:1002D000031C370FC4023808031C380FC502013055
:1002E000CE071A304E02031C7629772929294508A2
:1002F00044044304420403197E297F299E2949149A
:100300009E290130BD000310B90DBA0DBB0DBC0D07
:10031000BD0B8329CC1F8D298E298F2939140130DB
:10032000BD000310C90DCA0DCB0DCC0DBD0B91291D
:10033000FF30C7070318C80AFF30C807BB1FA12931
:10034000A2298129CE01CC1FA629A729C329FF30C4
:100350004905BD00FF304A05BE00FF304B05BF0018
:100360007F304C05C00040083F043E043D040319A3
:10037000BA29BB29BE290130CE00C329391CC129A5
:10038000C229C329BB294E080319C729C829F9293D
:100390000130B907003003180130BA0700300318E4
:1003A0000130BB07003003180130BC073C1CD929C1
:1003B000DA29F9293908BD003A08BE003B08BF0018
:1003C0003C08C0000130C100400DC00CBF0CBE0C89
:1003D000BD0CC10BE4294008BC003F08BB003E082F
:1003E000BA003D08B9000130C7070318C80A003039
:1003F000C8074808803AFF0080307F02031D022AA8
:10040000FF304702031C052A062A142AFF308312F4
:100410000313C7000030C8000030BC000030BB0030
:100420000030BA000030B900831203134808803A44
:10043000FF0080307F02031D1F2A0130470203188E
:10044000222A232A302A83120313C701C80100304D
:10045000BC000030BB000030BA000030B900C6015B
:10046000831203134708CD004D1C372A382A3A2A35
:10047000BB173C2A7F30BB054D08BD0003103D0C67
:10048000BC004608BC04E628080083120313520887
:10049000DF008030DF055208D7005707E100D11F89
:1004A000522A532A542A611461080319582A592AD6
:1004B000692A610A031D5D2A5E2A662A0030D2007D
:1004C0000030D1000030D0000030CF00D117D20171
:1004D000712A0030D2000030D1000030D00000304E
:1004E000CF005608E0008030E00560085F06031981
:1004F0007A2A7B2A7C2A5F175608D7005707E00024
:10050000D51F832A842A852A601460080319892A42
:100510008A2A9A2A600A031D8E2A8F2A972A003077
:10052000D6000030D5000030D4000030D300D517FD
:10053000D601A22A0030D6000030D5000030D40009
:100540000030D300610860020318A72AA82ACC2A29
:100550005F1FAB2AAC2AAE2A8030DF066108E200BA
:100560006008E1006208E0004F08E2005308CF0095
:100570006208D3005008E2005408D0006208D4009A
:100580005108E2005508D1006208D5005208E20087
:100590005608D2006208D600E2016008D700D801F0
:1005A0005808DA0061085702D900031CDA035A0818
:1005B000803AFF0080307F02031DE02A1A30590282
:1005C000031CE32AE42A192B831203135208510453
:1005D00050044F04031DED2AEF2A0130F02A0030A9
:1005E000E2000030D2000030D1000030D0000030F6
:1005F000CF006008E100212B621CFF2A002B072B93
:100600006208D7000310570C0138E200092B0310D1
:10061000E20C4F1C0C2B0D2B0E2BE2170130D700D8
:10062000520DD20CD10CD00CCF0CD70B102B0130AB
:10063000E1078312031360086102031C202B212BA6
:10064000FC2A5F1B242B252B6C2B6108031D292BF7
:100650002A2B332B0030D2000030D1000030D000E4
:100660000030CF00942C5308CF075408031103180F
:10067000013E03193C2BD007550803110318013E16
:100680000319432BD107560803110318013E031920
:100690004A2BD207521C4D2B4E2B202C621C512B67
:1006A000522B592B6208D7000310570C0138E20077
:1006B0005B2B0310E20C4F1C5E2B5F2B602BE217B1
:1006C0000130D700520DD20CD10CD00CCF0CD70B6F
:1006D000622B0130E107202C5208803AFF005608B7
:1006E000803A7F02031D7E2B55085102031D7E2B8D
:1006F00054085002031D7E2B53084F020318812B10
:10070000822BD92BFF30D700FF30D800FF30D90023
:10071000FF30DA005308DB005408DC005508DD0028
:100720005608DE004F08DB025008031C500F992BBF
:100730009A2BDC025108031C510F9F2BA02BDD02CA
:100740005208031C520FA52BA62BDE025B08D7070D
:100750005C0803185C0FAD2BAE2BD8075D0803189F
:100760005D0FB32BB42BD9075E0803185E0ADA07B6
:100770005A08D2005908D1005808D0005708CF00B5
:100780008030DF066203FF3AE2006208031DC92BD6
:10079000CA2BE72B0130CF07003003180130D007F8
:1007A000003003180130D107003003180130D207A0
:1007B000E72B5308CF025408031C540FD0025508EE
:1007C000031C550FD1025608031C560FD2025208C3
:1007D000510450044F04031DEE2BEF2B1C2C620818
:1007E000031DF32BF42B1C2C0030D2000030D10061
:1007F0000030D0000030CF00942C0130D70003101F
:10080000CF0DD00DD10DD20DD70BFF2BE21F092C30
:100810000A2C0B2C4F14621C0E2C0F2C132C0314BF
:10082000620DE200152C0310E20D61080319192C6A
:100830001A2C1C2C0130E102D11F1F2C202CFD2B67
:10084000E001E21F242C252C332C62087F39031988
:100850002A2C2B2C2E2C0130E000332C4F1C312C59
:10086000322C332C2B2C60080319372C382C6A2C93
:100870000130CF07003003180130D00700300318D3
:100880000130D107003003180130D207521C492C27
:100890004A2C6A2C4F08D7005008D8005108D900BC
:1008A0005208DA000130DB005A0DDA0CD90CD80CF2
:1008B000D70CDB0B542C5A08D2005908D100580829
:1008C000D0005708CF00610A0319672C682C6A2CE6
:1008D0000130E107610A03196E2C6F2C742C61083A
:1008E000031D732C742C822C0030D2000030D100F8
:1008F0000030D0000030CF006108031D802C812C17
:10090000822CDF01611C852C862C882CD1178A2C27
:100910007F30D1056108D7000310570CD200DF1FCC
:10092000922C932C942CD2170800831203132308C3
:10093000A8008030A8052308F9007907AE00A21F9F
:10094000A22CA32CA42C2E142E080319A82CA92CFD
:10095000B82C2E0A031DAD2CAE2CB62C0030A300F3
:100960000030A2000030A1000030A000A217C02C6F
:100970000030A3000030A2000030A1000030A00031
:1009800027088039A8062708F9007907AD00A61FB7
:10099000CA2CCB2CCC2C2D142D080319D02CD12CE7
:1009A000E02C2D0A031DD52CD62CDE2C0030A70000
:1009B0000030A6000030A5000030A400A617E82CE7
:1009C0000030A7000030A6000030A5000030A400D1
:1009D0002D080319EC2CED2CF22C2E08031DF12C04
:1009E000F22CFB2C0030A3000030A2000030A1004C
:1009F0000030A000D62F2008F00026080A128A1521
:100A000088230A128A11710883120313B400700834
:100A1000B3003308F900FA01FB01FC017C08AC00CB
:100A20007B08AB007A08AA007908A9003408F9000D
:100A3000FA01FB01FC017C08B2007B08B1007A08D6
:100A4000B0007908AF002108F00025080A128A15C5
:100A500088230A128A11710883120313B4007008E4
:100A6000B3003308F900FA01FB01FC017908A9077A
:100A70007A0803110318013E03193F2DAA077B08CA
:100A800003110318013E0319462DAB077C0803111F
:100A90000318013E03194D2DAC073408F900FA0183
:100AA000FB01FC017908AF077A0803110318013E26
:100AB00003195B2DB0077B0803110318013E0319CE
:100AC000622DB1077C0803110318013E0319692D3B
:100AD000B2072208F00024080A128A1588230A1295
:100AE0008A11710883120313B4007008B30033082D
:100AF000F900FA01FB01FC017908A9077A08031142
:100B00000318013E0319852DAA077B08031103185A
:100B1000013E03198C2DAB077C0803110318013E1D
:100B20000319932DAC073408F900FA01FB01FC010D
:100B30007908AF077A0803110318013E0319A12DA4
:100B4000B0077B0803110318013E0319A82DB10754
:100B50007C0803110318013E0319AF2DB2070830BA
:100B6000F9000310A90DAA0DAB0DAC0DF90BB12DB9
:100B70002108F00024080A128A1588230A128A1113
:100B8000710883120313B4007008B3003308F9002E
:100B90003408FA00FB01FC017908A9077A0803115F
:100BA0000318013E0319D52DAA077B08031103186A
:100BB000013E0319DC2DAB077C0803110318013E2D
:100BC0000319E32DAC072008F00025080A128A1546
:100BD00088230A128A11710883120313B400700863
:100BE000B3003308F9003408FA00FB01FC0179086E
:100BF000A9077A0803110318013E0319002EAA075A
:100C00007B0803110318013E0319072EAB077C086C
:100C100003110318013E03190E2EAC070830F9002A
:100C20000310A90DAA0DAB0DAC0DF90B102E200869
:100C3000F00024080A128A1588230A128A11710802
:100C400083120313B4007008B3003308F9003408AA
:100C5000FA00FB01FC017908A9077A0803110318BF
:100C6000013E0319342EAA077B0803110318013E25
:100C700003193B2EAB077C0803110318013E03192F
:100C8000422EAC072108F00026080A128A15882394
:100C90000A128A11710883120313B4007008B3009A
:100CA0003308F9003408FA00FB01FC017908AF07AA
:100CB0007A0803110318013E03195F2EB0077B0861
:100CC00003110318013E0319662EB1077C080311B6
:100CD0000318013E03196D2EB2072208F000250803
:100CE0000A128A1588230A128A11710883120313C3
:100CF000B4007008B3003308F9003408FA00FB01AF
:100D0000FC017908AF077A0803110318013E0319A3
:100D10008A2EB0077B0803110318013E0319912E98
:100D2000B1077C0803110318013E0319982EB2077E
:100D30002208F00026080A128A1588230A128A114E
:100D4000710883120313B4007008B3003308F9006C
:100D50003408FA00FB01FC0108300310F90DFA0D0C
:100D6000FB0DFC0DFF3E031DAD2E7908AF077A0881
:100D700003110318013E0319BE2EB0077B080311AF
:100D80000318013E0319C52EB1077C08031103188F
:100D9000013E0319CC2EB2072908F9002A08FA00EF
:100DA0002B08FB002C08FC0018300310FC0CFB0C7B
:100DB000FA0CF90CFF3E031DD52E7908AF077A080F
:100DC00003110318013E0319E62EB0077B08031137
:100DD0000318013E0319ED2EB1077C080311031817
:100DE000013E0319F42EB2070830F9000310A90DD3
:100DF000AA0DAB0DAC0DF90BF62E2E082D07F90040
:100E0000FA01FA0D7908823EB3007A080318013E10
:100E1000FF3EB400282F0130F9000310AF0DB00DD4
:100E2000B10DB20DF90B0D2FAC1F172F182F192F65
:100E30002F140130F9000310A90DAA0DAB0DAC0D54
:100E4000F90B1B2FFF30B3070318B40AFF30B407A8
:100E5000B11F2B2F2C2F0B2FAD01AC1F302F312F9B
:100E60004D2FFF302905F900FF302A05FA00FF3029
:100E70002B05FB007F302C05FC007C087B047A04EA
:100E800079040319442F452F482F0130AD004D2F11
:100E90002F1C4B2F4C2F4D2F452F2D080319512F51
:100EA000522F832F0130AF07003003180130B007F5
:100EB000003003180130B107003003180130B207C9
:100EC000321C632F642F832F2F08F9003008FA009B
:100ED0003108FB003208FC000130FD007C0DFC0CE9
:100EE000FB0CFA0CF90CFD0B6E2F7C08B2007B0892
:100EF000B1007A08B0007908AF000130B3070318D9
:100F0000B40A0030B4073408803AFF0080307F0212
:100F1000031D8C2FFF303302031C8F2F902F9B2F2C
:100F20007F3083120313B2008030B1000030B00074
:100F30000030AF00CC2F831203133408803AFF0037
:100F400080307F02031DA62F013033020318A92F22
:100F5000AA2FB62F003083120313B2000030B10065
:100F60000030B0000030AF00A801CC2F8312031373
:100F70003308AE00FF30AF05FF30B0057F30B1055C
:100F80000030B2052E1CC52FC62FC72FB1172E0853
:100F9000F9000310790CB2002808B2043208A3004B
:100FA0003108A2003008A1002F08A0000800831615
:100FB00003130A128A1103200A128A11AF000A12BF
:100FC0008A1104200A128A11B0000A128A1105201F
:100FD0000A128A11B1000A128A1106200A128A1115
:100FE000B200831203130A128A15D8220A128A1138
:100FF000EE0083160313B30183010A128A15872CAE
:1015B00040340A128A1518230A128A158316031357
:1015C000111408000A128A1518230A128A158316A4
:1015D0000313111508000A128A1518230A128A1516
:1015E0008316031391140800730883160313B200C3
:1015F0007208B1007108B0007008AF0008008316CF
:10160000031391160A128A1518230A128A158316D3
:101610000313111608002830831203139400831655
:1016200003139101940127309300871507160800D2
:101630008316031314191D2B1E2B182B11081F3989
:10164000031D232B242B182B0800F0000A128A15E7
:1016500018230A128A1570088312031393008C1D35
:10166000322B332B2F2B8C1108008030F1000030EF
:101670000A128A1566230A128A153430F500F130F1
:10168000F400F40B412BF50B412B462B08000A12FA
:101690008A1518230A128A158316031391158312CB
:1016A0008C1D532B542B4F2B8C110A128A15182387
:1016B0000A128A158316031314185F2B602B622BF2
:1016C0000030652B8312031313080800F3000A127D
:1016D0008A15D9220A128A15831203136E08F200A2
:1016E00072070A128A1525230A128A1573080A122C
:1016F0008A1525230A128A1571080A128A152523CC
:101700000A128A150A128A15E2220A128A1508009C
:10171000F800F401F5017008F200F3017208F60018
:101720007308F700781C952B962B9C2B7608F407F2
:101730000318F50A7708F50701300310F60DF70DC9
:10174000FF3E031D9D2B0310F80C7808031DA92BE9
:10175000AA2B922B7508F1007408F0000800F9001C
:101760007908F80001300310F80DFF3E031DB32B7C
:101770000310780D063EFA007408F1007A080A1288
:101780008A1566230A128A157508F1007A08013E47
:101790000A128A1566230A128A157608F1007A0859
:1017A000023E0A128A1566230A128A157708F1008A
:1017B0007A08033E0A128A1566230A128A1508005F
:1017C000F2000A128A15D9220A128A15831203130B
:1017D0006E08F10071070A128A1525230A128A156C
:1017E00072080A128A1525230A128A150A128A1506
:1017F000EB220A128A150314831203136E0D0A12C8
:101800008A1525230A128A150A128A1547230A12F5
:101810008A15F3000A128A15FF220A128A150A1283
:101820008A15E2220A128A1573080800831203132C
:10183000EA006A08EE000A128A150B230A128A15BA
:101840000A128A1535230A128A150130F3007D30F9
:10185000F2007830F1004030F0000A128A15F422CC
:101860000A128A158312031369080319382C392CBC
:10187000402C69080A128A154E240A128A154D2C2A
:101880004430E6007A30E5000030E4000030E30048
:101890000A128A156D260A128A150800F600003011
:1018A0000A128A15E0230A128A15F70077087F3991
:1018B0001038F8007808F10000300A128A15662303
:1018C0000A128A1578084038F10000300A128A1589
:1018D00066230A128A157608F100FE300A128A156C
:1018E00066230A128A151A30F500F830F400F40B5A
:1018F000772CF50B772C00007808EF39A038F10031
:1019000000300A128A1566230A128A1508000A1284
:101910008A150B230A128A1583120313E90140303A
:101920000A128A1516240A128A15423083120313EA
:10193000E6007030E5000030E4000030E3000A12F9
:101940008A156D260A128A15963083160313AB008A
:101950000030AC000030F400F5002C08F7002B0834
:10196000F60033080A128A15AF230A128A150130CD
:1019700083160313AB070318AC0A0030AC07023020
:101980002C02583003192B02031CC72CC82CAA2C7C
:101990000B3083120313ED002630EC005D30EB00BA
:1019A000EB0BD02CEC0BD02CED0BD02C583083163D
:1019B0000313AD000230AE000030F400F5002E0835
:1019C000F7002D08F60033080A128A15AF230A1211
:1019D0008A15013083160313AD020030031CAE03D9
:1019E000AE0200302E02973003192D020318F92C95
:1019F000FA2CDC2C0B3083120313ED002630EC00A4
:101A00005D30EB00EB0B022DEC0B022DED0B022DEC
:101A1000013083160313B30705303302031C112D65
:101A2000122DA42CB301A42C0A128A110028003014
:101A30007005F80000307105F90080307205FA0079
:101A40007F307305FB007B087A0479047804031D5A
:101A50002A2D2B2D332D0030F3000030F200003002
:101A6000F1000030F00000307405F800003075051A
:101A7000F90080307605FA007F307705FB007B089F
:101A80007A0479047804031D462D472D4F2D00302C
:101A9000F7000030F6000030F5000030F400F31FCE
:101AA000522D532D772D0030F8000030F900003012
:101AB000FA008030FB007008F8027108031C710FF7
:101AC000622D632DF9027208031C720F682D692DB7
:101AD000FA027308031C730F6E2D6F2DFB027B0837
:101AE000F3007A08F2007908F1007808F000F71F97
:101AF0007A2D7B2D9F2D0030F8000030F90000304A
:101B0000FA008030FB007408F8027508031C750F9A
:101B10008A2D8B2DF9027608031C760F902D912DBE
:101B2000FA027708031C770F962D972DFB027B088E
:101B3000F7007A08F6007908F5007808F40080309C
:101B4000F3068030F70677087302031DB12D76087F
:101B50007202031DB12D75087102031DB12D7408A9
:101B600070020318B42DB52DB72D0310B82D031432
:101B70000800F80078080319BE2DBF2DD32DF31FE0
:101B8000C22DC32DD32D7009FA007109FB00720913
:101B9000FC007309FD00FA0A0319FB0A0319FC0A89
:101BA0000319FD0ADB2D7308FD007208FC007108A3
:101BB000FB007008FA007308720471047004031DBE
:101BC000E22DE32DEC2D0030F3000030F200003068
:101BD000F1000030F0006C2E9630F900FA2D013043
:101BE000F90701300310FD0CFC0CFB0CFA0CFF3E56
:101BF000031DF22DFE307D05031DFF2D002EEF2D60
:101C00001A2E0130F9070130FA07003003180130AD
:101C1000FB07003003180130FC07003003180130C7
:101C2000FD0701300310FD0CFC0CFB0CFA0CFF3E11
:101C3000031D122EFF307D05031D1F2E202E012EA9
:101C40002C2E0130F9020130F4000310FA0DFB0DC7
:101C5000FC0DFD0DF40B252EFC1B2F2E302E362EE9
:101C6000023079020318352E362E212E7918392E9E
:101C70003A2E422EFF30FA05FF30FB057F30FC057F
:101C8000FF30FD050310F90C7908F400F501F601A9
:101C9000F70118300310F40DF50DF60DF70DFF3EAA
:101CA000031D4A2E7408FA047508FB047608FC0428
:101CB0007708FD04780803195E2E5F2E642EF31F4B
:101CC000622E632E642EFD177D08F3007C08F2005F
:101CD0007B08F1007A08F0000800831203136608FD
:101CE000F3006508F2006408F1006308F0003F307B
:101CF000F7008030F6000030F5000030F4000A12E2
:101D00008A1517250A128A150318872E882E922EF7
:101D10003F3083120313E6008030E5000030E4001A
:101D20000030E3004530F3005A30F200C030F100DB
:101D30000030F000831203136608F7006508F60010
:101D40006408F5006308F4000A128A1517250A12C0
:101D50008A150318AC2EAD2EB72E4530831203130F
:101D6000E6005A30E500C030E4000030E3003F30C8
:101D700083120313D2000030D1000030D0000030B5
:101D8000CF006608A7006508A6006408A5006308E0
:101D9000A4004530A3008030A2000030A100003034
:101DA000A0000A128A1195240A128A1583120313BD
:101DB0002308B8002208B7002108B6002008B500A3
:101DC000831603133208F3003108F2003008F100E3
:101DD0002F08F00000300A128A15B9250A128A1558
:101DE000730883120313BC007208BB007108BA00A9
:101DF0007008B9000A128A117B200A128A15831210
:101E000003133808D6003708D5003608D400350843
:101E1000D3000A128A1145220A128A15831203136B
:101E2000520883160313A300831203135108831669
:101E30000313A20083120313500883160313A10097
:101E4000831203134F0883160313A000BF308312BD
:101E50000313D2008030D1000030D0000030CF001A
:101E600083160313230883120313D6008316031368
:101E7000220883120313D50083160313210883124B
:101E80000313D40083160313200883120313D30013
:101E90000A128A1145220A128A1583120313520864
:101EA00083160313AA008312031351088316031326
:101EB000A90083120313500883160313A80083128A
:101EC00003134F0883160313A7002A08F3002908F9
:101ED000F2002808F1002708F0004030F7004030F9
:101EE000F6000030F5000030F4000A128A151725BC
:101EF0000A128A1503187D2F7E2F882F40308316F3
:101F00000313AA004030A9000030A8000030A70049
:101F10004330F3007F30F2000030F1000030F00079
:101F2000831603132A08F7002908F6002808F5008D
:101F30002708F4000A128A1517250A128A150318B1
:101F4000A22FA32FAD2F433083160313AA007F3097
:101F5000A9000030A8000030A700831603132A0848
:101F6000F3002908F2002808F1002708F0000A12FF
:101F70008A1107200A128A15700883160313A40019
:101F800000300A128A15E0230A128A1583160313F9
:101F9000A60026087F391038A5002508F10000307A
:101FA0000A128A1566230A128A1583160313240857
:101FB000F100FE300A128A1566230A128A1583166A
:101FC00003132608F10000300A128A1566230A124C
:101FD0008A151A3083120313E800F730E700E70B85
:101FE000EF2FE80BEF2FF42F831603132608A038EA
:101FF000F10000300A128A1566230A128A150800B9
:00000001FF
