:060000000A128A11E42F30
:10000A00080083160317610883120313A5008316D9
:10001A000317600883120313A400831603175F08EB
:10002A0083120313A300831603175E0883120313B4
:10003A00A2007308A5007208A4007108A300700842
:10004A00A2002208F4002308F5002408F600250877
:10005A00F70017300310F70CF60CF50CF40CFF3E02
:10006A00031D2F28FF307405A00000307505A1007C
:10007A0020082104031D4228432866282208F40088
:10008A002308F5002408F6002508F70001300310BC
:10009A00F40DF50DF60DF70DFF3E031D4C287708FC
:1000AA00760475047404031D5B285C2861280230F9
:1000BA00F0000030F10092280330F0000030F10027
:1000CA009228200A2104031D6B286C288E282208F6
:1000DA00F4002308F5002408F6002508F700093083
:1000EA000310F40DF50DF60DF70DFF3E031D7528EF
:1000FA007708760475047404031984288628013065
:10010A0087280030F800F9017808F0007908F10032
:10011A0092280430F0000030F10008003F308316C6
:10012A000313CF008030CE000030CD000030CC0069
:10013A00B301B4014B08F3004A08F2004908F10080
:10014A004808F0000030F7000030F6000030F500F3
:10015A000030F4000A168A15CE250A128A110318ED
:10016A00B728B828812AC928831603133A08CF006A
:10017A003908CE003808CD003708CC000130B30763
:10018A000318B40A0030B407413083120313C500C0
:10019A002030C4000030C3000030C20083160313AD
:1001AA004F0883120313C900831603134E088312E0
:1001BA000313C800831603134D0883120313C700E1
:1001CA00831603134C0883120313C6000A128A15F6
:1001DA00BE240A128A1183120313450883160313D5
:1001EA00BA0083120313440883160313B900831257
:1001FA000313430883160313B80083120313420838
:10020A0083160313B7004808A0004908A1004A084A
:10021A00A2004B08A3003708A0023808031C380FB5
:10022A0017291829A1023908031C390F1D291E296B
:10023A00A2023A08031C3A0F23292429A3022308FD
:10024A00F3002208F2002108F1002008F0000A1643
:10025A008A1529240A128A11F31B43297308031DDC
:10026A0044297208031D44297108031D44290230D8
:10027A007002031D4029031C43294429B928831607
:10028A0003133A0883120313DF0083160313390892
:10029A0083120313DE008316031338088312031331
:1002AA00DD0083160313370883120313DC00831659
:1002BA0003134B0883120313E300831603134A083C
:1002CA0083120313E20083160313490883120313EC
:1002DA00E10083160313480883120313E0000A1689
:1002EA008A15B6260A128A11031C7C297D29B92887
:1002FA00831603134808A0004908A1004A08A2006F
:10030A004B08A3004C08A0024D08031C4D0F8E2970
:10031A008F29A1024E08031C4E0F94299529A20287
:10032A004F08031C4F0F9A299B29A3022308F300A5
:10033A002208F2002108F1002008F0000A168A15A6
:10034A0029240A128A11F31BBB297308031DBA292F
:10035A007208031DBA297108031DBA2902307002F6
:10036A00031DB7290318BA29BB29482A8316031380
:10037A004F08CB004E08CA004D08C9004C08C800F7
:10038A00812A413083120313AB002030AA000030C7
:10039A00A9000030A800831603134F088312031321
:1003AA00AF00831603134E0883120313AE0083169D
:1003BA0003134D0883120313AD00831603134C086D
:1003CA0083120313AC000A128A1598200A128A11A2
:1003DA00831203132B0883160313CF00831203130C
:1003EA002A0883160313CE008312031329088316DF
:1003FA000313CD0083120313280883160313CC00BA
:10040A00FF30B3070318B40AFF30B4074808A00046
:10041A004908A1004A08A2004B08A3004C08A00200
:10042A004D08031C4D0F1A2A1B2AA1024E08031C51
:10043A004E0F202A212AA2024F08031C4F0F262AF8
:10044A00272AA3022308F3002208F2002108F10058
:10045A002008F0000A168A1529240A128A11F31BA9
:10046A00472A7308031D462A7208031D462A710883
:10047A00031D462A02307002031D432A0318462A26
:10048A00472A482ABB29831603134B0883120313EE
:10049A00DF00831603134A0883120313DE00831650
:1004AA000313490883120313DD0083160313480854
:1004BA0083120313DC00831603134F0883120313FA
:1004CA00E300831603134E0883120313E200831614
:1004DA0003134D0883120313E100831603134C0818
:1004EA0083120313E0000A168A15B6260A128A1125
:1004FA00031C802A812AC629831203136E088316D5
:10050A000313AD002D08AE00EB1B8C2A8D2A922A0C
:10051A006B08A7006A08A600962A0630A6000030D3
:10052A00A7002708B2002608B1000130B107031856
:10053A00B20A0030B20766302E06031DA52AA62A83
:10054A00C02AB41FA92AAA2AB42A3F30CF00803071
:10055A00CE000030CD000030CC00B301B4016730CA
:10056A002D060319B92ABA2AC02A3308B107031873
:10057A00B20A3408B207BB01BC014B08C0004A08E2
:10058A00BF004908BE004808BD004F08BA004E081F
:10059A00B9004D08B8004C08B7000D2C8316031398
:1005AA004F0883120313AB00831603134E088312FA
:1005BA000313AA00831603134D0883120313A90019
:1005CA00831603134C0883120313A800831603131C
:1005DA00400883120313AF00831603133F088312E4
:1005EA000313AE00831603133E0883120313AD00F0
:1005FA00831603133D0883120313AC000A128A15EB
:10060A0098200A128A11831203132B08C5002A089C
:10061A00C4002908C3002808C2000A168A11A624A1
:10062A000A128A1183120313450883160313C4009E
:10063A0083120313440883160313C300831203139C
:10064A00430883160313C200831203134208831656
:10065A000313C100440883120313AB008316031368
:10066A00430883120313AA00831603134208831252
:10067A000313A90083160313410883120313A80066
:10068A000A128A1522200A128A11831203132908D0
:10069A0083160313B0008312031328088316031367
:1006AA00AF004F0883120313C900831603134E08C1
:1006BA0083120313C800831603134D08831203130E
:1006CA00C700831603134C0883120313C60083164C
:1006DA000313440883120313C50083160313430844
:1006EA0083120313C40083160313420883120313ED
:1006FA00C30083160313410883120313C2000A12AC
:10070A008A15BE240A128A11831203134508DF00D0
:10071A004408DE004308DD004208DC0083160313A8
:10072A00400883120313E300831603133F0883125E
:10073A000313E200831603133E0883120313E10036
:10074A00831603133D0883120313E0000A168A1561
:10075A007B240A128A11831203135F088316031378
:10076A00C000831203135E0883160313BF008312AB
:10077A0003135D0883160313BE00831203135C0878
:10078A0083160313BD00413083120313AB002030DC
:10079A00AA000030A9000030A800831603134F08EE
:1007AA0083120313AF00831603134E088312031335
:1007BA00AE00831603134D0883120313AD0083168C
:1007CA0003134C0883120313AC000A128A159820EB
:1007DA000A128A11831203132B0883160313CF00FC
:1007EA00831203132A0883160313CE0083120313FA
:1007FA00290883160313CD008312031328088316CE
:10080A000313CC000130BB070318BC0A0030BC0735
:10081A003C08803AA0003208803A2002031D172CB7
:10082A0031083B02031C1A2C1B2CD32A403083129A
:10083A000313C500A030C4000030C3000030C2005A
:10084A00831603134F0883120313C9008316031375
:10085A004E0883120313C800831603134D0883122C
:10086A000313C700831603134C0883120313C6002D
:10087A000A128A15BE240A128A1183120313450822
:10088A0083160313C4008312031344088316031345
:10089A00C30083120313430883160313C20083128F
:1008AA000313420883160313C1004008831203137B
:1008BA00DF00831603133F0883120313DE00831637
:1008CA0003133E0883120313DD00831603133D0846
:1008DA0083120313DC0083160313440883120313E1
:1008EA00E30083160313430883120313E2008316FB
:1008FA000313420883120313E1008316031341080A
:10090A0083120313E0000A168A15B6260A128A1100
:10091A000318902C912C9C2C003083160313C400CE
:10092A000030C3000030C2000030C100C52C83165D
:10093A0003134008F3003F08F2003E08F1003D08A7
:10094A00F0004408F7004308F6004208F5004108A1
:10095A00F4000A168A15CE250A128A11031CB62C2F
:10096A00B72CC52C831603132F18BC2CBD2CC52CF1
:10097A000030C4000030C3000030C2000030C100A3
:10098A00831603134408F3004308F2004208F100F7
:10099A004108F0004B08F7004A08F6004908F5003C
:1009AA004808F4000A128A1562220A128A11730888
:1009BA0083160313C0007208BF007108BE007008D6
:1009CA00BD00400883120313DF00831603133F0898
:1009DA0083120313DE00831603133E0883120313E4
:1009EA00DD00831603133D0883120313DC00413034
:1009FA00C5002030C4000030C3000030C200831696
:100A0A0003133A0883120313C90083160313390820
:100A1A0083120313C80083160313380883120313BF
:100A2A00C70083160313370883120313C6000A127A
:100A3A008A15BE240A128A11831203134508E30099
:100A4A004408E2004308E1004208E0000A168A1559
:100A5A00B6260A128A11031C332D342D872D013034
:100A6A0083160313B3070318B40A0030B4074130DE
:100A7A0083120313C5002030C4000030C3000030C5
:100A8A00C200831603133A0883120313C90083169C
:100A9A000313390883120313C80083160313380893
:100AAA0083120313C7008316031337088312031331
:100ABA00C6000A128A15BE240A128A118312031367
:100ACA00450883160313BA008312031344088316D6
:100ADA000313B90083120313430883160313B800E0
:100AEA0083120313420883160313B70066302E06D7
:100AFA00031D802D812D872D0130B1070318B20AFD
:100B0A000030B207831603133A08CF003908CE0023
:100B1A003808CD003708CC003408A5003308A400F3
:100B2A00AC01A801A901BB01BC015D2F8316031307
:100B3A004F0883120313AB00831603134E08831264
:100B4A000313AA00831603134D0883120313A90083
:100B5A00831603134C0883120313A8008316031386
:100B6A00400883120313AF00831603133F0883124E
:100B7A000313AE00831603133E0883120313AD005A
:100B8A00831603133D0883120313AC000A128A1555
:100B9A0098200A128A11831203132B08C5002A0807
:100BAA00C4002908C3002808C2000A168A11A6240C
:100BBA000A128A1183120313450883160313C40009
:100BCA0083120313440883160313C3008312031307
:100BDA00430883160313C2008312031342088316C1
:100BEA000313C100440883120313AB0083160313D3
:100BFA00430883120313AA008316031342088312BD
:100C0A000313A90083160313410883120313A800D0
:100C1A000A128A1522200A128A118312031329083A
:100C2A00803AFF0080307F02031D1D2E0A30280201
:100C3A000318202E212E4B2E8316031344088312E9
:100C4A000313AB0083160313430883120313AA008A
:100C5A0083160313420883120313A900831603138E
:100C6A00410883120313A8000A128A1522200A12C5
:100C7A008A1183120313290883160313B0008312FF
:100C8A000313280883160313AF00512E0930831665
:100C9A000313AF000030B0002C08031D552E562E4A
:100CAA00872EA51F592E5A2E872E4608103E8400DD
:100CBA002E30831780000130C6070318C70A003098
:100CCA00C707FF30B5070318B60AFF30B607013069
:100CDA00AC00872E4608103E84003030831780000F
:100CEA000130C6070318C70A0030C707FF30B50727
:100CFA000318B60AFF30B607FF30A8070318A90A77
:100D0A00FF30A90728082904031D8C2E8D2E6F2E6B
:100D1A004608103E84002F08303E831780000130B9
:100D2A00C6070318C70A0030C707FF30B5070318FC
:100D3A00B60AFF30B6074F0883120313C900831699
:100D4A0003134E0883120313C800831603134D08B6
:100D5A0083120313C700831603134C088312031369
:100D6A00C60083160313440883120313C5008316AF
:100D7A000313430883120313C400831603134208A0
:100D8A0083120313C3008316031341088312031348
:100D9A00C2000A128A15BE240A128A118312031388
:100DAA004508DF004408DE004308DD004208DC0095
:100DBA0083160313400883120313E30083160313F5
:100DCA003F0883120313E200831603133E088312BB
:100DDA000313E100831603133D0883120313E00093
:100DEA000A168A157B240A128A11831203135F08D2
:100DFA0083160313C000831203135E0883160313BA
:100E0A00BF00831203135D0883160313BE00831207
:100E1A0003135C0883160313BD00413083120313C6
:100E2A00AB002030AA000030A9000030A8008316C9
:100E3A0003134F0883120313AF00831603134E08DC
:100E4A0083120313AE00831603134D088312031390
:100E5A00AD00831603134C0883120313AC000A1265
:100E6A008A1598200A128A11831203132B088316F3
:100E7A000313CF00831203132A0883160313CE0029
:100E8A0083120313290883160313CD008312031355
:100E9A00280883160313CC00FF30A4070318A50AF9
:100EAA00FF30A5070130BB070318BC0A0030BC0796
:100EBA003C08803AA0003208803A2002031D672FBE
:100ECA0031083B0203186A2F6B2F7A2F83160313FC
:100EDA004708803AFF0080307F02031D762F4B308F
:100EEA004602031C792F7A2F9B2D4F30831603134A
:100EFA00BB000030BC003B08103E84008317800111
:100F0A001030A0004608A0023B082007F00010306D
:100F1A00F1004708F3004608F2000A128A15012078
:100F2A000A128A118316031346083B02C6004708B1
:100F3A00031C470A3C02C7004508031DA52FA72F1B
:100F4A000130A82F0030A000A1012008BB00210811
:100F5A00BC0045080319B22FB32FBF2FFF30C607B5
:100F6A000318C70AFF30C7074608103E8400450821
:100F7A00831780003B08B5023C08031CB603B6027F
:100F8A00831203136808A8006908A90083160313CB
:100F9A004608103E83120313AA0083160313360869
:100FAA0083120313AC008316031335088312031349
:100FBA00AB000A168A1590250A128A1108008316B0
:100FCA000313EA01EB01EC01ED01EE018317DA30BC
:100FDA008400E4300A168A15E0230A128A111030B6
:100FEA00840060300A168A15E0230A128A118301E6
:060FFA000A168A11912A7B
:101002007108F6007008F50013287608840083172B
:101012000008F4000130F6077508840074088000A7
:101022000130F5070130F2020030031CF303F30232
:10103200720A031D2028730A031D2028212806286E
:1010420008000310831203132A0D2B0DFD007D08E7
:10105200031D2C282D2836280030AB000030AA00B2
:101062000030A9000030A80097282808AC00290801
:10107200AD002A08AE002B08AF001F300310AF0CE2
:10108200AE0CAD0CAC0CFF3E031D3F282C08FC003F
:10109200AA17FF30A805FF30A905FF30AA050030C6
:1010A200AB059630FD02FD1F5728582870287D0891
:1010B200803A973E03185E285F2860282D28013069
:1010C2000310AB0CAA0CA90CA80CFF3E031D61284F
:1010D2000130FD07031D6E286F2860288728203005
:1010E2007D02031C7528762882282D280130AC0049
:1010F2000310A80DA90DAA0DAB0DAC0B7928013078
:10110200FD027D08031D8628872877287C0803199D
:101112008B288C289728A809A909AA09AB09A80A2B
:101122000319A90A0319AA0A0319AB0A08008312B0
:1011320003132F08B9008030B9052F08B00030071B
:10114200C000AE1FA528A628A728401440080319EE
:10115200AB28AC28BC28400A031DB028B128B92806
:101162000030AF000030AE000030AD000030AC0007
:10117200AE17AF01C4280030AF000030AE0000301F
:10118200AD000030AC002B088039B9062B08B00046
:101192003007C100AA1FCE28CF28D0284114410809
:1011A2000319D428D528E528410A031DD928DA28AD
:1011B200E2280030AB000030AA000030A900003065
:1011C200A800AA17AB01ED280030AB000030AA003E
:1011D2000030A9000030A8002B082A0429042804A2
:1011E200031DF428F5280C290030AF000030AE00B2
:1011F2000030AD000030AC008030AE047F30AF0470
:101202003908AF042F08AB002E08AA002D08A90048
:101212002C08A800612A4008031D102911291A2947
:101222000030AB000030AA000030A9000030A80056
:10123200612A4008B000B1013108B3004108300210
:10124200B200031CB30332087F3EBA00330803180E
:10125200013E003EBB002F08B8002E08B7002D0843
:10126200B6002C08B5000030AF000030AE000030F0
:10127200AD000030AC000030BF000030BE000030D6
:10128200BD000030BC00C1018E29410803194A2962
:101292004B296B290130B0000310B50DB60DB70D07
:1012A200B80DB00B4D290130B0000310AC0DAD0DDF
:1012B200AE0DAF0DB00B5629BF1F602961296229FF
:1012C2002C140130B0000310BC0DBD0DBE0DBF0DBE
:1012D200B00B64292B083802031D79292A0837022A
:1012E200031D792929083602031D792928083502A8
:1012F200031C7C297D298C293F172808B50229085F
:10130200031C290FB6022A08031C2A0FB7022B0856
:10131200031C2B0FB8020130C1071A304102031C13
:1013220093299429462938083704360435040319C9
:101332009B299C29BB293C14BB290130B000031016
:10134200AC0DAD0DAE0DAF0DB00BA029BF1FAA297C
:10135200AB29AC292C140130B0000310BC0DBD0D1B
:10136200BE0DBF0DB00BAE29FF30BA070318BB0A82
:10137200FF30BB07AE1FBE29BF299E29C101BF1F77
:10138200C329C429E029FF303C05B000FF303D05E8
:10139200B100FF303E05B2007F303F05B300330895
:1013A2003204310430040319D729D829DB2901304A
:1013B200C100E0292C1CDE29DF29E029D8294108B7
:1013C2000319E429E529162A0130AC070030031875
:1013D2000130AD07003003180130AE0700300318AA
:1013E2000130AF072F1CF629F729162A2C08B00066
:1013F2002D08B1002E08B2002F08B3000130B4004E
:10140200330DB30CB20CB10CB00CB40B012A33087F
:10141200AF003208AE003108AD003008AC00013038
:10142200BA070318BB0A0030BB073B08803AFF002B
:1014320080307F02031D1F2AFF303A02031C222A3A
:10144200232A312AFF3083120313BA000030BB0073
:101452000030AF000030AE000030AD000030AC0014
:10146200831203133B08803AFF0080307F02031D82
:101472003C2A01303A0203183F2A402A4D2A83129D
:101482000313BA01BB010030AF000030AE000030E0
:10149200AD000030AC00B901831203133A08C0005A
:1014A200401C542A552A572AAE17592A7F30AE05B6
:1014B2004008B0000310300CAF003908AF04032914
:1014C20008007308F8008030F805730883120313CC
:1014D200A0002007FA00F21F6F2A702A712A7A14DC
:1014E2007A080319752A762A862A7A0A031D7A2A25
:1014F2007B2A832A0030F3000030F2000030F10032
:101502000030F000F217F3018E2A0030F3000030B1
:10151200F2000030F1000030F0007708F90080306E
:10152200F905790878060319972A982A992A7817CB
:101532007708A0002007F900F61FA02AA12AA22AF4
:10154200791479080319A62AA72AB72A790A031D4A
:10155200AB2AAC2AB42A0030F7000030F600003083
:10156200F5000030F400F617F701BF2A0030F7004B
:101572000030F6000030F5000030F4007A087902FD
:101582000318C42AC52AE92A781FC82AC92ACB2ADD
:101592008030F8067A08FB007908FA007B08F90027
:1015A2007008FB007408F0007B08F4007108FB006F
:1015B2007508F1007B08F5007208FB007608F2005E
:1015C2007B08F6007308FB007708F3007B08F7003E
:1015D200FB017908A000A1012108A3007A082002DA
:1015E200A200031CA3032308803AFF0080307F027D
:1015F200031DFD2A1A302202031C002B012B382B5B
:101602007308720471047004031D082B0A2B013045
:101612000B2B0030FB000030F3000030F2000030F2
:10162200F1000030F0007908FA003E2B7B1C1A2BE7
:101632001B2B242B7B0883120313A0000310200C06
:101642000138FB00262B0310FB0C701C292B2A2BC4
:101652002B2BFB17013083120313A000730DF30C25
:10166200F20CF10CF00CA00B2F2B0130FA077908C9
:101672007A02031C3D2B3E2B172B781B412B422B4E
:101682008D2B7A08031D462B472B502B0030F3007D
:101692000030F2000030F1000030F000BD2C740880
:1016A200F007750803110318013E0319592BF107BE
:1016B200760803110318013E0319602BF20777081D
:1016C20003110318013E0319672BF307731C6A2BDE
:1016D2006B2B452C7B1C6E2B6F2B782B7B0883127C
:1016E2000313A0000310200C0138FB007A2B031017
:1016F200FB0C701C7D2B7E2B7F2BFB170130831282
:101702000313A000730DF30CF20CF10CF00CA00B00
:10171200832B0130FA07452C7308803AFF007708C3
:10172200803A7F02031D9F2B76087202031D9F2BB6
:1017320075087102031D9F2B740870020318A22BF7
:10174200A32BFC2BFF3083120313A000FF30A10058
:10175200FF30A200FF30A3007408A4007508A500A2
:101762007608A6007708A7007008A4027108031C77
:10177200710FBC2BBD2BA5027208031C720FC22B6A
:10178200C32BA6027308031C730FC82BC92BA70215
:101792002408A00725080318250FD02BD12BA10759
:1017A20026080318260FD62BD72BA20727080318C3
:1017B200270AA3072308F3002208F2002108F100F8
:1017C2002008F0008030F8067B03FF3AFB007B081C
:1017D200031DEC2BED2B0A2C0130F007003003180F
:1017E2000130F107003003180130F207003003180E
:1017F2000130F3070A2C7408F0027508031C750FF8
:10180200F1027608031C760FF2027708031C770FA9
:10181200F3027308720471047004031D112C122C5C
:10182200412C7B08031D162C172C412C0030F30091
:101832000030F2000030F1000030F000BD2C013029
:1018420083120313A0000310F00DF10DF20DF30D3E
:10185200A00B242CFB1F2E2C2F2C302C70147B1C45
:10186200332C342C382C03147B0DFB003A2C031040
:10187200FB0D7A0803193E2C3F2C412C0130FA0251
:10188200F21F442C452C202CF901FB1F492C4A2C19
:10189200582C7B087F3903194F2C502C532C0130C4
:1018A200F900582C701C562C572C582C502C7908A7
:1018B20003195C2C5D2C912C0130F00700300318C9
:1018C2000130F107003003180130F207003003182D
:1018D2000130F307731C6E2C6F2C912C700883124D
:1018E2000313A0007108A1007208A2007308A300EC
:1018F2000130A400230DA30CA20CA10CA00CA40B7C
:101902007B2C2308F3002208F2002108F1002008B2
:10191200F0007A0A03198E2C8F2C912C0130FA07D1
:101922007A0A0319952C962C9B2C7A08031D9A2C63
:101932009B2CA92C0030F3000030F2000030F100A3
:101942000030F0007A08031DA72CA82CA92CF8015E
:101952007A1CAC2CAD2CAF2CF217B12C7F30F205D7
:101962007A0883120313A0000310200CF300F81F5F
:10197200BB2CBC2CBD2CF3170800831203134508A3
:10198200CF008030CF054508CA004A07D500C41FE2
:10199200CB2CCC2CCD2C551455080319D12CD22C80
:1019A200E12C550A031DD62CD72CDF2C0030C500A4
:1019B2000030C4000030C3000030C200C417E92C5C
:1019C2000030C5000030C4000030C3000030C20047
:1019D20049088039CF064908CA004A07D400C81FFF
:1019E200F32CF42CF52C541454080319F92CFA2C6A
:1019F200092D540A031DFE2CFF2C072D0030C900AF
:101A02000030C8000030C7000030C600C817112DD2
:101A12000030C9000030C8000030C7000030C600E6
:101A220054080319152D162D1B2D5508031D1A2DAB
:101A32001B2D242D0030C5000030C4000030C3002F
:101A42000030C200FF2F4208F00048080A168A152B
:101A5200EA240A128A15710883120313DB00700844
:101A6200DA005A08CA00CB01CC01CD014D08D300DF
:101A72004C08D2004B08D1004A08D0005B08CA00CB
:101A8200CB01CC01CD014D08D9004C08D8004B0840
:101A9200D7004A08D6004308F00047080A168A15FC
:101AA200EA240A128A15710883120313DB007008F4
:101AB200DA005A08CA00CB01CC01CD014A08D0078E
:101AC2004B0803110318013E0319682DD1074C0876
:101AD20003110318013E03196F2DD2074D0803119C
:101AE2000318013E0319762DD3075B08CA00CB0108
:101AF200CC01CD014A08D6074B0803110318013E59
:101B02000319842DD7074C0803110318013E03194A
:101B12008B2DD8074D0803110318013E0319922D8E
:101B2200D9074408F00046080A168A15EA240A1260
:101B32008A15710883120313DB007008DA005A0851
:101B4200CA00CB01CC01CD014A08D0074B080311D2
:101B52000318013E0319AE2DD1074C0803110318D7
:101B6200013E0319B52DD2074D0803110318013E9A
:101B72000319BC2DD3075B08CA00CB01CC01CD01F0
:101B82004A08D6074B0803110318013E0319CA2D50
:101B9200D7074C0803110318013E0319D12DD807AA
:101BA2004D0803110318013E0319D82DD907083037
:101BB200CA000310D00DD10DD20DD30DCA0BDA2DF0
:101BC2004308F00046080A168A15EA240A128A1502
:101BD200710883120313DB007008DA005A08CA0086
:101BE2005B08CB00CC01CD014A08D0074B0803119A
:101BF2000318013E0319FE2DD1074C0803110318E7
:101C0200013E0319052ED2074D0803110318013EA8
:101C120003190C2ED3074208F00047080A168A154A
:101C2200EA240A128A15710883120313DB00700872
:101C3200DA005A08CA005B08CB00CC01CD014A0881
:101C4200D0074B0803110318013E0319292ED107AF
:101C52004C0803110318013E0319302ED2074D0818
:101C620003110318013E0319372ED3070830CA00A7
:101C72000310D00DD10DD20DD30DCA0B392E42084F
:101C8200F00046080A168A15EA240A128A15710813
:101C920083120313DB007008DA005A08CA005B08DB
:101CA200CB00CC01CD014A08D0074B080311031821
:101CB200013E03195D2ED1074C0803110318013EA2
:101CC2000319642ED2074D0803110318013E0319AC
:101CD2006B2ED3074308F00048080A168A15EA2437
:101CE2000A128A15710883120313DB007008DA00E6
:101CF2005A08CA005B08CB00CC01CD014A08D607BE
:101D02004B0803110318013E0319882ED7074C080C
:101D120003110318013E03198F2ED8074D08031132
:101D22000318013E0319962ED9074408F00047080C
:101D32000A168A15EA240A128A15710883120313F5
:101D4200DB007008DA005A08CA005B08CB00CC013D
:101D5200CD014A08D6074B0803110318013E0319A7
:101D6200B32ED7074C0803110318013E0319BA2EEC
:101D7200D8074D0803110318013E0319C12ED907D4
:101D82004408F00048080A168A15EA240A128A153D
:101D9200710883120313DB007008DA005A08CA00C4
:101DA2005B08CB00CC01CD0108300310CA0DCB0D6E
:101DB200CC0DCD0DFF3E031DD62E4A08D6074B088B
:101DC20003110318013E0319E72ED7074C0803112C
:101DD2000318013E0319EE2ED8074D08031103180C
:101DE200013E0319F52ED9075008CA005108CB004D
:101DF2005208CC005308CD0018300310CD0CCC0C87
:101E0200CB0CCA0CFF3E031DFE2E4A08D6074B0818
:101E120003110318013E03190F2FD7074C080311B2
:101E22000318013E0319162FD8074D080311031892
:101E3200013E03191D2FD9070830CA000310D00D27
:101E4200D10DD20DD30DCA0B1F2F55085407CA004E
:101E5200CB01CB0D4A08823EDA004B080318013E43
:101E6200FF3EDB00512F0130CA000310D60DD70D03
:101E7200D80DD90DCA0B362FD31F402F412F422F19
:101E820056140130CA000310D00DD10DD20DD30D5E
:101E9200CA0B442FFF30DA070318DB0AFF30DB07D7
:101EA200D81F542F552F342FD401D31F592F5A2FF7
:101EB200762FFF305005CA00FF305105CB00FF30AE
:101EC2005205CC007F305305CD004D084C044B0425
:101ED2004A0403196D2F6E2F712F0130D400762F13
:101EE200561C742F752F762F6E2F540803197A2FD4
:101EF2007B2FAC2F0130D607003003180130D707F3
:101F0200003003180130D807003003180130D90718
:101F1200591C8C2F8D2FAC2F5608CA005708CB00A6
:101F22005808CC005908CD000130CE004D0DCD0C23
:101F3200CC0CCB0CCA0CCE0B972F4D08D9004C08F9
:101F4200D8004B08D7004A08D6000130DA07031838
:101F5200DB0A0030DB075B08803AFF0080307F023B
:101F6200031DB52FFF305A02031CB82FB92FC42FFF
:101F72007F3083120313D9008030D8000030D7009D
:101F82000030D600F52F831203135B08803AFF005E
:101F920080307F02031DCF2F01305A020318D22F47
:101FA200D32FDF2F003083120313D9000030D80063
:101FB2000030D7000030D600CF01F52F8312031373
:101FC2005A08D500FF30D605FF30D7057F30D80537
:101FD2000030D905551CEE2FEF2FF02FD8175508DA
:101FE200CA0003104A0CD9004F08D9045908C50089
:101FF2005808C4005708C3005608C2000800FF1B57
:102002000A2883137F1883170008840A0319FF0A1A
:10201200080010308A000408840A820700342D3434
:102022002D342D342D342D342D342D342D342D34A6
:102032002D342D342D342D342D342D342D342D3496
:102042002D342D342D342D342D342D342D342D3486
:102052002D342D342D342D342D342D342D342D3476
:102062002D342D342D342D342D342D342D342D3466
:102072002D342D342D342D342D342D340A340D3499
:10208200003432342D345B344D34503458343434CB
:102092003234353430345D34203443347534723460
:1020A200723465346E34743420345034723465348E
:1020B200733473347534723465343A3420342534CD
:1020C2002E343234663420346B34503461340A3462
:1020D2000D340034503472346534733473347534CF
:1020E200723465342034533465346E3473346F344F
:1020F20072342034533479347334743465346D3427
:10210200203449346E3469347434693461346C3443
:1021120069347A34653464342E340A340D3400342C
:1021220031342D345B344D345034583441343634E8
:102132003134313435344134363455345D3420341D
:102142005034723465347334733475347234653494
:102152003A34203425342E343234663420346B340D
:10216200503461340A340D34003433342D345B344A
:102172004D345034583434343134313435344134BC
:102182005D342034503472346534733473347534AE
:10219200723465343A34203425342E343234663481
:1021A20020346B34503461340A340D3400346934D1
:0E21B2006E34663400346E3461346E340034A2
:1021C400F901FA01760884008313000884000A16D2
:1021D4008A110A200A168A112A3A031DF228F328C2
:1021E400212976088400013080077708840083174A
:1021F4000008FF00023080077F0884008313000872
:10220400F900840A0008FA0032297A08F1007908F2
:10221400F0000A30F2000030F3000A168A159F24F9
:102224000A168A1178087007F90000300318013083
:102234007107FA007608840001308313800776085A
:102244008400000884000A168A110A200A168A11DA
:10225400D03EF8000A307802031C312932290729BC
:102264007A08F7007908F600080002300A168A1581
:1022740057240A168A11710883120313E90070089F
:10228400E8004030C500A330C4003330C30033300D
:10229400C2004430AB007F30AA00C030A900003037
:1022A400A8006808F0006908F100F201F3010030A9
:1022B4000A168A11DD210A168A1173088312031380
:1022C400AF007208AE007108AD007008AC000A12CD
:1022D4008A1598200A168A11831203132B08C90041
:1022E4002A08C8002908C7002808C6000A128A1547
:1022F400BE240A168A11831203134508E300440816
:10230400E2004308E1004208E0003D30AB003C300D
:10231400AA000130A900A330A8003D30F300C23068
:10232400F2008F30F1005C30F0006308F7006208BF
:10233400F6006108F5006008F4000A128A156222AA
:102344000A168A11730883120313AF007208AE00D1
:102354007108AD007008AC000A128A1598200A169C
:102364008A11831203132B08E7002A08E6002908C0
:10237400E5002808E4004030F300B030F2000030FB
:10238400F1000030F0006708F7006608F600650801
:10239400F5006408F4000A128A1562220A168A11EA
:1023A400730883120313DF007208DE007108DD0076
:1023B4007008DC000800F80078080319E229E32912
:1023C400F729F31FE629E729F7297009FA007109AB
:1023D400FB007209FC007309FD00FA0A0319FB0AE9
:1023E4000319FC0A0319FD0AFF297308FD0072088A
:1023F400FC007108FB007008FA0073087204710491
:102404007004031D062A072A102A0030F300003046
:10241400F2000030F1000030F000902A9630F9000C
:102424001E2A0130F90701300310FD0CFC0CFB0CD3
:10243400FA0CFF3E031D162AFE307D05031D232AD8
:10244400242A132A3E2A0130F9070130FA07003002
:1024540003180130FB07003003180130FC0700307B
:1024640003180130FD0701300310FD0CFC0CFB0CBC
:10247400FA0CFF3E031D362AFF307D05031D432A57
:10248400442A252A502A0130F9020130F4000310AD
:10249400FA0DFB0DFC0DFD0DF40B492AFC1B532A10
:1024A400542A5A2A023079020318592A5A2A452AE8
:1024B40079185D2A5E2A662AFF30FA05FF30FB058B
:1024C4007F30FC05FF30FD050310F90C7908F4009A
:1024D400F501F601F70118300310F40DF50DF60DB2
:1024E400F70DFF3E031D6E2A7408FA047508FB04F9
:1024F4007608FC047708FD0478080319822A832AE5
:10250400882AF31F862A872A882AFD177D08F30064
:102514007C08F2007B08F1007A08F00008000A1633
:102524008A1515240A168A110A168A1503240A160E
:102534008A115C30F1008030F2000A168A15C42436
:102544000A168A110A168A155A270A168A1183123C
:1025540003135F0883160317D100831203135E0865
:1025640083160317D000831203135D088316031721
:10257400CF00831203135C0883160317CE009C302C
:1025840083160313E0008230E10083160317510819
:1025940083160313E50083160317500883160313E9
:1025A400E400831603174F0883160313E30083160E
:1025B40003174E0883160313E2000A168A156525CD
:1025C4000A168A119C30F1000130F2000A168A15AD
:1025D400C4240A168A110A168A11C8260A168A11F0
:1025E400831203136B0883160317D5008312031396
:1025F4006A0883160317D400831203136908831629
:102604000317D30083120313680883160317D20039
:102614009C3083160313E0003330E1008316031764
:10262400550883160313E50083160317540883160D
:102634000313E40083160317530883160313E300FC
:1026440083160317520883160313E2000A168A1529
:1026540065250A168A119C30F1000130F2000A1631
:102664008A15C4240A168A110A168A1137210A16F1
:102674008A11831203135F0883160317D900831288
:1026840003135E0883160317D800831203135D082F
:1026940083160317D700831203135C0883160317EA
:1026A400D6009C3083160313E000A730E1008316A4
:1026B4000317590883160313E500831603175808F4
:1026C40083160313E40083160317570883160313B2
:1026D400E30083160317560883160313E2000A1651
:1026E4008A1565250A168A119C30F1000130F20022
:1026F4000A168A15C4240A168A110130F1008030A2
:10270400F2000A168A15C4240A168A11293083167F
:102714000313E9009630E8007E30E700E70B902BC6
:10272400E80B902BE90B902B0000A42A0A128A11C3
:1027340000288316031352088400831300088400BE
:102744000A168A110A200A168A11253A031DAB2B90
:10275400AC2B8C2C5208840001308007831603179D
:10276400E201E301003083160313EE00FF30EA00B8
:10277400FF30EB0052088400000884000A168A1116
:102784000A200A168A112E3A031DC92BCA2BDD2BE7
:1027940052088400013080075208F6005308F700FD
:1027A4000A168A11E2200A168A117708831603137F
:1027B400EB007608EA005208840083130008DB006B
:1027C4005B0884000A168A110A200A168A11DA00A4
:1027D400F32B0130DB07FE2B6C30DA00FE2BDA0121
:1027E400FE2B5A084C3A0319EB2B2A3A0319EE2B09
:1027F4000A3A0319EB2BF12B5B0884000A168A11A1
:102804000A200A168A11663A031D092C0A2C842C04
:10281400372C5308840083170008FF000430800716
:102824007F08840083130008D600840A0008D700B8
:10283400840A0008D800840A0008D9003F2C5308F1
:10284400840083170008FF00043080077F08840099
:1028540083130008D600840A0008D700840A0008FD
:10286400D800840A0008D9003F2C5A084C3A0319AE
:10287400212C203A03190B2C3F2C520884005B08AE
:10288400013E8000792C500883120313E80083165C
:102894000313510883120313E90083160313590821
:1028A40083120313ED0083160313580883120313D2
:1028B400EC0083160313570883120313EB008316EB
:1028C4000313560883120313EA00831603135B08E9
:1028D40084000A168A110A200A168A118312031325
:1028E400EE000A168A11B5250A168A11A52C5B0872
:1028F40084000A168A110A200A168A11663A0319F4
:10290400452C842C8316031352088400013083134E
:102914008007A52C52088400000884000A168A1136
:102924000A200A168A11D400D5015408F00055086B
:10293400F1005008F2005108F3000A168A151C260B
:102944000A168A11842C0800831603175D08831263
:102954000313D500831603175C0883120313D400F2
:10296400831603175B0883120313D300831603171C
:102974005A0883120313D2004508D5004408D40032
:102984004308D3004208D2005208C6005308C700C7
:102994005408C8005508C90017300310C90CC80CE6
:1029A400C70CC60CFF3E031DCF2CFF304605CA00E2
:1029B40000304705CB004A08813ED0004B0803187D
:1029C400013EFF3ED1005108803AFF0080307F0273
:1029D400031DEE2C17305002031CF12CF22CF32CA7
:1029E400B42D83120313D11BF82CF92C692D500A32
:1029F400FF00FF30C600FF30C7007F30C800003042
:102A0400C900092D490DC90CC80CC70CC60CFF0B15
:102A1400042D4908CF004808CE004708CD004608D9
:102A2400CC004C085205C6004D085305C7004E089B
:102A34005405C8004F085505C9004908480447040F
:102A44004604031D262D272D282DF22C5208C600DE
:102A54005308C7005408C8005508C9001F300310A4
:102A6400C90CC80CC70CC60CFF3E031D312D490808
:102A74004804470446040319402D412D582D4C08A1
:102A8400D2074D0803110318013E03194A2DD30739
:102A94004E0803110318013E0319512DD4074F08A2
:102AA40003110318013E0319582DD5074C09C6001C
:102AB4004D09C7004E09C8004F09C9004608D20590
:102AC4004708D3054808D4054908D505AC2D520854
:102AD400C6005308C7005408C8005508C9001F3071
:102AE4000310C90CC80CC70CC60CFF3E031D722D85
:102AF4004908480447044604031D812D822D8B2D6B
:102B04000030D5000030D4000030D3000030D200B3
:102B1400AC2D5208C6005308C7005408C800550815
:102B2400C90001300310C60DC70DC80DC90DFF3E05
:102B3400031D942D49084804470446040319A32D92
:102B4400A42DAC2DBF30D5008030D4000030D3008C
:102B54000030D2005508C5005408C4005308C3000F
:102B64005208C200080083160313C501831203131D
:102B74006D0883160313CB00831203136C088316AA
:102B84000313CA00831203136B0883160313C900CB
:102B9400831203136A0883160313C8004B088312B5
:102BA4000313DF00831603134A0883120313DE00A2
:102BB40083160313490883120313DD0083160313DA
:102BC400480883120313DC000030E3000030E20005
:102BD4000030E1000030E0000A168A15B6260A1615
:102BE4008A110318F62DF72D122E013083160313C4
:102BF400C5004B08F3004A08F2004908F1004808F0
:102C0400F0000A168A15E8230A168A117308831637
:102C14000313CB007208CA007108C9007008C80009
:102C240083160313C601C7018316031763088316AB
:102C34000313B60083160317620883160313B50043
:102C440045080319262E272E372E4508031D2B2E43
:102C54002C2E312E2B30AA000030AB00352E2D3017
:102C6400AA000030AB002A08C5004B08F3004A084C
:102C7400F2004908F1004808F0000A128A110620FF
:102C84000A168A1170037104031D492E4A2E8F2ED1
:102C94008316031345080319502E512E612E45083F
:102CA400831203179000FF3083160313B50703182C
:102CB400B60AFF30B6070130C6000030C700460828
:102CC400103EF000C930F1000A168A153E240A1697
:102CD4008A11FD3083160313B5070318B60AFF30B3
:102CE400B607831203136808A8006908A900103006
:102CF400AA0083160313360883120313AC00831649
:102D04000313350883120313AB000A168A159025A2
:102D14000A168A110A128A11E32F831603134B0829
:102D2400F3004A08F2004908F1004808F0000A12CA
:102D34008A1106200A168A1170087104031DA32E35
:102D4400A62E0A128A119328831603134508031921
:102D5400AC2EAD2EBD2E4508831203179000FF3014
:102D640083160313B5070318B60AFF30B6070130FC
:102D7400C6000030C7004608103EF000CD30F10018
:102D84000A168A153E240A168A116B2E01300A1679
:102D94008A1557240A168A11710883160313A5008D
:102DA4007008A400403083120313C500A030C4008F
:102DB4000030C3000030C2004430AB007F30AA00B2
:102DC400C030A9000030A800831603132408F000C3
:102DD4002508F100F201F30100300A168A11DD2101
:102DE4000A168A11730883120313AF007208AE0027
:102DF4007108AD007008AC000A128A1598200A16F2
:102E04008A11831203132B08C9002A08C800290851
:102E1400C7002808C6000A128A15BE240A168A1199
:102E240083120313450883160313A30083120313A9
:102E3400440883160313A200831203134308831662
:102E44000313A10083120313420883160313A00083
:102E54003C3083120313AB009A30AA000230A9005D
:102E64007530A800BD30F3002330F200D730F100F4
:102E74000A30F000831603132308F7002208F60033
:102E84002108F5002008F4000A128A1562220A16A5
:102E94008A11730883120313AF007208AE0071081D
:102EA400AD007008AC000A128A1598200A168A111F
:102EB400831203132B0883160313A900831203132D
:102EC4002A0883160313A800831203132908831600
:102ED4000313A70083120313280883160313A60001
:102EE4006C08F0006D08F1000030F11BFF30F200B7
:102EF400F30001300A168A11DD210A168A117308BB
:102F040083120313DF007208DE007108DD0070080D
:102F1400DC0083160313290883120313E3008316CA
:102F24000313280883120313E200831603132708EC
:102F340083120313E1008316031326088312031379
:102F4400E0000A168A15B6260A168A110318AB2F52
:102F5400AC2FDE2F831603132908F7002808F60088
:102F64002708F5002608F400C130F3002030F200F1
:102F74000030F1000030F0000A128A1562220A16AD
:102F84008A11730883120313AB007208AA00710834
:102F9400A9007008A8000A128A1522200A168A11AC
:102FA40083120313290883160313ED0083120313FA
:102FB400280883160313EC00C130F3002030F2001C
:102FC4000030F1000030F000831603132908F700E5
:102FD4002808F6002708F5002608F4000A128A15C6
:102FE40062220A168A11730883120313EB00720813
:0C2FF400EA007108E9007008E80008001D
:1037B4000030831603139818013008006400800158
:1037C400840A0406031900340406E12B7308720406
:1037D400710470040319EF2BF02BF22B8030F306E5
:1037E4000800F0000A168A15DA230A168A15003A28
:1037F4000319FD2BFE2BF42B70088312031399007D
:1038040008008316031318156730990018128312E1
:103814000313981783160313071387179816831235
:10382400031318160800073083160313850080302D
:103834009F004130831203139F003430F100F130B4
:10384400F000F00B232CF10B232C282C0800F31B85
:103854002C2C2D2C2E2C3D2C7009F0007109F1001C
:103864007209F2007309F300F00A0319F10A03194B
:10387400F20A0319F30A08007008F2000130F10794
:10388400FF30710784000A168A110A200A168A1565
:10389400FF007208F20A84007F0883178000000882
:1038A400031D552C562C402C0800F4007408F2001B
:1038B400F20DF20DF20D831203131F087206C739BD
:1038C40072069F000B30F3006230F200F20B682C9A
:1038D400F30B682C0000831203131F151F19732C9C
:1038E400742C702C1E08F100831603131E08F000BC
:1038F4000800803083120313DF066308F3006208B4
:10390400F2006108F1006008F0005F08F7005E084B
:10391400F6005D08F5005C08F4000A128A156222BC
:103924000A168A15730883120313DF007208DE0077
:103934007108DD007008DC000800F401F501701C5A
:10394400A42CA52CAB2C7208F4070318F50A7308F1
:10395400F50701300310F20DF30DFF3E031DAC2CEF
:1039640001300310F10CF00CFF3E031DB32C700862
:103974007104031DBE2CBF2CA12C7508F100740822
:10398400F0000800D92C7208FF00710884000A16A0
:103994008A1100200A168A150A168A15F3230A16B4
:1039A4008A150130F1070318F20A0030F207720891
:1039B40083120313FF00710884000A168A11002081
:1039C4000A168A15003A031DE82CE92CC52C0800B8
:1039D400F800F401F5017008F200F3017208F60032
:1039E4007308F700781CF72CF82CFE2C7608F407E3
:1039F4000318F50A7708F50701300310F60DF70DE3
:103A0400FF3E031DFF2C0310F80C7808031D0B2D3B
:103A14000C2DF42C7508F1007408F00008008316CE
:103A240003135E0883120313EF00272D8316031379
:103A34005C08D0005D08D1006F30D2005F08D3006D
:103A44000A168A119B230A168A15831203136F0818
:103A540084000A168A110A200A168A15003A031DE0
:103A6400342D352D182D83160313DC01DD010800D8
:103A740083120313A601A701572D2508A300A4014F
:103A84002308F0002408F1002108F2002208F300C2
:103A94000A168A151C260A168A1501308312031386
:103AA400A6070318A70A0030A70726082007A300C3
:103AB4002308840083170008A5002508031D632D2F
:103AC400642D3F2D0800E2308316031790008316FF
:103AD40003136008831603179100013092009301C9
:103AE40094019A019B01913083160313DC00013089
:103AF400DD006108DE009030DF000A168A1511250A
:103B04000A168A158316031713088316031360070E
:103B1400E6006608840083178001080083120313FB
:103B2400AC1F952D962D982DAB01AC01AD01AE01C6
:103B3400B22D2030F0000030F10083120313280866
:103B4400F2002908F3000A168A151C260A168A159B
:103B5400013083120313AD070318AE0A0030AE0719
:103B64002E08803AFD002C08803A7D02031DBC2DEE
:103B74002B082D02031CBF2DC02D9B2D8312031374
:103B84002A08A0002808A1002908A2000A168A15FC
:103B94003A250A168A15080000307005F80000302E
:103BA4007105F90080307205FA007F307305FB005F
:103BB4007B087A0479047804031DE12DE22DEA2DB3
:103BC4000030F3000030F2000030F1000030F0006B
:103BD40000307405F80000307505F9008030760572
:103BE400FA007F307705FB007B087A0479047804B7
:103BF400031DFD2DFE2D062E0030F7000030F600CB
:103C04000030F5000030F40077087306031D142E0D
:103C140076087206031D142E75087106031D142EF2
:103C2400740870060319172E182E1A2E03101B2E53
:103C340003140800720873040319212E222E282E5F
:103C440072087304031D272E282E2F2E70080A12C3
:103C54008A1105200A168A15B52E7208093EF40049
:103C640073080318013E003EF500740884008317AE
:103C7400751C83130008F600840A0008F700760810
:103C840077040319462E472E792E7208093EF40054
:103C940073080318013E003EF5007408840083177E
:103CA400751C83130008F600840A0008F7007208E4
:103CB400023EF80073080318013E003EF90078083C
:103CC40084008317791C83130008FA00840A00080F
:103CD400FB007B08803AFC007708803A7C02031DD5
:103CE400752E76087A020318782E792EB52E72086E
:103CF40084008317731C83130008F400840A0008EB
:103D0400F5007208023EF60073080318013E003EF7
:103D1400F700760884008317771C83130008740760
:103D2400F9007508F8000318F80A801F9A2EF803A2
:103D34007808FA007908840083177A1C83137008C2
:103D440080007208023EF40073080318013E003E2E
:103D5400F500740884008317751C831301308007F1
:103D6400840A0318800A08000030831203135C05D8
:103D7400E40000305D05E50080305E05E6007F303C
:103D84005F05E7006708660465046404031DCB2E21
:103D9400CC2ED42E0030DF000030DE000030DD00F9
:103DA4000030DC0000306005E40000306105E5000F
:103DB40080306205E6007F306305E700670866042B
:103DC40065046404031DE72EE82EF02E0030E300A2
:103DD4000030E2000030E1000030E000DF1FF32E8D
:103DE400F42E182F0030E4000030E5000030E60027
:103DF4008030E7005C08E4025D08031C5D0F032FBC
:103E0400042FE5025E08031C5E0F092F0A2FE60249
:103E14005F08031C5F0F0F2F102FE7026708DF00F6
:103E24006608DE006508DD006408DC00E31F1B2F64
:103E34001C2F402F0030E4000030E5000030E60085
:103E44008030E7006008E4026108031C610F2B2F37
:103E54002C2FE5026208031C620F312F322FE60279
:103E64006308031C630F372F382FE7026708E3004A
:103E74006608E2006508E1006408E0008030DF06BF
:103E84008030E30663085F02031D522F62085E025E
:103E9400031D522F61085D02031D522F60085C024E
:103EA4000318552F562F582F0310592F03140800A9
:103EB40000300A168A1557240A168A1571088312C7
:103EC4000313E9007008E8004030C500A030C400C6
:103ED4000030C3000030C2004430AB007F30AA0081
:103EE400C030A9000030A8006808F0006908F1009B
:103EF400F201F30100300A168A11DD210A168A152F
:103F0400730883120313AF007208AE007108AD008A
:103F14007008AC000A128A1598200A168A158312B2
:103F240003132B08C9002A08C8002908C700280859
:103F3400C6000A128A15BE240A168A1583120313B0
:103F44004508E3004408E2004308E1004208E000B9
:103F54003D30AB003B30AA00CD30A9003630A8007C
:103F64003D30F300DD30F2002F30F1001B30F00063
:103F74006308F7006208F6006108F5006008F400C1
:103F84000A128A1562220A168A1573088312031309
:103F9400AF007208AE007108AD007008AC000A12E0
:103FA4008A1598200A168A15831203132B08E70032
:103FB4002A08E6002908E5002808E4004130F30057
:103FC4002030F2000030F1000030F0006708F70004
:103FD4006608F6006508F5006408F4000A128A15FC
:103FE40062220A168A15730883120313DF0072080B
:0C3FF400DE007108DD007008DC00080031
:02400E00723FFF
:00000001FF
